:020000040800F2
:10000000887D0320C90200089D1F00083B150008D9
:10001000991F0008DB040008753600080000000086
:100020000000000000000000000000000D020008B9
:100030003905000800000000610200082D250008B5
:10004000E3020008E3020008E3020008E3020008FC
:10005000E3020008E3020008E3020008E3020008EC
:10006000E3020008E3020008E3020008E1040008DC
:10007000E3020008E3020008E3020008E3020008CC
:10008000E3020008E3020008E3020008E3020008BC
:10009000E3020008E3020008E3020008E3020008AC
:1000A000E3020008E3020008E3020008E30200089C
:1000B000E3020008E3020008E3020008E30200088C
:1000C000E3020008E3020008E3020008E30200087C
:1000D000E3020008B9350008E535000815360008C8
:1000E000E3020008E3020008E3020008E30200085C
:1000F000E3020008E3020008E3020008E30200084C
:10010000E3020008E3020008E3020008E30200083B
:10011000A92F0008D92F0008E3020008E302000815
:1001200019050008E3020008E3020008E3020008E2
:10013000E3020008E3020008E3020008E30200080B
:10014000E3020008E3020008E3020008E3020008FB
:1001500029050008E3020008E3020008453600080C
:10016000E3020008E3020008E3020008E3020008DB
:10017000E3020008E3020008E302000800000000B8
:10018000E3020008E30200082930000859300008A3
:10019000E3020008E3020008E3020008E3020008AB
:1001A000E3020008E3020008E3020008E30200089B
:1001B000E3020008E3020008E3020008E30200088B
:1001C000E3020008E3020008E3020008E30200087B
:1001D000E3020008E3020008E302000871210008BE
:1001E000E3020008E3020008E3020008E30200085B
:1001F000E3020008E3020008DFF80CD000F030F959
:1002000000480047E5880008887D03202B4B1968CB
:100210000868B0E8F04F80F30988BFF36F8F4FF0A4
:10022000000080F311887047000000000648006855
:10023000006880F3088862B661B6BFF34F8FBFF3E2
:100240006F8F00DF00BF00BF08ED00E0DFF80C009B
:10025000016841F470010160704700BF88ED00E063
:10026000EFF30980BFF36F8F144B1A681EF0100F65
:1002700008BF20ED108A20E9F04F106008B44FF05D
:10028000E00080F31188BFF34F8FBFF36F8F0AF048
:1002900053F94FF0000080F3118808BC1968086812
:1002A000B0E8F04F1EF0100F08BFB0EC108A80F3DA
:1002B0000988BFF36F8F704700BF00BF9400022012
:1002C000EFF3058070470000064880470648004766
:1002D000FEE7FEE7FEE7FEE7FEE7FEE7FEE7FEE7F6
:1002E000FEE7FEE735250008F90100082DE9F05F7B
:1002F0000546002092469B46884606468146402495
:100300001BE0284641464746224600F099F85346EE
:100310005A46C01A914110D311461846224600F0A1
:1003200080F82D1A67EB01084F4622460120002174
:1003300000F077F817EB00094E41201EA4F10104EC
:10034000DFDC484631462A464346BDE8F09FA0F12F
:100350004101192900D82030704740EA01039B076A
:1003600003D009E008C9121F08C0042AFAD203E02A
:1003700011F8013B00F8013B521EF9D27047D2B28E
:1003800001E000F8012B491EFBD270470022F6E77E
:1003900010B513460A4604461946FFF7F0FF2046FB
:1003A00010BD30B505462A460B4612F8010B13F86E
:1003B000014B08B1A042F8D01CB1002802D06D1C3E
:1003C000F1E7284630BDCAB2401E10F8011F8A422C
:1003D00002D00029F9D100207047421C10F8011BFF
:1003E0000029FBD1801A704710B5002200E0521C92
:1003F000835C8C5CA34201D1002BF8D1D8B2E1B26E
:10040000401A10BD30B505460020034600E05B1CD5
:10041000934205D2EC5CC85C201A01D1002CF6D1C5
:1004200030BD202A04DB203A00FA02F10020704798
:100430009140C2F1200320FA03F319439040704722
:10044000202A04DB203A21FA02F00021704721FA29
:1004500002F3D040C2F12002914008431946704790
:10046000064C074D06E0E06840F0010394E8070001
:1004700098471034AC42F6D3FFF7C2FE04BC000824
:1004800034BC000870B58C1810F8015B15F0070338
:1004900001D110F8013B2A1106D110F8012B03E01D
:1004A00010F8016B01F8016B5B1EF9D12B0705D425
:1004B0000023521E0DD401F8013BFAE710F8013B6E
:1004C000CB1A921C03E013F8015B01F8015B521E8A
:1004D000F9D5A142D8D3002070BD00BFFEE70000CF
:1004E00010B500BF0A48806840F0200008498860C5
:1004F00000BF00BF0846806840F01000886000BF61
:10050000002211460348006808F0F2FB10BD00000D
:10051000006002405801022010B50249C86B00F08B
:100520003FF810BD386A032010B50249086C00F08E
:1005300037F810BD386A03207047000010B50AF084
:10054000C7FB0949096888420CD10AF0DDFB07495D
:100550000968401A064908600648006809680844A6
:100560000449086010BD0000E8000220F0000220ED
:10057000F4000220F8000220014691F8350002281C
:1005800003D08020486501207047052081F83500A0
:100590000868006820F001000A6810600020F3E796
:1005A000F8B50446002000908D4800684FF41651BD
:1005B000B0FBF1F7A56D2E6894F85C100820884018
:1005C000304098B12068006800F0040070B12068E5
:1005D000006820F004002168086094F85C1008208E
:1005E0008840A860606D40F00100606594F85C1080
:1005F0007C488840304068B12068406900F0800045
:1006000040B194F85C1077488840A860606D40F075
:100610000200606594F85C107248C01C884030404D
:1006200070B12068006800F0020048B194F85C10D6
:100630006C48C01C8840A860606D40F00400606594
:1006400094F85C1010208840304078B3206800682F
:1006500000F0080050B394F85C1010208840A860A7
:100660002068006800F4802080B12068006800F4F1
:10067000002028B9206CC8B12046216C884715E0BD
:10068000A06C98B12046A16C88470FE020680068F4
:1006900000F4807028B92068006820F00800216804
:1006A0000860206C10B12046216C884794F85C10DB
:1006B000202088403040002865D02068006800F085
:1006C000100000285FD094F85C1020208840A860BB
:1006D00094F83500052828D12068006820F016001D
:1006E000216808602068406920F080002168486126
:1006F000206C08B9A06C28B12068006820F00800C0
:100700002168086094F85C103F208840A86000BF12
:10071000002084F8340000BF012084F83500206DEB
:1007200010B12046216D8847F8BD2068006800F4AC
:10073000802080B12068006800F4002028B9606C37
:1007400010B12046616C88471DE0E06BD8B12046AF
:10075000E16B884717E02068006800F4807068B992
:100760002068006820F010002168086000BF0020A9
:1007700084F8340000BF012084F83500E06B10B12C
:100780002046E16B8847606D38B3606D00F0010072
:10079000F0B1052084F835002068006820F00100E1
:1007A0002168086000BF0098401C0090B84200D942
:1007B00005E02068006800F001000028F3D100BFC8
:1007C00000BF002084F8340000BF012084F8350009
:1007D000E06C10B12046E16C884700BFA4E7000040
:1007E000BC01022001008000014800687047000041
:1007F0000400022010B52E480068401C2C490860F7
:100800002C48006820B12B480068401E2949086028
:10081000002444E0284850F8240000283DD0264811
:1008200050F824000078C0F34000B0B3224850F8DC
:100830002400806840B1204850F824008068401EA1
:100840001D4951F8241088601B4850F82400806826
:1008500018BB194B53F824301969174B53F824006F
:1008600053F82430DA689047134850F82400416860
:10087000114850F8240081600F4850F82400007897
:1008800000F0010048B90C4850F82400007820F02E
:100890000201094850F824000170601CC4B20648E7
:1008A000001F0078A042B5DC01F0A7FE10BD0000DB
:1008B0000400022000000220C801022010B50848F0
:1008C000006840F4007006490860032000F088F8D2
:1008D0000F2000F007F800F019F8002010BD00000C
:1008E000003C024070B50446074800684FF47A7136
:1008F000B0FBF1F5284600F0C9FD00222146501E4C
:1009000000F02FF8002070BDBC01022070470000ED
:1009100000BF00F01F0201219140034A430942F841
:10092000231000BF7047000080E200E000BF00F02D
:100930001F0201219140034A430942F8231000BFDE
:100940007047000080E100E000BF00F01F020121BD
:1009500091404209920002F1E022C2F8001100BF6A
:1009600070472DE9F05F80460D461646002701F0DE
:1009700017FB074639462A46334601F00700C0F107
:10098000070ABAF1040F02D94FF0040A01E0C0F1DE
:10099000070AD14600F1040ABAF1070F02D24FF05C
:1009A000000A01E0A0F1030AD4464FF0010A0AFA56
:1009B00009FAAAF1010A0AEA020A0AFA0CFA4FF045
:1009C000010B0BFA0CFBABF1010B0BEA030B4AEA30
:1009D0000B042146404601F0EBFABDE8F09F000011
:1009E00000BF00F00702064B19684FF6FF031940DD
:1009F000044B0B4343EA0221014B196000BF7047CF
:100A00000CED00E00000FA0538B5002400BF2048D6
:100A1000006840F080501E4908600846006800F0F9
:100A20008050009000BF00BF1A48006840F480303A
:100A300018490860FFF7D8FE044607E0FFF7D4FE28
:100A4000001BB0F57A7F01D9032038BD11484068FA
:100A500000F48030B0F5803FF0D10E48006840F4DB
:100A600000300C490860FFF7BFFE044607E0FFF7BF
:100A7000BBFE001BB0F57A7F01D90320E5E70548EE
:100A8000406800F40030B0F5003FF0D10020DCE712
:100A9000403802400070004070B504460D46002604
:100AA0006648006800F00F00A8420ED26348006854
:100AB00020F00F002843614908600846006800F0F4
:100AC0000F00A84201D0012070BD207800F0020084
:100AD000022807D15A48006820F0F000A1680843B6
:100AE00057490860207800F00100002860D0606855
:100AF000012807D1524808380068C0F34040A0B927
:100B00000120E1E76068022807D14D4808380068F5
:100B1000C0F3406048B90120D6E74948083800686A
:100B2000C0F3400008B90120CEE74548006820F036
:100B300003006168084342490860FFF755FE064616
:100B40006068012810D108E0FFF74EFE801B41F2DB
:100B50008831884201D90320B6E73948006800F09F
:100B60000C000428F0D123E06068022810D108E0CE
:100B7000FFF73AFE801B41F28831884201D90320F9
:100B8000A2E72F48006800F00C000828F0D10FE021
:100B900008E0FFF729FE801B41F28831884201D925
:100BA000032091E72648006800F00C000028F0D1EF
:100BB0002248006800F00F00A8420ED91F480068C4
:100BC00020F00F0028431D4908600846006800F027
:100BD0000F00A84201D0012076E7207800F0040041
:100BE000042807D11648006820F4E050E168084363
:100BF00013490860207800F00800082808D1104840
:100C0000006820F46040216940EAC1000C49086096
:100C100000F05AF80A49096801F0F001F02292FA4E
:100C2000A2F2B2FA82F2D140064A515CC8400649AB
:100C300008600F20FFF756FE002045E7003C024009
:100C4000083802407CB80008BC0102200148006856
:100C500070470000BC0102200CB50AA103C9CDE910
:100C60000001FFF7F3FF0949096801F4E0514FF46F
:100C7000E05292FAA2F2B2FA82F2D1401DF80110CB
:100C8000C8400CBD00000000010203040838024007
:100C90000CB50AA103C9CDE90001FFF7D7FF094947
:100CA000096801F460414FF4604292FAA2F2B2FA8C
:100CB00082F2D1401DF80110C8400CBD00000000B8
:100CC000010203040838024070B50021002200230D
:100CD0000020274C246804F00C0424B1042C04D018
:100CE000082C41D103E0234840E023483EE0204C5B
:100CF000241F246804F03F011D4C241F246804F4C1
:100D0000800484B11C4CB4FBF1F5194C241F2468F9
:100D100047F6C076344096FAA6F6B6FA86F6F44060
:100D200005FB04F20FE0134CB4FBF1F5104C241F4B
:100D3000246847F6C076344096FAA6F6B6FA86F6E8
:100D4000F44005FB04F20A4C241F246804F44034E8
:100D50004FF4403595FAA5F5B5FA85F5EC40641CDD
:100D60006300B2FBF3F001E0024800BF00BF70BDBA
:100D7000083802400024F40040787D01F8B50446AC
:100D800000250026207800F00100002871D0FD48E1
:100D9000006800F00C0004280DD0FA48006800F04C
:100DA0000C00082813D1F748001F006800F48000E9
:100DB000B0F5800F0BD1F34808380068C0F340400D
:100DC000002869D06068002866D10120F8BD00BF06
:100DD0006068B0F5803F08D1EA480838006840F400
:100DE0008030E849083908602EE0606868B9E54855
:100DF0000838006820F48030E24908390860084665
:100E0000006820F4802008601EE06068B0F5A02F24
:100E10000DD1DC480838006840F48020D9490839F1
:100E200008600846006840F4803008600CE0D5484F
:100E30000838006820F48030D24908390860084634
:100E4000006820F48020086000BF606890B1FFF760
:100E5000CBFC054606E0FFF7C7FC401B642801D920
:100E60000320B3E7C74808380068C0F340400028B3
:100E7000F1D011E0FFF7B8FC054606E0FFF7B4FC3F
:100E8000401B642801D90320A0E7BE480838006849
:100E9000C0F340400028F1D1207800F00200022881
:100EA00073D1B848006800F00C0058B1B54800682C
:100EB00000F00C00082821D1B248001F006800F49F
:100EC0008000D8B9AF4808380068C0F3400020B1AE
:100ED000E068012801D0012078E7AA4808380068B6
:100EE00020F0F800F82292FAA2F2B2FA82F2216916
:100EF00091400843A3490839086046E0E06850B3D0
:100F0000A0480838006840F001009E490839086090
:100F1000FFF76AFC054606E0FFF766FC401B022867
:100F200001D9032052E7974808380068C0F3400011
:100F30000028F1D093480838006820F0F800F82223
:100F400092FAA2F2B2FA82F22169914008438D49E5
:100F50000839086019E08B480838006820F0010063
:100F6000884908390860FFF73FFC054606E0FFF7AF
:100F70003BFC401B022801D9032027E781480838A1
:100F80000068C0F340000028F1D1207800F008008C
:100F9000082836D16069D0B17A486C30006840F0DA
:100FA000010078496C310860FFF71EFC054606E039
:100FB000FFF71AFC401B022801D9032006E77148FD
:100FC0006C300068C0F340000028F1D019E06D4893
:100FD0006C30006820F001006A496C310860FFF74E
:100FE00003FC054606E0FFF7FFFB401B022801D982
:100FF0000320EBE663486C300068C0F34000002833
:10100000F1D1207800F00400042874D15D48383014
:10101000006800F0805080B900BF5A48383000683E
:1010200040F080505749383108600846006800F0A9
:101030008050009000BF00BF01265348006800F4B4
:101040008070B0B95048006840F480704E49086024
:10105000FFF7CAFB054606E0FFF7C6FB401B642806
:1010600001D90320B2E64848006800F480700028E7
:10107000F2D000BFA068012808D14248683000685B
:1010800040F001003F49683108602DE0A06868B970
:101090003C486830006820F001003A496831086037
:1010A0000846006820F0040008601DE0A0680528DC
:1010B0000DD134486830006840F00400314968318F
:1010C00008600846006840F0010008600CE02D4808
:1010D0006830006820F001002A496831086008463D
:1010E000006820F00400086000BFA068A8B1FFF706
:1010F0007BFB054609E02EE0FFF776FB401B41F243
:101100008831884201D9032060E61E4868300068B3
:10111000C0F340000028EFD013E0FFF765FB054661
:1011200008E0FFF761FB401B41F28831884201D99A
:1011300003204BE6134868300068C0F340000028E5
:10114000EFD1012E07D10F483830006820F08050D1
:101150000C4938310860A069F0B30A48006800F013
:101160000C0008287FD0A069022863D10548083800
:10117000006820F08070034908390860FFF734FBED
:1011800005460AE00838024000700040FFF72CFBDB
:10119000401B022801D9032018E635480068C0F337
:1011A00040600028F2D1D4E90701084347F6C07235
:1011B00092FAA2F2B2FA82F2616A914008430122E5
:1011C000A16AC2EB51014FF4403292FAA2F2B2FA94
:1011D00082F29140084300E047E04FF0706292FADB
:1011E000A2F2B2FA82F2E16A914008434FF0E04283
:1011F00092FAA2F2B2FA82F2216B914008431C49A2
:10120000091D0860081F006840F08070091F086011
:10121000FFF7EAFA054606E0FFF7E6FA401B022868
:1012200001D90320D2E512480068C0F340600028CD
:10123000F2D01AE00E48006820F080700C49086077
:10124000FFF7D2FA054607E00DE0FFF7CDFA401BA5
:10125000022801D90320B9E505480068C0F34060C1
:101260000028F2D101E00120B0E50020AEE5000049
:101270000038024070477047F8B504460426002540
:10128000002000906946204601F014F9054615B18A
:10129000A06B2843A0630098C0F343263046F8BDF6
:1012A00070B5044600252068406BC0F3002000287C
:1012B00062D04FF48070216888632068C06B20F48E
:1012C0009D702168C863206B00F0080048B3206B54
:1012D00000F0020018B9206B00F0200050B1206827
:1012E00000F06CFF05462DB1A06B2843A06320469B
:1012F000FFF7C1FF40F2FF5021688863012084F8A6
:101300003400206B00F0010018B9206B00F00200DF
:1013100018B1204600F0B8F8B1E0204600F0B5F86A
:10132000ADE0206B00F080000028F5D0206B00F0CD
:10133000200050B1206800F041FF05462DB1A06BA0
:101340002843A0632046FFF796FF206B00F00100C2
:101350000028E1D1206B00F002000028DCD12068D9
:10136000C06A20F008002168C862012084F83400B7
:10137000204600F08AF882E02068406BC0F380309D
:1013800038B14FF4804021688863204601F0ABF803
:1013900075E02068406BC0F3C03038B14FF40040B6
:1013A00021688863204601F072F868E02068406B8D
:1013B00000F03A0008B1012000E0002000285ED0D3
:1013C0002068406BC0F3400018B1A06B40F00200F1
:1013D000A0632068406BC0F3C00018B1A06B40F060
:1013E0000800A0632068406BC0F3401018B1A06BE8
:1013F00040F02000A0632068406BC0F3001018B1DB
:10140000A06B40F01000A06340F2FF502168886399
:101410002068C06B20F49D702168C863206B00F0C9
:10142000800010B3206C50B11548216C0865206C09
:10143000FFF7A2F818B3206C01F003F81FE0E06B8F
:1014400050B11048E16B0865E06BFFF795F8B0B15B
:10145000E06B00F0D0FF12E00020A063012084F8D0
:1014600034002046FFF706FF09E0206B00F008007B
:1014700028B1012084F834002046FFF7FCFE70BD3F
:1014800043240008F72300087047704770B50446EE
:101490002546681EB0F1807F01D301200FE0681E51
:1014A0004FF0E02148610F214FF0FF3000F080FD48
:1014B00000204FF0E021886107200861002070BD06
:1014C00010B504460CB9012010BDA06900B100E0C0
:1014D00000BF94F8690028B9002084F8680020460D
:1014E00000F02AF8242084F869002068006820F0C1
:1014F000010021680860204601F062FE012800D149
:10150000E2E7606A10B1204601F0BEFD2068406845
:1015100020F49040216848602068806820F02A000C
:10152000216888602068006840F001002168086038
:10153000204601F01EFEC7E7704700BFFEE700002F
:10154000024909680143014A11607047103802409E
:10155000024909688143014A11607047103802400E
:10156000024909680143014A11607047203802406E
:10157000024909688143014A1160704720380240DE
:10158000024909680143014A11607047243802404A
:10159000024909688143014A1160704724380240BA
:1015A0002DE9F04104460D46724E012715F5803FA6
:1015B00018D170481038844206D17805FFF7C0FF73
:1015C0007805FFF7C5FFD2E06B48844208D14FF49D
:1015D0008000FFF7B5FF4FF48000FFF7B9FFC6E0CA
:1015E0000027C4E000BF6548405D205820F001009E
:1015F0006249495D605000BF5E481038844202D1A4
:101600000DB95C4877E05C48844203D115B95A486B
:10161000103070E057481038844204D1012D02D1B7
:101620005448183067E05448844204D1012D02D157
:10163000514828305FE04F481038844204D1022DD1
:1016400002D14C48303056E04B48844204D1022D40
:1016500002D1494840304EE046481038844204D117
:10166000032D02D14348483045E04348844204D129
:10167000032D02D1404858303DE03E4810388442A6
:1016800004D1042D02D13B48603034E03A48844212
:1016900004D1042D02D1384870302CE03548103880
:1016A000844204D1052D02D13248783023E03248FB
:1016B000844204D1052D02D12F4888301BE02D48EB
:1016C0001038844204D1062D02D12A48903012E00D
:1016D0002948844204D1062D02D12748A0300AE0CF
:1016E00024481038844204D1072D02D12148A83063
:1016F00001E02148B8300646002030607060B060DC
:10170000F06030612120706100222946204600F0FF
:10171000A3F815B93F20A06029E0012D03D14FF4B3
:101720007460A06023E0022D03D14FF47C10A06010
:101730001DE0032D03D14FF07460A06017E0042D6D
:1017400002D13F20E06012E0052D03D14FF4746018
:10175000E0600CE0062D03D14FF47C10E06006E061
:10176000072D03D14FF07460E06000E00027384699
:10177000BDE8F081106002400064024030B0000813
:1017800070B504460D461646F06A00B100BFD6E9B2
:10179000021211433269114372691143B269114354
:1017A000F2691143B26A41EA02002949495D615870
:1017B000284A11400143264A525DA15000BFF06AF9
:1017C00030B3D6E90B01224A525D2244526922F01D
:1017D000070240EA01031A431D4B5B5D23445A6133
:1017E00000BF706B1A49495D615821F0C071014317
:1017F000174A525DA15000BFB06B1549495D615851
:1018000021F4C0010143124A525DA15000BF00BF44
:1018100070680F49495D2144C86000BF30680C49B9
:10182000495D2144886000BF306A0949495D21440F
:1018300049686FF30F010143054A525D224451602C
:1018400000BF29462046726A00F006F8012070BDEC
:1018500030B000081F80FCFF10B5054B5B5CC3581F
:1018600023F0F0531343024C645C035110BD00009D
:1018700030B00008F0B503460A4600240021106885
:1018800090FAA0F0B0FA80F47FE00125A54010683E
:1018900000EA0501002977D050681D6891FAA1F689
:1018A000B6FA86F677000326BE40B54391FAA1F654
:1018B000B6FA86F6760000FA06F635431D6000BFDC
:1018C0005068012802D05068022814D190689D68A1
:1018D00091FAA1F6B6FA86F677000326BE40B54324
:1018E00091FAA1F6B6FA86F6760000FA06F63543C6
:1018F0009D6000BF00BF1069DD6891FAA1F6B6FADD
:1019000086F677000326BE40B54391FAA1F6B6FAF3
:1019100086F6760000FA06F63543DD6000BF5068B3
:10192000022831D191FAA1F0B0FA80F0082814D23F
:1019300050691D6A91FAA1F6B6FA86F6B7000F262D
:10194000BE40B54391FAA1F6B6FA86F6B60000FAA3
:1019500006F635431D6200BF16E050695D6A0E0A47
:1019600096FAA6F6B6FA86F6B7000F26BE40B5433D
:101970000E0A96FAA6F6B6FA86F6B60000FA06F64B
:1019800035435D6200BF00BF641C1068E040002862
:101990007FF47BAF5068012802D05068022809D13B
:1019A000D56810685E68864300FB05F73E435E60BD
:1019B00000BF00BF0120F0BD2DE9F0410446002525
:1019C000C02C29D1204600F0BDF8B0F5400F18D04A
:1019D000A0F54000403820B1402806D080280FD123
:1019E00008E000F02DFB054615E000F07DF900B1A0
:1019F000504D10E000F080F908B14FF400450AE0C6
:101A000000BF00F01DFB074600F0E6FA064600F0B6
:101A1000F3FA054600BF89E0B4F5407F2AD120469D
:101A200000F090F8B0F1407F19D04349084430B13C
:101A3000B0F5807F07D0B0F5007F0FD108E000F04F
:101A4000FFFA054615E000F04FF900B1394D10E0FE
:101A500000F052F908B14FF400450AE000BF00F071
:101A6000EFFA074600F0B8FA064600F0C5FA054658
:101A700000BF5BE0B4F5405F2AD1204600F062F879
:101A8000B0F1405F19D02D49084430B1B0F5805F06
:101A900007D0B0F5005F0FD108E000F0D1FA05469D
:101AA00015E000F021F900B1224D10E000F024F91A
:101AB00008B14FF400450AE000BF00F0C1FA074644
:101AC00000F08AFA064600F097FA054600BF2DE0BE
:101AD000B4F5404F2AD1204600F034F8B0F1404F21
:101AE00019D01749084430B1B0F5804F07D0B0F590
:101AF000004F0FD108E000F0A3FA054615E000F012
:101B0000F3F800B10B4D10E000F0F6F808B14FF417
:101B100000450AE000BF00F093FA074600F05CFAC7
:101B2000064600F069FA054600BF00BF2846BDE83A
:101B3000F08100000024F40000FFFFFC00F0FFCF64
:101B400000C0FF3F014603480068084040EA0140EA
:101B500070470000903802402DE9F041044600250E
:101B6000032C29D1204600F0B5F8B0F5403F18D03D
:101B70006FF44031084420B1012806D002280FD16B
:101B800008E000F05DFA054615E000F0ADF800B1A0
:101B90004E4D10E000F0B0F808B14FF400450AE0F7
:101BA00000BF00F04DFA074600F016FA064600F0B6
:101BB00035FA054600BF85E00C2C29D1204600F0FF
:101BC00089F8B0F5402F18D0A0F54020001F20B1B3
:101BD000042806D008280FD108E000F031FA0546A5
:101BE00015E000F081F800B1384D10E000F084F805
:101BF00008B14FF400450AE000BF00F021FA0746A3
:101C000000F0EAF9064600F0F7F9054600BF59E092
:101C1000B4F5406F2AD1204600F05CF8B0F1406F77
:101C200019D02B49084430B1B0F5806F07D0B0F51A
:101C3000006F0FD108E000F003FA054615E000F050
:101C400053F800B1214D10E000F056F808B14FF400
:101C500000450AE000BF00F0F3F9074600F0BCF9C8
:101C6000064600F0DBF9054600BF2BE0302C29D1F9
:101C7000204600F02FF8B0F5401F18D0A0F5401016
:101C8000103820B1102806D020280FD108E000F02D
:101C9000D7F9054615E000F027F800B10B4D10E02C
:101CA00000F02AF808B14FF400450AE000BF00F048
:101CB000C7F9074600F090F9064600F09DF9054681
:101CC00000BF00BF2846BDE8F08100000024F400FA
:101CD00000FCFFF3014603480068084040EA014069
:101CE000704700009038024002480068C0F340008E
:101CF000704700000038024002480068C0F340000E
:101D000070470000703802400248006800F03F0051
:101D100070470000043802400248006800F4800068
:101D2000704700000438024002480068C0F3881081
:101D3000704700000438024070B5044601252E4863
:101D4000844206D11020FFF71BFC1020FFF720FC77
:101D500050E02A48844208D14FF40030FFF700FCDD
:101D60004FF40030FFF704FC44E02548844208D1DA
:101D70004FF48020FFF7F4FB4FF48020FFF7F8FBCF
:101D800038E02048844206D12020FFF7F9FB2020CC
:101D9000FFF7FEFB2EE01C48844208D14FF40020E0
:101DA000FFF7DEFB4FF40020FFF7E2FB22E01748CD
:101DB000844208D14FF48010FFF7D2FB4FF480101B
:101DC000FFF7D6FB16E01248844208D14FF080405E
:101DD000FFF7C6FB4FF08040FFF7CAFB0AE00D4853
:101DE000844206D14005FFF7BBFB6005FFF7C0FB4F
:101DF00000E00025284670BD00100140004400406E
:101E00000048004000140140004C004000500040D9
:101E100000780040007C0040016841F00101016051
:101E2000704700002DE9F04104460D4600270026CA
:101E3000204600F09FF800287BD1E96868680843D5
:101E400029690843A96908432168414A11400843A8
:101E50002060A868616821F440510143616000BFBF
:101E60006869A16821F440710143A16000BF39484D
:101E7000844204D10320FFF76FFE06463AE036485D
:101E8000844204D10C20FFF767FE064632E0334857
:101E9000844204D13020FFF75FFE06462AE0304836
:101EA000844205D14FF44060FFF756FE064621E01C
:101EB0002C48844204D1C020FFF77EFD064619E07D
:101EC0002948844205D14FF44070FFF775FD06465E
:101ED00010E02648844205D14FF44050FFF76CFDD6
:101EE000064607E02248844204D14FF44040FFF701
:101EF00063FD0646EEB12868D8B101273146AA69CC
:101F000028684FF0000C0023B2F5004F12D14FEAC1
:101F1000410808EB5008B8FBF0F81FFA88FC4FF6B0
:101F2000F0780CEA0803CCF3420843EA0803E360C4
:101F300008E009E001EB5008B8FBF0F81FFA88F858
:101F4000C4F80C8000BF00BF3846BDE8F081000037
:101F5000F369FFEF001001400044004000480040DA
:101F600000140140004C0040005000400078004048
:101F7000007C00400146086800F0010070474FF403
:101F800016510160002141608160C1600C21016136
:101F9000002141618161704700BFFEE7704700008A
:101FA00002480068C0F30220704700000CED00E01A
:101FB00010B5002807DA0A07140E054A00F00F03CF
:101FC0001B1FD45403E00A07130E024A135410BD1A
:101FD00018ED00E000E400E0014600BF044800689E
:101FE00000F0F0000009034A125C21FA02F0704789
:101FF000083802407CB80008014600BF0548006868
:1020000000F4E050044A02EB9020027821FA02F03A
:1020100070470000083802408CB80008014600BF35
:102020000548006800F46040044A02EB5030027832
:1020300021FA02F070470000083802408CB800080E
:1020400010B5002400BF0B48006800F00C0020B160
:10205000042804D0082808D103E0074C07E0074C07
:1020600005E000F00DF8044601E0034C00BF00BF9E
:10207000204610BD083802400024F40040787D015D
:1020800070B500240025FFF747FE05461DB1B5F5E4
:10209000800F04D101E00C4C03E00C4C01E00A4C31
:1020A00000BF00BFFFF730FEB4FBF0F6FFF73CFEC9
:1020B00046430748006800F44030012101EB10401E
:1020C0004000B6FBF0F070BD0024F40040787D01C4
:1020D0000438024010B50023234C236000BF00BF2A
:1020E00000BFBFF34F8F00BF00BF00BF231F1868A2
:1020F000C0F34E3100BFC0F3C90200BF43F6E07326
:1021000003EA41134FF0404404EA82742343174C1E
:10211000236000BF00BF131EA2F10102EED10B1E0F
:10212000A1F10101E7D100BF00BF00BFBFF34F8F96
:1021300000BF00BF00BF0C4B703B1B6843F48033F3
:10214000094C703C236000BF00BF00BFBFF34F8F3E
:1021500000BF00BF00BF00BF00BF00BFBFF36F8F55
:1021600000BF00BF00BF10BD84ED00E060EF00E0E5
:1021700010B50248FFF794F810BD0000386A03203C
:1021800070B586B005460C46002601940D200290DD
:1021900040200390002004904FF48060059001A936
:1021A000284600F00EF941F288320D21284600F051
:1021B00023F80646304606B070BD000030B585B045
:1021C00004460025002000900C2001904020029041
:1021D000002003904FF4806004906946204600F090
:1021E000F0F8044A0C21204600F006F8054628467F
:1021F00005B030BD00E1F5052DE9F04105460E467C
:10220000174664480068C0084FF47A71B0FBF1F0DB
:1022100000FB07F800BFB8F10000A8F1010803D1E6
:102220004FF00040BDE8F081686B00F045000028E9
:10223000F1D0686B00F0040010B10420A863F1E74E
:10224000686B00F0010010B10120A863EAE728469E
:1022500000F0A4F8B04201D00120E3E740F2FF50C3
:10226000A8630021284600F09DF804464A48204013
:1022700008B90020D6E704F00040B0F1004F02D1C9
:102280004FF00070CEE704F08040B0F1804F01D1F4
:102290004020C7E704F00050B0F1005F01D180207A
:1022A000C0E704F08050B0F1805F02D14FF480703D
:1022B000B8E704F00060B0F1006F02D14FF4007095
:1022C000B0E704F08060B0F1806F02D14FF480601D
:1022D000A8E704F08070B0F1807F02D14FF4006075
:1022E000A0E704F40000B0F5000F02D14FF48050D5
:1022F00098E704F48000B0F5800F02D14FF400504D
:1023000090E704F40010B0F5001F02D14FF48040B4
:1023100088E704F48010B0F5801F02D14FF400402C
:1023200080E704F48020B0F5802F02D14FF4003014
:1023300078E704F40030B0F5003F02D14FF480207C
:1023400070E704F48030B0F5803F02D14FF40020F4
:1023500068E704F40040B0F5004F02D14FF480105C
:1023600060E704F48040B0F5804F02D14FF40010D4
:1023700058E704F40050B0F5005F02D14FF480003C
:1023800050E704F00800082801D100054AE74FF49F
:10239000803047E7BC01022008E0FFFD01460869E4
:1023A000C0B2704708B502460020009002F1140048
:1023B000084400900098006808BD0146D1F88000EC
:1023C000704710B50246002308689060D1E9010407
:1023D0002043CC6820430C6920430343D0686FF34B
:1023E0000B001843D060002010BD02460868C2F8F8
:1023F00080000020704770B50646B46BE06B08B1F2
:102400000020E063206CD8B92046FEF735FF054672
:102410000020A063012084F83400062D01D0052D92
:102420000ED12068FFF7CAFEA16B0843A063A06B22
:1024300018B12046FEF71EFF02E02046FEF71BFF04
:1024400070BD70B50646B46B206C08B100202064E6
:10245000E06BD8B92046FEF70FFF05460020A063C9
:10246000012084F83400062D01D0052D0ED12068FE
:10247000FFF7A4FEA16B0843A063A06B18B1204630
:10248000FEF7F8FE02E02046FEF7F5FE70BD70B5DF
:1024900004460025A66A00BF05E02068FFF78DFF0F
:1024A00046F825006D1C082DF7D3A06A2030A062E5
:1024B000002070BD70B504460D46002615B94FF0DA
:1024C000006070BD5022125B11042068FFF758FEB7
:1024D00006460EB13046F4E700212068FFF762FFA0
:1024E00028600020EDE770B504460025266A00BF8D
:1024F00005E006EB85012068FFF777FF6D1C082DCE
:10250000F7D3206A20302062002070BD10B508F09B
:10251000DFFB04490968884203D108F0F5FB024952
:10252000086010BDE8000220F000022010B5FEF7A0
:1025300061F910BD1448006840F470001249086049
:102540001248006840F001001049086000200F495F
:10255000083108600D4800680D4908400B490860C3
:102560000C48091D0860081F006820F48020091F1E
:102570000860002005490C3108604FF000600249F6
:10258000803908607047000088ED00E000380240A4
:10259000FFFFF6FE1030002470B5034600240BB98F
:1025A000002070BD58881D88A84201DB002058809B
:1025B0001BE05D889888401E854206D0988828B91F
:1025C0005D881888401E854200D113E011F8015B38
:1025D0005E88701C588098688555601CC4B2588805
:1025E0001D88A84201DB00205880101EA2F10105C1
:1025F000AAB2DED100BF2046D3E710B506F056FCE4
:1026000010BD00000F48006820F080700D4A106077
:102610001046006840F0807010600B48006820F0A1
:102620000100094A10601046006840F00100106087
:10263000002050601046416800BF00BF024840685B
:10264000401A7047FCED00E0001000E01CB50020CF
:10265000022103460246CDE900100121014800F0A5
:1026600089F81CBD000002401CB5032000210B4668
:102670000122CDE9001042F22001044800F07AF86E
:1026800003480249183108601CBD000000240240C4
:102690000000202001464FF40030081AC0F38F20BC
:1026A0007047000000B502461046FFF7F3FF012116
:1026B00001FA00F00249096808430149086000BDB9
:1026C000303802402DE9F04304460E461546DDE958
:1026D00007892046FFF7DEFFC7B2002243E0012052
:1026E0009040304000B93CE0214830F8170001210B
:1026F000914008431E4921F81700E0684FEA420C58
:10270000032101FA0CF18843510008FA01F1084352
:10271000E06020684FEA420C032101FA0CF1884383
:10272000510005FA01F108432060012D01D0022D6E
:1027300016D161680120904080B221EA000003FABE
:1027400002F189B208436060A0684FEA420C03219D
:1027500001FA0CF18843510009FA01F10843A06025
:1027600000BF501CC2B2102AB9DBBDE8F0830000E4
:10277000DC0102202DE9FC4305460C4616461F46A7
:10278000DDE909890CB9BDE8FC832846FFF78AFF1B
:102790003B46324621462846CDE90089FFF792FFA5
:1027A00000BFF0E72DE9FC4705460E461746984660
:1027B000DDE90A9A0EB9BDE8FC872846FFF772FFEB
:1027C00000241AE00120A040304000B914E0E108E4
:1027D00005F1200050F821006107CA0E0F21914039
:1027E00088436107C90E0AFA01F10843E20805F1BE
:1027F000200141F8220000BF641C102CE2D33B46AC
:10280000022231462846CDE90089FFF75BFF00BF71
:10281000D1E7000000B593B000BF00BF00BF00BF0C
:1028200000BFBFF34F8F00BF00BF00BF00BF00BF9E
:1028300000BFBFF36F8F00BF00BF00BF002039494A
:1028400008603948006840F400303749086000BF2C
:1028500000BF00BFBFF34F8F00BF00BF00BF00BF6E
:1028600000BF00BFBFF36F8F00BF00BF00BF00BF3E
:10287000FFF730FC00BF2D48006840F080502B4926
:1028800008600846006800F08050009000BF00BF5C
:1028900000BF2748006840F44040254908600846CA
:1028A000006800F44040009000BF00BF012001908C
:1028B00000040290002004904FF48001089102204F
:1028C0000790192109914FF4D8710A9102210B91B7
:1028D00009210C9107210D9101A8FEF74FFA10B1C3
:1028E000012013B000BDFEF78FF808B10120F8E712
:1028F00002200F900020109007200E900E9840F0BC
:1029000008000E904FF4A05011904FF48050129098
:1029100006210EA8FEF7C0F808B10120E1E700206B
:10292000DFE7000050EF00E014ED00E04038024027
:10293000007000401CB5044644B90820032101235F
:102940000022CDE900100B48FFF72CFF012C09D124
:102950000820032101230022CDE900108902064846
:10296000FFF720FF032C03D10821044800F01AFBD5
:102970001CBD00000000024000080240004C004066
:102980001CB504464CB90820032101230022CDE9DF
:102990000010C9010A48FFF705FF012C09D10820E2
:1029A000032101230022CDE90010C0210548FFF7D3
:1029B000F9FE032C03D10821034800F0F3FA1CBDF3
:1029C0000010024000140240007800401CB504468C
:1029D00044B90820032101230022CDE90010054855
:1029E000FFF7E0FE032C03D10821034800F0DAFAD8
:1029F0001CBD000000100240007C00401CB50446D5
:102A00004CB90720032101230022CDE9001049021F
:102A10001548FFF7C7FE012C09D107200321012328
:102A20000022CDE90010C0211048FFF7BBFE022CA8
:102A300013D10720032101230022CDE90010590200
:102A40000948FFF7AFFE0720032101230022CDE94B
:102A5000001080210548FFF7A5FE032C03D10721B4
:102A6000034800F09FFA1CBD000002400004024031
:102A7000001001401CB504464CB907200321012376
:102A80000022CDE900100C210A48FFF78BFE012C33
:102A900009D10720032101230022CDE90010602184
:102AA0000548FFF77FFE032C03D10721034800F000
:102AB00079FA1CBD00000240000C024000440040B6
:102AC0001CB504464CB90720032101230022CDE99F
:102AD000001089021048FFF765FE012C09D107207C
:102AE000032101230022CDE9001089020B48FFF7E2
:102AF00059FE022C09D10720032101230022CDE930
:102B0000001009020648FFF74DFE032C03D10721F0
:102B1000044800F047FA1CBD0004024000080240CF
:102B2000000C0240004800401CB504464CB9082087
:102B3000032101230022CDE90010C0210B48FFF73B
:102B400031FE012C0AD10820032101230022CDE906
:102B500000104FF484410648FFF724FE032C03D1F4
:102B60000821044800F01EFA1CBD000000080240C5
:102B7000001802400014014070B505460C460D488F
:102B8000056001200B4909680862022009490968AB
:102B90000862042007490968086208200549096895
:102BA000086210200349096808622046FDF7B0FE5C
:102BB00070BD0000D802022001460E4A914200D1A9
:102BC00000200D4A914200D101200C4A914200D1CF
:102BD00002200B4A914200D104200A4A914200D1BE
:102BE0000620094A914200D10720084A914200D1AB
:102BF0000820704700100140004400400048004099
:102C0000004C00400014014000780040007C00406F
:102C10002DE9F04F9DB004460D4616461F46DDE9EE
:102C200027ABDDF89890954884421FD100BF9448A7
:102C3000006840F01000924908600846006800F003
:102C40001000009000BF00BF8D482038006840F0A1
:102C500010008B49203908600846006820F01000F9
:102C600008602846FFF7CAFE4FF0250885488442D1
:102C700021D100BF8248001F006840F40030804925
:102C8000091F08600846006800F40030009000BF8B
:102C900000BF7B482438006840F40030784924396C
:102CA00008600846006820F4003008602846FFF7F6
:102CB000E1FE4FF026087448844221D100BF7048DD
:102CC000001F006840F480206D49091F0860084615
:102CD000006800F48020009000BF00BF68482438DE
:102CE000006840F48020664924390860084600687E
:102CF00020F4802008602846FFF7E2FE4FF0270806
:102D00006248844221D100BF5D48001F006840F442
:102D100000205B49091F08600846006800F4002095
:102D2000009000BF00BF56482438006840F40020DF
:102D30005349243908600846006820F400200860E0
:102D40002846FFF7F7FD4FF03408514884421FD161
:102D500000BF4B48006840F0200049490860084621
:102D6000006800F02000009000BF00BF44482038F9
:102D7000006840F020004249203908600846006899
:102D800020F0200008602846FFF7CEFE4FF04708ED
:102D90004048844221D100BF3948001F006840F0FC
:102DA00080403749091F08600846006800F08040ED
:102DB000009000BF00BF32482438006840F08040D7
:102DC0002F49243908600846006820F080400860D8
:102DD0002846FFF7D5FD4FF052082F48844221D1F5
:102DE00000BF2748001F006840F000402449091F29
:102DF00008600846006800F00040009000BF00BF77
:102E00001F482438006840F000401D4924390860FC
:102E10000846006820F0004008602846FFF7D6FD0D
:102E20004FF05308019402960797CDF81890CDF80B
:102E300014A0CDF810B029980390002108910991B1
:102E400000200A904046FDF771FD2046FFF7B4FED2
:102E50000246062100904046FDF783FD4046FDF7FF
:102E600073FD4046FDF754FD01A8FEF729FB2068DD
:102E700040F0200020601DB0BDE8F08F0010014040
:102E8000443802400044004000480040004C0040EC
:102E90000014014000780040007C004013B5044657
:102EA000012201A92046FFF777FB1CBD7FB5044630
:102EB0000D461646344884420BD100200C23CDE940
:102EC0000030029003463246294603902046FFF721
:102ED0009FFE2E4884420BD100200C23CDE9003008
:102EE000029003463246294603902046FFF790FEA3
:102EF000274884420BD100200C23CDE900300290FA
:102F000003463246294603902046FFF781FE2148BA
:102F100084420BD100200C23CDE9003002900346FF
:102F20003246294603902046FFF772FE1A48844233
:102F30000BD100200C23CDE900300290034632462D
:102F4000294603902046FFF763FE144884420BD1C4
:102F500000200C23CDE9003002900346324629467A
:102F600003902046FFF754FE0D4884420BD1002009
:102F70000C23CDE9003002900346324629460390E7
:102F80002046FFF745FE7FBD001001400044004091
:102F900000480040004C0040001401400078004010
:102FA000007C00407047000010B50948006800F040
:102FB000200030B1064808300068C1B20548FFF76C
:102FC0006DFF342102481C38FFF7D6FD10BD00000C
:102FD0001C4C00404400022010B500BF1048C069DE
:102FE000C0F3001050B100BF10200D49086200BFAF
:102FF000002211460B48006805F07AFE00BF012050
:103000000749086200BF00BF0220086200BF00BF7E
:103010000820086200BF00BF0420086200BF10BD86
:10302000005000405801022010B50948006800F027
:10303000200030B1064808300068C1B20548FFF7EB
:103040002DFF522102481C38FFF796FD10BD0000ED
:103050001C7800406C00022010B50948006800F0A0
:10306000200030B1064808300068C1B20548FFF7BB
:1030700015FF532102481C38FFF77EFD10BD0000EC
:103080001C7C00408000022090F8241001F0010117
:1030900039B10168496821F40031826A114302683C
:1030A000516090F8241001F0020139B101684968BB
:1030B00021F48031C26A11430268516090F82410F3
:1030C00001F0040139B10168496821F48021026BE3
:1030D00011430268516090F8241001F0080139B1E1
:1030E0000168496821F40041426B11430268516054
:1030F00090F8241001F0100139B10168896821F4B9
:103100008051826B11430268916090F8241001F0A5
:10311000200139B10168896821F40051C26B114363
:103120000268916090F8241001F0400199B10168A3
:10313000496821F48011026C114302685160016CEE
:10314000B1F5801F07D10168496821F4C001426CC4
:1031500011430268516090F8241001F0800139B1E8
:103160000168496821F40021826C114302685160B2
:10317000704738B5044600250020E066FDF734FBB3
:1031800005462068006800F0080008280CD16FF0A0
:103190007E402B4600224FF400110090204600F0A4
:1031A000D5F908B1032038BD202084F8690084F8DF
:1031B0006A0000BF002084F8680000BF00BFF2E78B
:1031C0002DE9F0470446002510260027A846A94609
:1031D0002169A068084361690843E16940EA010583
:1031E00020680068CD4908402843216808602068AD
:1031F000406820F44050E168084321684860216A33
:10320000A06940EA01052068806820F43060284306
:103210002168886000BFC2492068884215D1C14832
:10322000006800F0030030B1012808D0022804D063
:10323000032808D105E0012606E0022604E0042662
:1032400002E0082600E000BFC1E0B74920688842DC
:1032500015D1B448006800F00C0030B1042808D043
:10326000082804D00C2808D105E0002606E0022634
:1032700004E0042602E0082600E000BFA7E0AB4916
:103280002068884215D1A748006800F0300030B1AE
:10329000102808D0202804D0302808D105E00026C6
:1032A00006E0022604E0042602E0082600E000BF53
:1032B0008DE09F492068884215D19A48006800F047
:1032C000C00030B1402808D0802804D0C02808D1E0
:1032D00005E0002606E0022604E0042602E00826B7
:1032E00000E000BF73E093492068884218D18D4800
:1032F000006800F4407048B1B0F5807F0AD0B0F5A6
:10330000007F05D0B0F5407F08D105E0002606E03B
:10331000022604E0042602E0082600E000BF56E092
:1033200085492068884218D17E48006800F44060D2
:1033300048B1B0F5806F0AD0B0F5006F05D0B0F598
:10334000406F08D105E0012606E0022604E00426CD
:1033500002E0082600E000BF39E078492068884292
:1033600018D17048006800F4405048B1B0F5805F53
:103370000AD0B0F5005F05D0B0F5405F08D105E098
:10338000002606E0022604E0042602E0082600E00B
:1033900000BF1CE06A492068884218D16148006873
:1033A00000F4404048B1B0F5804F0AD0B0F5004F6E
:1033B00005D0B0F5404F08D105E0002606E0022612
:1033C00004E0042602E0082600E000BF00BF00BFC2
:1033D000E069B0F5004F52D1042E2BD005DC4EB180
:1033E000012E12D0022E3BD11AE0082E2DD0102E25
:1033F00036D136E0FDF730FC4000616800EB51004B
:10340000B0FBF1F01FFA80F82EE0FDF741FC400020
:10341000616800EB5100B0FBF1F01FFA80F823E087
:103420004849606801EB50006168B0FBF1F01FFA99
:1034300080F819E0FDF748FC4000616800EB51009E
:10344000B0FBF1F01FFA80F80EE04FF480316068B5
:1034500001EB50006168B0FBF1F01FFA80F803E067
:1034600000BF4FF0010900BF00BF4FF6F07008EA3F
:103470000007C8F3420007432068C7604AE0042EF3
:103480002CD005DC4EB1012E12D0022E3DD11AE017
:10349000082E2ED0102E38D138E0FDF7DDFB616804
:1034A00000EB5100B0FBF1F080B22168C86030E061
:1034B000FDF7EEFB616800EB5100B0FBF1F080B26C
:1034C0002168C86025E02049606801EB5000616810
:1034D000B0FBF1F080B22168C8601AE0FDF7F4FBA0
:1034E000616800EB5100B0FBF1F080B22168C86068
:1034F0000FE04FF40041606801EB50006168B0FBE1
:10350000F1F080B22168C86003E000BF4FF001090C
:1035100000BF00BF4846BDE8F0870000F369FFEF39
:103520000010014090380240004400400048004034
:10353000004C004000500040001401400078004062
:10354000007C00400048E8010024F4002DE9F0412F
:1035500004460D4617469846069E21E0701CF8B1B9
:103560002EB1FDF741F9A0EB0800B04218D3206856
:10357000006820F4D070216808602068806820F01E
:10358000010021688860202084F8690084F86A00BE
:1035900000BF002084F8680000BF0320BDE8F08170
:1035A0002068C0692840A84201D1012000E0002025
:1035B000B842D3D00020F1E710B50848C06900F048
:1035C000200028B10548406AC1B20548FFF766FCF3
:1035D00025210248FFF7D0FA10BD0000001001407D
:1035E0000800022010B50948006800F0200030B142
:1035F000064808300068C1B20548FFF74FFC262195
:1036000002481C38FFF7B8FA10BD00001C44004007
:103610001C00022010B50948006800F0200030B1FD
:10362000064808300068C1B20548FFF737FC27217B
:1036300002481C38FFF7A0FA10BD00001C480040EB
:103640003000022010B50948006800F0200030B1B9
:10365000064808300068C1B20548FFF71FFC472143
:1036600002481C38FFF788FA10BD00001C14014006
:103670005800022000BFFEE70FB4054B10B503A9A8
:10368000044A029800F02CF810BC5DF814FB00000E
:10369000C17D0008C00102200FB4084B10B504A979
:1036A00002AA039800F01CF8044602A9002000F0CA
:1036B00048FA204610BC5DF814FB0000433B0008AC
:1036C00002E008C8121F08C1002AFAD170477047EB
:1036D000002001E001C1121F002AFBD17047000049
:1036E0002DE9FF4F8DB00F460546002606E0252840
:1036F0000BD0DDE90F1290476D1C761C287800284E
:10370000F5D111B03046BDE8F08F0024A246A146A5
:103710000122EC4900E0044315F8013F203B02FA86
:1037200003F00842F7D128782A2810D06FF02F0232
:103730002878A0F13001092914D80AEB8A0102EB9C
:10374000410144F0020400EB010A6D1CF0E701CFD7
:103750005FEA000A03D544F40054CAF1000A44F0B9
:1037600002046D1C28782E2817D115F8010F44F09B
:1037700004042A280ED06FF02F022878A0F130011F
:1037800009290AD809EB890102EB410100EB010983
:103790006D1CF2E757F8049B6D1C28786C280FD03D
:1037A00006DC4C2817D068280DD06A2814D104E014
:1037B000742810D07A280FD10DE044F400140AE0E8
:1037C00044F4801401E044F440146978814202D149
:1037D00004F580146D1C6D1C2A786E2A1FD00CDC39
:1037E000632A31D004DC002A8BD0582A11D1A3E0FF
:1037F000642A68D0692A0CD165E0732A2ED004DCD3
:103800006F2A73D0702A04D19BE0752A6FD0782A72
:103810006ED01046DDE90F129047761C50E1C4F3DC
:103820000250022806D0032809D0042801CF09D06D
:10383000066045E101CFF117C0E9006140E101CF29
:1038400006803DE106703BE117F8040B8DF800009F
:1038500000208DF80100EB46012003E057F804BB7F
:103860004FF0FF3061074FF0000102D40DE008F186
:103870000101884649450FDA8045F8DB1BF808103E
:103880000029F4D108E008F1010188468142FADB01
:103890001BF808100029F6D1DDE90F23AAEB080078
:1038A0008146214600F036F9304400EB080604E07A
:1038B000DDE90F121BF8010B9047B8F10108F7D2B0
:1038C00021464846F7E00A21C4F302534FF0000BAB
:1038D0000891022B04D001CFC117032B09D00AE0B5
:1038E000FF1D27F00707F7E8020108E032E01FE0BC
:1038F00020E000B2C117042B01D140B2C117031E52
:1039000071F1000307DA4FF0000CD0EB0C006CEB08
:1039100001012D2302E0230504D52B238DF824304B
:10392000012303E0E30701D02023F7E7984658E09E
:103930000A2110E010210EE010204FF0000B08903B
:103940000CE010214FF0000B44F004044FF0080984
:10395000089103E008214FF0000B0891C4F30253D3
:10396000022B04D001CF0021032B06D006E0FF1D5F
:1039700027F00707F7E8020103E080B2042B00D12B
:10398000C0B24FF0000823072BD5702A07D0DDF80E
:1039900020C08CF0100C5CEA0B0C05D00EE040232C
:1039A0008DF82430012308E050EA010306D03023CB
:1039B0008DF824308DF8252002239846DDF820C0AC
:1039C0008CF0080C5CEA0B0C0BD150EA010301D11E
:1039D000630706D530238DF824304FF00108A9F194
:1039E0000109582A04D038A20B9208AA0A920BE0C7
:1039F0003AA2F9E75B46089AFCF778FC0B9B9B5CC4
:103A00000A9A521E0A92137050EA0102F2D10A98E1
:103A1000ADEB000000F1200B600702D524F48034E8
:103A200001E04FF00109D94502DDA9EB0B0000E0F0
:103A3000002000EB0B0141440890AAEB010AE003CF
:103A400006D4DDE90F232146504600F063F8064412
:103A50004FF0000908E009A911F80900DDE90F128B
:103A6000904709F10109761CC145F4DBE0030CD550
:103A7000DDE90F232146504600F04CF8064404E0EF
:103A8000DDE90F1230209047761C0899481E0890F7
:103A90000029F5DC08E00A980A990078491C0A9187
:103AA000DDE90F129047761CBBF10001ABF1010B71
:103AB000F1DC21465046DDE90F2300F019F80644F9
:103AC0006D1C1BE60928010030313233343536379E
:103AD000383961626364656600000000303132335A
:103AE00034353637383941424344454600000000FA
:103AF0002DE9F041044600251E461746880404D4EB
:103B000005E039462020B0476D1C641EF9D52846D3
:103B1000BDE8F0812DE9F041044600251E4690469F
:103B2000C80301D5302700E02027880404D505E02C
:103B300041463846B0476D1C641EF9D52846BDE89D
:103B4000F0810A68531C0B601070704770B5044612
:103B50000D46224602A12846FFF79EFD70BD0000DB
:103B60002530325800000000F0B59DB00646C2482E
:103B7000007810B10A2005F049F800BFBF4800687E
:103B800040F48010BD4908600846006800F48010C9
:103B9000009000BF00BF00BFB8481038006840F078
:103BA0000400B649103908600846006800F00400B7
:103BB000009000BF00BF00BF0846006840F008004A
:103BC00008600846006800F00800009000BF00BFD1
:103BD00000BF0846006840F40070086008460068AE
:103BE00000F40070009000BF00BF00BF08460068EE
:103BF00040F4001008600846006800F400100090CF
:103C000000BF00BF9C480078F8B900201390012045
:103C1000149003201290012011908003109010A99D
:103C20009748FDF727FE02201190082015904002CA
:103C3000109010A99348FDF71DFE08201590042050
:103C4000109010A99048FDF715FE8B480078B0B988
:103C50008E48FEF771F816A8FEF791F91696002027
:103C600017901B901C90199018900C201A9016A970
:103C70008648FEF7D7F88548FEF7CEF82EE000BF5D
:103C80008248006820F001008049086000BF4FF4BE
:103C90004070FDF791FE05460027344600200021C4
:103CA000B7F5004F0FD16A0002EB5402B2FBF4F2F9
:103CB00090B24FF6F07200EA0201C0F342021143E3
:103CC000724AD16006E005EB5402B2FBF4F292B204
:103CD0006E4BDA6000BF6D48FEF79EF801220621A8
:103CE0003520FCF73EFE3520FCF72EFE62480078BA
:103CF00000287BD16649087000216648FDF750FC1A
:103D00004FF000600A9061482430019062480290B0
:103D1000002003904FF480700490002005904FF431
:103D2000806006900020079008904FF48050099022
:103D30004FF440300B9000200C9003200D904FF476
:103D400000000E9080100F9001AA00215148FDF74D
:103D500017FD50480021514A525C825842F0080237
:103D60004E4B5B5CC25000BF00BF4C4A525C825855
:103D700042F01002494B5B5CC25000BF00BF474A93
:103D8000525C825842F00402444B5B5CC25000BF5C
:103D900000BF424A525C0244526942F080023F4BEB
:103DA0005B5C03445A6100BF00BF3C4A525C8258CE
:103DB00042F00202394B5B5CC25000BF00BF374A81
:103DC000525C825842F00102344B5B5CC25000BF2F
:103DD000002201210B20FCF7C4FD0B20FCF7B4FDF1
:103DE00000202F49088001202949087000BF27487A
:103DF000006840F010002549086000BF00BF084679
:103E0000006840F48070086000BF00BF084680680A
:103E100040F00100886000BF00BF0846806840F0A5
:103E20004000886000BF1F48006828B900211E4874
:103E300005F044F81B4908601C48006828B90021B7
:103E40001B4804F0FEFE194908600B48007880B951
:103E50004FF4804001040A4A916100BF012004F040
:103E6000D5FE4FF480400649886100BFC82004F0A9
:103E7000CDFE1DB0F0BD00005301022040380240CD
:103E80000024024000080240000C024000500040A4
:103E900052010220006002400000012038B00008FA
:103EA000500102205401022044B0000858010220B1
:103EB00058B0000870B5044600F09AFF257D01F067
:103EC0001DF8284670BD00002DE9F05F05468846C4
:103ED00091461E46DDE90B7BDDF828A000BF25B921
:103EE00000BF00BF0320BDE8F09F00BF00BF1EB9A8
:103EF00000BF00BF0320F6E700BF00BFBAF1000F0C
:103F000003D100BF00BF0320EDE700BF0FB10020C9
:103F1000386000BF442000F003FC044600BF0CB131
:103F200000BF00BF00BF00BF0CB900BF00BF00BF93
:103F30000CB90420D7E744212046FCF727FA00BF3C
:103F40002C202070A5616662C4F81CA0E763C4F849
:103F50003480A4F8389084F83AB02846FFF7AAFFD6
:103F600084F840004EF66023024920460D9A03F083
:103F700091FDB8E71551000870B5054608201649AF
:103F800081F8780300241EE004EB840112482C30F1
:103F900000EBC10090F8240000F0010088B104EBB0
:103FA00084010D482C3000EBC1012C38C0F87C1383
:103FB00004EB840200F12C0101EBC200002103F0AC
:103FC00015FD601C84B2142CDEDB002203494FF483
:103FD000FA7001F001F870BD78640220793F0008A2
:103FE0002DE9FC41074600BF39A0FFF745FB012042
:103FF0003E4B64223E490090002000F03BFE00282A
:104000005CD1002509E005EB0510394A02EB4000C0
:10401000411C38A0FFF730FB6D1C34480068854216
:10402000F1D3002447E0002540E0364A52F834102E
:1040300005EB05122E4B03EB4202501CFCF7D4F9A2
:10404000002832D12F4850F834102FA0FFF714FB6E
:1040500001202C4A02EBC40200905168294A52F810
:10406000340000231A4600F0CDFD061E19D10022AF
:10407000114601A800F08EFD224850F834102AA005
:10408000FFF7FAFA9DF8070000909DF806309DF8BA
:1040900005209DF804102BA0FFF7EEFA0020BDE8E4
:1040A000FC81314630A0FFF7E7FA6D1C0F4800682D
:1040B0008542BAD3641C042CB5D302E030A0FFF7CC
:1040C000DBFA07B900E08FE700BF0220E7E7000056
:1040D0005363616E6E696E672061636365737320FD
:1040E000706F696E74732E2E2E0D0A00B8010220B7
:1040F0003C6C0320415020666F756E643A20257336
:104100000D0A000098010220436F6E6E65637469AA
:104110006E6720746F2022257322206E6574776F7E
:10412000726B2E2E2E0D0A00436F6E6E65637465E2
:104130006420746F202573206E6574776F726B2115
:104140000D0A000053746174696F6E20495020613C
:104150006464726573733A2025642E25642E256489
:104160002E25640D0A000000436F6E6E656374694E
:104170006F6E206572726F723A2025640D0A00001E
:104180004E6F205749464920746F20636F6E6E65ED
:104190006374210D0A0000000146002070470000F2
:1041A00010B50446207830B1012808D00A2810D074
:1041B0000C2812D109E00BA0FFF75EFA0EE00021F7
:1041C0004FF4E13000F08AFC08E00AA0FFF754FA4F
:1041D00004E00DA0FFF750FA00E000BF00BF002090
:1041E00010BD00004465766963652072657365746F
:1041F000210D0A004C6973742041502066696E6974
:1042000073686564210D0A005749464920474F5499
:104210002049502046524F4D204D41494E210D0A14
:10422000000000002DE9F04105460E46002700BFC2
:1042300025B900BF00BF0320BDE8F08100BF00F03A
:10424000D7FD95F82400C0F3C00020B995F82400EC
:1042500000F0010000B9022700F050FE0FB138460F
:10426000EAE700BF442000F05BFA044600BF0CB14F
:1042700000BF00BF00BF00BF0CB900BF00BF00BF40
:104280000CB90420D8E744212046FCF77FF800BF92
:104290002D202070A5612846FFF70CFE20772846C8
:1042A00003F069FD4FF47A7332460B49204603F060
:1042B000F1FB07466FB966B900F09AFD00BF00BF79
:1042C00095F8240020F00800083085F8240000F05C
:1042D00015FE3846B0E700001551000870B50446D9
:1042E00000F086FD256900F009FE284670BD0146F4
:1042F0000878052802D00878072801D14868704757
:104300000878022801D14868F9E70878042801D123
:104310004868F4E70878032801D14868EFE708788F
:10432000082801D14868EAE70020E8E770B50446AC
:1043300000255CB1204601F08BFD38B100F058FD3E
:1043400094F8240000F0010500F0D8FD284670BD67
:104350000246002070472DE9FF5F04460F461546D0
:104360009946DDF838B0B84600BF2CB900BF00BF91
:10437000032004B0BDE8F09F00BF00BF1FB900BF1D
:1043800000BF0320F5E700BF00BF1DB900BF00BF9D
:104390000320EEE700BF00F02BFDA069C0B1D4E917
:1043A0000701401AA84201D9284602E0D4E90701D2
:1043B000401A06465EB1226AA16988183246414613
:1043C000FBF7CBFF206A30442062B044AD1B00BF36
:1043D00000F094FD204603F0CEFC82465DB1002043
:1043E000434602460146CDE9020BCDE9005920467D
:1043F000FFF76AFD82465046BBE770B504460D469E
:1044000000F0F6FC256100F079FD002070BD2DE97B
:10441000FF5F04468B4615461F46DDF83880D946B7
:1044200000BF2CB900BF00BF032004B0BDE8F09F5F
:1044300000BFA06900282ED0D4E90701401AA84285
:1044400003D2D4E90701401A00E028460646226A52
:10445000A169881832464946FBF77FFFB144AD1B7E
:10446000206A30442062D4E90710884200D097B116
:1044700000210122206A8DE8070003910A462046A8
:10448000A369FFF721FD20B100BF00BFA06900F0C4
:1044900080F90020A0612BE04FF4006000F040F9AB
:1044A0008246BAF1000F1CD04FF4006249465046D4
:1044B000FBF753FF00200121CB02CDE9003053462A
:1044C0000246CDE9021001462046FFF7FDFC50B13F
:1044D00000BF00BF504600F05CF94FF0000A042016
:1044E000A3E70420A1E7A5F5006509F5006900BF71
:1044F000B5F5006FD0D2A069A8B94FF4006000F004
:104500000FF9A0614FF40060E0610020206200BF5D
:10451000A06908B100BF00BF00BF00BFA06908B913
:1045200000BF00BF00BF55B1A06930B12A4649465F
:10453000A069FBF712FF256201E0042075E727B1AF
:10454000A06910B1204603F016FCB8F1000F0AD0A4
:10455000A06928B1D4E90701401AC8F8000002E0B8
:104560000020C8F8000000205FE70000F8B504460E
:104570000D460120064B502214210090284600F0E1
:10458000D5FA061E01D1034804603046F8BD00008C
:10459000357E000864010220F8B504460E46154633
:1045A00004F10800009000232A4631462068FFF7F6
:1045B0002EFFE0682844E0602846F8BD1CB504469C
:1045C0002B4890F8B40320F00100294981F8B40386
:1045D0000CB1204600E02748274948600846244996
:1045E000C1F888030020C1F88C0300F077FB4FF47A
:1045F000E1311F481C3000F075F801211C480830DB
:1046000000F0FEFB10211A480C3000F06FFB002078
:104610004FF48061164B194ACDE9001018A103F13F
:10462000140000F03BFC10211148103000F05EFB3C
:1046300000204FF480610E4B144ACDE9001014A104
:1046400003F1180000F02AFC094890F8B40320F0A8
:104650000100401C064981F8B40300F029FD012047
:1046600000F016FA012003F0ADF900201CBD000097
:1046700078640220994100082C010220254F00088F
:1046800070726F6475636572000000000D4F000862
:1046900070726F636573730070B505460C460E4803
:1046A000006820440C4908600C480068401C0B4915
:1046B00008600B4890F8B40300F0010008B902202C
:1046C00070BD00F095FB2146284602F021FE06460B
:1046D00000F014FC3046F3E74001022044010220C0
:1046E000786402207CB505460C460A4903C9CDE929
:1046F00000010948007828B9084828600121684667
:1047000000F025F82046FFF72FFA01200249087033
:1047100000207CBD60B0000853010220E998000829
:1047200070B5054600F064FB2946012004F0F2F95B
:10473000044600BF0CB900BF00BF00BF00BF0CB1F2
:1047400000BF00BF00BF00F0D9FB204670BD70B5B0
:1047500004460D462946204604F060F906463046D8
:1047600070BD70B505460E4600F042FB3146284646
:1047700004F0D0F9044600BF0CB900BF00BF00BF71
:1047800000BF0CB100BF00BF00BF00F0B7FB204668
:1047900070BD10B5044600F02BFB00BF00BF2046E3
:1047A00004F0CAF900F0AAFB10BD10B502460023C0
:1047B00002B109B9002010BD002904DD90688842CB
:1047C00008D3012306E01069441802F11C0084425A
:1047D00000D9012343B11069084410615068401AA0
:1047E00050609068401A90601846E4E7024600BFA7
:1047F0001AB900BF00BF0320704700BF00BF19B93E
:1048000000BF00BF0320F7E700BF04E050684B681B
:1048100018445060126810680028F7D150684B683F
:104820001844506011600020E6E72DE9FF47044678
:104830000F461546B9462CB127B11DB160680399E2
:10484000884203D2002004B0BDE8F087039840B14D
:1048500003AA2046039904F050FB04460CB900203B
:10486000F1E74FF0000817E0A0680399401AA8424A
:1048700003D2A0680399401A00E028460646206942
:10488000039A811832464846FBF767FDB144AD1BD9
:10489000B0440020039024680CB1002DE4D14046C0
:1048A000D1E72DE9F041054600BF25B900BF00BFA3
:1048B0000320BDE8F08100BF00262C4611E0E0682F
:1048C000A0F10108C4F80C80B8F1000F08D100BFB6
:1048D00000BF27682046FFF75CFF3C46761C00E0DF
:1048E00001E0002CEBD100BF3046E2E7F8B5054609
:1048F0000F46164665B16A463946284604F0FDFA69
:1049000004462CB120690099405C30700120F8BD4C
:104910000020FCE7024622B109B150687047906858
:10492000FCE70020FAE72DE9F84F07468946904654
:104930001C46CA4657B1B9F1000F07D0B8F1000FB5
:1049400004D004EB08017868884203D24FF0FF30AE
:10495000BDE8F88F3D4602E0A868241A2D6815B11D
:10496000A868A042F8D900260EE0A1196A46284698
:10497000FFF7BCFF28B11AF806009DF80010884226
:1049800001D0601CE4E7761C4645EED30020DFE74B
:104990002DE9F0410546884616461F46BDB1B8F1DF
:1049A000000F14D0F1196868884210D33C460AE021
:1049B0002346324641462846FFF7B5FF10B9204648
:1049C000BDE8F081641C6868801BA042F0D24FF003
:1049D000FF30F5E770B5054605F11C010120FFF732
:1049E000C0FE044600BF0CB900BF00BF00BF00BF3F
:1049F0000CB100BF00BF00BF44B100202060656063
:104A0000A56004F11C0020610120E060204670BD1B
:104A1000014600BF19B900BF00BF0320704700BFA7
:104A2000C868401CC8600020F8E718B111B10B68D5
:104A300043610283704770B504460D461646324600
:104A40002946204604F059FA70BD2DE9F04106468A
:104A50000C4615462046FBF7C0FC07462B463A4657
:104A600021463046FFF75FFFBDE8F0812DE9F041B8
:104A700006460C4615462046FBF7AFFC07462B467C
:104A80003A4621463046FFF783FFBDE8F08100003B
:104A900070B5054600BF4420FFF742FE044600BF44
:104AA0000CB100BF00BF00BF00BF0CB900BF00BF0A
:104AB00000BF0CB9042070BD44212046FBF766FC02
:104AC00000BF0120207041F288332A460249204667
:104AD00002F0E0FFEFE700001551000870B5054651
:104AE0000E4600BF4420FFF71BFE044600BF0CB17A
:104AF00000BF00BF00BF00BF0CB900BF00BF00BFB8
:104B00000CB9042070BD44212046FBF73FFC00BFD8
:104B100007202070A5614FF4FA633246024920460F
:104B200002F0B8FFEEE70000155100082DE9F0474C
:104B300005460E4617469846DDF8209000BF4420F3
:104B4000FFF7EEFD044600BF0CB100BF00BF00BF81
:104B500000BF0CB900BF00BF00BF14B90420BDE8FE
:104B6000F08744212046FBF711FC00BF3020207065
:104B70003120607025836683A783C4F820804FF4BA
:104B80007A734A460249204602F084FFE7E70000B4
:104B9000155100082DE9F04104460D46164602273E
:104BA0000CB905B9B6B100F01BF898B900F020F9BE
:104BB0001CB10A48D0F8900320601DB10748D0F816
:104BC000940328601EB10548D0F898033060002790
:104BD00000F094F93846BDE8F081000078640220C6
:104BE00010B500F005F9064890F8B403C0F340048E
:104BF00000F084F90CB1002010BD0220FCE7000099
:104C0000786402202DE9F04705460E46174698467F
:104C1000DDF8209000BF25B900BF00BF0320BDE82C
:104C2000F08700BF00BF4420FFF77AFD044600BFB5
:104C30000CB100BF00BF00BF00BF0CB900BF00BF78
:104C400000BF0CB90420EAE744212046FBF79EFB95
:104C500000BF1620207084F82480A561E6612762D9
:104C600047F230534A460249204602F013FFD6E786
:104C7000155100082DE9F04706460F4690461D469F
:104C8000DDF820900DB10020286000BF4420FFF720
:104C900047FD044600BF0CB100BF00BF00BF00BF0E
:104CA0000CB900BF00BF00BF14B90420BDE8F087F5
:104CB00044212046FBF76AFB00BF18202070A66144
:104CC000E761C4F82080A56247F230534A460249A2
:104CD000204602F0DFFEE9E71551000810B5024852
:104CE00000F05EF8012010BD5C0102207CB5044696
:104CF0000D46084903C9CDE9000100950021684629
:104D000003F09FFF2060206808B101207CBD0020D7
:104D1000FCE7000068B00008F0B587B004460D4617
:104D2000164603F084FF074616B94FF0FF3000E047
:104D30003046024601A8216803F08CFF01A807C88D
:104D400004AB07C30498102806D10598286003F027
:104D50006EFFC01B07B0F0BD4FF0FF30FAE770B533
:104D600004460D4603F063FF06464FF0FF32294626
:104D7000206803F0BDFF18B903F059FF801B70BD18
:104D80004FF0FF30FBE770B504460D460022294680
:104D9000206803F0ADFF08B9012070BD0020FCE7DA
:104DA00038B5044600200090684603F0D1FF20602B
:104DB000206808B1012038BD0020FCE710B504468A
:104DC0004FF0FF31206803F0D4FF08B9012010BD77
:104DD0000020FCE710B50446206803F0BFFF08B9C7
:104DE000012010BD0020FCE710B503F020FF10BD2E
:104DF00010B50248FFF7E2FF012010BD5C01022060
:104E000038B504460D46002000900121684603F0A5
:104E1000C9FF2060206820B11DB90021206804F07E
:104E20000FF8206808B1012038BD0020FCE710B55C
:104E30000446206803F0CFFF08B9012010BD002010
:104E4000FCE7014600200860012070470146086821
:104E500008B1012070470020FCE710B50446206827
:104E600003F0C6FF08B9012010BD0020FCE770B5B3
:104E700004460D4603F0DBFE064615B94FF0FF323F
:104E800000E02A461146206803F0DAFF18B903F063
:104E9000CEFE801B70BD4FF0FF30FBE72DE9F047E1
:104EA00086B004460D4616461F46DDE90E9A1421CB
:104EB00001A8FBF76BFA01950296ADF80CA0CDF8AE
:104EC0001490394601A803F0F9FF80460CB1C4F8EC
:104ED0000080B8F1000F03D0012006B0BDE8F087D4
:104EE0000020FAE710B504460CB1216800E000216B
:104EF000084603F0FBFF012010BD000010B502487A
:104F0000FFF768FF012010BD5C01022008B505E035
:104F100064226946024800F0D5F800BFF8E70000B7
:104F20008864022008B505462C46FFF761FF50E073
:104F3000FFF7E4FF002269462648FFF7EDFE06462C
:104F4000FFF756FF701C08B1009800B941E00098C7
:104F500020620098406928B3FFF7D0FF002104F1D8
:104F60000800FFF784FFFFF743FF00984169884777
:104F7000074697B9FFF7C2FF0098C16804F108001F
:104F8000FFF775FF0646FFF733FF04F10800FFF750
:104F900064FF701C38B9052705E004F10800FFF72D
:104FA0005CFF00E002270098007A20B10098001D05
:104FB000FFF753FF08E000BF00BF00BF0098FFF7F6
:104FC000E8FB0020009000BF002002490C39086275
:104FD00000BFADE7846402202DE9F04705460F4687
:104FE00090464FF0000910210120FFF7BAFB04465C
:104FF00014B90220BDE8F087FFF7F6FE06462A48FE
:10500000006818B129480068A6EB000905EB090003
:105010006060C4F80880E7602348006830B922481F
:105020000460FFF7E1FE214908603AE01E49096883
:105030004968626891420CD91B4909684968491B53
:10504000194A1268516018490968216016490C60B4
:1050500026E01549086820E061684268891A6160A5
:10506000016821B1016849686268914214D90168F8
:1050700031B1016849686268891A0268516007E0C5
:105080006168A94204D908490968496829446160EE
:1050900001682160046002E000680028DCD100BFE4
:1050A00000BF0020A6E70000480102204C010220BA
:1050B00010B5002202494FF4FA70FFF78DFF10BDC2
:1050C000793F00082DE9F04105460E46174600BF1E
:1050D0000F48006830B93A4631462846FFF71CFEB3
:1050E000BDE8F08102F08AFE044634B12246314622
:1050F0002846FFF711FE401C28B9FFF779FE03F0A0
:10510000A1FFFFF7FBFE00BF00BF2046E8E700005D
:105110004801022001B588B0089840783A2880F00C
:105120004786DFE810F045063A0042004A00520088
:105130004506450662004506450645064506450600
:1051400045064506450645064506450645065A00F8
:10515000F5007E00CD00D5005701090219019B0121
:105160004506C90258010A021A019C014C03720348
:10517000450654036A033605A505F2039005330579
:10518000050545066A058B03B2034506D503BB0535
:105190004506D1053D0645064405FE48C06908217F
:1051A0000790FDA0079A904708E3FA48C0690621D6
:1051B0000790FCA0079A9047F6E7F648C0690621D9
:1051C0000790FAA0079A9047EEE7F248C0690821D5
:1051D0000790F8A0079A9047E6E7EE48C0691121CA
:1051E0000790F7A0079A9047DEE7EA48C0690C21CC
:1051F0000790F8A0079A90470898806900210790C7
:1052000004F038FCE348C06908210790F5A0079A2C
:105210009047E048C06902210790E3A0079A9047B1
:10522000C2E7DC48C06909210790F1A0079A9047BE
:10523000089890F8240038B1D648C0690521079035
:10524000EEA0079A904706E0D248C0690521079072
:10525000ECA0079A904708988069002201210790E6
:1052600004F02CFECB48C06903210790E7A0079A01
:1052700090470898C06900220121079004F01EFEA3
:10528000C448C06901210790DDA0079A904708989B
:10529000006A68B1BF48C06901210790DCA0079A85
:1052A00090470898006A01220021079004F088FBCB
:1052B000B848C06902210790BBA0079A904773E7DE
:1052C000B448C0690A210790D2A0079A90476BE7BB
:1052D000B048C06908210790D1A0079A9047089864
:1052E000806968B1AB48C06901210790CFA0079AD7
:1052F00090470898806901221146079004F0DEFD6E
:10530000A448C06902210790A7A0079A90474BE7DD
:1053100008980078012802D10320079002E008983D
:10532000007E079007983030C0B206909948C06957
:105330000A210590BEA0059A90479648C0690121B0
:10534000059006A8059A90479248C06902210590E9
:1053500095A0059A904727E700BF8E48C0690621AF
:105360000790B6A0079A9047089840781B2806D166
:105370008848C06903210790B2A0079A904708980F
:105380004078212806D18348C06902210790AEA049
:10539000079A904708980178407881420BD1089885
:1053A00090F8240038B17B48C06904210790A7A079
:1053B000079A904706E07748C06904210790A5A0A6
:1053C000079A90477348C06903210790A3A0079AE2
:1053D0009047E9E600BF6F48C0690621079097A093
:1053E000079A904708984078192806D16948C069FB
:1053F0000321079093A0079A9047089840781F28A8
:1054000006D16448C069022107908FA0079A90478F
:105410006048C0690321079091A0079A90470898B7
:105420000178407881420AD10898007F38B1594804
:10543000C0690421079085A0079A904706E0554867
:10544000C0690421079083A0079A90475148C0691A
:105450000321079081A0079A9047A5E600BF4D4819
:10546000C0690621079075A0079A90470898407870
:105470001C2806D14748C0690321079071A0079AEC
:10548000904708984078222806D14248C0690221F6
:1054900007906DA0079A904708980178407881425C
:1054A0000BD1089890F8240038B13A48C06904211B
:1054B000079066A0079A904706E03648C069042125
:1054C000079064A0079A90473248C069012107906D
:1054D00056A0079A904708988069012211460790C4
:1054E00004F06EFA0898C069F0B12A48C069012139
:1054F000079047A0079A90470898C0690122114673
:10550000079004F05DFA0898006A68B12148C06904
:10551000012107903EA0079A90470898006A01224F
:105520001146079004F04CFA1A48C069022107900E
:105530001DA0079A904737E600BF1648C0690621AC
:1055400007903EA0079A9047089840781A2806D1FD
:105550001048C069032107903AA0079A904708981D
:105560004078202806D10B48C0690221079036A058
:10557000079A90470748C0690321079038A0079A07
:105580009047089801784078814275D10898007F4B
:1055900068E071E07864022041542B5253540D0AA4
:1055A00000000000415445300D0A000041544531CF
:1055B0000D0A000041542B474D520D0A0000000017
:1055C00041542B5359534D53475F4355523D330D6F
:1055D0000A00000041542B554152545F4355523D3F
:1055E000000000002C382C312C302C300000000042
:1055F00041542B43574A41505F0000004445463D0B
:10560000220000004355523D22000000222C2200BF
:105610002C00000041542B43575141500D0A00000B
:1056200041542B43574C4150000000003D00000006
:1056300041542B43574D4F44453D000041542B43AB
:105640004950000053544100415000005F4445461A
:10565000000000005F435552000000003F0D0A00AB
:105660004D41430040B1FE48C06904210790AFF2AC
:105670002400079A904707E0F948C0690421079081
:10568000AFF23000079A9047F548C06901210790B2
:10569000AFF26800079A90470898806901220021BC
:1056A000079004F08DF9EE48C06902210790AFF22F
:1056B0000810079A90477DE3E948C06908210790E0
:1056C000E8A0079A9047089890F8240040B1E44871
:1056D000C06904210790AFF28C00079A904707E059
:1056E000DF48C06904210790AFF29800079A9047FD
:1056F000DB48C06901210790AFF2D000079A9047BC
:105700000898806901221146079004F0D7FBD4481D
:10571000C06901210790AFF20810079A90470898D6
:10572000C06901221146079004F0C8FBCC48C0694B
:1057300001210790AFF22810079A9047089890F837
:1057400021000021079004F095F9C548C0690121A6
:105750000790AFF24410079A9047089890F82000FD
:105760000021079004F086F9BD48C0690121079027
:10577000AFF26410079A9047089890F82200002131
:10578000079004F077F9B648C06901210790AFF29D
:105790008010079A9047089890F8230008B10120DC
:1057A00000E000200021079004F064F9AC48C069D3
:1057B00002210790AFF21020079A9047FAE2A8481A
:1057C000C0690A210790AAA0079A9047F2E2A4486C
:1057D000C0690E210790A9A0079A90470898806990
:1057E00001221146079004F069FB9D48C06902211F
:1057F0000790A1A0079A9047DCE29948C069102160
:105800000790A2A0079A9047D4E29548C069072163
:105810000790A3A0079A90470898007E08B101203E
:1058200000E000200021079004F024F98C48C069B2
:105830000221079090A0079A9047BBE28848C06970
:105840000D21079098A0079A90470898008B68B19F
:105850008348C0690221079097A0079A904708984B
:10586000008B0021079004F005F906E07C48C06930
:105870000121079091A0079A90477948C0690221B9
:1058800007907DA0079A904794E208980078302806
:1058900009D10898408B142802DA0898408B00E060
:1058A0001420079001E0142007906D48C06914216E
:1058B000069083A0069A90470021079804F0DAF832
:1058C0006748C069022106906BA0069A904771E272
:1058D00008980078302803D10898808B079001E061
:1058E000642007905E48C0690A2106907AA0069A53
:1058F00090470021079804F0BDF85948C06902217B
:1059000006905DA0069A904754E20020079006900A
:10591000FFF766F928B1089802F08EF8022009B066
:1059200000BD0021089880F82C101320079028E073
:10593000079800EB80014A482C3000EBC10090F83A
:10594000240000F0010030B14548406A0122079967
:105950008A40104088B9079800EB800140482C30FD
:1059600000EBC10006900798C1B2069841700798F5
:10597000C1B2089880F82C1006E00798401E40B28B
:10598000079007980028D3DA00BF069808B90620C8
:10599000C5E70898806918B1089906988969086070
:1059A0002F48C0690C2103904EA0039A9047002114
:1059B000079804F05FF82A48C069022103904DA0BF
:1059C000039A9047089890F82200022807D12448AB
:1059D000C0690321039048A0039A904717E00898F4
:1059E00090F8220038B91E48C0690321039043A0F3
:1059F000039A90470BE0089890F82200012806D1FE
:105A00001748C069032103903DA0039A90471448AA
:105A1000C06903210390AFF20C40039A90470898A5
:105A2000C0690290FAF7D9FC80B203900898C06967
:105A300002900B48C0690190DDE90120039990476D
:105A40000748C069022103902EA0039A9047089846
:105A5000008C04A9039003F0CDF804A854E00000E2
:105A60007864022041542B435753415000000000FA
:105A700041542B43574C49460D0A000041542B43D7
:105A800057484F53544E414D453D000041542B4320
:105A900057484F53544E414D453F0D0A00000000FA
:105AA00041542B5750533D0041542B4349505345CB
:105AB000525645523D000000312C000030000000DD
:105AC00041542B4349505345525645524D4158433A
:105AD0004F4E4E3D0000000041542B43495053545B
