:020000040800F2
:1000000038930320C90200081B280008C7200008F5
:100010001728000855070008394B000800000000A9
:100020000000000000000000000000000D020008B9
:10003000570800080000000061020008553700085A
:10004000E3020008E3020008E3020008E3020008FC
:10005000E3020008E3020008E3020008E3020008EC
:10006000E3020008E3020008E3020008E3020008DC
:10007000E3020008E3020008E3020008E3020008CC
:10008000E3020008E3020008E3020008E3020008BC
:10009000E3020008E3020008E3020008E3020008AC
:1000A000E3020008E3020008E3020008E30200089C
:1000B000E3020008E3020008E3020008E30200088C
:1000C000E3020008E3020008E3020008E30200087C
:1000D000E3020008E3020008A94A0008D94A000820
:1000E000E3020008E3020008E3020008E30200085C
:1000F000E3020008E3020008E3020008E30200084C
:10010000E3020008E3020008E3020008E30200083B
:10011000B5440008E5440008E3020008E3020008D3
:1001200059070008E3020008E3020008E3020008A0
:10013000E3020008E3020008E3020008E30200080B
:10014000E3020008E3020008E3020008E3020008FB
:1001500069070008E3020008E3020008094B0008F1
:10016000E3020008E3020008E3020008E3020008DB
:10017000E3020008E3020008E302000800000000B8
:10018000E3020008E3020008194500084945000899
:10019000E3020008E3020008E3020008E3020008AB
:1001A000E3020008E3020008E3020008E30200089B
:1001B000E3020008E3020008E3020008E30200088B
:1001C000E3020008E3020008E3020008E30200087B
:1001D000E3020008E3020008E3020008F529000832
:1001E000E3020008E3020008E3020008E30200085B
:1001F000E3020008E3020008DFF80CD000F03EF94B
:1002000000480047A1C40008389303202B4B19680D
:100210000868B0E8F04F80F30988BFF36F8F4FF0A4
:10022000000080F311887047000000000648006855
:10023000006880F3088862B661B6BFF34F8FBFF3E2
:100240006F8F00DF00BF00BF08ED00E0DFF80C009B
:10025000016841F470010160704700BF88ED00E063
:10026000EFF30980BFF36F8F144B1A681EF0100F65
:1002700008BF20ED108A20E9F04F106008B44FF05D
:10028000E00072B680F31188BFF34F8FBFF36F8F1A
:1002900062B60EF04BFE4FF0000080F3118808BCF0
:1002A00019680868B0E8F04F1EF0100F08BFB0ECF6
:1002B000108A80F30988BFF36F8F704724010220F2
:1002C000EFF3058070470000064880470648004766
:1002D000FEE7FEE7FEE7FEE7FEE7FEE7FEE7FEE7F6
:1002E000FEE7FEE75D370008F90100082DE9F05F41
:1002F0000546002092469B46884606468146402495
:100300001BE0284641464746224600F0A6F85346E1
:100310005A46C01A914110D311461846224600F0A1
:100320008DF82D1A67EB01084F4622460120002167
:1003300000F084F817EB00094E41201EA4F10104DF
:10034000DFDC484631462A464346BDE8F09FA0F12F
:100350004101192900D82030704740EA01039B076A
:1003600003D009E008C9121F08C0042AFAD203E02A
:1003700011F8013B00F8013B521EF9D27047D2B28E
:1003800001E000F8012B491EFBD270470022F6E77E
:1003900010B513460A4604461946FFF7F0FF2046FB
:1003A00010BD30B505462A460B4612F8010B13F86E
:1003B000014B08B1A042F8D01CB1002802D06D1C3E
:1003C000F1E7284630BDCAB2401E10F8011F8A422C
:1003D00002D00029F9D100207047421C10F8011BFF
:1003E0000029FBD1801A704710B5002200E0521C92
:1003F000835C8C5CA34201D1002BF8D1D8B2E1B26E
:10040000401A10BD30B504460020034600E05B1CD6
:10041000934203D2E05CCD5C401BF8D030BD30B5D8
:1004200005460020034600E05B1C934205D2EC5CCD
:10043000C85C201A01D1002CF6D130BD202A04DB83
:10044000203A00FA02F1002070479140C2F12003E7
:1004500020FA03F3194390407047202A04DB203A26
:1004600021FA02F00021704721FA02F3D040C2F1D4
:10047000200291400843194670470000064C074D82
:1004800006E0E06840F0010394E807009847103464
:10049000AC42F6D3FFF7B4FE341901085419010831
:1004A00070B58C1810F8015B15F0070301D110F836
:1004B000013B2A1106D110F8012B03E010F8016B63
:1004C00001F8016B5B1EF9D12B0705D40023521EE6
:1004D0000DD401F8013BFAE710F8013BCB1A921C4E
:1004E00003E013F8015B01F8015B521EF9D5A1424C
:1004F000D8D3002070BD000010B504462146024844
:1005000001F0E6F910BD0000347D032010B5044869
:1005100001F0F1F9042801D0012010BD0020FCE712
:10052000347D032010B500241248134908600020D0
:100530004860002110488160C160016141618161B2
:1005400000F01CF802F052FA012801D0012010BD81
:10055000094801F0D9FA00B1012444B94FF400610F
:10056000054801F068F808B1012400E000242046A5
:10057000EDE70000001C0140347D03207CB50446FB
:100580000D4600BF5448006840F0800052490860A2
:100590000846006800F08000019000BF00BF00BF67
:1005A0004D481438006840F480004B491439086005
:1005B0000846006800F48000019000BF00BF0A20D8
:1005C000032101230022CDE900101821434803F044
:1005D0000DFB0B20032101230022CDE90010C021D7
:1005E0003F4803F003FB0B20032101230022CDE948
:1005F000001049023B4803F0F9FA00220521672068
:1006000000F001FC672000F0F1FB4FF0B0503649DC
:100610004860002134488160C1604FF4806101610D
:1006200089004161890081612021C1614FF440311D
:10063000016204214162032181624FF40001C16221
:100640008910016329482849086000BF0846E06313
:10065000846300BF00F032F9234800F085FA4FF0C0
:10066000B050234948604021214881600021C16089
:100670004FF480610161890041618900816120211D
:10068000C1614FF440310162042141620321816262
:100690004FF40001C1628910016314487830144995
:1006A000086000BF08462064846300BF00F006F9BC
:1006B0000F4800F059FA00220621382000F0A3FB71
:1006C000382000F093FB00220621442000F09BFB21
:1006D000442000F08BFB7CBD443802400004024003
:1006E000000C024000180240B87D03201064024054
:1006F000187E03202DE9F843064614461D46DDE921
:1007000008783B46224631460548CDF8008001F086
:100710005BFA10B10120BDE8F8830020FBE7000080
:10072000347D03202DE9F843064614461D46DDE9D5
:1007300008783B46224631460548CDF8008001F056
:100740006AFB10B10120BDE8F8830020FBE7000040
:10075000347D032000BFFEE710B50249C86B00F0EE
:10076000DFF810BD347D032010B50249086C00F09D
:10077000D7F810BD347D03200146087810381823BF
:10078000B0FBF3F20848805CC865032A05D9086805
:100790006FF30900001D886503E008686FF3090026
:1007A0008865886D70470000F2FB00080146002054
:1007B0008A6A8B69CBB932B1012A0DD0022A03D0E3
:1007C000032A10D10EE000BFCB6A03F08073B3F1AF
:1007D000807F00D1012007E0CB6AB3F1C07F00D158
:1007E000012001E000E000BF34E08B69B3F5005F59
:1007F0001AD132B1012A07D0022A03D0032A11D11B
:100800000AE000BF01200EE0CB6A03F08073B3F171
:10081000807F00D1012006E0CB6AB3F1C07F00D118
:10082000012000E000BF15E032B1012A05D0022A04
:1008300004D0032A0CD103E000BF00BF012008E070
:10084000CB6A03F08073B3F1807F00D1012000E018
:1008500000BF00BF7047704710B50EF0D7FF0949C1
:10086000096888420CD10EF0EDFF07490968401A6B
:100870000649086006480068096808440449086099
:1008800010BD0000840102208C0102209001022092
:1008900094010220014691F83500022803D08020FF
:1008A000486501207047052081F835000868006818
:1008B00020F001000A6810600020F3E770B50446DC
:1008C0000CB9012070BD94F83500022800D1F9E779
:1008D0002068006820F0010021680860002021687D
:1008E000086021684860216888602168C8602168C4
:1008F00008612120216848612046FFF73DFF054639
:1009000094F85C103F208840A8600020606584F85F
:10091000350000BF84F8340000BF00BFD2E70000FC
:10092000F8B50446002000908D4800684FF4165139
:10093000B0FBF1F7A56D2E6894F85C100820884094
:10094000304098B12068006800F0040070B1206861
:10095000006820F004002168086094F85C1008200A
:100960008840A860606D40F00100606594F85C10FC
:100970007C488840304068B12068406900F08000C1
:1009800040B194F85C1077488840A860606D40F0F2
:100990000200606594F85C107248C01C88403040CA
:1009A00070B12068006800F0020048B194F85C1053
:1009B0006C48C01C8840A860606D40F00400606511
:1009C00094F85C1010208840304078B320680068AC
:1009D00000F0080050B394F85C1010208840A86024
:1009E0002068006800F4802080B12068006800F46E
:1009F000002028B9206CC8B12046216C884715E03A
:100A0000A06C98B12046A16C88470FE02068006870
:100A100000F4807028B92068006820F00800216880
:100A20000860206C10B12046216C884794F85C1057
:100A3000202088403040002865D02068006800F001
:100A4000100000285FD094F85C1020208840A86037
:100A500094F83500052828D12068006820F0160099
:100A6000216808602068406920F0800021684861A2
:100A7000206C08B9A06C28B12068006820F008003C
:100A80002168086094F85C103F208840A86000BF8F
:100A9000002084F8340000BF012084F83500206D68
:100AA00010B12046216D8847F8BD2068006800F429
:100AB000802080B12068006800F4002028B9606CB4
:100AC00010B12046616C88471DE0E06BD8B120462C
:100AD000E16B884717E02068006800F4807068B90F
:100AE0002068006820F010002168086000BF002026
:100AF00084F8340000BF012084F83500E06B10B1A9
:100B00002046E16B8847606D38B3606D00F00100EE
:100B1000F0B1052084F835002068006820F001005D
:100B20002168086000BF0098401C0090B84200D9BE
:100B300005E02068006800F001000028F3D100BF44
:100B400000BF002084F8340000BF012084F8350085
:100B5000E06C10B12046E16C884700BFA4E70000BC
:100B6000DC020220010080002DE9F041044600254E
:100B700000F08CF8074614B90120BDE8F081606AE6
:100B800000B100BF00BF002084F8340000BF022085
:100B900084F835002068006820F0010021680860B2
:100BA0000AE000F073F8C01B052805D92020606515
:100BB000032084F83500E0E72068006800F00100B9
:100BC0000028EED12068056821480540D4E90101DC
:100BD0000843E16808432169084361690843A16942
:100BE0000843E1690843216A08430543606A042811
:100BF00003D1D4E90B010843054320680560206850
:100C0000456925F00705606A0543606A04280DD12F
:100C1000A06A0543E06A48B12046FFF7C7FD28B146
:100C200040206065012084F83500A6E72068456112
:100C30002046FFF7A1FD064694F85C103F2088404F
:100C4000B06000206065012084F83500002094E742
:100C50003F8010E000B5014600BFEFF3058048B9C2
:100C600000F014F8024600BF00F010F8801A884225
:100C7000FAD309E006E04FF0E020006900F480308C
:100C800000B1491E0029F6D100BD000001480068EE
:100C9000704700000400022010B52E480068401C78
:100CA0002C4908602C48006820B12B480068401E81
:100CB00029490860002444E0284850F8240000280E
:100CC0003DD0264850F824000078C0F34000B0B36F
:100CD000224850F82400806840B1204850F8240091
:100CE0008068401E1D4951F8241088601B4850F848
:100CF0002400806818BB194B53F824301969174B2E
:100D000053F8240053F82430DA689047134850F819
:100D100024004168114850F8240081600F4850F8C1
:100D20002400007800F0010048B90C4850F8240075
:100D3000006820F00201094850F824000160601C9E
:100D4000C4B20648001F0078A042B5DC02F08FFD57
:100D500010BD00000400022000000220F00202206A
:100D600010B50848006840F4007006490860032088
:100D700000F088F80F2000F007F800F019F80020C4
:100D800010BD0000003C024070B5044607480068F2
:100D90004FF47A71B0FBF1F5284601F03DF90022DD
:100DA0002146501E00F02FF8002070BDDC0202200A
:100DB0007047000000BF00F01F0201219140034A6C
:100DC000430942F8231000BF7047000080E200E0B2
:100DD00000BF00F01F0201219140034A430942F87D
:100DE000231000BF7047000080E100E000BF00F06A
:100DF0001F02012191404209920002F1E022C2F853
:100E0000001100BF70472DE9F05F80460D46164681
:100E1000002701F003FD074639462A46334601F014
:100E20000700C0F1070ABAF1040F02D94FF0040A13
:100E300001E0C0F1070AD14600F1040ABAF1070F38
:100E400002D24FF0000A01E0A0F1030AD4464FF0AD
:100E5000010A0AFA09FAAAF1010A0AEA020A0AFAD6
:100E60000CFA4FF0010B0BFA0CFBABF1010B0BEA88
:100E7000030B4AEA0B042146404601F0D7FCBDE8CB
:100E8000F09F000000BF00F00702064B19684FF604
:100E9000FF031940044B0B4343EA0221014B196045
:100EA00000BF70470CED00E00000FA0538B50024E3
:100EB00000BF2048006840F080501E490860084686
:100EC000006800F08050009000BF00BF1A48006822
:100ED00040F4803018490860FFF7D8FE044607E068
:100EE000FFF7D4FE001BB0F57A7F01D9032038BD8F
:100EF0001148406800F48030B0F5803FF0D10E48D2
:100F0000006840F400300C490860FFF7BFFE04465B
:100F100007E0FFF7BBFE001BB0F57A7F01D9032085
:100F2000E5E70548406800F40030B0F5003FF0D137
:100F30000020DCE7403802400070004070B50446F5
:100F40000D4600260CB9012070BD5148006800F024
:100F50000F00A8420ED24E48006820F00F00284330
:100F60004B4908600846006800F00F00A84201D015
:100F70000120E9E7207800F00200022807D1454867
:100F8000006820F0F000A16808434249086020781A
:100F900000F0010090B36068012807D13D4808388F
:100FA0000068C0F34040A0B90120CDE76068022886
:100FB00007D1384808380068C0F3406048B90120BC
:100FC000C2E7344808380068C0F3400008B901207F
:100FD000BAE73048006820F00300616808432D49F3
:100FE0000860FFF753FE064609E0FFF74FFE801B3F
:100FF00041F28831884202D90320A5E707E025485D
:10100000006800F00C006168B0EB810FEDD1204862
:10101000006800F00F00A8420ED91D48006820F0BB
:101020000F0028431A4908600846006800F00F00C6
:10103000A84201D0012087E7207800F004000428AE
:1010400007D11448006820F4E050E16808431149D2
:101050000860207800F00800082808D10D480068D2
:1010600020F46040216940EAC1000A49086000F0AC
:101070003DF808490968C1F30311074A515CC840AB
:10108000064908600F20FFF77FFE00205CE70000A4
:10109000003C0240083802406E160108DC020220C3
:1010A0000148006870470000DC02022000B5FFF72D
:1010B000F7FF04490968C1F38221034A515CC84023
:1010C00000BD0000083802407E16010800B5FFF799
:1010D000E7FF04490968C1F34231034A515CC84043
:1010E00000BD0000083802407E16010830B500211E
:1010F0000022002300201E4C246804F00C0424B1BC
:10110000042C04D0082C2ED103E01A482DE01A48F4
:101110002BE0174C241F246804F03F01144C241FBB
:10112000246804F4800454B1134CB4FBF1F4104D62
:101130002D1F2D68C5F3881504FB05F209E00D4C41
:10114000B4FBF1F40A4D2D1F2D68C5F3881504FB7F
:1011500005F2074C241F2468C4F30144641C630097
:10116000B2FBF3F001E0034800BF00BF30BD000058
:10117000083802400024F40040787D01F8B50446A8
:1011800000260CB90120F8BD207800F001000028ED
:1011900071D0F848006800F00C0004280DD0F54824
:1011A000006800F00C00082813D1F248001F006806
:1011B00000F48000B0F5800F0BD1EE4808380068CD
:1011C000C0F34040002869D06068002866D1012043
:1011D000D9E700BF6068B0F5803F08D1E54808381E
:1011E000006840F48030E349083908602EE0606808
:1011F00068B9E0480838006820F48030DD490839D3
:1012000008600846006820F4802008601EE06068DE
:10121000B0F5A02F0DD1D7480838006840F48020E1
:10122000D449083908600846006840F480300860F6
:101230000CE0D0480838006820F48030CD490839E7
:1012400008600846006820F48020086000BF6068DD
:1012500090B1FFF71BFD054606E0FFF717FD401BA9
:10126000642801D903208EE7C24808380068C0F31B
:1012700040400028F1D011E0FFF708FD054606E0E8
:10128000FFF704FD401B642801D903207BE7B94820
:1012900008380068C0F340400028F1D1207800F001
:1012A0000200022869D1B348006800F00C0058B170
:1012B000B048006800F00C0008281CD1AD48001FA1
:1012C000006800F48000B0B9AA4808380068C0F38C
:1012D000400020B1E068012801D0012053E7A54873
:1012E0000838006820F0F800216940EAC100A149EF
:1012F0000839086041E0E06828B39E480838006873
:1013000040F001009B4908390860FFF7BFFC054623
:1013100006E0FFF7BBFC401B022801D9032032E79F
:10132000944808380068C0F340000028F1D0914884
:101330000838006820F0F800216940EAC1008D49B2
:101340000839086019E08B480838006820F001006F
:10135000884908390860FFF799FC054606E0FFF761
:1013600095FC401B022801D903200CE7814808386E
:101370000068C0F340000028F1D1207800F0080098
:10138000082836D16069D0B17A486C30006840F0E6
:10139000010078496C310860FFF778FC054606E0EB
:1013A000FFF774FC401B022801D90320EBE67148CB
:1013B0006C300068C0F340000028F1D019E06D489F
:1013C0006C30006820F001006A496C310860FFF75A
:1013D0005DFC054606E0FFF759FC401B022801D9D9
:1013E0000320D0E663486C300068C0F3400000285A
:1013F000F1D1207800F00400042874D15D48383021
:10140000006800F0805080B900BF5A48383000684A
:1014100040F080505749383108600846006800F0B5
:101420008050009000BF00BF01265348006800F4C0
:101430008070B0B95048006840F480704E49086030
:10144000FFF724FC054606E0FFF720FC401B64285C
:1014500001D9032097E64848006800F4807000280E
:10146000F2D000BFA068012808D142486830006867
:1014700040F001003F49683108602DE0A06868B97C
:101480003C486830006820F001003A496831086043
:101490000846006820F0040008601DE0A0680528E8
:1014A0000DD134486830006840F00400314968319B
:1014B00008600846006840F0010008600CE02D4814
:1014C0006830006820F001002A4968310860084649
:1014D000006820F00400086000BFA068A8B1FFF712
:1014E000D5FB054609E02EE0FFF7D0FB401B41F29B
:1014F0008831884201D9032045E61E4868300068DB
:10150000C0F340000028EFD013E0FFF7BFFB054613
:1015100008E0FFF7BBFB401B41F28831884201D94C
:10152000032030E6134868300068C0F3400000280C
:10153000EFD1012E07D10F483830006820F08050DD
:101540000C4938310860A069F0B30A48006800F01F
:101550000C00082868D0A06902284DD10548083839
:10156000006820F08070034908390860FFF78EFB9F
:1015700005460AE00838024000700040FFF786FB8D
:10158000401B022801D90320FDE529480068C0F36B
:1015900040600028F2D1D4E907010843616A40EABB
:1015A00081110122A06AC2EB500041EA00412C20C7
:1015B000005D41EA00613020005D41EA00701C4995
:1015C000091D0860081F00E030E0006840F08070EE
:1015D000091F0860FFF75AFB054606E0FFF756FBB8
:1015E000401B022801D90320CDE511480068C0F353
:1015F00040600028F2D019E00D48006820F08070AB
:101600000B490860FFF742FB054606E0FFF73EFB8B
:10161000401B022801D90320B5E505480068C0F346
:1016200040600028F2D101E00120ACE50020AAE5ED
:1016300000380240704770B58AB004460D46002657
:10164000032084F83400606C032820D0B5F5805F57
:1016500004D1A06B40F08050A0631CE0B5F5006F92
:1016600007D1204602F01DF80646A06B3043A06368
:1016700011E03DB9204601F0DFFF0646A06B304384
:10168000A06308E0A06B40F00060A06303E0A06BE3
:1016900040F08050A063A06B40B140F2FF50216841
:1016A0008863012084F834000AB070BD606804903B
:1016B000A0680590E0680690079560690890A069A9
:1016C000099007A807C88DE80700206804A90EC97B
:1016D00001F072FD012084F834000020E4E7704737
:1016E00030B503460022586E020E90090870C2F30E
:1016F0008300487002F003008870586EC0F3074200
:10170000CA70B3F86400C0F307220A7193F864202A
:101710004A71986E020E4FF6FF7000EA0210C88000
:10172000986EC0F30742C88840EA1210C88002F0E1
:101730000F0008726820C05AC0F30722D00948720F
:10174000C2F380108872C2F34010C872C2F3001056
:10175000087300204873586C00283ED19007000D94
:1017600008616820C25C086940EA82000861D86E9E
:10177000020E086940EA92100861C2F3C2000875BF
:1017800002F007004875D86EC0F30742500988750B
:10179000C2F38200C8759007400F08766C20C05ACB
:1017A000C0F30722087E40EAD21008760869401C80
:1017B00058650C7E586DA41C0125A54068435865EA
:1017C0000C7A0120A0409865D3E91504640A6043AF
:1017D000D8654FF400741C6630E0586C012821D1A4
:1017E0006820C25C9006800A0861D86E020E086903
:1017F00040EA02200861D86EC0F30742086910432E
:1018000008616C20C05AC0F307220869441C4FF4D9
:101810008060A4FB00045865D8654FF400749C6593
:101820001C660BE040F2FF501C68A063986B40F010
:1018300080509863012083F8340030BDC2F38010DB
:1018400001F8190F9006400E48706C20C25C487871
:1018500040EAD210487002F07F008870186F020EC4
:10186000D009C870C2F341100871C2F382004871F8
:101870009007000F8871186FC0F30742887940EA1B
:1018800092108871C2F34010C8710020087202F0F3
:10189000010048727020C05AC0F30722D009887234
:1018A000C2F38010C872C2F340100873C2F3001074
:1018B0004873C2F38100887302F00300C87370207C
:1018C000C25C500808740120487419390020B4E73C
:1018D0000246506C0860906C4860D06C8860106D57
:1018E000C860506D0861906D4861D06D8861106E60
:1018F000C86100207047F8B5044604260025002082
:1019000000906946204601F07EFE054615B1A06BA9
:101910002843A0630098C0F343263046F8BD00007A
:1019200070B5044600252068406BC0F300200028F5
:1019300062D04FF48070216888632068C06B20F407
:101940009D702168C863206B00F0080048B3206BCD
:1019500000F0020018B9206B00F0200050B12068A0
:1019600001F0DCF905462DB1A06B2843A0632046A9
:10197000FFF7B5FE40F2FF5021688863012084F82C
:101980003400206B00F0010018B9206B00F0020059
:1019900018B1204600F03DFAB1E0204600F03AFAD6
:1019A000ADE0206B00F080000028F5D0206B00F047
:1019B000200050B1206801F0B1F905462DB1A06BAF
:1019C0002843A0632046FFF78AFE206B00F0010049
:1019D0000028E1D1206B00F002000028DCD1206853
:1019E000C06A20F008002168C862012084F8340031
:1019F000204600F00FFA82E02068406BC0F3803090
:101A000038B14FF4804021688863204601F07EFEA3
:101A100075E02068406BC0F3C03038B14FF400402F
:101A200021688863204601F0DBFD68E02068406B98
:101A300000F03A0008B1012000E0002000285ED04C
:101A40002068406BC0F3400018B1A06B40F002006A
:101A5000A0632068406BC0F3C00018B1A06B40F0D9
:101A60000800A0632068406BC0F3401018B1A06B61
:101A700040F02000A0632068406BC0F3001018B154
:101A8000A06B40F01000A06340F2FF502168886313
:101A90002068C06B20F49D702168C863206B00F043
:101AA000800010B3206C50B11548216C0865206C83
:101AB000FEF7F0FE18B3206C01F0E1FB1FE0E06BD5
:101AC00050B11048E16B0865E06BFEF7E3FEB0B182
:101AD000E06B01F0AEFB12E00020A063012084F86F
:101AE00034002046FFF7A6FD09E0206B00F0080057
:101AF00028B1012084F834002046FFF7F0FD70BDC6
:101B00007F3200083332000810B504460CB90120BA
:101B100010BD94F8340020B900202077204600F052
:101B200052F8032084F83400204600F008F8002022
:101B3000A0632063012084F834000020E8E730B57A
:101B400089B004460025002003900490059006907B
:101B500007907620089006A807C88DE8070020683F
:101B600003A90EC901F028FB2068406820F48070AA
:101B700021684860206801F039FB2068406840F423
:101B80008070216848600220FFF764F8204601F069
:101B9000B0FC054645B1012084F83400A06B284311
:101BA000A063012009B030BD204601F024FC0546A9
:101BB0003DB1012084F83400A06B2843A0630120CC
:101BC000F0E70020EEE770472DE9F04F87B00446BC
:101BD0008A4690461E46DDF840900025FFF756F8ED
:101BE0000090AB465746BAF1000F07D1A06B40F00A
:101BF0000060A063012007B0BDE8F08F94F83400C6
:101C000001287DD10020A06308EB0601E06D814230
:101C100005D9A06B40F00070A0630120EBE7032022
:101C200084F8340000202168C862606C012801D06B
:101C30004FEA48284FF40071206800F01FFF054666
:101C400055B140F2FF5021688863A06B2843A06320
:101C5000012084F83400CEE74FF0FF30019070028D
:101C60000290902003900220049000200590012013
:101C7000069001A9206801F0A9F8012E07D90220D9
:101C800020634146206800F065FF054606E001201C
:101C900020634146206800F07AFF054655B140F2C6
:101CA000FF5021688863A06B2843A063012084F85B
:101CB0003400A0E72AE02068406B00F4004068B1DF
:101CC0004FF0000B06E0206801F095FA47F82B0072
:101CD0000BF1010BBBF1080FF5D32037B9F1000F61
:101CE00005D0FEF7D3FF0099401A48450ED340F2C5
:101CF000FF5021688863A06B40F00040A06300E0C3
:101D000081E0012084F83400032074E72068406BF0
:101D100000F495700028CED02068406B00F48070ED
:101D2000A0B1012E12D9606C03280FD0206800F0FA
:101D3000F5FF054655B140F2FF5021688863A06B5E
:101D40002843A063012084F8340054E72068406BE6
:101D500000F0080058B140F2FF5021688863A06B82
:101D600040F00800A063012084F8340043E72068B5
:101D7000406B00F0020058B140F2FF5021688863C8
:101D8000A06B40F00200A063012084F8340032E729
:101D90002068406B00F0200058B140F2FF502168ED
:101DA0008863A06B40F02000A063012084F8340019
:101DB00021E719E0206801F01EFA38603F1DB9F1F3
:101DC000000F05D0FEF762FF0099401A48450BD37B
:101DD00040F2FF5021688863A06B40F00040A06390
:101DE000012084F8340006E72068406B00F40010FE
:101DF0000028DFD140F2FF5021688863012084F879
:101E000034000020F7E6A06B40F00050A0630120F2
:101E1000F1E6704770472DE9F04F87B004468846D9
:101E200017461E46DDF840B00025FEF72FFF009054
:101E3000A946C246B8F1000F07D1A06B40F0006080
:101E4000A063012007B0BDE8F08F94F834000128AA
:101E50007DD10020A063B919E06D814205D9A06B46
:101E600040F00070A0630120ECE7032084F8340008
:101E700000202168C862606C012800D07F024FF406
:101E80000071206800F0FAFD054655B140F2FF50A0
:101E900021688863A06B2843A063012084F8340084
:101EA000D0E7012E07D9202020633946206800F0B2
:101EB00053FF054606E0102020633946206800F0F5
:101EC00068FF054655B140F2FF5021688863A06B5A
:101ED0002843A063012084F83400B3E74FF0FF30BB
:101EE00001907002029090200390002004900590D1
:101EF0000120069001A9206800F068FF2AE0206810
:101F0000406B00F4804070B14FF0000906E00AEB2E
:101F10008901206801F087F909F10109B9F1080F79
:101F2000F5D30AF1200ABBF1000F05D0FEF7AEFE93
:101F30000099401A58450DD340F2FF50216888633C
:101F4000A06B2843A063012084F8340000E05DE02A
:101F5000032077E72068406B00F48D700028CED016
:101F60002068406B00F48070A0B1012E12D9606C23
:101F700003280FD0206800F0D1FE054655B140F28D
:101F8000FF5021688863A06B2843A063012084F878
:101F9000340057E72068406B00F0080058B140F269
:101FA000FF5021688863A06B40F00800A063012007
:101FB00084F8340046E72068406B00F0020058B116
:101FC00040F2FF5021688863A06B40F00200A063DC
:101FD000012084F8340035E72068406B00F01000E1
:101FE00058B140F2FF5021688863A06B40F01000A8
:101FF000A063012084F8340024E740F2FF502168F8
:102000008863012084F8340000201BE7A06B40F0B7
:102010000050A063012015E770B504462546681EF0
:10202000B0F1807F01D301200FE0681E4FF0E02166
:1020300048610F214FF0FF3000F0F8FB00204FF017
:10204000E021886107200861002070BD10B50446BA
:102050000CB9012010BDA06900B100E000BF94F8E8
:10206000690028B9002084F86800204600F02AF8AA
:10207000242084F869002068006820F001002168AD
:102080000860204602F014FB012800D1E2E7606AF4
:1020900010B1204602F070FA2068406820F49040A9
:1020A000216848602068806820F02A0021688860E4
:1020B0002068006840F0010021680860204602F0B6
:1020C000D0FAC7E7704700BFFEE700000249096881
:1020D0000143014A116070472038024002490968F3
:1020E0008143014A11607047203802400249096863
:1020F0000143014A116070472438024002490968CF
:102100008143014A1160704724380240F0B503460C
:102110000A4600240021106890FAA0F0B0FA80F47A
:102120007FE00125A540106800EA0501002977D06D
:1021300050681D6891FAA1F6B6FA86F67700032674
:10214000BE40B54391FAA1F6B6FA86F6760000FADB
:1021500006F635431D6000BF5068012802D0506864
:10216000022814D190689D6891FAA1F6B6FA86F615
:1021700077000326BE40B54391FAA1F6B6FA86F67B
:10218000760000FA06F635439D6000BF00BF106977
:10219000DD6891FAA1F6B6FA86F677000326BE400E
:1021A000B54391FAA1F6B6FA86F6760000FA06F67D
:1021B0003543DD6000BF5068022831D191FAA1F0AB
:1021C000B0FA80F0082814D250691D6A91FAA1F67D
:1021D000B6FA86F6B7000F26BE40B54391FAA1F6CF
:1021E000B6FA86F6B60000FA06F635431D6200BF61
:1021F00016E050695D6A0E0A96FAA6F6B6FA86F6F9
:10220000B7000F26BE40B5430E0A96FAA6F6B6FAF8
:1022100086F6B60000FA06F635435D6200BF00BFE1
:10222000641C1068E04000287FF47BAF50680128F0
:1022300002D05068022809D1D56810685E688643CC
:1022400000FB05F73E435E6000BF00BF0120F0BD0C
:102250002DE9F04104460025C02C29D1204600F08C
:10226000BDF8B0F5400F18D0A0F54000403820B1BF
:10227000402806D080280FD108E000F01FFB05465B
:1022800015E000F07DF900B1504D10E000F080F94C
:1022900008B14FF400450AE000BF00F00FFB07460D
:1022A00000F0D8FA064600F0E5FA054600BF89E0DE
:1022B000B4F5407F2AD1204600F090F8B0F1407F7D
:1022C00019D04349084430B1B0F5807F07D0B0F54C
:1022D000007F0FD108E000F0F1FA054615E000F0AC
:1022E0004FF900B1394D10E000F052F908B14FF448
:1022F00000450AE000BF00F0E1FA074600F0AAFA44
:10230000064600F0B7FA054600BF5BE0B4F5405F53
:102310002AD1204600F062F8B0F1405F19D02D4973
:10232000084430B1B0F5805F07D0B0F5005F0FD141
:1023300008E000F0C3FA054615E000F021F900B10D
:10234000224D10E000F024F908B14FF400450AE0F6
:1023500000BF00F0B3FA074600F07CFA064600F032
:1023600089FA054600BF2DE0B4F5404F2AD120463A
:1023700000F034F8B0F1404F19D01749084430B19B
:10238000B0F5804F07D0B0F5004F0FD108E000F056
:1023900095FA054615E000F0F3F800B10B4D10E09A
:1023A00000F0F6F808B14FF400450AE000BF00F075
:1023B00085FA074600F04EFA064600F05BFA05463D
:1023C00000BF00BF2846BDE8F08100000024F400F3
:1023D00000FFFFFC00F0FFCF00C0FF3F01460348B5
:1023E0000068084040EA0140704700009038024011
:1023F0002DE9F04104460025032C29D1204600F0A8
:10240000B5F8B0F5403F18D06FF44031084420B122
:10241000012806D002280FD108E000F04FFA054647
:1024200015E000F0ADF800B14E4D10E000F0B0F84E
:1024300008B14FF400450AE000BF00F03FFA07463C
:1024400000F008FA064600F027FA054600BF85E0CE
:102450000C2C29D1204600F089F8B0F5402F18D077
:10246000A0F54020001F20B1042806D008280FD175
:1024700008E000F023FA054615E000F081F800B10D
:10248000384D10E000F084F808B14FF400450AE040
:1024900000BF00F013FA074600F0DCF9064600F032
:1024A000E9F9054600BF59E0B4F5406F2AD120464E
:1024B00000F05CF8B0F1406F19D02B49084430B1FE
:1024C000B0F5806F07D0B0F5006F0FD108E000F0D5
:1024D000F5F9054615E000F053F800B1214D10E084
:1024E00000F056F808B14FF400450AE000BF00F0D4
:1024F000E5F9074600F0AEF9064600F0CDF90546CD
:1025000000BF2BE0302C29D1204600F02FF8B0F589
:10251000401F18D0A0F54010103820B1102806D068
:1025200020280FD108E000F0C9F9054615E000F0B9
:1025300027F800B10B4D10E000F02AF808B14FF475
:1025400000450AE000BF00F0B9F9074600F082F943
:10255000064600F08FF9054600BF00BF2846BDE8DB
:10256000F08100000024F40000FCFFF30146034862
:102570000068084040EA014070470000903802407F
:1025800002480068C0F34000704700000038024075
:1025900002480068C0F340007047000070380240F5
:1025A0000248006800F03F00704700000438024015
:1025B0000248006800F480007047000004380240C0
:1025C00002480068C0F388107047000004380240D9
:1025D00070B5044601252E48844206D11020FFF72D
:1025E00085FD1020FFF78AFD50E02A48844208D17B
:1025F0004FF40030FFF76AFD4FF40030FFF76EFD37
:1026000044E02548844208D14FF48020FFF75EFD66
:102610004FF48020FFF762FD38E02048844206D165
:102620002020FFF763FD2020FFF768FD2EE01C4807
:10263000844208D14FF40020FFF748FD4FF40020FA
:10264000FFF74CFD22E01748844208D14FF4801078
:10265000FFF73CFD4FF48010FFF740FD16E01248F5
:10266000844208D14FF08040FFF730FD4FF08040AA
:10267000FFF734FD0AE00D48844206D14005FFF71C
:1026800025FD6005FFF72AFD00E00025284670BD06
:102690000010014000440040004800400014014088
:1026A000004C00400050004000780040007C00409A
:1026B000016841F001010160704700002DE9F0411F
:1026C00004460D4600270026204600F09FF800280B
:1026D0007BD1E9686868084329690843A969084308
:1026E0002168414A114008432060A868616821F4CC
:1026F00040510143616000BF6869A16821F44071E5
:102700000143A16000BF3948844204D10320FFF790
:102710006FFE06463AE03648844204D10C20FFF7AB
:1027200067FE064632E03348844204D13020FFF78A
:102730005FFE06462AE03048844205D14FF44060EF
:10274000FFF756FE064621E02C48844204D1C02003
:10275000FFF77EFD064619E02948844205D14FF473
:102760004070FFF775FD064610E02648844205D10B
:102770004FF44050FFF76CFD064607E022488442C4
:1027800004D14FF44040FFF763FD0646EEB12868E0
:10279000D8B101273146AA6928684FF0000C002300
:1027A000B2F5004F12D14FEA410808EB5008B8FBD0
:1027B000F0F81FFA88FC4FF6F0780CEA0803CCF327
:1027C000420843EA0803E36008E009E001EB50082F
:1027D000B8FBF0F81FFA88F8C4F80C8000BF00BFFF
:1027E0003846BDE8F0810000F369FFEF00100140BA
:1027F000004400400048004000140140004C0040EC
:102800000050004000780040007C0040014608680D
:1028100000F00100704700BFFEE770470248006803
:10282000C0F30220704700000CED00E010B5002856
:1028300007DA0A07140E054A00F00F031B1FD454D1
:1028400003E00A07130E024A135410BD18ED00E00E
:1028500000E400E0014600BF0448006800F0F0001A
:102860000009034A125C21FA02F07047083802405E
:102870006E160108014600BF0548006800F4E050EC
:10288000044A02EB9020027821FA02F0704700001F
:10289000083802407E160108014600BF054800685E
:1028A00000F46040044A02EB5030027821FA02F052
:1028B00070470000083802407E16010810B5002459
:1028C00000BF0B48006800F00C0020B1042804D0C1
:1028D000082808D103E0074C07E0074C05E000F0AA
:1028E0000DF8044601E0034C00BF00BF204610BDB8
:1028F000083802400024F40040787D0170B50024BF
:102900000025FFF755FE05461DB1B5F5800F04D132
:1029100001E00C4C03E00C4C01E00A4C00BF00BF8E
:10292000FFF73EFEB4FBF0F6FFF74AFE46430748CA
:10293000006800F44030012101EB10404000B6FB7C
:10294000F0F070BD0024F40040787D0104380240AE
:1029500010B50023234C236000BF00BF00BFBFF3AE
:102960004F8F00BF00BF00BF231F1868C0F34E3158
:1029700000BFC0F3C90200BF43F6E07303EA41138E
:102980004FF0404404EA82742343174C236000BF95
:1029900000BF131EA2F10102EED10B1EA1F1010135
:1029A000E7D100BF00BF00BFBFF34F8F00BF00BF24
:1029B00000BF0C4B703B1B6843F48033094C703CE8
:1029C000236000BF00BF00BFBFF34F8F00BF00BF39
:1029D00000BF00BF00BF00BFBFF36F8F00BF00BFCD
:1029E00000BF10BD84ED00E060EF00E00120704703
:1029F0000120704710B50248FEF792FF10BD00009D
:102A0000347D032070B586B005460C46002601943F
:102A10003720029040200390002004904FF4806003
:102A2000059001A9284600F0EAFB41F288323721DF
:102A3000284600F001FA0646304606B070BD000098
:102A400070B586B005460C4600260B482043019021
:102A50002920029040200390002004904FF48060D1
:102A6000059001A9284600F0CAFB284600F0E4FAC8
:102A70000646304606B070BD0000108070B586B0C6
:102A800005460C4600260194102002904020039039
:102A9000002004904FF48060059001A9284600F0C2
:102AA000AEFB41F288321021284600F0C5F90646F7
:102AB000304606B070BD70B586B005460C4600269F
:102AC00001940620029040200390002004904FF4CF
:102AD0008060059001A9284600F091FB41F2883200
:102AE0000621284600F0A8F90646304606B070BD1B
:102AF00030B585B00446002500200090019002907A
:102B000003904FF4806004906946204600F077FB04
:102B1000204600F071F90546284605B030BD30B5B5
:102B200085B0044600254FF4D57000900820019030
:102B300040200290002003904FF48060049069468A
:102B4000204600F05CFB204600F0F6FA05462846D9
:102B500005B030BD70B586B005460C460026019420
:102B60001220029040200390002004904FF48060D7
:102B7000059001A9284600F042FB41F2883212215B
:102B8000284600F059F90646304606B070BD70B5CB
:102B900086B005460C460026019411200290402084
:102BA0000390002004904FF48060059001A928460E
:102BB00000F025FB41F288321121284600F03CF953
:102BC0000646304606B070BDF0B585B006461446E0
:102BD0001D4600270094072001904020029000200D
:102BE00003904FF4806004906946304600F007FB84
:102BF00041F288320721304600F01EF90746384678
:102C000005B0F0BD30B585B0044600250020009029
:102C100002200190C0200290002003904FF48060B9
:102C200004906946204600F0EAFA204600F0D6F902
:102C30000546284605B030BD70B586B005460C4641
:102C40000026019409200290C020039000200490E7
:102C50004FF48060059001A9284600F0D0FA28467C
:102C600000F0BCF90646304606B070BD30B585B000
:102C7000044600250020009033200190402002905F
:102C8000002003904FF4806004906946204600F0D5
:102C9000B6FA41F288323321204600F0CDF80546DD
:102CA000284605B030BD70B586B005460C460026F6
:102CB00001940D20029040200390002004904FF4D6
:102CC0008060059001A9284600F099FA41F2883207
:102CD0000D21284600F0B0F80646304606B070BD1B
:102CE00070B586B005460C460026002001900320F2
:102CF000029040200390002004904FF480600590E3
:102D000001A9284600F07BFA22460321284600F05C
:102D1000BBF90646304606B070BD000030B585B040
:102D200004460025002000900C20019040200290D5
:102D3000002003904FF4806004906946204600F024
:102D40005EFA044A0C21204600F076F80546284633
:102D500005B030BD00E1F50570B586B005460C46FE
:102D60000026019419200290402003900020049036
:102D70004FF48060059001A9284600F040FA41F226
:102D800088321921284600F057F80646304606B02A
:102D900070BD70B586B005460C460026019418201B
:102DA000029040200390002004904FF48060059032
:102DB00001A9284600F023FA41F28832182128465A
:102DC00000F03AF80646304606B070BD10B502462F
:102DD00000230868506248689062D1E902042043E9
:102DE0000C6920434C6920430343D06A20F0F7006C
:102DF0001843D062002010BD01460E480068C0088C
:102E00004FF47A73B0FBF3F041F2883300FB03F226
:102E100000BF101EA2F1010202D14FF00040704726
:102E2000486B00F080000028F3D040F2FF50886328
:102E30000020F4E7DC0202202DE9F04105460E46B1
:102E4000174664480068C0084FF47A71B0FBF1F08F
:102E500000FB07F800BFB8F10000A8F1010803D19A
:102E60004FF00040BDE8F081686B00F0450000289D
:102E7000F1D0686B00F0040010B10420A863F1E702
:102E8000686B00F0010010B10120A863EAE7284652
:102E900000F07EF9B04201D00120E3E740F2FF509C
:102EA000A8630021284600F07CF904464A482040E7
:102EB00008B90020D6E704F00040B0F1004F02D17D
:102EC0004FF00070CEE704F08040B0F1804F01D1A8
:102ED0004020C7E704F00050B0F1005F01D180202E
:102EE000C0E704F08050B0F1805F02D14FF48070F1
:102EF000B8E704F00060B0F1006F02D14FF4007049
:102F0000B0E704F08060B0F1806F02D14FF48060D0
:102F1000A8E704F08070B0F1807F02D14FF4006028
:102F2000A0E704F40000B0F5000F02D14FF4805088
:102F300098E704F48000B0F5800F02D14FF4005000
:102F400090E704F40010B0F5001F02D14FF4804068
:102F500088E704F48010B0F5801F02D14FF40040E0
:102F600080E704F48020B0F5802F02D14FF40030C8
:102F700078E704F40030B0F5003F02D14FF4802030
:102F800070E704F48030B0F5803F02D14FF40020A8
:102F900068E704F40040B0F5004F02D14FF4801010
:102FA00060E704F48040B0F5804F02D14FF4001088
:102FB00058E704F40050B0F5005F02D14FF48000F0
:102FC00050E704F00800082801D100054AE74FF453
:102FD000803047E7DC02022008E0FFFD014615488B
:102FE0000068C0084FF47A73B0FBF3F041F2883305
:102FF00000FB03F200BF101EA2F1010202D14FF04C
:1030000000407047486B00F045000028F3D0486B43
:1030100000F0040010B104208863F2E7486B00F070
:10302000010010B101208863EBE740F2FF50886394
:103030000020E6E7DC020220014612480068C008D2
:103040004FF47A73B0FBF3F041F2883300FB03F2E4
:1030500000BF101EA2F1010202D14FF000407047E4
:10306000486B00F045000028F3D0486B00F00400E6
:1030700010B104208863F2E740F2FF50886300201B
:10308000EDE70000DC0202202DE9F04104460E4687
:10309000174628480068C0084FF47A71B0FBF1F079
:1030A00041F2883100FB01F800BFB8F10000A8F13F
:1030B000010803D14FF00040BDE8F081606B00F0E3
:1030C00045000028F1D0606B00F0040010B104202E
:1030D000A063F1E7606B00F0010010B10120A06374
:1030E000EAE7204600F054F8B04201D00120E3E7BF
:1030F00040F2FF50A0630021204600F052F8054640
:1031000005F4604018B9280C38800020D4E705F495
:103110008040B0F5804F02D14FF40050CCE705F469
:103120000040B0F5004F02D14FF48050C4E74FF497
:103130008030C1E7DC020220014614480068C00864
:103140004FF47A73B0FBF3F041F2883300FB03F2E3
:1031500000BF101EA2F1010202D14FF000407047E3
:10316000486B00F045000028F3D0486B00F00400E5
:1031700018B1402088630420F1E7486B00F040005C
:1031800008B1402088630020E9E70000DC0202204B
:1031900001460869C0B270470146086800F00300A4
:1031A000704708B502460020009002F11400084460
:1031B00000900098006808BD0FB410B504460021C7
:1031C000DDE903021043059A1043069A1043079A5B
:1031D0001043089A10430143606847F6FF6290432A
:1031E00008436060002010BC5DF814FB014603201A
:1031F0000860002070470146D1F88000704710B584
:103200000246002308689060D1E901042043CC689D
:1032100020430C6920430343D0686FF30B0018432D
:10322000D060002010BD02460868C2F8800000206F
:10323000704770B50646B46BE06B08B10020E063E0
:10324000206CD8B92046FEF756FB05460020A06347
:10325000012084F83400062D01D0052D0ED1206800
:10326000FFF75CFDA16B0843A063A06B18B120467B
:10327000FEF7E0F902E02046FEF731FA70BD70B5C6
:103280000646B46B206C08B100202064E06BD8B90E
:103290002046FEF730FB05460020A063012084F89D
:1032A0003400062D01D0052D0ED12068FFF736FD24
:1032B000A16B0843A063A06B18B12046FEF7BAF9D2
:1032C00002E02046FEF70BFA70BD2DE9F04188B010
:1032D00004460E460025FDF7D9FC80460027002055
:1032E0000090019008212068FFF7C8FB05461DB13A
:1032F000284608B0BDE8F0815022125B1104206816
:10330000FFF780FB05460DB12846F2E74FF0FF308E
:1033100002900820039030200490022005900020A5
:1033200006900120079002A92068FFF74FFD206852
:10333000FFF79CFC05460DB12846DAE713E020684C
:10334000406B00F4001028B12068FFF754FF4DF8DF
:1033500027007F1CFDF79AFCA0EB0800401C10B969
:103360004FF00040C5E72068406B40F22A4108401A
:103370000028E4D02068406B00F0080018B1082055
:1033800021688863B5E72068406B00F0020018B13F
:10339000022021688863ACE72068406B00F02000C1
:1033A00018B1202021688863A3E740F2FF5021680C
:1033B000886300980006009901F47F4140EA0120EB
:1033C000009901F47F0140EA1120009940EA116060
:1033D000706001980006019901F47F4140EA0120E4
:1033E000019901F47F0140EA1120019940EA11603E
:1033F000306000207DE730B58FB004460025012005
:1034000003902068FFF7C8FE18B94FF080600FB036
:1034100030BD606C03281BD02068FFF7F3FB054626
:103420000DB12846F3E700212068FFF7BAFE606778
:1034300004212068FFF7B5FEA06708212068FFF788
:10344000B0FEE0670C212068FFF7ABFE8021085139
:10345000606C032807D003A92068FFF741FC0546EC
:103460000DB12846D3E7606C032820D0BDF80C10BE
:1034700021655022125B11042068FFF7DDFB054631
:103480000DB12846C3E700212068FFF78AFE606679
:1034900004212068FFF785FEA06608212068FFF759
:1034A00080FEE0660C212068FFF77BFE2067042188
:1034B0002068FFF776FE010DE16404A92046FEF7BF
:1034C0000FF95020005B01040A4600232068FFF733
:1034D0007BFB05460DB1284699E7D4E90412A069A3
:1034E000CDE90012029094E80F00FFF765FE00207E
:1034F0008DE7F8B50446002000900026002700253F
:103500002068FFF7F5FA05460DB12846F8BD20689A
:10351000FFF705FB05466DB30021A16425E0009887
:10352000411C00914FF6FF71884202D14FF080702C
:10353000ECE700212068FFF765FA054615B14FF06A
:103540008050E3E700212068FFF77AFA054615B1BD
:103550004FF08050DAE700212068FFF722FE064690
:10356000012080EAD67080F00107002FD7D000201C
:10357000606433E00121A16424E00098411C0091C3
:103580004FF6FF71884202D14FF08070BEE70021F4
:103590002068FFF737FA05460DB12846B6E74FF029
:1035A00080412068FFF74CFA05460DB12846ADE78B
:1035B00000212068FFF7F5FD0646012080EAD6705D
:1035C00080F00107002FD8D006F08040B0F1804F86
:1035D00002D10120606401E000206064002095E7D2
:1035E00070B504460025A66A00BF05E02068FFF715
:1035F00002FE46F825006D1C082DF7D3A06A203086
:10360000A062002070BD70B504460D46002615B9B5
:103610004FF0006070BD5022125B11042068FFF76C
:1036200042FB06460EB13046F4E700212068FFF762
:10363000B8FD28600020EDE77CB50446002000902E
:103640000190002500212068FFF7ABFD00F000701D
:10365000B0F1007F02D14FF400607CBD6946204686
:10366000FFF733FE05460DB12846F6E7019800F452
:10367000803098B15022125B11042068FFF7C2F924
:1036800005460DB12846E8E700212068FFF713FA48
:1036900005460DB12846E0E70020DEE74FF08060E8
:1036A000DBE77CB504460020009001900025002156
:1036B0002068FFF776FD00F00070B0F1007F02D1C6
:1036C0004FF400607CBD69462046FFF7FEFD0546CD
:1036D0000DB12846F6E7019800F4802098B15022F9
:1036E000125B11042068FFF78DF905460DB12846DD
:1036F000E8E702212068FFF7DEF905460DB128460C
:10370000E0E70020DEE74FF08060DBE770B50446BD
:103710000025266A00BF05E006EB85012068FFF75B
:1037200082FD6D1C082DF7D3206A20302062002016
:1037300070BD000010B50CF069F8044909688842B2
:1037400003D10CF07FF80249086010BD840102200B
:103750008C01022010B5FDF79FFA10BD14480068D7
:1037600040F47000124908601248006840F00100FF
:103770001049086000200F49083108600D480068B2
:103780000D4908400B4908600C48091D0860081FD6
:10379000006820F48020091F0860002005490C31D2
:1037A00008604FF0006002498039086070470000EF
:1037B00088ED00E000380240FFFFF6FE10300024E4
:1037C00030B5014609B9002030BD4A688B689A427D
:1037D00001D10C6806E0934201D99C1A02E0D51A87
:1037E0000868441B601EEFE72DE9F0470446894650
:1037F00015464FF0000804B115B90020BDE8F08768
:10380000D4E90010884201D3002060602046FFF711
:10381000D7FF0746AF4203D20FB90020EEE73D467F
:10382000D4E90001461AAE4200D92E466268E1682A
:10383000881832464946FCF790FDB0446068304431
:103840006060AD1B55B1002060606368E268D0180D
:1038500009EB08012A46FCF780FD6560D4E90010F9
:10386000884201D30020606008EB0500C6E710B570
:1038700009F036FE10BD00000F48006820F080708F
:103880000D4A10601046006840F0807010600B48D0
:10389000006820F00100094A10601046006840F0FE
:1038A00001001060002050601046416800BF00BF5A
:1038B00002484068401A7047FCED00E0001000E04C
:1038C0001CB50020022103460246CDE9001001216B
:1038D000014800F073F91CBD000002401CB5032034
:1038E00000210B460122CDE9001042F220010448DC
:1038F00000F064F903480249183108601CBD00005B
:1039000000240240000020200120704702460120D0
:10391000704703460120704701207047034601208D
:103920007047000010B501200A490870FCF7FAFD45
:1039300030B90848007820F001000649087005E019
:103940000448007840F001000249087001480078FE
:1039500010BD0000D802022070B588B005460C46A4
:1039600001261348007800F0010010B1032008B0D0
:1039700070BD35B1012D0BD0022D04D0032D11D116
:103980000DE0002610E04FF40070208000260BE0D0
:103990006846FCF7B1FD06982060002604E0079811
:1039A000206001E0042600BF00BF3046DFE70000D2
:1039B000D80202202DE9FC4106460C4615460D4F63
:1039C0004FF47A7022460023CDE900503046FCF7D0
:1039D00091FE10B10120BDE8FC8105E0381EA7F181
:1039E000010701D10120F6E7FCF790FD0028F5D191
:1039F00000BFF0E7A086010010B501201249087051
:103A0000FCF784FD30B91048007820F001000E4921
:103A1000087005E00C48007840F001000A49087081
:103A2000FEF7E6FF30B10848007820F004000649B0
:103A3000087005E00448007840F00400024908706E
:103A40000148007810BD0000D80202202DE9FC4199
:103A500006460C4615460D4F4FF47A702246002359
:103A6000CDE900503046FCF75DFE10B10120BDE805
:103A7000FC8105E0381EA7F1010701D10120F6E71E
:103A8000FCF744FD0028F5D100BFF0E7A086010057
:103A9000012070470246012070470346012070470D
:103AA00001207047034601207047012070470246FD
:103AB00001207047034601207047012070470346EC
:103AC00001207047012070470246012070470346DD
:103AD00001207047012070470346012070470146CE
:103AE0004FF40030081AC0F38F20704700B502462B
:103AF0001046FFF7F4FF012101FA00F002490968BE
:103B000008430149086000BD303802402DE9F04308
:103B100004460E461546DDE907892046FFF7DFFF1C
:103B2000C7B2002243E001209040304000B93CE0A1
:103B3000214830F817000121914008431E4921F81F
:103B40001700E0684FEA420C032101FA0CF18843A8
:103B5000510008FA01F10843E06020684FEA420C86
:103B6000032101FA0CF18843510005FA01F10843E1
:103B70002060012D01D0022D16D1616801209040F6
:103B800080B221EA000003FA02F189B208436060C2
:103B9000A0684FEA420C032101FA0CF1884351005E
:103BA00009FA01F10843A06000BF501CC2B2102AFC
:103BB000B9DBBDE8F0830000040302202DE9FC43DB
:103BC00005460C4616461F46DDE909890CB9BDE8D5
:103BD000FC832846FFF78AFF3B46324621462846AB
:103BE000CDE90089FFF792FF00BFF0E72DE9FC4720
:103BF00005460E4617469846DDE90A9A0EB9BDE815
:103C0000FC872846FFF772FF00241AE00120A0403D
:103C1000304000B914E0E10805F1200050F821001F
:103C20006107CA0E0F21914088436107C90E0AFA45
:103C300001F10843E20805F1200141F8220000BF2C
:103C4000641C102CE2D33B46022231462846CDE9C3
:103C50000089FFF75BFF00BFD1E7000000B593B01C
:103C600000BF00BF00BF00BF00BFBFF34F8F00BF4A
:103C700000BF00BF00BF00BF00BFBFF36F8F00BF1A
:103C800000BF00BF0020384908603848006840F491
:103C900000303649086000BF00BF00BFBFF34F8F40
:103CA00000BF00BF00BF00BF00BF00BFBFF36F8FEA
:103CB00000BF00BF00BF00BFFEF74AFE00BF2C4898
:103CC000006840F080502A4908600846006800F00B
:103CD0008050009000BF00BF00BF2648006840F43D
:103CE0004040244908600846006800F440400090C5
:103CF00000BF00BF0120019000040290002004904A
:103D00004FF48001089102200790192109914FF486
:103D1000D8710A9102210B9109210C9101A8FDF79C
:103D20002DFA10B1012013B000BDFDF7BFF808B1A6
:103D30000120F8E702200F900020109007200E903D
:103D40000E9840F008000E904FF4A05011904FF4E0
:103D50008050129006210EA8FDF7F0F808B101205E
:103D6000E1E70020DFE7000050EF00E014ED00E0A5
:103D700040380240007000401CB5044644B9082099
:103D8000032101230022CDE900100B48FFF72EFF8D
:103D9000012C09D10820032101230022CDE90010C4
:103DA00089020648FFF722FF032C03D108210448AB
:103DB00000F07EFB1CBD0000000002400008024035
:103DC000004C00401CB504469CB908200321012387
:103DD0000022CDE9001041020948FFF707FF082043
:103DE000032101230022CDE9001004210548FFF73B
:103DF000FDFE032C03D10821034800F059FB1CBD34
:103E000000080240000C0240005000401CB504466F
:103E10004CB90820032101230022CDE90010C9017B
:103E20000A48FFF7E3FE012C09D1082003210123F2
:103E30000022CDE90010C0210548FFF7D7FE032C72
:103E400003D10821034800F033FB1CBD00100240E1
:103E500000140240007800401CB5044644B9082014
:103E6000032101230022CDE900100548FFF7BEFE23
:103E7000032C03D10821034800F01AFB1CBD0000ED
:103E800000100240007C00401CB504464CB90720DD
:103E9000032101230022CDE9001049021548FFF754
:103EA000A5FE012C09D10720032101230022CDE921
:103EB0000010C0211048FFF799FE022C13D10720F3
:103EC000032101230022CDE9001059020948FFF720
:103ED0008DFE0720032101230022CDE9001080215F
:103EE0000548FFF783FE032C03D10721034800F0A8
:103EF000DFFA1CBD00000240000402400010014037
:103F00001CB504464CB90720032101230022CDE94A
:103F100000100C210A48FFF769FE012C09D1072087
:103F2000032101230022CDE9001060210548FFF79D
:103F30005DFE032C03D10721034800F0B9FA1CBD34
:103F400000000240000C0240004400401CB5044642
:103F50004CB90720032101230022CDE9001089027A
:103F60001048FFF743FE012C09D10720032101234C
:103F70000022CDE9001089020B48FFF737FE022C22
:103F800009D10720032101230022CDE900100902F5
:103F90000648FFF72BFE032C03D10721044800F04D
:103FA00087FA1CBD0004024000080240000C0240D9
:103FB000004800401CB504464CB9082003210123E9
:103FC0000022CDE90010C0210B48FFF70FFE012CA5
:103FD0000AD10820032101230022CDE900104FF46B
:103FE00084410648FFF702FE032C03D10821044850
:103FF00000F05EFA1CBD00000008024000180240FC
:104000000014014070B505460C460D4805600120BE
:104010000B490968086202200949096808620420FE
:1040200007490968086208200549096808621020E4
:104030000349096808622046FCF7BCFE70BD000019
:10404000200402200146104A914200D100200F4A6C
:10405000914200D101200E4A914200D102200D4A26
:10406000914200D104200C4A914200D105200B4A14
:10407000914200D106200A4A914200D10720094A04
:10408000914200D1082070470010014000440040D8
:1040900000480040004C0040005000400014014027
:1040A00000780040007C00402DE9F04F9DB00446B0
:1040B0000D4616461F46DDE927ABDDF89890A84867
:1040C00084421FD100BFA748006840F01000A549F6
:1040D00008600846006800F01000009000BF00BFB4
:1040E000A0482038006840F010009E492039086040
:1040F0000846006820F0100008602846FFF7C4FE5C
:104100004FF025089848844221D100BF9548001FF0
:10411000006840F400309349091F086008460068B1
:1041200000F40030009000BF00BF8E4824380068C3
:1041300040F400308B49243908600846006820F4B8
:10414000003008602846FFF7DBFE4FF0260887485E
:10415000844221D100BF8348001F006840F48020C2
:104160008049091F08600846006800F4802000901C
:1041700000BF00BF7B482438006840F480207949A4
:10418000243908600846006820F48020086028462A
:10419000FFF7DCFE4FF027087548844221D100BFAD
:1041A0007048001F006840F400206E49091F086035
:1041B0000846006800F40020009000BF00BF694876
:1041C0002438006840F40020664924390860084615
:1041D000006820F4002008602846FFF7CDFD4FF06E
:1041E00034086448844221D100BF5E48001F006843
:1041F00040F480105B49091F08600846006800F41D
:104200008010009000BF00BF56482438006840F47A
:1042100080105449243908600846006820F4801052
:1042200008602846FFF7CEFD4FF03508524884421B
:104230001FD100BF4B48006840F02000494908608A
:104240000846006800F02000009000BF00BF45480D
:104250002038006840F020004249203908600846B4
:10426000006820F0200008602846FFF7A3FE4FF00A
:1042700047084248844221D100BF3A48001F0068E5
:1042800040F080403749091F08600846006800F088
:104290008040009000BF00BF32482438006840F0E2
:1042A00080403049243908600846006820F080408A
:1042B00008602846FFF7AAFD4FF0520830488442B4
:1042C00021D100BF2748001F006840F00040254969
:1042D000091F08600846006800F00040009000BF19
:1042E00000BF20482438006840F000401D492439B0
:1042F00008600846006820F0004008602846FFF784
:10430000ABFD4FF05308019402960797CDF8189033
:10431000CDF814A0CDF810B0299803900021089191
:10432000099100200A904046FCF752FD2046FFF715
:1043300089FE0246062100904046FCF764FD404697
:10434000FCF754FD4046FCF735FD01A8FDF77EFE65
:10435000206840F0200020601DB0BDE8F08F000014
:104360000010014044380240004400400048004032
:10437000004C004000500040001401400078004014
:10438000007C004013B50446012201A92046FFF736
:104390002BFA1CBD7FB504460D4616463C488442A8
:1043A0000BD100200C23CDE90030029003463246A9
:1043B000294603902046FFF777FE364884420BD10A
:1043C00000200C23CDE900300290034632462946F6
:1043D00003902046FFF768FE2F4884420BD100204F
:1043E0000C23CDE900300290034632462946039063
:1043F0002046FFF759FE294884420BD100200C23A8
:10440000CDE900300290034632462946039020460B
:10441000FFF74AFE224884420BD100200C23CDE94D
:104420000030029003463246294603902046FFF7AB
:104430003BFE1C4884420BD100200C23CDE9003008
:10444000029003463246294603902046FFF72CFE91
:10445000154884420BD100200C23CDE90030029096
:1044600003463246294603902046FFF71DFE0F48BB
:1044700084420BD100200C23CDE90030029003468A
:104480003246294603902046FFF70EFE7FBD00000E
:10449000001001400044004000480040004C004033
:1044A000005000400014014000780040007C0040B3
:1044B0007047000010B50948006800F0200030B1D6
:1044C000064808300068C1B20548FFF75BFF342199
:1044D00002481C38FFF796FD10BD00001C4C004040
:1044E0005000022008B500BF0A48C069C0F3401060
:1044F00048B100BF0748406AC0B200900121684639
:1045000002F0A8FB00BF00BF08200249086200BFFC
:1045100008BD00000050004010B50948006800F0D8
:10452000200030B1064808300068C1B20548FFF7E6
:1045300029FF522102481C38FFF764FD10BD00001E
:104540001C7800409800022010B50948006800F06F
:10455000200030B1064808300068C1B20548FFF7B6
:1045600011FF532102481C38FFF74CFD10BD00001D
:104570001C7C0040B000022090F8241001F00101E2
:1045800039B10168496821F40031826A1143026837
:10459000516090F8241001F0020139B101684968B6
:1045A00021F48031C26A11430268516090F82410EE
:1045B00001F0040139B10168496821F48021026BDE
:1045C00011430268516090F8241001F0080139B1DC
:1045D0000168496821F40041426B1143026851604F
:1045E00090F8241001F0100139B10168896821F4B4
:1045F0008051826B11430268916090F8241001F0A1
:10460000200139B10168896821F40051C26B11435E
:104610000268916090F8241001F0400199B101689E
:10462000496821F48011026C114302685160016CE9
:10463000B1F5801F07D10168496821F4C001426CBF
:1046400011430268516090F8241001F0800139B1E3
:104650000168496821F40021826C114302685160AD
:10466000704738B5044600250020E066FCF70EFBD5
:1046700005462068006800F0080008280CD16FF09B
:104680007E402B4600224FF400110090204600F09F
:10469000D5F908B1032038BD202084F8690084F8DA
:1046A0006A0000BF002084F8680000BF00BFF2E786
:1046B0002DE9F0470446002510260027A846A94604
:1046C0002169A068084361690843E16940EA01057E
:1046D00020680068CD4908402843216808602068A8
:1046E000406820F44050E168084321684860216A2E
:1046F000A06940EA01052068806820F43060284302
:104700002168886000BFC2492068884215D1C1482D
:10471000006800F0030030B1012808D0022804D05E
:10472000032808D105E0012606E0022604E004265D
:1047300002E0082600E000BFC1E0B74920688842D7
:1047400015D1B448006800F00C0030B1042808D03E
:10475000082804D00C2808D105E0002606E002262F
:1047600004E0042602E0082600E000BFA7E0AB4911
:104770002068884215D1A748006800F0300030B1A9
:10478000102808D0202804D0302808D105E00026C1
:1047900006E0022604E0042602E0082600E000BF4E
:1047A0008DE09F492068884215D19A48006800F042
:1047B000C00030B1402808D0802804D0C02808D1DB
:1047C00005E0002606E0022604E0042602E00826B2
:1047D00000E000BF73E093492068884218D18D48FB
:1047E000006800F4407048B1B0F5807F0AD0B0F5A1
:1047F000007F05D0B0F5407F08D105E0002606E037
:10480000022604E0042602E0082600E000BF56E08D
:1048100085492068884218D17E48006800F44060CD
:1048200048B1B0F5806F0AD0B0F5006F05D0B0F593
:10483000406F08D105E0012606E0022604E00426C8
:1048400002E0082600E000BF39E07849206888428D
:1048500018D17048006800F4405048B1B0F5805F4E
:104860000AD0B0F5005F05D0B0F5405F08D105E093
:10487000002606E0022604E0042602E0082600E006
:1048800000BF1CE06A492068884218D1614800686E
:1048900000F4404048B1B0F5804F0AD0B0F5004F69
:1048A00005D0B0F5404F08D105E0002606E002260D
:1048B00004E0042602E0082600E000BF00BF00BFBD
:1048C000E069B0F5004F52D1042E2BD005DC4EB17B
:1048D000012E12D0022E3BD11AE0082E2DD0102E20
:1048E00036D136E0FCF7E2FB4000616800EB510096
:1048F000B0FBF1F01FFA80F82EE0FCF7E7FB400078
:10490000616800EB5100B0FBF1F01FFA80F823E082
:104910004849606801EB50006168B0FBF1F01FFA94
:1049200080F819E0FCF7E2FB4000616800EB510001
:10493000B0FBF1F01FFA80F80EE04FF480316068B0
:1049400001EB50006168B0FBF1F01FFA80F803E062
:1049500000BF4FF0010900BF00BF4FF6F07008EA3A
:104960000007C8F3420007432068C7604AE0042EEE
:104970002CD005DC4EB1012E12D0022E3DD11AE012
:10498000082E2ED0102E38D138E0FCF78FFB61684E
:1049900000EB5100B0FBF1F080B22168C86030E05C
:1049A000FCF794FB616800EB5100B0FBF1F080B2C2
:1049B0002168C86025E02049606801EB500061680B
:1049C000B0FBF1F080B22168C8601AE0FCF78EFB02
:1049D000616800EB5100B0FBF1F080B22168C86063
:1049E0000FE04FF40041606801EB50006168B0FBDC
:1049F000F1F080B22168C86003E000BF4FF0010908
:104A000000BF00BF4846BDE8F0870000F369FFEF34
:104A1000001001409038024000440040004800402F
:104A2000004C00400050004000140140007800405D
:104A3000007C00400048E8010024F4002DE9F0412A
:104A400004460D4617469846069E21E0701CF8B1B4
:104A50002EB1FCF71BF9A0EB0800B04218D3206878
:104A6000006820F4D070216808602068806820F019
:104A7000010021688860202084F8690084F86A00B9
:104A800000BF002084F8680000BF0320BDE8F0816B
:104A90002068C0692840A84201D1012000E0002020
:104AA000B842D3D00020F1E710B50948006800F003
:104AB000200030B1064808300068C1B20548FFF751
:104AC00061FC262102481C38FFF79CFA10BD00004B
:104AD0001C4400402000022010B50948006800F086
:104AE000200030B1064808300068C1B20548FFF721
:104AF00049FC272102481C38FFF784FA10BD00004A
:104B00001C4800403800022010B50948006800F039
:104B1000200030B1064808300068C1B20548FFF7F0
:104B200031FC472102481C38FFF76CFA10BD000029
:104B30001C1401408000022000BFFEE70FB4054BAB
:104B400010B503A9044A029800F02CF810BC5DF8D7
:104B500014FB00008DAF0008E00202200FB4084BE8
:104B600010B504A902AA039800F01CF8044602A993
:104B7000002000F048FA204610BC5DF814FB00004D
:104B80000750000802E008C8121F08C1002AFAD125
:104B900070477047002001E001C1121F002AFBD1BD
:104BA000704700002DE9FF4F8DB00F4605460026E7
:104BB00006E025280BD0DDE90F1290476D1C761C0E
:104BC00028780028F5D111B03046BDE8F08F0024D8
:104BD000A246A1460122EC4900E0044315F8013F3A
:104BE000203B02FA03F00842F7D128782A2810D097
:104BF0006FF02F022878A0F13001092914D80AEBB0
:104C00008A0102EB410144F0020400EB010A6D1C31
:104C1000F0E701CF5FEA000A03D544F40054CAF17B
:104C2000000A44F002046D1C28782E2817D115F8CC
:104C3000010F44F004042A280ED06FF02F022878C8
:104C4000A0F1300109290AD809EB890102EB4101E1
:104C500000EB01096D1CF2E757F8049B6D1C2878E6
:104C60006C280FD006DC4C2817D068280DD06A2895
:104C700014D104E0742810D07A280FD10DE044F448
:104C800000140AE044F4801401E044F4401469780C
:104C9000814202D104F580146D1C6D1C2A786E2AA5
:104CA0001FD00CDC632A31D004DC002A8BD0582AB8
:104CB00011D1A3E0642A68D0692A0CD165E0732A77
:104CC0002ED004DC6F2A73D0702A04D19BE0752AA1
:104CD0006FD0782A6ED01046DDE90F129047761C0F
:104CE00050E1C4F30250022806D0032809D004285A
:104CF00001CF09D0066045E101CFF117C0E900619D
:104D000040E101CF06803DE106703BE117F8040B5E
:104D10008DF8000000208DF80100EB46012003E033
:104D200057F804BB4FF0FF3061074FF0000102D489
:104D30000DE008F10101884649450FDA8045F8DBAE
:104D40001BF808100029F4D108E008F10101884699
:104D50008142FADB1BF808100029F6D1DDE90F23A8
:104D6000AAEB08008146214600F036F9304400EBFA
:104D7000080604E0DDE90F121BF8010B9047B8F1BB
:104D80000108F7D221464846F7E00A21C4F302534E
:104D90004FF0000B0891022B04D001CFC117032B59
:104DA00009D00AE0FF1D27F00707F7E8020108E035
:104DB00032E01FE020E000B2C117042B01D140B265
:104DC000C117031E71F1000307DA4FF0000CD0EB9E
:104DD0000C006CEB01012D2302E0230504D52B23ED
:104DE0008DF82430012303E0E30701D02023F7E707
:104DF000984658E00A2110E010210EE010204FF0F4
:104E0000000B08900CE010214FF0000B44F004045C
:104E10004FF00809089103E008214FF0000B0891BA
:104E2000C4F30253022B04D001CF0021032B06D080
:104E300006E0FF1D27F00707F7E8020103E080B254
:104E4000042B00D1C0B24FF0000823072BD5702AE5
:104E500007D0DDF820C08CF0100C5CEA0B0C05D0FC
:104E60000EE040238DF82430012308E050EA0103CE
:104E700006D030238DF824308DF825200223984663
:104E8000DDF820C08CF0080C5CEA0B0C0BD150EA6A
:104E9000010301D1630706D530238DF824304FF08C
:104EA0000108A9F10109582A04D038A20B9208AAD6
:104EB0000A920BE03AA2F9E75B46089AFBF716FA6A
:104EC0000B9B9B5C0A9A521E0A92137050EA0102D5
:104ED000F2D10A98ADEB000000F1200B600702D57B
:104EE00024F4803401E04FF00109D94502DDA9EB3B
:104EF0000B0000E0002000EB0B0141440890AAEBFE
:104F0000010AE00306D4DDE90F232146504600F0F4
:104F100063F806444FF0000908E009A911F80900F8
:104F2000DDE90F12904709F10109761CC145F4DB58
:104F3000E0030CD5DDE90F232146504600F04CF884
:104F4000064404E0DDE90F1230209047761C0899F2
:104F5000481E08900029F5DC08E00A980A990078B4
:104F6000491C0A91DDE90F129047761CBBF1000144
:104F7000ABF1010BF1DC21465046DDE90F2300F0D7
:104F800019F806446D1C1BE6092801003031323344
:104F90003435363738396162636465660000000075
:104FA000303132333435363738394142434445465F
:104FB000000000002DE9F041044600251E4617467A
:104FC000880404D405E039462020B0476D1C641ED7
:104FD000F9D52846BDE8F0812DE9F04104460025C9
:104FE0001E469046C80301D5302700E020278804DC
:104FF00004D505E041463846B0476D1C641EF9D51E
:105000002846BDE8F0810A68531C0B601070704799
:1050100070B504460D46224602A12846FFF79EFDC4
:1050200070BD000025303258000000002DE9F04727
:1050300004460D4690469946AD1E206C00EB153A8D
:10504000C5F3C80605F0070101208840C7B200BFBC
:1050500051460AF1010A204607F0FDFB10B101207C
:10506000BDE8F08700BF00BF04F14800805D384014
:1050700008B1012000E00020484501D10220EFE7FF
:1050800004F14800805D784004F148018855012012
:10509000E070A8F10100B0F1000800D1E0E7780667
:1050A000000E071EE0D10127701C0646B0F5007FF8
:1050B000D9D30026CCE7000070B504460D46002089
:1050C000E070401E60642946204607F0C4FB08B12A
:1050D000042070BD04F2462007F0D4F84AF65521AA
:1050E000884201D00320F4E794F84800E92807D06B
:1050F00094F84800EB2817D14A20005D902813D17E
:1051000004F17E0007F081F820F07F400C498842CE
:1051100001D10020DDE704F19A0007F076F8094993
:10512000884201D10020D4E70B2207A104F14800F6
:1051300007F00AFB08B90120CBE70220C9E700000D
:105140004641540046415433EB769045584641540D
:1051500020202000024600E0521C107810B1107888
:105160008842F9D11078704730B502460B460020CE
:10517000044601461CE01A4800EB01100068A8B183
:10518000174800EB011000681568A8420FD11448B9
:1051900000EB011040689568A84208D1104800EB68
:1051A00001108068156BA84201D103E00124491C5D
:1051B0000A29E0D300BF0A2906D10CB9022B01D17C
:1051C000002030BD1220FCE733B9054800EB011088
:1051D0008089B0F5807F01D11020F2E70020F0E750
:1051E000947C0320014600200BE0074A02EB0012EA
:1051F00012688A4204D10022034B03EB00131A60A9
:10520000401C0A28F1D37047947C0320F8B5074668
:10521000002001F050FE0546002D3BD050221FA17A
:10522000284601F0D9FD0446002C30D11EA0FFF71E
:1052300085FC38222549284601F098FE0446002CBA
:105240001CD123A0FFF77AFC00BF6946284601F075
:1052500067FE0446082C03D127A0FFF76FFC0CE083
:105260000121009801F0E6FF064631462EA0FFF727
:1052700065FC009801F07EFFE7E702E034A0FFF74D
:105280005DFC082C06D0284601F08CFD02E03AA017
:10529000FFF754FC284601F0C9FDF8BD6578616D43
:1052A000706C652E636F6D00436F6E6E6563746521
:1052B0006420746F20736572766572206578616D05
:1052C000706C652E636F6D0D0A0000006CFC0008A9
:1052D00044617461207765726520737563636573DB
:1052E0007366756C6C792073656E7420746F2073AF
:1052F00065727665720D0A00436F6E6E6563746940
:105300006F6E20636C6F7365642062792072656DC7
:105310006F746520736964652E2E2E53746F7070E0
:10532000696E670D0A000000526563656976656401
:10533000206E65772064617461207061636B6574B1
:10534000206F662025642062797465730D0A000061
:105350004572726F722077726974696E672064613A
:10536000746120746F2072656D6F746520686F734F
:1053700074210D0A0000000043616E6E6F7420639B
:105380006F6E6E65637420746F2065787465726EDD
:10539000616C20736572766572210D0A0000000051
:1053A0000246891ED06A801E884201D800207047BC
:1053B0005389106C01FB0300F9E700002DE9F04769
:1053C00080460C4604F11A0006F05CFF10B1002084
:1053D000BDE8F087207800F03F00401E00EB800120
:1053E00001EBC0054FF00109002621E01849895D55
:1053F000081906F047FF0746B9F1000F11D0FF2D3D
:105400000BD2384605F0CEF9824629466D1C38F895
:10541000110005F0C7F9824501D00020D8E7B94650
:1054200005E04FF6FF70874201D00020D0E7761CE0
:105430000D2EDBD3207800F0400038B1B9F1000F19
:1054400004D038F8150008B10020C1E70120BFE7FB
:1054500060120108F0B58FB004466848007820B1AA
:105460000A2007F0D5FE0FB0F0BD00BF6448006809
:1054700040F48010624908600846006800F480101B
:10548000019000BF00BF00BF5D481038006840F0C9
:1054900004005B49103908600846006800F0040009
:1054A000019000BF00BF00BF0846006840F0080040
:1054B00008600846006800F00800019000BF00BFC7
:1054C00000BF0846006840F40070086008460068A5
:1054D00000F40070019000BF00BF4848007800BB96
:1054E00000200590012006900320049001200390E5
:1054F00080030290029002A94248FCF707FE0220B6
:105500000390082007904002029002A93E48FCF751
:10551000FDFD082007900420029002A93B48FCF7FB
:10552000F5FD36480078B0B93948FDF751F80894D0
:10553000002009900D904FF400400E9000200B9039
:105540000A900C200C9008A93148FDF7B7F83048B4
:10555000FDF7AEF82BE000BF2D48006820F00100F9
:105560002B49086000BF2B494FF40042204600231E
:105570000025B2F5004F0FD14E0006EB5006B6FBEA
:10558000F0F6B3B24FF6F07603EA0605C3F342062F
:1055900035431F4EF56006E001EB5006B6FBF0F612
:1055A000B6B21B4FFE6000BF1948FDF781F800BF7F
:1055B0001748006840F020001549086000BF01222C
:1055C00011463520FBF71FFC3520FBF70FFC0B487D
:1055D000007880B94FF4804001040A4A916100BF0D
:1055E000012007F015FE4FF480400649886100BF96
:1055F000C82007F00DFE00BF35E70000E4010220DF
:10560000403802400024024000080240000C0240E2
:105610000050004000E1F50570B5044602F074F852
:10562000257D02F0E3F8284670BD00002DE9F05F0B
:105630000546884691461E46DDE90B7BDDF828A02D
:1056400000BF25B900BF00BF0320BDE8F09F00BF29
:1056500000BF1EB900BF00BF0320F6E700BF00BFB8
:10566000BAF1000F03D100BF00BF0320EDE700BF78
:105670000FB10020386000BF402001F02FFB04462E
:105680001CB900BF00BF0420DFE740212046FAF725
:105690007DFE00BF2A20207065612662C4F818A034
:1056A000A763C4F83080A4F8349084F836B0284654
:1056B000FFF7B2FF84F83C00024920460D9A04F03F
:1056C000D7FAC2E7057A000870B5054608201649E2
:1056D00081F8780300241DE004EB8401124838307F
:1056E00000EBC10090F8240000F0010080B104EB51
:1056F00084010D48383000EBC1013838C0F87C1304
:1057000004EB840200F1380101EBC20004F09EFAC0
:10571000601C84B2142CDFDB002204494FF4FA70C1
:1057200002F0D6F870BD0000EC730220C9560008E4
:105730002DE9F04707468A463C68BAF1000F06D1CA
:10574000666916B1E06AB04217D8012615E05146E5
:10575000384605F0BBFC8046B8F1020F02D20120AA
:10576000BDE8F08708F1010008B94046F8E7E06AB3
:10577000404501D94046F3E75646207804282ED10B
:1057800001223146204605F07AF805460DB1681C25
:1057900008B92846E4E701231A4629462046FFF7C0
:1057A00045FC8146B9F1020F01D10120D8E7B9F1DA
:1057B000010F02D14FF0FF30D2E7BAF1000F02D152
:1057C0000220F8712CE0F879022829D1701C85425A
:1057D00026D0B868301AB8610320F87120E0354649
:1057E00000BF6D1CE06AA84204D80225B54201D969
:1057F0000020B5E72946384605F068FC8046B8F138
:10580000000F00D10BE0B8F1010F02D008F1010048
:1058100008B94046A4E7B542E3D10020A0E700BFA5
:105820002078042805D1F879022802D14FF0000928
:1058300012E04FF0FF322946204608F0E5F9814694
:10584000B9F1000F08D1BAF1000F05D02A46514630
:10585000204608F0D9F98146B9F1000F0DD16561F4
:10586000E06A801EA169814202D2A069401EA06147
:10587000207940F00100207107E0B9F1010F02D159
:105880004FF0FF3000E001200546284668E70000A1
:105890002DE9F34F83B08146049800680190D9F850
:1058A0000000D0F80C8000200546064600BF3046B8
:1058B000761C01990C5C202C00DA2BE02F2C01D0F7
:1058C0005C2C0AD100E0761C0198805D2F28FAD06C
:1058D0000198805D5C28F6D01CE0FF2D03D30620E4
:1058E00005B0BDE8F08FE4B20121204604F028FFA6
:1058F00004460CB90620F3E7802C06DA214680A086
:10590000FFF728FC08B10620EAE728466D1C28F8B6
:105910001040CCE700BF0198811904980160202C49
:1059200001DA042000E000200746012D04D1681EA2
:1059300038F810002E280BD0022D24D1681E38F81C
:1059400010002E281FD1A81E38F810002E281AD1BA
:10595000002028F8150083460AE0AB4501D22E212D
:1059600000E0202109F1400000F80B100BF1010BC1
:10597000BBF10B0FF1D347F0200109F1400000F813
:105980000B100020ACE708E0681E38F81040202C0F
:1059900002D02E2C00D002E06D1E002DF4D100BFED
:1059A000002028F815000DB9062099E70B222021C8
:1059B00009F1400006F046FF002600E0761C38F8AA
:1059C00016002028FAD038F816002E28F6D00EB18E
:1059D00047F0030700E06D1E25B1681E38F810007F
:1059E0002E28F8D14FF0000AD3460820029000BFBD
:1059F0003046761C38F8104004B954E0202C03D00F
:105A00002E2C04D1AE4202D047F00307F0E70298F3
:105A1000834501D2AE4216D102980B2802D147F03D
:105A2000030740E0AE4201D047F00307AE4200D981
:105A300039E02E464FF0080B0B2002904FEA8A60A7
:105A40004FEA106AD4E7802C0BDB0021204604F0DB
:105A500077FE04461CB1A4F180002C490C5C47F091
:105A6000020700BF24B1214629A0FFF773FB18B13C
:105A70005F2447F003070FE0412C04DB5A2C02DCC3
:105A80004AF0020A08E0612C06DB7A2C04DC4AF0BA
:105A9000010AA4F1200084B258460BF1010B09F170
:105AA00040010C54A4E700BF99F84000E52802D15A
:105AB000052089F840000298082803D14FEA8A603F
:105AC0004FEA106A0AF00C000C2803D00AF0030019
:105AD000032801D147F0020707F0020058B90AF085
