:020000040800F2
:10000000F8920320C9020008452C0008E3210008EB
:10001000412C0008550700089D4E00080000000014
:100020000000000000000000000000000D020008B9
:100030008F0800080000000061020008813B0008F2
:10004000E3020008E3020008E3020008E3020008FC
:10005000E3020008E3020008E3020008E3020008EC
:10006000E3020008E3020008E30200085907000861
:10007000E3020008E3020008E3020008E3020008CC
:10008000E3020008E3020008E3020008E3020008BC
:10009000E3020008E3020008E3020008E3020008AC
:1000A000E3020008E3020008E3020008E30200089C
:1000B000E3020008E3020008E3020008E30200088C
:1000C000E3020008E3020008E3020008E30200087C
:1000D000E3020008E14D00080D4E00083D4E000807
:1000E000E3020008E3020008E3020008E30200085C
:1000F000E3020008E3020008E3020008E30200084C
:10010000E3020008E3020008E3020008E30200083B
:10011000D147000801480008E3020008E302000894
:1001200091070008E3020008E3020008E302000868
:10013000E3020008E3020008E3020008E30200080B
:10014000E3020008E3020008E3020008E3020008FB
:10015000A1070008E3020008E30200086D4E000852
:10016000E3020008E3020008E3020008E3020008DB
:10017000E3020008E3020008E302000800000000B8
:10018000E3020008E3020008514800088148000823
:10019000E3020008E3020008E3020008E3020008AB
:1001A000E3020008E3020008E3020008E30200089B
:1001B000E3020008E3020008E3020008E30200088B
:1001C000E3020008E3020008E3020008E30200087B
:1001D000E3020008E3020008E3020008212E000801
:1001E000E3020008E3020008E3020008E30200085B
:1001F000E3020008E3020008DFF80CD000F03EF94B
:10020000004800479DCD0008F89203202B4B196849
:100210000868B0E8F04F80F30988BFF36F8F4FF0A4
:10022000000080F311887047000000000648006855
:10023000006880F3088862B661B6BFF34F8FBFF3E2
:100240006F8F00DF00BF00BF08ED00E0DFF80C009B
:10025000016841F470010160704700BF88ED00E063
:10026000EFF30980BFF36F8F144B1A681EF0100F65
:1002700008BF20ED108A20E9F04F106008B44FF05D
:10028000E00080F31188BFF34F8FBFF36F8F0FF043
:1002900069FB4FF0000080F3118808BC19680868FA
:1002A000B0E8F04F1EF0100F08BFB0EC108A80F3DA
:1002B0000988BFF36F8F704700BF00BFF8000220AE
:1002C000EFF3058070470000064880470648004766
:1002D000FEE7FEE7FEE7FEE7FEE7FEE7FEE7FEE7F6
:1002E000FEE7FEE7893B0008F90100082DE9F05F11
:1002F0000546002092469B46884606468146402495
:100300001BE0284641464746224600F0A6F85346E1
:100310005A46C01A914110D311461846224600F0A1
:100320008DF82D1A67EB01084F4622460120002167
:1003300000F084F817EB00094E41201EA4F10104DF
:10034000DFDC484631462A464346BDE8F09FA0F12F
:100350004101192900D82030704740EA01039B076A
:1003600003D009E008C9121F08C0042AFAD203E02A
:1003700011F8013B00F8013B521EF9D27047D2B28E
:1003800001E000F8012B491EFBD270470022F6E77E
:1003900010B513460A4604461946FFF7F0FF2046FB
:1003A00010BD30B505462A460B4612F8010B13F86E
:1003B000014B08B1A042F8D01CB1002802D06D1C3E
:1003C000F1E7284630BDCAB2401E10F8011F8A422C
:1003D00002D00029F9D100207047421C10F8011BFF
:1003E0000029FBD1801A704710B5002200E0521C92
:1003F000835C8C5CA34201D1002BF8D1D8B2E1B26E
:10040000401A10BD30B504460020034600E05B1CD6
:10041000934203D2E05CCD5C401BF8D030BD30B5D8
:1004200005460020034600E05B1C934205D2EC5CCD
:10043000C85C201A01D1002CF6D130BD202A04DB83
:10044000203A00FA02F1002070479140C2F12003E7
:1004500020FA03F3194390407047202A04DB203A26
:1004600021FA02F00021704721FA02F3D040C2F1D4
:10047000200291400843194670470000064C074D82
:1004800006E0E06840F0010394E807009847103464
:10049000AC42F6D3FFF7B4FEC8230108F8230108E5
:1004A00070B58C1810F8015B15F0070301D110F836
:1004B000013B2A1106D110F8012B03E010F8016B63
:1004C00001F8016B5B1EF9D12B0705D40023521EE6
:1004D0000DD401F8013BFAE710F8013BCB1A921C4E
:1004E00003E013F8015B01F8015B521EF9D5A1424C
:1004F000D8D3002070BD000010B504462146024844
:1005000001F074FA10BD0000F47C032010B504481B
:1005100001F07FFA042801D0012010BD0020FCE783
:10052000F47C032010B50024124813490860002011
:100530004860002110488160C160016141618161B2
:1005400000F01CF802F068FC012801D0012010BD69
:10055000094801F067FB00B1012444B94FF4006180
:10056000054801F0F6F808B1012400E00024204617
:10057000EDE70000001C0140F47C03207CB504463C
:100580000D4600BF5448006840F0800052490860A2
:100590000846006800F08000019000BF00BF00BF67
:1005A0004D481438006840F480004B491439086005
:1005B0000846006800F48000019000BF00BF0A20D8
:1005C000032101230022CDE900101821434803F044
:1005D000FDFC0B20032101230022CDE90010C021E6
:1005E0003F4803F0F3FC0B20032101230022CDE957
:1005F000001049023B4803F0E9FC00220521672076
:1006000000F01DFC672000F00DFC4FF0B0503649A3
:100610004860002134488160C1604FF4806101610D
:1006200089004161890081612021C1614FF440311D
:10063000016204214162032181624FF40001C16221
:100640008910016329482849086000BF0846E06313
:10065000846300BF00F04EF9234800F0A1FA4FF088
:10066000B050234948604021214881600021C16089
:100670004FF480610161890041618900816120211D
:10068000C1614FF440310162042141620321816262
:100690004FF40001C1628910016314487830144995
:1006A000086000BF08462064846300BF00F022F9A0
:1006B0000F4800F075FA00220621382000F0BFFB39
:1006C000382000F0AFFB00220621442000F0B7FBE9
:1006D000442000F0A7FB7CBD4438024000040240E7
:1006E000000C024000180240787D03201064024094
:1006F000D87D03202DE9F843064614461D46DDE962
:1007000008783B46224631460548CDF8008001F086
:10071000E9FA10B10120BDE8F8830020FBE70000F2
:10072000F47C03202DE9F843064614461D46DDE916
:1007300008783B46224631460548CDF8008001F056
:10074000F8FB10B10120BDE8F8830020FBE70000B2
:10075000F47C032000BFFEE710B500BF0A488068A4
:1007600040F020000849886000BF00BF084680684C
:1007700040F01000886000BF002211460348006866
:100780000DF086FA10BD000000600240BC0102209E
:1007900010B50249C86B00F0DFF810BDF47C0320EF
:1007A00010B50249086C00F0D7F810BDF47C0320A6
:1007B0000146087810381823B0FBF3F20848805C33
:1007C000C865032A05D908686FF30900001D88650C
:1007D00003E008686FF309008865886D70470000C2
:1007E0002E060108014600208A6A8B69CBB932B116
:1007F000012A0DD0022A03D0032A10D10EE000BF37
:10080000CB6A03F08073B3F1807F00D1012007E051
:10081000CB6AB3F1C07F00D1012001E000E000BF4E
:1008200034E08B69B3F5005F1AD132B1012A07D0E9
:10083000022A03D0032A11D10AE000BF01200EE0F2
:10084000CB6A03F08073B3F1807F00D1012006E012
:10085000CB6AB3F1C07F00D1012000E000BF15E0FA
:1008600032B1012A05D0022A04D0032A0CD103E0B8
:1008700000BF00BF012008E0CB6A03F08073B3F132
:10088000807F00D1012000E000BF00BF70477047AB
:1008900010B50FF0D9FC0949096888420CD10FF056
:1008A000EFFC07490968401A0649086006480068D5
:1008B000096808440449086010BD00004C0102208A
:1008C00054010220580102205C010220014691F8E7
:1008D0003500022803D0802048650120704705209C
:1008E00081F835000868006820F001000A6810608F
:1008F0000020F3E770B504460CB9012070BD94F8F0
:100900003500022800D1F9E72068006820F00100D6
:10091000216808600020216808602168486021681B
:1009200088602168C86021680861212021684861C9
:100930002046FFF73DFF054694F85C103F208840B5
:10094000A8600020606584F8350000BF84F834009A
:1009500000BF00BFD2E70000F8B5044600200090B9
:100960008D4800684FF41651B0FBF1F7A56D2E6865
:1009700094F85C1008208840304098B120680068E6
:1009800000F0040070B12068006820F004002168C5
:10099000086094F85C1008208840A860606D40F002
:1009A0000100606594F85C107C488840304068B174
:1009B0002068406900F0800040B194F85C107748EE
:1009C0008840A860606D40F00200606594F85C109B
:1009D0007248C01C8840304070B12068006800F048
:1009E000020048B194F85C106C48C01C8840A860B4
:1009F000606D40F00400606594F85C101020884041
:100A0000304078B32068006800F0080050B394F8D4
:100A10005C1010208840A8602068006800F48020E6
:100A200080B12068006800F4002028B9206CC8B1AB
:100A30002046216C884715E0A06C98B12046A16C37
:100A400088470FE02068006800F4807028B92068AB
:100A5000006820F0080021680860206C10B1204672
:100A6000216C884794F85C10202088403040002892
:100A700065D02068006800F0100000285FD094F86E
:100A80005C1020208840A86094F83500052828D103
:100A90002068006820F0160021680860206840691E
:100AA00020F0800021684861206C08B9A06C28B152
:100AB0002068006820F008002168086094F85C1045
:100AC0003F208840A86000BF002084F8340000BFA9
:100AD000012084F83500206D10B12046216D884733
:100AE000F8BD2068006800F4802080B120680068AC
:100AF00000F4002028B9606C10B12046616C884772
:100B00001DE0E06BD8B12046E16B884717E0206814
:100B1000006800F4807068B92068006820F0100058
:100B20002168086000BF002084F8340000BF012065
:100B300084F83500E06B10B12046E16B8847606DAA
:100B400038B3606D00F00100F0B1052084F8350085
:100B50002068006820F001002168086000BF00984C
:100B6000401C0090B84200D905E02068006800F001
:100B700001000028F3D100BF00BF002084F834003A
:100B800000BF012084F83500E06C10B12046E16C14
:100B9000884700BFA4E70000B802022001008000DF
:100BA0002DE9F0410446002500F08CF8074614B901
:100BB0000120BDE8F081606A00B100BF00BF0020E5
:100BC00084F8340000BF022084F8350020680068F3
:100BD00020F00100216808600AE000F073F8C01BF3
:100BE000052805D920206065032084F83500E0E75A
:100BF0002068006800F001000028EED12068056838
:100C000021480540D4E901010843E168084321690E
:100C1000084361690843A1690843E1690843216AFF
:100C200008430543606A042803D1D4E90B01084353
:100C30000543206805602068456925F00705606A5E
:100C40000543606A04280DD1A06A0543E06A48B1F3
:100C50002046FFF7C7FD28B140206065012084F8D9
:100C60003500A6E7206845612046FFF7A1FD06464E
:100C700094F85C103F208840B0600020606501203F
:100C800084F83500002094E73F8010E000B501466D
:100C900000BFEFF3058048B900F014F8024600BF2A
:100CA00000F010F8801A8842FAD309E006E04FF00D
:100CB000E020006900F4803000B1491E0029F6D11F
:100CC00000BD0000014800687047000004000220D9
:100CD00010B52E480068401C2C4908602C4800685C
:100CE00020B12B480068401E29490860002444E0D8
:100CF000284850F8240000283DD0264850F8240009
:100D00000078C0F34000B0B3224850F82400806857
:100D100040B1204850F824008068401E1D4951F819
:100D2000241088601B4850F82400806818BB194BB9
:100D300053F824301969174B53F8240053F8243022
:100D4000DA689047134850F824004168114850F879
:100D5000240081600F4850F82400007800F0010062
:100D600048B90C4850F82400007820F002010948E6
:100D700050F824000170601CC4B20648001F0078BF
:100D8000A042B5DC02F063FF10BD000004000220A9
:100D900000000220CC02022010B50848006840F490
:100DA000007006490860032000F088F80F2000F06A
:100DB00007F800F019F8002010BD0000003C0240C8
:100DC00070B50446074800684FF47A71B0FBF1F53E
:100DD000284601F0AFF900222146501E00F02FF8FE
:100DE000002070BDB80202207047000000BF00F074
:100DF0001F0201219140034A430942F8231000BF1A
:100E00007047000080E200E000BF00F01F020121F7
:100E10009140034A430942F8231000BF7047000085
:100E200080E100E000BF00F01F0201219140420973
:100E3000920002F1E022C2F8001100BF70472DE9D4
:100E4000F05F80460D461646002701F0FDFE07467E
:100E500039462A46334601F00700C0F1070ABAF1C5
:100E6000040F02D94FF0040A01E0C0F1070AD1468D
:100E700000F1040ABAF1070F02D24FF0000A01E0B4
:100E8000A0F1030AD4464FF0010A0AFA09FAAAF1BE
:100E9000010A0AEA020A0AFA0CFA4FF0010B0BFAED
:100EA0000CFBABF1010B0BEA030B4AEA0B042146E6
:100EB000404601F0D1FEBDE8F09F000000BF00F009
:100EC0000702064B19684FF6FF031940044B0B430A
:100ED00043EA0221014B196000BF70470CED00E0AE
:100EE0000000FA0538B5002400BF2048006840F033
:100EF00080501E4908600846006800F0805000904D
:100F000000BF00BF1A48006840F4803018490860EC
:100F1000FFF7D8FE044607E0FFF7D4FE001BB0F54C
:100F20007A7F01D9032038BD1148406800F4803031
:100F3000B0F5803FF0D10E48006840F400300C4915
:100F40000860FFF7BFFE044607E0FFF7BBFE001B8B
:100F5000B0F57A7F01D90320E5E70548406800F441
:100F60000030B0F5003FF0D10020DCE7403802400F
:100F70000070004070B504460D46002666480068C3
:100F800000F00F00A8420ED26348006820F00F0066
:100F90002843614908600846006800F00F00A84235
:100FA00001D0012070BD207800F00200022807D196
:100FB0005A48006820F0F000A168084357490860CB
:100FC000207800F00100002860D06068012807D177
:100FD000524808380068C0F34040A0B90120E1E75A
:100FE0006068022807D14D4808380068C0F34060A7
:100FF00048B90120D6E7494808380068C0F34000E6
:1010000008B90120CEE74548006820F00300616878
:10101000084342490860FFF755FE0646606801280C
:1010200010D108E0FFF74EFE801B41F28831884264
:1010300001D90320B6E73948006800F00C00042805
:10104000F0D123E06068022810D108E0FFF73AFEF3
:10105000801B41F28831884201D90320A2E72F4842
:10106000006800F00C000828F0D10FE008E0FFF75E
:1010700029FE801B41F28831884201D9032091E783
:101080002648006800F00C000028F0D122480068D3
:1010900000F00F00A8420ED91F48006820F00F0092
:1010A00028431D4908600846006800F00F00A84268
:1010B00001D0012076E7207800F00400042807D151
:1010C0001648006820F4E050E168084313490860BE
:1010D000207800F00800082808D11048006820F4A3
:1010E0006040216940EAC1000C49086000F05AF8EC
:1010F0000A49096801F0F001F02292FAA2F2B2FA6C
:1011000082F2D140064A515CC840064908600F206F
:10111000FFF756FE002045E7003C02400838024039
:10112000D2200108B8020220014800687047000080
:10113000B80202200CB50AA103C9CDE90001FFF7EE
:10114000F3FF0949096801F4E0514FF4E05292FAC3
:10115000A2F2B2FA82F2D1401DF80110C8400CBDD3
:101160000000000001020304083802400CB50AA187
:1011700003C9CDE90001FFF7D7FF0949096801F468
:1011800060414FF4604292FAA2F2B2FA82F2D14088
:101190001DF80110C8400CBD00000000010203044E
:1011A0000838024070B50021002200230020274C9F
:1011B000246804F00C0424B1042C04D0082C41D180
:1011C00003E0234840E023483EE0204C241F2468ED
:1011D00004F03F011D4C241F246804F4800484B1F2
:1011E0001C4CB4FBF1F5194C241F246847F6C0765B
:1011F000344096FAA6F6B6FA86F6F44005FB04F2F9
:101200000FE0134CB4FBF1F5104C241F246847F693
:10121000C076344096FAA6F6B6FA86F6F44005FB98
:1012200004F20A4C241F246804F440344FF440357F
:1012300095FAA5F5B5FA85F5EC40641C6300B2FBA0
:10124000F3F001E0024800BF00BF70BD0838024063
:101250000024F40040787D01F8B5044600250026FE
:10126000207800F00100002871D0FD48006800F0EF
:101270000C0004280DD0FA48006800F00C00082883
:1012800013D1F748001F006800F48000B0F5800F0C
:101290000BD1F34808380068C0F34040002869D0FB
:1012A0006068002866D10120F8BD00BF6068B0F515
:1012B000803F08D1EA480838006840F48030E849A7
:1012C000083908602EE0606868B9E54808380068A9
:1012D00020F48030E249083908600846006820F4AC
:1012E000802008601EE06068B0F5A02F0DD1DC48BA
:1012F0000838006840F48020D94908390860084659
:10130000006840F4803008600CE0D5480838006878
:1013100020F48030D249083908600846006820F47B
:101320008020086000BF606890B1FFF7CBFC0546E5
:1013300006E0FFF7C7FC401B642801D90320B3E790
:10134000C74808380068C0F340400028F1D011E0D9
:10135000FFF7B8FC054606E0FFF7B4FC401B642825
:1013600001D90320A0E7BE4808380068C0F3404018
:101370000028F1D1207800F00200022873D1B8488B
:10138000006800F00C0058B1B548006800F00C008F
:10139000082821D1B248001F006800F48000D8B9A5
:1013A000AF4808380068C0F3400020B1E068012869
:1013B00001D0012078E7AA480838006820F0F8003A
:1013C000F82292FAA2F2B2FA82F22169914008431D
:1013D000A3490839086046E0E06850B3A0480838DF
:1013E000006840F001009E4908390860FFF76AFC78
:1013F000054606E0FFF766FC401B022801D90320E2
:1014000052E7974808380068C0F340000028F1D040
:1014100093480838006820F0F800F82292FAA2F207
:10142000B2FA82F22169914008438D490839086077
:1014300019E08B480838006820F001008849083915
:101440000860FFF73FFC054606E0FFF73BFC401B4A
:10145000022801D9032027E7814808380068C0F333
:1014600040000028F1D1207800F00800082836D18B
:101470006069D0B17A486C30006840F0010078496A
:101480006C310860FFF71EFC054606E0FFF71AFC0A
:10149000401B022801D9032006E771486C30006820
:1014A000C0F340000028F1D019E06D486C300068AE
:1014B00020F001006A496C310860FFF703FC054623
:1014C00006E0FFF7FFFB401B022801D90320EBE6F3
:1014D00063486C300068C0F340000028F1D12078E8
:1014E00000F00400042874D15D483830006800F032
:1014F000805080B900BF5A483830006840F08050B2
:101500005749383108600846006800F08050009064
:1015100000BF00BF01265348006800F48070B0B9D6
:101520005048006840F480704E490860FFF7CAFBDD
:10153000054606E0FFF7C6FB401B642801D90320DF
:10154000B2E64848006800F480700028F2D000BF7E
:10155000A068012808D142486830006840F00100C6
:101560003F49683108602DE0A06868B93C486830A0
:10157000006820F001003A496831086008460068B8
:1015800020F0040008601DE0A06805280DD1344853
:101590006830006840F0040031496831086008464E
:1015A000006840F0010008600CE02D4868300068D9
:1015B00020F001002A49683108600846006820F0E0
:1015C0000400086000BFA068A8B1FFF77BFB0546D8
:1015D00009E02EE0FFF776FB401B41F2883188429C
:1015E00001D9032060E61E4868300068C0F340005F
:1015F0000028EFD013E0FFF765FB054608E0FFF792
:1016000061FB401B41F28831884201D903204BE63F
:10161000134868300068C0F340000028EFD1012E65
:1016200007D10F483830006820F080500C4938311D
:101630000860A069F0B30A48006800F00C000828B0
:101640007FD0A069022863D105480838006820F0DF
:101650008070034908390860FFF734FB05460AE04B
:101660000838024000700040FFF72CFB401B0228A6
:1016700001D9032018E635480068C0F3406000280F
:10168000F2D1D4E90701084347F6C07292FAA2F2F8
:10169000B2FA82F2616A914008430122A16AC2EB68
:1016A00051014FF4403292FAA2F2B2FA82F2914022
:1016B000084300E047E04FF0706292FAA2F2B2FAFB
:1016C00082F2E16A914008434FF0E04292FAA2F2BE
:1016D000B2FA82F2216B914008431C49091D08604F
:1016E000081F006840F08070091F0860FFF7EAFAE1
:1016F000054606E0FFF7E6FA401B022801D9032061
:10170000D2E512480068C0F340600028F2D01AE029
:101710000E48006820F080700C490860FFF7D2FA8C
:10172000054607E00DE0FFF7CDFA401B022801D97E
:101730000320B9E505480068C0F340600028F2D1F5
:1017400001E00120B0E50020AEE5000000380240D5
:10175000704770B58AB004460D460026032084F811
:101760003400606C032820D0B5F5805F04D1A06BF5
:1017700040F08050A0631CE0B5F5006F07D1204613
:1017800002F0A5F90646A06B3043A06311E03DB915
:10179000204602F067F90646A06B3043A06308E0DC
:1017A000A06B40F00060A06303E0A06B40F08050AD
:1017B000A063A06B40B140F2FF5021688863012014
:1017C00084F834000AB070BD60680490A068059089
:1017D000E0680690079560690890A069099007A8DD
:1017E00007C88DE80700206804A90EC901F0FAFEB9
:1017F000012084F834000020E4E7704730B5034648
:101800000022586E020E90090870C2F383004870DF
:1018100002F003008870586EC0F30742CA70B3F834
:101820006400C0F307220A7193F864204A71986E2D
:10183000020E4FF6FF7000EA0210C880986EC0F3E7
:101840000742C88840EA1210C88002F00F000872F0
:101850006820C05AC0F30722D0094872C2F3801032
:101860008872C2F34010C872C2F3001008730020DF
:101870004873586C00283ED19007000D086168201D
:10188000C25C086940EA82000861D86E020E0869ED
:1018900040EA92100861C2F3C200087502F0070026
:1018A0004875D86EC0F3074250098875C2F38200AC
:1018B000C8759007400F08766C20C05AC0F3072205
:1018C000087E40EAD21008760869401C58650C7EF4
:1018D000586DA41C0125A540684358650C7A012069
:1018E000A0409865D3E91504640A6043D8654FF4B5
:1018F00000741C6630E0586C012821D16820C25C5D
:101900009006800A0861D86E020E086940EA02203B
:101910000861D86EC0F307420869104308616C2063
:10192000C05AC0F307220869441C4FF48060A4FB2E
:1019300000045865D8654FF400749C651C660BE084
:1019400040F2FF501C68A063986B40F08050986391
:10195000012083F8340030BDC2F3801001F8190F64
:101960009006400E48706C20C25C487840EAD21065
:10197000487002F07F008870186F020ED009C8709E
:10198000C2F341100871C2F3820048719007000F42
:101990008871186FC0F30742887940EA9210887105
:1019A000C2F34010C8710020087202F001004872B2
:1019B0007020C05AC0F30722D0098872C2F3801089
:1019C000C872C2F340100873C2F300104873C2F328
:1019D0008100887302F00300C8737020C25C500855
:1019E00008740120487419390020B4E70246506C8D
:1019F0000860906C4860D06C8860106DC860506D55
:101A00000861906D4861D06D8861106EC8610020DA
:101A10007047F8B50446042600250020009069466A
:101A2000204602F006F8054615B1A06B2843A063D6
:101A30000098C0F343263046F8BD000070B5044658
:101A400000252068406BC0F30020002862D04FF4CE
:101A50008070216888632068C06B20F49D702168C5
:101A6000C863206B00F0080048B3206B00F0020050
:101A700018B9206B00F0200050B1206801F064FB21
:101A800005462DB1A06B2843A0632046FFF7B5FEA5
:101A900040F2FF5021688863012084F83400206BF5
:101AA00000F0010018B9206B00F0020018B12046C8
:101AB00000F03DFAB1E0204600F03AFAADE0206BCC
:101AC00000F080000028F5D0206B00F0200050B11D
:101AD000206801F039FB05462DB1A06B2843A063B7
:101AE0002046FFF78AFE206B00F001000028E1D1BC
:101AF000206B00F002000028DCD12068C06A20F0D2
:101B000008002168C862012084F83400204600F0F3
:101B10000FFA82E02068406BC0F3803038B14FF498
:101B2000804021688863204602F006F875E020684E
:101B3000406BC0F3C03038B14FF400402168886377
:101B4000204601F063FF68E02068406B00F03A0037
:101B500008B1012000E0002000285ED02068406B22
:101B6000C0F3400018B1A06B40F00200A0632068F1
:101B7000406BC0F3C00018B1A06B40F00800A06338
:101B80002068406BC0F3401018B1A06B40F02000FB
:101B9000A0632068406BC0F3001018B1A06B40F048
:101BA0001000A06340F2FF50216888632068C06B7A
:101BB00020F49D702168C863206B00F0800010B392
:101BC000206C50B11548216C0865206CFEF77EFE34
:101BD00018B3206C01F069FD1FE0E06B50B11048B4
:101BE000E16B0865E06BFEF771FEB0B1E06B01F0F0
:101BF00036FD12E00020A063012084F83400204666
:101C0000FFF7A6FD09E0206B00F0080028B10120D5
:101C100084F834002046FFF7F0FD70BDAB360008B5
:101C20005F36000810B504460CB9012010BD94F8C9
:101C3000340020B900202077204600F052F803201D
:101C400084F83400204600F008F80020A0632063E8
:101C5000012084F834000020E8E730B589B004465C
:101C600000250020039004900590069007907620B0
:101C7000089006A807C88DE80700206803A90EC9C8
:101C800001F0B0FC2068406820F480702168486052
:101C9000206801F0C1FC2068406840F48070216831
:101CA00048600220FEF7F2FF204601F038FE0546AC
:101CB00045B1012084F83400A06B2843A0630120C3
:101CC00009B030BD204601F0ACFD05463DB1012014
:101CD00084F83400A06B2843A0630120F0E70020C3
:101CE000EEE770472DE9F04F87B004468A469046EC
:101CF0001E46DDF840900025FEF7E4FF0090AB465D
:101D00005746BAF1000F07D1A06B40F00060A06306
:101D1000012007B0BDE8F08F94F8340001287DD190
:101D20000020A06308EB0601E06D814205D9A06B9D
:101D300040F00070A0630120EBE7032084F834003A
:101D400000202168C862606C012801D04FEA482851
:101D50004FF40071206801F0A7F8054655B140F234
:101D6000FF5021688863A06B2843A063012084F89A
:101D70003400CEE74FF0FF300190700202909020C7
:101D8000039002200490002005900120069001A9F4
:101D9000206801F031FA012E07D902202063414664
:101DA000206801F0EDF8054606E001202063414679
:101DB000206801F002F9054655B140F2FF50216854
:101DC0008863A06B2843A063012084F83400A0E757
:101DD0002AE02068406B00F4004068B14FF0000B2F
:101DE00006E0206801F01DFC47F82B000BF1010B09
:101DF000BBF1080FF5D32037B9F1000F05D0FEF77E
:101E000061FF0099401A48450ED340F2FF50216807
:101E10008863A06B40F00040A06300E081E00120F7
:101E200084F83400032074E72068406B00F4957058
:101E30000028CED02068406B00F48070A0B1012E45
:101E400012D9606C03280FD0206801F07DF9054697
:101E500055B140F2FF5021688863A06B2843A0630E
:101E6000012084F8340054E72068406B00F008003B
:101E700058B140F2FF5021688863A06B40F0080021
:101E8000A063012084F8340043E72068406B00F031
:101E9000020058B140F2FF5021688863A06B40F007
:101EA0000200A063012084F8340032E72068406B10
:101EB00000F0200058B140F2FF5021688863A06B09
:101EC00040F02000A063012084F8340021E719E0ED
:101ED000206801F0A6FB38603F1DB9F1000F05D066
:101EE000FEF7F0FE0099401A48450BD340F2FF5030
:101EF00021688863A06B40F00040A063012084F853
:101F0000340006E72068406B00F400100028DFD1A1
:101F100040F2FF5021688863012084F834000020DB
:101F2000F7E6A06B40F00050A0630120F1E6704797
:101F300070472DE9F04F87B00446884617461E4685
:101F4000DDF840B00025FEF7BDFE0090A946C24670
:101F5000B8F1000F07D1A06B40F00060A063012032
:101F600007B0BDE8F08F94F8340001287DD100203F
:101F7000A063B919E06D814205D9A06B40F00070F3
:101F8000A0630120ECE7032084F8340000202168DE
:101F9000C862606C012800D07F024FF40071206895
:101FA00000F082FF054655B140F2FF50216888637A
:101FB000A06B2843A063012084F83400D0E7012EF1
:101FC00007D9202020633946206801F0DBF8054658
:101FD00006E0102020633946206801F0F0F805463D
:101FE00055B140F2FF5021688863A06B2843A0637D
:101FF000012084F83400B3E74FF0FF300190700205
:1020000002909020039000200490059001200690FB
:1020100001A9206801F0F0F82AE02068406B00F484
:10202000804070B14FF0000906E00AEB890120689A
:1020300001F00FFB09F10109B9F1080FF5D30AF11D
:10204000200ABBF1000F05D0FEF73CFE0099401AB4
:1020500058450DD340F2FF5021688863A06B284398
:10206000A063012084F8340000E05DE0032077E7FE
:102070002068406B00F48D700028CED02068406B43
:1020800000F48070A0B1012E12D9606C03280FD02B
:10209000206801F059F8054655B140F2FF5021681B
:1020A0008863A06B2843A063012084F8340057E7BD
:1020B0002068406B00F0080058B140F2FF502168E2
:1020C0008863A06B40F00800A063012084F834000E
:1020D00046E72068406B00F0020058B140F2FF5024
:1020E00021688863A06B40F00200A063012084F89F
:1020F000340035E72068406B00F0100058B140F222
:10210000FF5021688863A06B40F01000A06301209D
:1021100084F8340024E740F2FF50216888630120EE
:1021200084F8340000201BE7A06B40F00050A0634F
:10213000012015E770B504462546681EB0F1807F82
:1021400001D301200FE0681E4FF0E02148610F210C
:102150004FF0FF3000F080FD00204FF0E02188615B
:1021600007200861002070BD10B504460CB901209D
:1021700010BDA06900B100E000BF94F8690028B963
:10218000002084F86800204600F02AF8242084F813
:1021900069002068006820F001002168086020467E
:1021A00002F022FC012800D1E2E7606A10B120466B
:1021B00002F07EFB2068406820F49040216848606F
:1021C0002068806820F02A00216888602068006804
:1021D00040F0010021680860204602F0DEFBC7E7FE
:1021E000704700BFFEE70000024909680143014A49
:1021F0001160704710380240024909688143014A62
:102200001160704710380240024909680143014AD1
:102210001160704720380240024909688143014A31
:102220001160704720380240024909680143014AA1
:102230001160704724380240024909688143014A0D
:1022400011607047243802402DE9F04104460D46E4
:10225000724E012715F5803F18D17048103884421E
:1022600006D17805FFF7C0FF7805FFF7C5FFD2E07C
:102270006B48844208D14FF48000FFF7B5FF4FF45C
:102280008000FFF7B9FFC6E00027C4E000BF654843
:10229000405D205820F001006249495D605000BF58
:1022A0005E481038844202D10DB95C4877E05C4842
:1022B000844203D115B95A48103070E0574810389D
:1022C000844204D1012D02D15448183067E05448AB
:1022D000844204D1012D02D1514828305FE04F489B
:1022E0001038844204D1022D02D14C48303056E0DF
:1022F0004B48844204D1022D02D1494840304EE07F
:1023000046481038844204D1032D02D14348483056
:1023100045E04348844204D1032D02D1404858305F
:102320003DE03E481038844204D1042D02D13B48A0
:10233000603034E03A48844204D1042D02D1384858
:1023400070302CE035481038844204D1052D02D17C
:102350003248783023E03248844204D1052D02D13E
:102360002F4888301BE02D481038844204D1062DB8
:1023700002D12A48903012E02948844204D1062D27
:1023800002D12748A0300AE024481038844204D102
:10239000072D02D12148A83001E02148B830064677
:1023A000002030607060B060F060306121207061AA
:1023B00000222946204600F0A3F815B93F20A0606E
:1023C00029E0012D03D14FF47460A06023E0022DB9
:1023D00003D14FF47C10A0601DE0032D03D14FF01A
:1023E0007460A06017E0042D02D13F20E06012E08D
:1023F000052D03D14FF47460E0600CE0062D03D18D
:102400004FF47C10E06006E0072D03D14FF07460BC
:10241000E06000E000273846BDE8F081106002402F
:10242000006402403606010870B504460D461646A3
:10243000F06A00B100BFD6E90212114332691143BC
:1024400072691143B2691143F2691143B26A41EAF8
:1024500002002949495D6158284A11400143264A32
:10246000525DA15000BFF06A30B3D6E90B01224A99
:10247000525D2244526922F0070240EA01031A43E6
:102480001D4B5B5D23445A6100BF706B1A49495D67
:10249000615821F0C0710143174A525DA15000BF3D
:1024A000B06B1549495D615821F4C0010143124ADE
:1024B000525DA15000BF00BF70680F49495D2144C3
:1024C000C86000BF30680C49495D2144886000BF86
:1024D000306A0949495D214449686FF30F0101439E
:1024E000054A525D2244516000BF29462046726A67
:1024F00000F006F8012070BD360601081F80FCFFC1
:1025000010B5054B5B5CC35823F0F0531343024CEA
:10251000645C035110BD000036060108F0B50346A7
:102520000A4600240021106890FAA0F0B0FA80F466
:102530007FE00125A540106800EA0501002977D059
:1025400050681D6891FAA1F6B6FA86F67700032660
:10255000BE40B54391FAA1F6B6FA86F6760000FAC7
:1025600006F635431D6000BF5068012802D0506850
:10257000022814D190689D6891FAA1F6B6FA86F601
:1025800077000326BE40B54391FAA1F6B6FA86F667
:10259000760000FA06F635439D6000BF00BF106963
:1025A000DD6891FAA1F6B6FA86F677000326BE40FA
:1025B000B54391FAA1F6B6FA86F6760000FA06F669
:1025C0003543DD6000BF5068022831D191FAA1F097
:1025D000B0FA80F0082814D250691D6A91FAA1F669
:1025E000B6FA86F6B7000F26BE40B54391FAA1F6BB
:1025F000B6FA86F6B60000FA06F635431D6200BF4D
:1026000016E050695D6A0E0A96FAA6F6B6FA86F6E4
:10261000B7000F26BE40B5430E0A96FAA6F6B6FAE4
:1026200086F6B60000FA06F635435D6200BF00BFCD
:10263000641C1068E04000287FF47BAF50680128DC
:1026400002D05068022809D1D56810685E688643B8
:1026500000FB05F73E435E6000BF00BF0120F0BDF8
:102660002DE9F04104460025C02C29D1204600F078
:10267000BDF8B0F5400F18D0A0F54000403820B1AB
:10268000402806D080280FD108E000F02DFB054639
:1026900015E000F07DF900B1504D10E000F080F938
:1026A00008B14FF400450AE000BF00F01DFB0746EB
:1026B00000F0E6FA064600F0F3FA054600BF89E0AE
:1026C000B4F5407F2AD1204600F090F8B0F1407F69
:1026D00019D04349084430B1B0F5807F07D0B0F538
:1026E000007F0FD108E000F0FFFA054615E000F08A
:1026F0004FF900B1394D10E000F052F908B14FF434
:1027000000450AE000BF00F0EFFA074600F0B8FA13
:10271000064600F0C5FA054600BF5BE0B4F5405F31
:102720002AD1204600F062F8B0F1405F19D02D495F
:10273000084430B1B0F5805F07D0B0F5005F0FD12D
:1027400008E000F0D1FA054615E000F021F900B1EB
:10275000224D10E000F024F908B14FF400450AE0E2
:1027600000BF00F0C1FA074600F08AFA064600F002
:1027700097FA054600BF2DE0B4F5404F2AD1204618
:1027800000F034F8B0F1404F19D01749084430B187
:10279000B0F5804F07D0B0F5004F0FD108E000F042
:1027A000A3FA054615E000F0F3F800B10B4D10E078
:1027B00000F0F6F808B14FF400450AE000BF00F061
:1027C00093FA074600F05CFA064600F069FA0546FF
:1027D00000BF00BF2846BDE8F08100000024F400DF
:1027E00000FFFFFC00F0FFCF00C0FF3F01460348A1
:1027F0000068084040EA01407047000090380240FD
:102800002DE9F04104460025032C29D1204600F093
:10281000B5F8B0F5403F18D06FF44031084420B10E
:10282000012806D002280FD108E000F05DFA054625
:1028300015E000F0ADF800B14E4D10E000F0B0F83A
:1028400008B14FF400450AE000BF00F04DFA07461A
:1028500000F016FA064600F035FA054600BF85E09E
:102860000C2C29D1204600F089F8B0F5402F18D063
:10287000A0F54020001F20B1042806D008280FD161
:1028800008E000F031FA054615E000F081F800B1EB
:10289000384D10E000F084F808B14FF400450AE02C
:1028A00000BF00F021FA074600F0EAF9064600F002
:1028B000F7F9054600BF59E0B4F5406F2AD120462C
:1028C00000F05CF8B0F1406F19D02B49084430B1EA
:1028D000B0F5806F07D0B0F5006F0FD108E000F0C1
:1028E00003FA054615E000F053F800B1214D10E061
:1028F00000F056F808B14FF400450AE000BF00F0C0
:10290000F3F9074600F0BCF9064600F0DBF905468E
:1029100000BF2BE0302C29D1204600F02FF8B0F575
:10292000401F18D0A0F54010103820B1102806D054
:1029300020280FD108E000F0D7F9054615E000F097
:1029400027F800B10B4D10E000F02AF808B14FF461
:1029500000450AE000BF00F0C7F9074600F090F913
:10296000064600F09DF9054600BF00BF2846BDE8B9
:10297000F08100000024F40000FCFFF3014603484E
:102980000068084040EA014070470000903802406B
:1029900002480068C0F34000704700000038024061
:1029A00002480068C0F340007047000070380240E1
:1029B0000248006800F03F00704700000438024001
:1029C0000248006800F480007047000004380240AC
:1029D00002480068C0F388107047000004380240C5
:1029E00070B5044601252E48844206D11020FFF719
:1029F0001BFC1020FFF720FC50E02A48844208D13D
:102A00004FF40030FFF700FC4FF40030FFF704FCF8
:102A100044E02548844208D14FF48020FFF7F4FBBE
:102A20004FF48020FFF7F8FB38E02048844206D1BD
:102A30002020FFF7F9FB2020FFF7FEFB2EE01C48CB
:102A4000844208D14FF40020FFF7DEFB4FF4002052
:102A5000FFF7E2FB22E01748844208D14FF48010D0
:102A6000FFF7D2FB4FF48010FFF7D6FB16E01248B9
:102A7000844208D14FF08040FFF7C6FB4FF0804002
:102A8000FFF7CAFB0AE00D48844206D14005FFF774
:102A9000BBFB6005FFF7C0FB00E00025284670BDCA
:102AA0000010014000440040004800400014014074
:102AB000004C00400050004000780040007C004086
:102AC000016841F001010160704700002DE9F0410B
:102AD00004460D4600270026204600F09FF80028F7
:102AE0007BD1E9686868084329690843A9690843F4
:102AF0002168414A114008432060A868616821F4B8
:102B000040510143616000BF6869A16821F44071D0
:102B10000143A16000BF3948844204D10320FFF77C
:102B20006FFE06463AE03648844204D10C20FFF797
:102B300067FE064632E03348844204D13020FFF776
:102B40005FFE06462AE03048844205D14FF44060DB
:102B5000FFF756FE064621E02C48844204D1C020EF
:102B6000FFF77EFD064619E02948844205D14FF45F
:102B70004070FFF775FD064610E02648844205D1F7
:102B80004FF44050FFF76CFD064607E022488442B0
:102B900004D14FF44040FFF763FD0646EEB12868CC
:102BA000D8B101273146AA6928684FF0000C0023EC
:102BB000B2F5004F12D14FEA410808EB5008B8FBBC
:102BC000F0F81FFA88FC4FF6F0780CEA0803CCF313
:102BD000420843EA0803E36008E009E001EB50081B
:102BE000B8FBF0F81FFA88F8C4F80C8000BF00BFEB
:102BF0003846BDE8F0810000F369FFEF00100140A6
:102C0000004400400048004000140140004C0040D7
:102C10000050004000780040007C004001460868F9
:102C200000F0010070474FF416510160002141602F
:102C30008160C1600C2101610021416181617047A7
:102C400000BFFEE77047000002480068C0F30220A2
:102C5000704700000CED00E010B5002807DA0A0705
:102C6000140E054A00F00F031B1FD45403E00A079B
:102C7000130E024A135410BD18ED00E000E400E00A
:102C8000014600BF0448006800F0F0000009034A54
:102C9000125C21FA02F0704708380240D220010885
:102CA000014600BF0548006800F4E050044A02EB0A
:102CB0009020027821FA02F07047000008380240A4
:102CC000E2200108014600BF0548006800F46040AA
:102CD000044A02EB5030027821FA02F070470000FB
:102CE00008380240E220010810B5002400BF0B485C
:102CF000006800F00C0020B1042804D0082808D196
:102D000003E0074C07E0074C05E000F00DF804462F
:102D100001E0034C00BF00BF204610BD0838024050
:102D20000024F40040787D0170B500240025FFF7F1
:102D300047FE05461DB1B5F5800F04D101E00C4CEE
:102D400003E00C4C01E00A4C00BF00BFFFF730FE6F
:102D5000B4FBF0F6FFF73CFE46430748006800F47A
:102D60004030012101EB10404000B6FBF0F070BD97
:102D70000024F40040787D010438024010B500239F
:102D8000234C236000BF00BF00BFBFF34F8F00BFC5
:102D900000BF00BF231F1868C0F34E3100BFC0F34F
:102DA000C90200BF43F6E07303EA41134FF0404409
:102DB00004EA82742343174C236000BF00BF131E34
:102DC000A2F10102EED10B1EA1F10101E7D100BF7A
:102DD00000BF00BFBFF34F8F00BF00BF00BF0C4B51
:102DE000703B1B6843F48033094C703C236000BF88
:102DF00000BF00BFBFF34F8F00BF00BF00BF00BFC9
:102E000000BF00BFBFF36F8F00BF00BF00BF10BD8A
:102E100084ED00E060EF00E0012070470120704782
:102E200010B50248FEF70AFE10BD0000F47C032036
:102E300070B586B005460C460026019437200290F6
:102E400040200390002004904FF48060059001A979
:102E5000284600F0EAFB41F288323721284600F08C
:102E600001FA0646304606B070BD000070B586B067
:102E700005460C4600260B4820430190292002906D
:102E800040200390002004904FF48060059001A939
:102E9000284600F0CAFB284600F0E4FA0646304611
:102EA00006B070BD0000108070B586B005460C46B7
:102EB00000260194102002904020039000200490EE
:102EC0004FF48060059001A9284600F0AEFB41F266
:102ED00088321021284600F0C5F90646304606B073
:102EE00070BD70B586B005460C46002601940620DC
:102EF000029040200390002004904FF480600590E1
:102F000001A9284600F091FB41F2883206212846AB
:102F100000F0A8F90646304606B070BD30B585B061
:102F200004460025002000900190029003904FF489
:102F3000806004906946204600F077FB204600F050
:102F400071F90546284605B030BD30B585B0044658
:102F500000254FF4D5700090082001904020029089
:102F6000002003904FF4806004906946204600F0F2
:102F70005CFB204600F0F6FA0546284605B030BD59
:102F800070B586B005460C460026019412200290CA
:102F900040200390002004904FF48060059001A928
:102FA000284600F042FB41F288321221284600F008
:102FB00059F90646304606B070BD70B586B0054674
:102FC0000C4600260194112002904020039000201E
:102FD00004904FF48060059001A9284600F025FB7D
:102FE00041F288321121284600F03CF9064630466D
:102FF00006B070BDF0B585B0064614461D460027E4
:1030000000940720019040200290002003904FF48C
:10301000806004906946304600F007FB41F2883238
:103020000721304600F01EF90746384605B0F0BDCE
:1030300030B585B0044600250020009002200190A4
:10304000C0200290002003904FF4806004906946F5
:10305000204600F0EAFA204600F0D6F90546284658
:1030600005B030BD70B586B005460C46002601940B
:1030700009200290C0200390002004904FF480604B
:10308000059001A9284600F0D0FA284600F0BCF9C6
:103090000646304606B070BD30B585B00446002502
:1030A00000200090332001904020029000200390E7
:1030B0004FF4806004906946204600F0B6FA41F271
:1030C00088323321204600F0CDF80546284605B069
:1030D00030BD70B586B005460C46002601940D2023
:1030E000029040200390002004904FF480600590EF
:1030F00001A9284600F099FA41F288320D212846AC
:1031000000F0B0F80646304606B070BD70B586B027
:1031100005460C4600260020019003200290402026
:103120000390002004904FF48060059001A9284688
:1031300000F07BFA22460321284600F0BBF9064640
:10314000304606B070BD000030B585B0044600259D
:10315000002000900C20019040200290002003905D
:103160004FF4806004906946204600F05EFA044AFD
:103170000C21204600F076F80546284605B030BD03
:1031800000E1F50570B586B005460C4600260194B1
:103190001920029040200390002004904FF480609A
:1031A000059001A9284600F040FA41F28832192121
:1031B000284600F057F80646304606B070BD70B598
:1031C00086B005460C460026019418200290402047
:1031D0000390002004904FF48060059001A92846D8
:1031E00000F023FA41F288321821284600F03AF81C
:1031F0000646304606B070BD10B50246002308688A
:10320000506248689062D1E9020420430C6920436F
:103210004C6920430343D06A20F0F7001843D06282
:10322000002010BD01460E480068C0084FF47A73B4
:10323000B0FBF3F041F2883300FB03F200BF101E35
:10324000A2F1010202D14FF000407047486B00F03C
:1032500080000028F3D040F2FF5088630020F4E79C
:10326000B80202202DE9F04105460E461746644893
:103270000068C0084FF47A71B0FBF1F000FB07F86A
:1032800000BFB8F10000A8F1010803D14FF00040E1
:10329000BDE8F081686B00F045000028F1D0686B54
:1032A00000F0040010B10420A863F1E7686B00F09F
:1032B000010010B10120A863EAE7284600F07EF97A
:1032C000B04201D00120E3E740F2FF50A8630021A3
:1032D000284600F07CF904464A48204008B90020FE
:1032E000D6E704F00040B0F1004F02D14FF000707B
:1032F000CEE704F08040B0F1804F01D14020C7E715
:1033000004F00050B0F1005F01D18020C0E704F06C
:103310008050B0F1805F02D14FF48070B8E704F0C4
:103320000060B0F1006F02D14FF40070B0E704F01C
:103330008060B0F1806F02D14FF48060A8E704F0A4
:103340008070B0F1807F02D14FF40060A0E704F4F8
:103350000000B0F5000F02D14FF4805098E704F45C
:103360008000B0F5800F02D14FF4005090E704F4D4
:103370000010B0F5001F02D14FF4804088E704F43C
:103380008010B0F5801F02D14FF4004080E704F4B4
:103390008020B0F5802F02D14FF4003078E704F49C
:1033A0000030B0F5003F02D14FF4802070E704F404
:1033B0008030B0F5803F02D14FF4002068E704F47C
:1033C0000040B0F5004F02D14FF4801060E704F4E4
:1033D0008040B0F5804F02D14FF4001058E704F45C
:1033E0000050B0F5005F02D14FF4800050E704F0C8
:1033F0000800082801D100054AE74FF4803047E76C
:10340000B802022008E0FFFD014615480068C00828
:103410004FF47A73B0FBF3F041F2883300FB03F210
:1034200000BF101EA2F1010202D14FF00040704710
:10343000486B00F045000028F3D0486B00F0040012
:1034400010B104208863F2E7486B00F0010010B16E
:1034500001208863EBE740F2FF5088630020E6E735
:10346000B8020220014612480068C0084FF47A737F
:10347000B0FBF3F041F2883300FB03F200BF101EF3
:10348000A2F1010202D14FF000407047486B00F0FA
:1034900045000028F3D0486B00F0040010B1042070
:1034A0008863F2E740F2FF5088630020EDE70000F8
:1034B000B80202202DE9F04104460E46174628487E
:1034C0000068C0084FF47A71B0FBF1F041F2883126
:1034D00000FB01F800BFB8F10000A8F1010803D11A
:1034E0004FF00040BDE8F081606B00F0450000281F
:1034F000F1D0606B00F0040010B10420A063F1E78C
:10350000606B00F0010010B10120A063EAE72046E3
:1035100000F054F8B04201D00120E3E740F2FF5040
:10352000A0630021204600F052F8054605F46040F3
:1035300018B9280C38800020D4E705F48040B0F595
:10354000804F02D14FF40050CCE705F40040B0F5B5
:10355000004F02D14FF48050C4E74FF48030C1E7F0
:10356000B8020220014614480068C0084FF47A737C
:10357000B0FBF3F041F2883300FB03F200BF101EF2
:10358000A2F1010202D14FF000407047486B00F0F9
:1035900045000028F3D0486B00F0040018B140202B
:1035A00088630420F1E7486B00F0400008B1402038
:1035B00088630020E9E70000B8020220014608699C
:1035C000C0B270470146086800F00300704708B5B4
:1035D00002460020009002F1140008440090009878
:1035E000006808BD0FB410B504460021DDE90302F0
:1035F0001043059A1043069A1043079A1043089AFD
:1036000010430143606847F6FF62904308436060DF
:10361000002010BC5DF814FB014603200860002068
:1036200070470146D1F88000704710B5024600236C
:1036300008689060D1E901042043CC6820430C69FC
:1036400020430343D0686FF30B001843D060002081
:1036500010BD02460868C2F880000020704770B5AF
:103660000646B46BE06B08B10020E063206CD8B96B
:103670002046FEF7CEF905460020A063012084F81D
:103680003400062D01D0052D0ED12068FFF75CFD1A
:10369000A16B0843A063A06B18B12046FEF758F851
:1036A00002E02046FEF7A9F870BD70B50646B46B7F
:1036B000206C08B100202064E06BD8B92046FEF7EA
:1036C000A8F905460020A063012084F83400062DE7
:1036D00001D0052D0ED12068FFF736FDA16B084300
:1036E000A063A06B18B12046FEF732F802E0204636
:1036F000FEF783F870BD2DE9F04188B004460E4610
:103700000025FDF7DFFA8046002700200090019099
:1037100008212068FFF7C8FB05461DB1284608B000
:10372000BDE8F0815022125B11042068FFF780FB96
:1037300005460DB12846F2E74FF0FF300290082011
:103740000390302004900220059000200690012074
:10375000079002A92068FFF74FFD2068FFF79CFC47
:1037600005460DB12846DAE713E02068406B00F407
:10377000001028B12068FFF754FF4DF827007F1C88
:10378000FDF7A0FAA0EB0800401C10B94FF0004074
:10379000C5E72068406B40F22A4108400028E4D089
:1037A0002068406B00F0080018B108202168886389
:1037B000B5E72068406B00F0020018B102202168D4
:1037C0008863ACE72068406B00F0200018B120202F
:1037D00021688863A3E740F2FF502168886300985E
:1037E0000006009901F47F4140EA0120009901F4AC
:1037F0007F0140EA1120009940EA11607060019851
:103800000006019901F47F4140EA0120019901F489
:103810007F0140EA1120019940EA116030600020E8
:103820007DE730B58FB00446002501200390206865
:10383000FFF7C8FE18B94FF080600FB030BD606C64
:1038400003281BD02068FFF7F3FB05460DB128467F
:10385000F3E700212068FFF7BAFE606704212068C3
:10386000FFF7B5FEA06708212068FFF7B0FEE0670C
:103870000C212068FFF7ABFE80210851606C032803
:1038800007D003A92068FFF741FC05460DB1284683
:10389000D3E7606C032820D0BDF80C1021655022BE
:1038A000125B11042068FFF7DDFB05460DB12846C9
:1038B000C3E700212068FFF78AFE606604212068C4
:1038C000FFF785FEA06608212068FFF780FEE0660E
:1038D0000C212068FFF77BFE206704212068FFF79A
:1038E00076FE010DE16404A92046FDF787FF502014
:1038F000005B01040A4600232068FFF77BFB0546B6
:103900000DB1284699E7D4E90412A069CDE9001267
:10391000029094E80F00FFF765FE00208DE7F8B5F0
:103920000446002000900026002700252068FFF7AD
:10393000F5FA05460DB12846F8BD2068FFF705FBEE
:1039400005466DB30021A16425E00098411C00915B
:103950004FF6FF71884202D14FF08070ECE70021F2
:103960002068FFF765FA054615B14FF08050E3E790
:1039700000212068FFF77AFA054615B14FF0805014
:10398000DAE700212068FFF722FE0646012080EAE0
:10399000D67080F00107002FD7D00020606433E09C
:1039A0000121A16424E00098411C00914FF6FF71B1
:1039B000884202D14FF08070BEE700212068FFF7F7
:1039C00037FA05460DB12846B6E74FF0804120682A
:1039D000FFF74CFA05460DB12846ADE700212068F7
:1039E000FFF7F5FD0646012080EAD67080F001075A
:1039F000002FD8D006F08040B0F1804F02D10120D6
:103A0000606401E000206064002095E770B5044622
:103A10000025A66A00BF05E02068FFF702FE46F811
:103A200025006D1C082DF7D3A06A2030A06200206D
:103A300070BD70B504460D46002615B94FF0006004
:103A400070BD5022125B11042068FFF742FB06464E
:103A50000EB13046F4E700212068FFF7B8FD28607A
:103A60000020EDE77CB50446002000900190002581
:103A700000212068FFF7ABFD00F00070B0F1007F7F
:103A800002D14FF400607CBD69462046FFF733FE4B
:103A900005460DB12846F6E7019800F4803098B14C
:103AA0005022125B11042068FFF7C2F905460DB1E0
:103AB0002846E8E700212068FFF713FA05460DB114
:103AC0002846E0E70020DEE74FF08060DBE77CB5CA
:103AD0000446002000900190002500212068FFF797
:103AE00076FD00F00070B0F1007F02D14FF400606D
:103AF0007CBD69462046FFF7FEFD05460DB1284610
:103B0000F6E7019800F4802098B15022125B11046E
:103B10002068FFF78DF905460DB12846E8E7022138
:103B20002068FFF7DEF905460DB12846E0E70020E2
:103B3000DEE74FF08060DBE770B504460025266ABB
:103B400000BF05E006EB85012068FFF782FD6D1CD4
:103B5000082DF7D3206A20302062002070BD0000BD
:103B600010B50CF071FB04490968884203D10CF0D0
:103B700087FB0249086010BD4C010220540102205D
:103B800010B5FDF7A5F810BD1448006840F47000AA
:103B9000124908601248006840F0010010490860AE
:103BA00000200F49083108600D4800680D490840A1
:103BB0000B4908600C48091D0860081F006820F4C4
:103BC0008020091F0860002005490C3108604FF073
:103BD00000600249803908607047000088ED00E00D
:103BE00000380240FFFFF6FE1030002470B5034697
:103BF00000240BB9002070BD58881D88A84201DB45
:103C0000002058801BE05D889888401E854206D0C1
:103C1000988828B95D881888401E854200D113E035
:103C200011F8015B5E88701C588098688555601C8F
:103C3000C4B258881D88A84201DB00205880101E9D
:103C4000A2F10105AAB2DED100BF2046D3E710B52C
:103C50000AF008F910BD00000F48006820F08070DD
:103C60000D4A10601046006840F0807010600B48EC
:103C7000006820F00100094A10601046006840F01A
:103C800001001060002050601046416800BF00BF76
:103C900002484068401A7047FCED00E0001000E068
:103CA0001CB50020022103460246CDE90010012187
:103CB000014800F073F91CBD000002401CB5032050
:103CC00000210B460122CDE9001042F220010448F8
:103CD00000F064F903480249183108601CBD000077
:103CE00000240240000020200120704702460120ED
:103CF00070470346012070470120704703460120AA
:103D00007047000010B501200A490870FCF70AFC52
:103D100030B90848007820F001000649087005E035
:103D20000448007840F0010002490870014800781A
:103D300010BD0000B402022070B588B005460C46E4
:103D400001261348007800F0010010B1032008B0EC
:103D500070BD35B1012D0BD0022D04D0032D11D132
:103D60000DE0002610E04FF40070208000260BE0EC
:103D70006846FCF7C1FB06982060002604E007981F
:103D8000206001E0042600BF00BF3046DFE70000EE
:103D9000B40202202DE9FC4106460C4615460D4FA3
:103DA0004FF47A7022460023CDE900503046FCF7EC
:103DB000A1FC10B10120BDE8FC8105E0381EA7F18F
:103DC000010701D10120F6E7FCF7A0FB0028F5D19F
:103DD00000BFF0E7A086010010B50120124908706D
:103DE000FCF794FB30B91048007820F001000E4930
:103DF000087005E00C48007840F001000A4908709E
:103E0000FFF70CF830B10848007820F004000649AC
:103E1000087005E00448007840F00400024908708A
:103E20000148007810BD0000B40202202DE9FC41D9
:103E300006460C4615460D4F4FF47A702246002375
:103E4000CDE900503046FCF76DFC10B10120BDE813
:103E5000FC8105E0381EA7F1010701D10120F6E73A
:103E6000FCF754FB0028F5D100BFF0E7A086010065
:103E70000120704702460120704703460120704729
:103E80000120704703460120704701207047024619
:103E90000120704703460120704701207047034608
:103EA00001207047012070470246012070470346F9
:103EB00001207047012070470346012070470146EA
:103EC0004FF40030081AC0F38F20704700B5024647
:103ED0001046FFF7F4FF012101FA00F002490968DA
:103EE00008430149086000BD303802402DE9F04325
:103EF00004460E461546DDE907892046FFF7DFFF39
:103F0000C7B2002243E001209040304000B93CE0BD
:103F1000214830F817000121914008431E4921F83B
:103F20001700E0684FEA420C032101FA0CF18843C4
:103F3000510008FA01F10843E06020684FEA420CA2
:103F4000032101FA0CF18843510005FA01F10843FD
:103F50002060012D01D0022D16D161680120904012
:103F600080B221EA000003FA02F189B208436060DE
:103F7000A0684FEA420C032101FA0CF1884351007A
:103F800009FA01F10843A06000BF501CC2B2102A18
:103F9000B9DBBDE8F0830000E00202202DE9FC431C
:103FA00005460C4616461F46DDE909890CB9BDE8F1
:103FB000FC832846FFF78AFF3B46324621462846C7
:103FC000CDE90089FFF792FF00BFF0E72DE9FC473C
:103FD00005460E4617469846DDE90A9A0EB9BDE831
:103FE000FC872846FFF772FF00241AE00120A0405A
:103FF000304000B914E0E10805F1200050F821003C
:104000006107CA0E0F21914088436107C90E0AFA61
:1040100001F10843E20805F1200141F8220000BF48
:10402000641C102CE2D33B46022231462846CDE9DF
:104030000089FFF75BFF00BFD1E7000000B593B038
:1040400000BF00BF00BF00BF00BFBFF34F8F00BF66
:1040500000BF00BF00BF00BF00BFBFF36F8F00BF36
:1040600000BF00BF0020394908603948006840F4AB
:1040700000303749086000BF00BF00BFBFF34F8F5B
:1040800000BF00BF00BF00BF00BF00BFBFF36F8F06
:1040900000BF00BF00BF00BFFEF770FE00BF2D488D
:1040A000006840F080502B4908600846006800F026
:1040B0008050009000BF00BF00BF2748006840F458
:1040C0004040254908600846006800F440400090E0
:1040D00000BF00BF01200190000402900020049066
:1040E0004FF48001089102200790192109914FF4A3
:1040F000D8710A9102210B9109210C9107210D9190
:1041000001A8FDF7A9F810B1012013B000BDFCF71C
:10411000E9FE08B10120F8E702200F90002010907E
:1041200007200E900E9840F008000E904FF4A0501B
:1041300011904FF48050129006210EA8FCF71AFF40
:1041400008B10120E1E70020DFE7000050EF00E0C8
:1041500014ED00E040380240007000401CB50446F9
:1041600044B90820032101230022CDE900100B48A7
:10417000FFF72CFF012C09D1082003210123002285
:10418000CDE9001089020648FFF720FF032C03D178
:104190000821044800F01AFB1CBD0000000002408A
:1041A00000080240004C00401CB504464CB90820F1
:1041B000032101230022CDE90010C9010A48FFF7BD
:1041C00005FF012C09D10820032101230022CDE99C
:1041D0000010C0210548FFF7F9FE032C03D1082188
:1041E000034800F0F3FA1CBD001002400014024026
:1041F000007800401CB5044644B90820032101237F
:104200000022CDE900100548FFF7E0FE032C03D1A2
:104210000821034800F0DAFA1CBD0000001002403B
:10422000007C00401CB504464CB907200321012343
:104230000022CDE9001049021548FFF7C7FE012C06
:1042400009D10720032101230022CDE90010C0215C
:104250001048FFF7BBFE022C13D1072003210123D6
:104260000022CDE9001059020948FFF7AFFE0720F0
:10427000032101230022CDE9001080210548FFF72A
:10428000A5FE032C03D10721034800F09FFA1CBDB3
:104290000000024000040240001001401CB504462A
:1042A0004CB90720032101230022CDE900100C2185
:1042B0000A48FFF78BFE012C09D1072003210123B7
:1042C0000022CDE9001060210548FFF77FFE032C96
:1042D00003D10721034800F079FA1CBD0000024019
:1042E000000C0240004400401CB504464CB90720B5
:1042F000032101230022CDE9001089021048FFF7B5
:1043000065FE012C09D10720032101230022CDE9FC
:10431000001089020B48FFF759FE022C09D1072033
:10432000032101230022CDE9001009020648FFF70E
:104330004DFE032C03D10721044800F047FA1CBDB1
:104340000004024000080240000C02400048004007
:104350001CB504464CB90820032101230022CDE9F5
:104360000010C0210B48FFF731FE012C0AD10820B4
:10437000032101230022CDE900104FF484410648B7
:10438000FFF724FE032C03D10821044800F01EFA95
:104390001CBD00000008024000180240001401404B
:1043A00070B505460C460D48056001200B490968AB
:1043B000086202200949096808620420074909685F
:1043C0000862082005490968086210200349096845
:1043D00008622046FCF70AFD70BD0000DC030220E5
:1043E00001460E4A914200D100200D4A914200D16F
:1043F00001200C4A914200D102200B4A914200D187
:1044000004200A4A914200D10620094A914200D173
:104410000720084A914200D108207047001001404F
:104420000044004000480040004C0040001401409F
:1044300000780040007C00402DE9F04F9DB004461C
:104440000D4616461F46DDE927ABDDF898909548E6
:1044500084421FD100BF9448006840F01000924988
:1044600008600846006800F01000009000BF00BF20
:104470008D482038006840F010008B4920390860D2
:104480000846006820F0100008602846FFF7CAFEC2
:104490004FF025088548844221D100BF8248001F83
:1044A000006840F400308049091F08600846006831
:1044B00000F40030009000BF00BF7B482438006843
:1044C00040F400307849243908600846006820F438
:1044D000003008602846FFF7E1FE4FF026087448D8
:1044E000844221D100BF7048001F006840F4802042
:1044F0006D49091F08600846006800F4802000909C
:1045000000BF00BF68482438006840F48020664936
:10451000243908600846006820F480200860284696
:10452000FFF7E2FE4FF027086248844221D100BF26
:104530005D48001F006840F400205B49091F0860C7
:104540000846006800F40020009000BF00BF5648F5
:104550002438006840F40020534924390860084694
:10456000006820F4002008602846FFF7F7FD4FF0B0
:104570003408514884421FD100BF4B48006840F0C6
:104580002000494908600846006800F020000090BB
:1045900000BF00BF44482038006840F02000424976
:1045A000203908600846006820F02000086028468E
:1045B000FFF7CEFE4FF047084048844221D100BFAC
:1045C0003948001F006840F080403749091F0860E3
:1045D0000846006800F08040009000BF00BF3248ED
:1045E0002438006840F080402F492439086008468C
:1045F000006820F0804008602846FFF7D5FD4FF0A6
:1046000052082F48844221D100BF2748001F00686C
:1046100040F000402449091F08600846006800F087
:104620000040009000BF00BF1F482438006840F0E1
:1046300000401D49243908600846006820F0004009
:1046400008602846FFF7D6FD4FF053080194029604
:104650000797CDF81890CDF814A0CDF810B0299890
:10466000039000210891099100200A904046FCF730
:10467000CBFB2046FFF7B4FE0246062100904046E1
:10468000FCF7DDFB4046FCF7CDFB4046FCF7AEFBFC
:1046900001A8FDF769FD206840F0200020601DB0F2
:1046A000BDE8F08F00100140443802400044004053
:1046B00000480040004C00400014014000780040D9
:1046C000007C004013B50446012201A92046FFF7F3
:1046D0008DFA1CBD7FB504460D461646344884420B
:1046E0000BD100200C23CDE9003002900346324666
:1046F000294603902046FFF79FFE2E4884420BD1A7
:1047000000200C23CDE900300290034632462946B2
:1047100003902046FFF790FE274884420BD10020EB
:104720000C23CDE90030029003463246294603901F
:104730002046FFF781FE214884420BD100200C2344
:10474000CDE90030029003463246294603902046C8
:10475000FFF772FE1A4884420BD100200C23CDE9EA
:104760000030029003463246294603902046FFF768
:1047700063FE144884420BD100200C23CDE90030A5
:10478000029003463246294603902046FFF754FE26
:104790000D4884420BD100200C23CDE9003002905B
:1047A00003463246294603902046FFF745FE7FBD6B
:1047B000001001400044004000480040004C004010
:1047C0000014014000780040007C00407047000069
:1047D00010B50948006800F0200030B106480830E4
:1047E0000068C1B20548FFF76DFF342102481C384C
:1047F000FFF7D6FD10BD00001C4C00404400022015
:1048000010B500BF1048C069C0F3001050B100BF20
:1048100010200D49086200BF002211460B480068B5
:1048200009F036FA00BF01200749086200BF00BF47
:104830000220086200BF00BF0820086200BF00BF5E
:104840000420086200BF10BD00500040BC010220DF
:1048500010B50948006800F0200030B10648083063
:104860000068C1B20548FFF72DFF522102481C38ED
:10487000FFF796FD10BD00001C7800406C00022080
:1048800010B50948006800F0200030B10648083033
:104890000068C1B20548FFF715FF532102481C38D4
:1048A000FFF77EFD10BD00001C7C00408000022050
:1048B00090F8241001F0010139B10168496821F430
:1048C0000031826A11430268516090F8241001F0AF
:1048D000020139B10168496821F48031C26A11438B
:1048E0000268516090F8241001F0040139B10168A8
:1048F000496821F48021026B11430268516090F8ED
:10490000241001F0080139B10168496821F400411F
:10491000426B11430268516090F8241001F01001BD
:1049200039B10168896821F48051826B11430268B2
:10493000916090F8241001F0200139B10168896874
:1049400021F40051C26B11430268916090F8241069
:1049500001F0400199B10168496821F48011026CAD
:10496000114302685160016CB1F5801F07D10168E5
:10497000496821F4C001426C11430268516090F80B
:10498000241001F0800139B10168496821F4002147
:10499000826C114302685160704738B504460025A7
:1049A0000020E066FCF78EF905462068006800F0FC
:1049B000080008280CD16FF07E402B4600224FF4EF
:1049C00000110090204600F0D5F908B1032038BD51
:1049D000202084F8690084F86A0000BF002084F871
:1049E000680000BF00BFF2E72DE9F047044600254C
:1049F00010260027A846A9462169A06808436169D6
:104A00000843E16940EA010520680068CD49084093
:104A10002843216808602068406820F44050E1681D
:104A2000084321684860216AA06940EA01052068BE
:104A3000806820F4306028432168886000BFC24944
:104A40002068884215D1C148006800F0030030B1E9
:104A5000012808D0022804D0032808D105E0012647
:104A600006E0022604E0042602E0082600E000BF7B
:104A7000C1E0B7492068884215D1B448006800F009
:104A80000C0030B1042808D0082804D00C2808D124
:104A900005E0002606E0022604E0042602E00826DF
:104AA00000E000BFA7E0AB492068884215D1A748C5
:104AB000006800F0300030B1102808D0202804D061
:104AC000302808D105E0002606E0022604E004268E
:104AD00002E0082600E000BF8DE09F492068884280
:104AE00015D19A48006800F0C00030B1402808D0C5
:104AF000802804D0C02808D105E0002606E0022660
:104B000004E0042602E0082600E000BF73E09349B9
:104B10002068884218D18D48006800F4407048B180
:104B2000B0F5807F0AD0B0F5007F05D0B0F5407FAA
:104B300008D105E0002606E0022604E0042602E093
:104B4000082600E000BF56E085492068884218D159
:104B50007E48006800F4406048B1B0F5806F0AD02C
:104B6000B0F5006F05D0B0F5406F08D105E0012623
:104B700006E0022604E0042602E0082600E000BF6A
:104B800039E078492068884218D17048006800F4FC
:104B9000405048B1B0F5805F0AD0B0F5005F05D055
:104BA000B0F5405F08D105E0002606E0022604E0EB
:104BB000042602E0082600E000BF1CE06A492068E5
:104BC000884218D16148006800F4404048B1B0F50F
:104BD000804F0AD0B0F5004F05D0B0F5404F08D156
:104BE00005E0002606E0022604E0042602E008268E
:104BF00000E000BF00BF00BFE069B0F5004F52D138
:104C0000042E2BD005DC4EB1012E12D0022E3BD14A
:104C10001AE0082E2DD0102E36D136E0FCF78AFA95
:104C20004000616800EB5100B0FBF1F01FFA80F822
:104C30002EE0FCF79BFA4000616800EB5100B0FBEE
:104C4000F1F01FFA80F823E04849606801EB50005A
:104C50006168B0FBF1F01FFA80F819E0FCF7A2FAE6
:104C60004000616800EB5100B0FBF1F01FFA80F8E2
:104C70000EE04FF48031606801EB50006168B0FBDA
:104C8000F1F01FFA80F803E000BF4FF0010900BF08
:104C900000BF4FF6F07008EA0007C8F34200074370
:104CA0002068C7604AE0042E2CD005DC4EB1012EEE
:104CB00012D0022E3DD11AE0082E2ED0102E38D15F
:104CC00038E0FCF737FA616800EB5100B0FBF1F017
:104CD00080B22168C86030E0FCF748FA616800EBF8
:104CE0005100B0FBF1F080B22168C86025E0204996
:104CF000606801EB50006168B0FBF1F080B22168A0
:104D0000C8601AE0FCF74EFA616800EB5100B0FB96
:104D1000F1F080B22168C8600FE04FF40041606894
:104D200001EB50006168B0FBF1F080B22168C8600F
:104D300003E000BF4FF0010900BF00BF4846BDE8D7
:104D4000F0870000F369FFEF001001409038024047
:104D50000044004000480040004C0040005000402B
:104D60000014014000780040007C00400048E80149
:104D70000024F4002DE9F04104460D4617469846FC
:104D8000069E21E0701CF8B12EB1FBF79BFFA0EB53
:104D90000800B04218D32068006820F4D070216861
:104DA00008602068806820F0010021688860202069
:104DB00084F8690084F86A0000BF002084F8680065
:104DC00000BF0320BDE8F0812068C0692840A842E8
:104DD00001D1012000E00020B842D3D00020F1E74B
:104DE00010B50848C06900F0200028B10548406AA5
:104DF000C1B20548FFF766FC25210248FFF7D0FA4B
:104E000010BD0000001001400800022010B5094844
:104E1000006800F0200030B1064808300068C1B2D8
:104E20000548FFF74FFC262102481C38FFF7B8FA67
:104E300010BD00001C4400401C00022010B50948B1
:104E4000006800F0200030B1064808300068C1B2A8
:104E50000548FFF737FC272102481C38FFF7A0FA66
:104E600010BD00001C4800403000022010B5094869
:104E7000006800F0200030B1064808300068C1B278
:104E80000548FFF71FFC472102481C38FFF788FA46
:104E900010BD00001C1401405800022000BFFEE7B6
:104EA0000FB4054B10B503A9044A029800F02CF882
:104EB00010BC5DF814FB00008DB80008BC02022095
:104EC0000FB4084B10B504A902AA039800F01CF80F
:104ED000044602A9002000F048FA204610BC5DF804
:104EE00014FB00006B53000802E008C8121F08C141
:104EF000002AFAD170477047002001E001C1121F5B
:104F0000002AFBD1704700002DE9FF4F8DB00F46FE
:104F10000546002606E025280BD0DDE90F12904754
:104F20006D1C761C28780028F5D111B03046BDE8FC
:104F3000F08F0024A246A1460122EC4900E0044380
:104F400015F8013F203B02FA03F00842F7D1287818
:104F50002A2810D06FF02F022878A0F130010929FB
:104F600014D80AEB8A0102EB410144F0020400EB81
:104F7000010A6D1CF0E701CF5FEA000A03D544F493
:104F80000054CAF1000A44F002046D1C28782E284F
:104F900017D115F8010F44F004042A280ED06FF041
:104FA0002F022878A0F1300109290AD809EB8901DC
:104FB00002EB410100EB01096D1CF2E757F8049B7D
:104FC0006D1C28786C280FD006DC4C2817D0682878
:104FD0000DD06A2814D104E0742810D07A280FD19B
:104FE0000DE044F400140AE044F4801401E044F4B9
:104FF00040146978814202D104F580146D1C6D1C47
:105000002A786E2A1FD00CDC632A31D004DC002AF7
:105010008BD0582A11D1A3E0642A68D0692A0CD118
:1050200065E0732A2ED004DC6F2A73D0702A04D175
:105030009BE0752A6FD0782A6ED01046DDE90F12FA
:105040009047761C50E1C4F30250022806D0032892
:1050500009D0042801CF09D0066045E101CFF1173E
:10506000C0E9006140E101CF06803DE106703BE10F
:1050700017F8040B8DF8000000208DF80100EB46B6
:10508000012003E057F804BB4FF0FF3061074FF0F9
:10509000000102D40DE008F10101884649450FDA0C
:1050A0008045F8DB1BF808100029F4D108E008F16E
:1050B000010188468142FADB1BF808100029F6D16D
:1050C000DDE90F23AAEB08008146214600F036F9FE
:1050D000304400EB080604E0DDE90F121BF8010B79
:1050E0009047B8F10108F7D221464846F7E00A2177
:1050F000C4F302534FF0000B0891022B04D001CFF0
:10510000C117032B09D00AE0FF1D27F00707F7E8B6
:10511000020108E032E01FE020E000B2C117042BDA
:1051200001D140B2C117031E71F1000307DA4FF03D
:10513000000CD0EB0C006CEB01012D2302E02305E9
:1051400004D52B238DF82430012303E0E30701D09D
:105150002023F7E7984658E00A2110E010210EE0DE
:1051600010204FF0000B08900CE010214FF0000BC6
:1051700044F004044FF00809089103E008214FF0BF
:10518000000B0891C4F30253022B04D001CF00217D
:10519000032B06D006E0FF1D27F00707F7E8020102
:1051A00003E080B2042B00D1C0B24FF00008230707
:1051B0002BD5702A07D0DDF820C08CF0100C5CEAEB
:1051C0000B0C05D00EE040238DF82430012308E0BD
:1051D00050EA010306D030238DF824308DF82520C5
:1051E00002239846DDF820C08CF0080C5CEA0B0C1A
:1051F0000BD150EA010301D1630706D530238DF8A6
:1052000024304FF00108A9F10109582A04D038A22E
:105210000B9208AA0A920BE03AA2F9E75B46089AB9
:10522000FBF764F80B9B9B5C0A9A521E0A92137060
:1052300050EA0102F2D10A98ADEB000000F1200B18
:10524000600702D524F4803401E04FF00109D9450C
:1052500002DDA9EB0B0000E0002000EB0B01414454
:105260000890AAEB010AE00306D4DDE90F232146EA
:10527000504600F063F806444FF0000908E009A921
:1052800011F80900DDE90F12904709F10109761CB8
:10529000C145F4DBE0030CD5DDE90F232146504680
:1052A00000F04CF8064404E0DDE90F12302090478E
:1052B000761C0899481E08900029F5DC08E00A9839
:1052C0000A990078491C0A91DDE90F129047761C73
:1052D000BBF10001ABF1010BF1DC21465046DDE9E9
:1052E0000F2300F019F806446D1C1BE60928010085
:1052F000303132333435363738396162636465664C
:10530000000000003031323334353637383941420D
:1053100043444546000000002DE9F04104460025C5
:105320001E461746880404D405E039462020B047BD
:105330006D1C641EF9D52846BDE8F0812DE9F041C9
:10534000044600251E469046C80301D5302700E0DC
:105350002027880404D505E041463846B0476D1C37
:10536000641EF9D52846BDE8F0810A68531C0B601D
:105370001070704770B504460D46224602A12846BB
:10538000FFF79EFD70BD0000253032580000000080
:105390002DE9F04704460D4690469946AD1E206C17
:1053A00000EB153AC5F3C80605F007010120884057
:1053B000C7B200BF51460AF1010A204607F0C9FEF4
:1053C00010B10120BDE8F08700BF00BF04F1480024
:1053D000805D384008B1012000E00020484501D13F
:1053E0000220EFE704F14800805D784004F14801B5
:1053F00088550120E070A8F10100B0F1000800D14B
:10540000E0E77806000E071EE0D10127701C064673
:10541000B0F5007FD9D30026CCE7000070B5044674
:105420000D460020E070401E60642946204607F0CB
:1054300090FE08B1042070BD04F2462007F09EFBE8
:105440004AF65521884201D00320F4E794F8480039
:10545000E92807D094F84800EB2817D14A20005DCE
:10546000902813D104F17E0007F04BFB20F07F4021
:105470000C49884201D10020DDE704F19A0007F0D1
:1054800040FB0949884201D10020D4E70B2207A143
:1054900004F1480007F0D6FD08B90120CBE702204F
:1054A000C9E700004641540046415433EB7690452D
:1054B0005846415420202000024600E0521C10783B
:1054C00010B110788842F9D11078704730B5024693
:1054D0000B460020044601461CE01A4800EB011070
:1054E0000068A8B1174800EB011000681568A842D1
:1054F0000FD1144800EB011040689568A84208D10C
:10550000104800EB01108068156BA84201D103E040
:105510000124491C0A29E0D300BF0A2906D10CB98D
:10552000022B01D1002030BD1220FCE733B9054821
:1055300000EB01108089B0F5807F01D11020F2E7E7
:105540000020F0E7547C0320014600200BE0074ACE
:1055500002EB001212688A4204D10022034B03EBD3
:1055600000131A60401C0A28F1D37047547C0320B2
:10557000F8B50746002001F0A8FE0546002D40D0F2
:10558000502223A1284601F031FE0446002C35D1DB
:1055900022A0FFF785FC38222949284601F0F0FEB9
:1055A00004461CB9284601F06BFE0446002C1CD1B1
:1055B00024A0FFF775FC00BF6946284601F0BAFE3B
:1055C0000446082C03D129A0FFF76AFC0CE0012156
:1055D000009802F039F80646314630A0FFF760FC2B
:1055E000009801F0D1FFE7E702E036A0FFF758FC92
:1055F000082C06D0284601F0DFFD02E03BA0FFF7B3
:105600004FFC284601F01CFE002008F04BFCF8BDC2
:105610006578616D706C652E636F6D00436F6E6EA3
:10562000656374656420746F20736572766572209B
:105630006578616D706C652E636F6D0D0A000000FA
:10564000B006010844617461207765726520737546
:10565000636365737366756C6C792073656E742013
:10566000746F207365727665720D0A00436F6E6EFB
:10567000656374696F6E20636C6F73656420627913
:105680002072656D6F746520736964652E2E2E53CC
:10569000746F7070696E670D0A0000005265636573
:1056A00069766564206E657720646174612070613D
:1056B000636B6574206F662025642062797465735E
:1056C0000D0A00004572726F722077726974696EFC
:1056D00067206461746120746F2072656D6F7465FA
:1056E00020686F7374210D0A0000000043616E6E24
:1056F0006F7420636F6E6E65637420746F206578BD
:105700007465726E616C20736572766572210D0A24
:10571000000000000246891ED06A801E884201D81F
:10572000002070475389106C01FB0300F9E700006B
:105730002DE9F04780460C4604F11A0007F01EFAE6
:1057400010B10020BDE8F087207800F03F00401E37
:1057500000EB800101EBC0054FF00109002621E0BC
:105760001849895D081907F009FA0746B9F1000FD1
:1057700011D0FF2D0BD2384605F094FC8246294605
:105780006D1C38F8110005F08DFC824501D0002019
:10579000D8E7B94605E04FF6FF70874201D00020F8
:1057A000D0E7761C0D2EDBD3207800F0400038B116
:1057B000B9F1000F04D038F8150008B10020C1E796
:1057C0000120BFE7C41C0108F0B59DB00646C248E1
:1057D000007810B10A2008F0DDF900BFBF4800686A
:1057E00040F48010BD4908600846006800F480104D
:1057F000009000BF00BF00BFB8481038006840F0FC
:105800000400B649103908600846006800F004003A
:10581000009000BF00BF00BF0846006840F00800CD
:1058200008600846006800F00800009000BF00BF54
:1058300000BF0846006840F4007008600846006831
:1058400000F40070009000BF00BF00BF0846006871
:1058500040F4001008600846006800F40010009052
:1058600000BF00BF9C480078F8B9002013900120C9
:10587000149003201290012011908003109010A921
:105880009748FCF74BFE022011900820159040022B
:10589000109010A99348FCF741FE082015900420B1
:1058A000109010A99048FCF739FE8B480078B0B9E9
:1058B0008E48FDF795F816A8FDF7B5F91696002065
:1058C00017901B901C90199018900C201A9016A9F4
:1058D0008648FDF7FBF88548FDF7F2F82EE000BF9B
:1058E0008248006820F001008049086000BF4FF442
:1058F0004070FCF7B5FE0546002734460020002125
:10590000B7F5004F0FD16A0002EB5402B2FBF4F27C
:1059100090B24FF6F07200EA0201C0F34202114366
:10592000724AD16006E005EB5402B2FBF4F292B287
:105930006E4BDA6000BF6D48FDF7C2F80122062108
:105940003520FBF77CFA3520FBF76CFA62480078CB
:1059500000287BD16649087000216648FCF774FC7A
:105960004FF000600A906148243001906248029034
:10597000002003904FF480700490002005904FF4B5
:10598000806006900020079008904FF480500990A6
:105990004FF440300B9000200C9003200D904FF4FA
:1059A00000000E9080100F9001AA00215148FCF7D2
:1059B0003BFD50480021514A525C825842F0080297
:1059C0004E4B5B5CC25000BF00BF4C4A525C8258D9
:1059D00042F01002494B5B5CC25000BF00BF474A17
:1059E000525C825842F00402444B5B5CC25000BFE0
:1059F00000BF424A525C0244526942F080023F4B6F
:105A00005B5C03445A6100BF00BF3C4A525C825851
:105A100042F00202394B5B5CC25000BF00BF374A04
:105A2000525C825842F00102344B5B5CC25000BFB2
:105A3000002201210B20FBF702FA0B20FBF7F2F901
:105A400000202F49088001202949087000BF2748FD
:105A5000006840F010002549086000BF00BF0846FC
:105A6000006840F48070086000BF00BF084680688E
:105A700040F00100886000BF00BF0846806840F029
:105A80004000886000BF1F48006828B900211E48F8
:105A900008F0F0F91B4908601C48006828B900218B
:105AA0001B4808F092F8194908600B48007880B943
:105AB0004FF4804001040A4A916100BF012008F0C0
:105AC00069F84FF480400649886100BFC82008F09B
:105AD00061F81DB0F0BD0000B7010220403802405F
