:020000040800F2
:10000000A07C012069020008C3170008610F0008E6
:10001000BF17000879040008192500080000000037
:10002000000000000000000000000000AD0100081A
:10003000110500080000000001020008391900083D
:10004000830200088302000883020008830200087C
:10005000830200088302000883020008830200086C
:10006000830200088302000883020008830200085C
:10007000830200088302000883020008830200084C
:1000800083020008830200088302000800000000C9
:1000900000000000000000000000000083020008D3
:1000A000830200088302000883020008830200081C
:1000B000830200088302000883020008830200080C
:1000C00083020008830200088302000883020008FC
:1000D0008302000841240008C12400080000000039
:1000E0008302000883020008830200080000000069
:1000F0000000000000000000000000008302000873
:100100000000000083020008830200088302000848
:1001100000000000000000000000000000000000DF
:10012000830200088302000883020008830200089B
:100130008302000800000000000000000000000032
:100140000000000000000000000000008302000822
:100150007D0400088302000883020008ED240008E3
:100160008302000883020008000000000000000075
:10017000000000000000000000000000000000007F
:1001800000000000830200080000000000000000E2
:100190008302000883020008DFF80CD000F010F999
:1001A00000480047996B0008A07C01202B4B196880
:1001B0000868B0E8F04F80F30988BFF36F8F4FF005
:1001C000000080F3118870470000000006480068B6
:1001D000006880F3088862B661B6BFF34F8FBFF343
:1001E0006F8F00DF00BF00BF08ED00E0DFF80C00FC
:1001F000016841F470010160704700BF88ED00E0C4
:10020000EFF30980BFF36F8F144B1A681EF0100FC5
:1002100008BF20ED108A20E9F04F106008B44FF0BD
:10022000E00080F31188BFF34F8FBFF36F8F07F0AB
:100230006DFF4FF0000080F3118808BC1968086852
:10024000B0E8F04F1EF0100F08BFB0EC108A80F33A
:100250000988BFF36F8F704700BF00BFB000002058
:10026000EFF30580704700000648804706480047C6
:10027000FEE7FEE7FEE7FEE7FEE7FEE7FEE7FEE756
:10028000FEE7FEE7411900089901000800487047A1
:10029000809D000840EA01039B0703D009E008C9DC
:1002A000121F08C0042AFAD203E011F8013B00F83B
:1002B000013B521EF9D27047D2B201E000F8012B87
:1002C000491EFBD270470022F6E710B513460A46D6
:1002D00004461946FFF7F0FF204610BD30B505462D
:1002E0002A460B4612F8010B13F8014B08B1A04245
:1002F000F8D01CB1002802D06D1CF1E7284630BDB3
:10030000CAB2401E10F8011F8A4202D00029F9D15A
:1003100000207047421C10F8011B0029FBD1801AF5
:10032000704710B5002200E0521C835C8C5CA34235
:1003300001D1002BF8D1D8B2E1B2401A10BD30B5CE
:1003400005460020034600E05B1C934205D2EC5CAE
:10035000C85C201A01D1002CF6D130BD2DE9F05F28
:100360000546002092469B46884606468146402424
:100370001BE0284641464746224600F042F85346D5
:100380005A46C01A914110D311461846224600F031
:1003900029F82D1A67EB01084F462246012000215B
:1003A00000F020F817EB00094E41201EA4F10104D3
:1003B000DFDC484631462A464346BDE8F09F000050
:1003C000064C074D06E0E06840F0010394E80700A2
:1003D00098471034AC42F6D3FFF7E2FED89E0008EF
:1003E000F89E0008202A04DB203A00FA02F10020DF
:1003F00070479140C2F1200320FA03F31943904063
:100400007047202A04DB203A21FA02F000217047CD
:1004100021FA02F3D040C2F120029140084319466C
:10042000704770B58C1810F8015B15F0070301D107
:1004300010F8013B2A1106D110F8012B03E010F847
:10044000016B01F8016B5B1EF9D12B0705D400236A
:10045000521E0DD401F8013BFAE710F8013BCB1A0C
:10046000921C03E013F8015B01F8015B521EF9D501
:10047000A142D8D3002070BD00BFFEE710B52048D0
:10048000007828B91F4800F092FD1E4800F08AFD50
:100490001C4800F0F7FE08B1002404E005211948CB
:1004A00000F07AFE84B2C4F5806084B2154800F092
:1004B000E9FE78B1134800F07AFD134A1288A11AB8
:1004C000124A114B1B88D01803F068F800200E491F
:1004D000088013E000BF0B484068C0F3802068B17B
:1004E000084800F05FFD084A1288A11A074A064B27
:1004F0001B88D01803F052F80348048010BD000098
:100500007301002000640240700100209D740020EF
:100510007047000010B508F0BDF909490968884224
:100520000CD108F0D3F907490968401A0649086058
:1005300006480068096808440449086010BD0000C6
:1005400010010020180100201C01002020010020C3
:1005500001480068704700000400002010B52E48D4
:100560000068401C2C4908602C48006820B12B48CA
:100570000068401E29490860002444E0284850F8DB
:10058000240000283DD0264850F824000078C0F30D
:100590004000B0B3224850F82400806840B12048A1
:1005A00050F824008068401E1D4951F824108860CE
:1005B0001B4850F82400806818BB194B53F82430AE
:1005C0001969174B53F8240053F82430DA68904720
:1005D000134850F824004168114850F82400816005
:1005E0000F4850F82400007800F0010048B90C488A
:1005F00050F82400006820F00201094850F8240057
:100600000160601CC4B20648001F0078A042B5DC3F
:1006100001F01FFA10BD00000400002000000020BF
:100620008001002010B50D48006840F400700B49AF
:1006300008600846006840F480600860084600686A
:1006400040F480700860032000F088F80F2000F06C
:1006500007F800F019F8002010BD0000003C02402F
:1006600070B50446074800684FF47A71B0FBF1F5A5
:10067000284600F021FC00222146501E00F02FF8F1
:10068000002070BD740100207047000000BF00F022
:100690001F0201219140034A430942F8231000BF81
:1006A0007047000080E200E000BF00F01F0201215F
:1006B0009140034A430942F8231000BF70470000ED
:1006C00080E100E000BF00F01F02012191404209DB
:1006D000920002F1E022C2F8001100BF70472DE93C
:1006E000F05F80460D461646002701F06BF807467E
:1006F00039462A46334601F00700C0F1070ABAF12D
:10070000040F02D94FF0040A01E0C0F1070AD146F4
:1007100000F1040ABAF1070F02D24FF0000A01E01B
:10072000A0F1030AD4464FF0010A0AFA09FAAAF125
:10073000010A0AEA020A0AFA0CFA4FF0010B0BFA54
:100740000CFBABF1010B0BEA030B4AEA0B0421464D
:10075000404601F03FF8BDE8F09F000000BF00F008
:100760000702064B19684FF6FF031940044B0B4371
:1007700043EA0221014B196000BF70470CED00E015
:100780000000FA0570B504460D4600266D48006865
:1007900000F00F00A84209D26A490D7008460068AF
:1007A00000F00F00A84201D0012070BD207800F0B9
:1007B0000200022807D16448006820F0F000A16818
:1007C000084361490860207800F00100002877D0D4
:1007D0006068012807D15C4808380068C0F34040D1
:1007E000B8B90120E1E76068022802D060680328F8
:1007F00007D1554808380068C0F3406048B9012067
:10080000D3E7514808380068C0F3400008B9012018
:10081000CBE74D48006820F00300616808434A496F
:100820000860FFF795FE06466068012810D108E0D1
:10083000FFF78EFE801B41F28831884201D90320E8
:10084000B3E74148006800F00C000428F0D137E01D
:100850006068022810D108E0FFF77AFE801B41F2A1
:100860008831884201D903209FE73748006800F0AB
:100870000C000828F0D123E06068032810D108E0BC
:10088000FFF766FE801B41F28831884201D90320C0
:100890008BE72D48006800F00C000C28F0D10FE029
:1008A00008E0FFF755FE801B41F28831884201D9EC
:1008B00003207AE72448006800F00C000028F0D1FB
:1008C0002048006800F00F00A84209D91D490D70AA
:1008D0000846006800F00F00A84201D0012064E73C
:1008E000207800F00400042807D11748006820F49D
:1008F000E050E168084314490860207800F00800DF
:10090000082808D11048006820F46040216940EAB6
:10091000C1000D49086000F04FF80B49096801F06B
:10092000F001F02292FAA2F2B2FA82F2D140074A22
:10093000515CC840064908600F20FFF791FE002077
:1009400033E70000003C024008380240E49C000805
:100950007401002001480068704700007401002005
:1009600000B5FFF7F7FF0749096801F4E0514FF4BC
:10097000E05292FAA2F2B2FA82F2D140024A515CFB
:10098000C84000BD08380240F49C000800B5FFF7DD
:10099000E1FF0749096801F460414FF4604292FAAF
:1009A000A2F2B2FA82F2D140024A515CC84000BDC4
:1009B00008380240F49C000870B500210022002392
:1009C0000020274C246804F00C0424B1042C04D02B
:1009D000082C41D103E0234840E023483EE0204C6E
:1009E000241F246804F03F011D4C241F246804F4D4
:1009F000800484B11C4CB4FBF1F5194C241F24680D
:100A000047F6C076344096FAA6F6B6FA86F6F44073
:100A100005FB04F20FE0134CB4FBF1F5104C241F5E
:100A2000246847F6C076344096FAA6F6B6FA86F6FB
:100A3000F44005FB04F20A4C241F246804F44034FB
:100A40004FF4403595FAA5F5B5FA85F5EC40641CF0
:100A50006300B2FBF3F001E0024800BF00BF70BDCD
:100A6000083802400024F40000127A0038B5044629
:100A70000025207800F00100002874D0F7480068B5
:100A800000F00C0004280DD0F448006800F00C00C1
:100A9000082813D1F148001F006800F48000B0F569
:100AA000800F0BD1ED4808380068C0F340400028A3
:100AB00059D06068002856D1012038BD00BF606859
:100AC000B0F5803F08D1E5480838006840F4803030
:100AD000E249083908601EE06068B0F5A02F0DD12A
:100AE000DE480838006840F48020DC490839086096
:100AF0000846006840F4803008600CE0D7480838A9
:100B0000006820F48030D54908390860084600683C
:100B100020F48020086000BF606890B1FFF718FDE6
:100B2000054606E0FFF714FD401B642801D90320A9
:100B3000C3E7CA4808380068C0F340400028F1D035
:100B400011E0FFF705FD054606E0FFF701FD401B3C
:100B5000642801D90320B0E7C04808380068C0F312
:100B600040400028F1D1207800F00200022869D12D
:100B7000BA48006800F00C0058B1B848006800F0AE
:100B80000C00082821D1B548001F006800F480003F
:100B9000D8B9B24808380068C0F3400020B1E06816
:100BA000012801D0012088E7AC480838006820F00F
:100BB000F800F82292FAA2F2B2FA82F22169914088
:100BC0000843A649083908603CE0E06828B30120E2
:100BD000A3490860FFF7BCFC054606E0FFF7B8FC38
:100BE000401B022801D9032067E79C4808380068A9
:100BF000C0F340000028F1D098480838006820F081
:100C0000F800F82292FAA2F2B2FA82F22169914037
:100C1000084392490839086014E0002090490860B0
:100C2000FFF796FC054606E0FFF792FC401B022802
:100C300001D9032041E7894808380068C0F3400023
:100C40000028F1D1207800F0080008282CD1606934
:100C5000A8B1012083490860FFF77AFC054606E049
:100C6000FFF776FC401B022801D9032025E77B48CB
:100C70006C300068C0F340000028F1D014E0002080
:100C800078490860FFF764FC054606E0FFF760FC62
:100C9000401B022801D903200FE770486C30006820
:100CA000C0F340000028F1D1207800F004000428AF
:100CB0007FD100BF0020009068483830006840F0C5
:100CC00080506649383108600846006800F080505E
:100CD000009000BF00BF6448006840F48070624923
:100CE0000860FFF735FC054606E0FFF731FC401BC6
:100CF000022801D90320E0E65B48006800F4807018
:100D00000028F2D000BFA068012808D153486830FD
:100D1000006840F001005149683108601DE0A0689A
:100D200005280DD14D486830006840F004004B495B
:100D3000683108600846006840F0010008600CE077
:100D400046486830006820F0010044496831086076
:100D50000846006820F00400086000BFA068A0B149
:100D6000FFF7F6FB054608E0FFF7F2FB401B41F2F8
:100D70008831884201D903209FE6384868300068EE
:100D8000C0F340000028EFD013E0FFF7E1FB054679
:100D900008E0FFF7DDFB401B41F28831884201D9B2
:100DA00003208AE62D4868300068C0F34000002820
:100DB000EFD1A069F0B32948006800F00C000828C2
:100DC00071D0A069022858D1002025490866FFF794
:100DD000BFFB054606E0FFF7BBFB401B022801D91D
:100DE00003206AE61D4808380068C0F34060002808
:100DF000F1D1D4E90701084347F6C07292FAA2F292
:100E0000B2FA82F2616A914008430122A16AC2EB00
:100E100051014FF4403292FAA2F2B2FA82F29140BA
:100E200008434FF0706292FAA2F2B2FA82F2E16ADB
:100E3000914000E039E008430849091F086001209B
:100E400007490866FFF784FB05460FE0FFF780FBC4
:100E5000401B02280AD903202FE600000838024070
:100E600000004742800E4742007000401048006872
:100E7000C0F340600028E9D017E000200D49086663
:100E8000FFF766FB054606E0FFF762FB401B022802
:100E900001D9032011E606480068C0F3406000282D
:100EA000F2D102E0FFE7012007E6002005E600009E
:100EB000003802400000474270B504462546681ECF
:100EC000B0F1807F01D301200FE0681E4FF0E021D8
:100ED00048610F214FF0FF3000F07CFC00204FF004
:100EE000E021886107200861002070BD10B504462C
:100EF0000CB9012010BDA06900B100E000BF94F85A
:100F0000390028B9002084F83800204600F027F87E
:100F1000242084F839002068C06820F4005021683B
:100F2000C860204601F0D8F82068006920F490409D
:100F3000216808612068406920F02A002168486122
:100F40002068C06840F400502168C8600020E06359
:100F5000202084F8390084F83A000020CAE770475E
:100F600000BFFEE7024909680143014A116070476A
:100F700010380240024909688143014A11607047F4
:100F800010380240024909680143014A1160704764
:100F900024380240024909688143014A11607047C0
:100FA00024380240C16841F48061C1607047C16863
:100FB00041F40061C16070472DE9F04104460D46DF
:100FC000724E012715F5803F18D1704810388442C1
:100FD00006D17805FFF7C6FF7805FFF7CBFFD2E013
:100FE0006B48844208D14FF48000FFF7BBFF4FF4F9
:100FF0008000FFF7BFFFC6E00027C4E000BF6548E0
:10100000405D205820F001006249495D605000BFFA
:101010005E481038844202D10DB95C4877E05C48E4
:10102000844203D115B95A48103070E0574810383F
:10103000844204D1012D02D15448183067E054484D
:10104000844204D1012D02D1514828305FE04F483D
:101050001038844204D1022D02D14C48303056E081
:101060004B48844204D1022D02D1494840304EE021
:1010700046481038844204D1032D02D143484830F9
:1010800045E04348844204D1032D02D14048583002
:101090003DE03E481038844204D1042D02D13B4843
:1010A000603034E03A48844204D1042D02D13848FB
:1010B00070302CE035481038844204D1052D02D11F
:1010C0003248783023E03248844204D1052D02D1E1
:1010D0002F4888301BE02D481038844204D1062D5B
:1010E00002D12A48903012E02948844204D1062DCA
:1010F00002D12748A0300AE024481038844204D1A5
:10110000072D02D12148A83001E02148B830064619
:10111000002030607060B060F0603061212070614C
:1011200000222946204600F0B3F815B93F20A06000
:1011300029E0012D03D14FF47460A06023E0022D5B
:1011400003D14FF47C10A0601DE0032D03D14FF0BC
:101150007460A06017E0042D02D13F20E06012E02F
:10116000052D03D14FF47460E0600CE0062D03D12F
:101170004FF47C10E06006E0072D03D14FF074605F
:10118000E06000E000273846BDE8F08110600240D2
:1011900000640240F48B000802460348405C10449F
:1011A000406880B270470000D49C000870B50446C7
:1011B0000D461646F06A00B100BFD6E9021211438F
:1011C0003269114372691143B2691143F2691143E3
:1011D000B26A41EA02002949495D6158284A114032
:1011E0000143264A525DA15000BFF06A30B3D6E9F0
:1011F0000B01224A525D2244526922F0070240EA62
:1012000001031A431D4B5B5D23445A6100BF706BA1
:101210001A49495D615821F0C0710143174A525D76
:10122000A15000BFB06B1549495D615821F4C00160
:101230000143124A525DA15000BF00BF70680F49C0
:10124000495D2144C86000BF30680C49495D2144B4
:10125000886000BF306A0949495D214449686FF3DD
:101260000F010143054A525D2244516000BF2946E7
:101270002046726A00F00CF8012070BDF48B000863
:101280001F80FCFF01464868C0F3C0207047000083
:1012900010B5054B5B5CC35823F060631343024CED
:1012A000645C035110BD0000F48B0008F0B50346E8
:1012B0000A4600240021106890FAA0F0B0FA80F4E9
:1012C0007FE00125A540106800EA0501002977D0DC
:1012D00050681D6891FAA1F6B6FA86F677000326E3
:1012E000BE40B54391FAA1F6B6FA86F6760000FA4A
:1012F00006F635431D6000BF5068012802D05068D3
:10130000022814D190689D6891FAA1F6B6FA86F683
:1013100077000326BE40B54391FAA1F6B6FA86F6E9
:10132000760000FA06F635439D6000BF00BF1069E5
:10133000DD6891FAA1F6B6FA86F677000326BE407C
:10134000B54391FAA1F6B6FA86F6760000FA06F6EB
:101350003543DD6000BF5068022831D191FAA1F019
:10136000B0FA80F0082814D250691D6A91FAA1F6EB
:10137000B6FA86F6B7000F26BE40B54391FAA1F63D
:10138000B6FA86F6B60000FA06F635431D6200BFCF
:1013900016E050695D6A0E0A96FAA6F6B6FA86F667
:1013A000B7000F26BE40B5430E0A96FAA6F6B6FA67
:1013B00086F6B60000FA06F635435D6200BF00BF50
:1013C000641C1068E04000287FF47BAF506801285F
:1013D00002D05068022809D1D56810685E6886433B
:1013E00000FB05F73E435E6000BF00BF0120F0BD7B
:1013F00010B5044600F036FA2060206800F0FEF9CF
:101400006060606800F00AFAA060606800F018FA96
:10141000E06010BD02480068C0F38810704700000B
:101420000438024070B5044601251448844206D1B0
:101430001020FFF7A7FD1020FFF7ACFD1CE01048BF
:1014400084420ED14FF400300E49096801430D4A21
:10145000116000BF00BF114609688143116000BFE1
:101460000AE00948844206D12020FFF78BFD2020A6
:10147000FFF790FD00E00025284670BD00100140F8
:10148000004400402038024000140140C16841F48B
:101490000051C160704700002DE9FF4104460D4630
:1014A00000270026204600F043F8002835D1E968DF
:1014B0006868084329690843A9690843E16849F253
:1014C0000C6291430843E060A868216921F440510F
:1014D0000143216100BF6869616921F440710143E2
:1014E000616100BF6846FFF783FF0E48844201D167
:1014F000039E08E00C48844201D1029E03E00B48A1
:10150000844200D1039E46B1286830B1012731469C
:1015100020462B68AA6900F010F8384604B0BDE8F0
:10152000F081000000100140004400400014014020
:101530000146C868C0F340307047F0B5B2F5004FBF
:101540004ED101EBC10404EB01145D00B4FBF5F4D2
:101550006425B4FBF5F4250101EBC10404EB01148F
:101560005E00B4FBF6F401EBC10606EB01165F006A
:10157000B6FBF7F66427B6FBF7F606EBC60707EBF4
:101580000616A4EB8604322606EBC4046426B4FBDC
:10159000F6F404F0F80405EB440501EBC10404EB98
:1015A00001145E00B4FBF6F401EBC10606EB011674
:1015B0005F00B6FBF7F66427B6FBF7F606EBC60747
:1015C00007EB0616A4EB8604322606EBC404642659
:1015D000B4FBF6F404F007042C44A4B284604CE09D
:1015E00001EBC10404EB01149D00B4FBF5F401EB25
:1015F000C10505EB01159E00B5FBF6F56426B5FBAC
:10160000F6F505EBC50606EB0515A4EB85043225BA
:1016100005EB04146425B4FBF5F404F0F00401EBCD
:10162000C10505EB01159E00B5FBF6F56426B5FB7B
:10163000F6F504EB051501EBC10404EB01149E0063
:10164000B4FBF6F401EBC10606EB01169F00B6FBF6
:10165000F7F66427B6FBF7F606EBC60707EB0616A8
:10166000A4EB8604322606EB04146426B4FBF6F4DD
:1016700004F00F042C44A4B28460F0BDF0B5B2F5C0
:10168000004F4ED101EBC10404EB01145D00B4FB2B
:10169000F5F46425B4FBF5F4250101EBC10404EB7A
:1016A00001145E00B4FBF6F401EBC10606EB011673
:1016B0005F00B6FBF7F66427B6FBF7F606EBC60746
:1016C00007EB0616A4EB8604322606EBC404642658
:1016D000B4FBF6F404F0F80405EB440501EBC10497
:1016E00004EB01145E00B4FBF6F401EBC10606EB5B
:1016F00001165F00B6FBF7F66427B6FBF7F606EBBC
:10170000C60707EB0616A4EB8604322606EBC404D4
:101710006426B4FBF6F404F007042C44A4B28460FD
:101720004CE001EBC10404EB01149D00B4FBF5F4A3
:1017300001EBC10505EB01159E00B5FBF6F564262E
:10174000B5FBF6F505EBC50606EB0515A4EB850420
:10175000322505EB04146425B4FBF5F404F0F00421
:1017600001EBC10505EB01159E00B5FBF6F56426FE
:10177000B5FBF6F504EB051501EBC10404EB011410
:101780009E00B4FBF6F401EBC10606EB01169F00C8
:10179000B6FBF7F66427B6FBF7F606EBC60707EBD2
:1017A0000616A4EB8604322606EB04146426B4FB6A
:1017B000F6F404F00F042C44A4B28460F0BD00BF22
:1017C000FEE7704702480068C0F30220704700003F
:1017D0000CED00E010B5002807DA0A07140E054AE0
:1017E00000F00F031B1FD45403E00A07130E024A34
:1017F000135410BD18ED00E000E400E0014600BF06
:101800000448006800F0F0000009034A125C21FA65
:1018100002F0704708380240E49C0008014600BF0F
:101820000548006800F4E050044A02EB902002787A
:1018300021FA02F07047000008380240F49C0008CA
:10184000014600BF0548006800F46040044A02EB0E
:101850005030027821FA02F0704700000838024048
:10186000F49C000810B5002400BF0C48006800F08C
:101870000C0020B1042804D0082809D103E0084C4A
:1018800008E0084C06E0082000F00EF8044601E0ED
:10189000034C00BF00BF204610BD000008380240C6
:1018A0000024F40000127A002DE9F04104460025DE
:1018B0000026002700BF1548006800F48000064697
:1018C0001EB1B6F5800F04D101E0114D03E0114DBA
:1018D00001E00F4D00BF00BF082C14D100BF0B4822
:1018E000006800F03F00B5FBF0F8FFF793FD08FB40
:1018F00000F80648006800F44030012101EB104078
:101900004000B8FBF0F73846BDE8F08104380240EB
:101910000024F40000127A0010B506F0BBFF044961
:101920000968884203D106F0D1FF0249086010BD62
:10193000100100201801002010B5FEF70FFE10BDA9
:101940001448006840F470001249086012480068AA
:1019500040F001001049086000200F49083108607C
:101960000D4800680D4908400B4908600C48091DE6
:101970000860081F006820F48020091F086000200C
:1019800005490C3108604FF0006002498039086059
:101990007047000088ED00E000380240FFFFF6FECF
:1019A0001030002430B5014609B9002030BD4A6826
:1019B0008B689A4200D10C68934200D99C1A9A42D3
:1019C00002D9D51A0868441B601EEFE72DE9F047DD
:1019D0000446894615464FF0000804B115B90020A9
:1019E000BDE8F087D4E90010884201D30020606090
:1019F0002046FFF7D7FF0746AF4203D20FB90020BA
:101A0000EEE73D46D4E90001461AAE4200D92E4623
:101A10006268E168881832464946FEF73BFCB044EC
:101A2000606830446060AD1B55B100206060636841
:101A3000E268D01809EB08012A46FEF72BFC656026
:101A4000D4E90010884201D30020606008EB050053
:101A5000C6E710B505F090FB10BD00000F48006808
:101A600020F080700D4A10601046006840F08070D1
:101A700010600B48006820F00100094A1060104611
:101A8000006840F00100106000205060104641687E
:101A900000BF00BF02484068401A7047FCED00E0FC
:101AA000001000E01CB50020012103460246CDE9EC
:101AB00000104903014800F085F81CBD00080240F1
:101AC0001CB5032000210B460122CDE90010202186
:101AD000034800F077F84FF40010014988611CBDFD
:101AE0000000024001464FF40030081AC0F38F2076
:101AF0007047000000B502461046FFF7F3FF0121D2
:101B000001FA00F00249096808430149086000BD74
:101B1000303802402DE9F04304460E461546DDE913
:101B200007892046FFF7DEFFC7B2002243E001200D
:101B30009040304000B93CE0214830F817000121C6
:101B4000914008431E4921F81700E0684FEA420C13
:101B5000032101FA0CF18843510008FA01F108430E
:101B6000E06020684FEA420C032101FA0CF188433F
:101B7000510005FA01F108432060012D01D0022D2A
:101B800016D161680120904080B221EA000003FA7A
:101B900002F189B208436060A0684FEA420C032159
:101BA00001FA0CF18843510009FA01F10843A060E1
:101BB00000BF501CC2B2102AB9DBBDE8F0830000A0
:101BC000940100202DE9FC4305460C4616461F46AD
:101BD000DDE909890CB9BDE8FC832846FFF78AFFD7
:101BE0003B46324621462846CDE90089FFF792FF61
:101BF00000BFF0E72DE9FC4705460E46174698461C
:101C0000DDE90A9A0EB9BDE8FC872846FFF772FFA6
:101C100000241AE00120A040304000B914E0E1089F
:101C200005F1200050F821006107CA0E0F219140F4
:101C300088436107C90E0AFA01F10843E20805F179
:101C4000200141F8220000BF641C102CE2D33B4667
:101C5000022231462846CDE90089FFF75BFF00BF2D
:101C6000D1E7000000B593B000BF002001902848E4
:101C7000006840F08050264908600846006800F07F
:101C80008050019000BF00BF00BF0020019021489C
:101C9000006840F440401F4908600846006800F4AE
:101CA0004040019000BF00BF01200290000403905B
:101CB000002005904FF4800109910220089008212E
:101CC0000A914FF4C8710B9104210C9107210D91D9
:101CD00002A8FEF7CBFE10B1012013B000BD022018
:101CE0000F900020109007200E900E9840F00800F2
:101CF0000E904FF4805011900020129006210EA8F3
:101D0000FEF740FD08B10120E7E70020E5E700000D
:101D100040380240007000401CB504464CB9072012
:101D2000032101230022CDE9001049021548FFF7E5
:101D300061FF012C09D10720032101230022CDE9F5
:101D40000010C0211048FFF755FF022C13D10720C7
:101D5000032101230022CDE9001059020948FFF7B1
:101D600049FF0720032101230022CDE90010802133
:101D70000548FFF73FFF032C03D10721034800F07C
:101D800093F91CBD00000240000402400010014015
:101D90001CB504464CB90720032101230022CDE9DC
:101DA00000100C210A48FFF725FF012C09D107205C
:101DB000032101230022CDE9001060210548FFF72F
:101DC00019FF032C03D10721034800F06DF91CBD56
:101DD00000000240000C0240004400401CB50446D4
:101DE0004CB90820032101230022CDE90010C021B5
:101DF0000448FFF7FFFE032C03D10821024800F03E
:101E000053F91CBD000802400014014038B50546D6
:101E10000C462348056000BF002000902048006861
:101E2000006800901E4800684068009000BF00BF36
:101E300000BF002000901A48006800680090184811
:101E400000684068009000BF00BF00BF0020009005
:101E500013480068006800901148006840680090CE
:101E600000BF00BF00BF002000900D480068006860
:101E700000900B4800684068009000BF00BF00BFA2
:101E80000020009006480068006800900448006840
:101E90004068009000BF00BF2046FEF7F7FB38BD4A
:101EA000100200200146064A914200D10020054A56
:101EB000914200D10120044A914200D1062070478E
:101EC0000010014000440040001401402DE9F04F93
:101ED00091B004460D4616461F46DDE91BABDDF802
:101EE00068904D48844221D100BF002000904B48AB
:101EF000006840F01000494908600846006800F09A
:101F00001000009000BF00BF44482038006840F037
:101F100010004249203908600846006820F010008F
:101F200008602846FFF7F8FE4FF025083C48844239
:101F300023D100BF002000903848001F006840F403
:101F400000303649091F08600846006800F4003078
:101F5000009000BF00BF31482438006840F40030D2
:101F60002E49243908600846006820F400300860D3
:101F70002846FFF70DFF4FF026082A48844221D15A
:101F800000BF002000902548006840F02000234951
:101F900008600846006800F02000009000BF00BF05
:101FA0001E482038006840F020001C492039086095
:101FB0000846006820F0200008602846FFF70EFF62
:101FC0004FF04708019402960797CDF81890CDF886
:101FD00014A0CDF810B01D98039000210891404640
:101FE000FEF762FB2046FFF75DFF024606210090E8
:101FF0004046FEF774FB4046FEF764FB4046FEF7A2
:1020000045FB01A8FEF772FFE06840F02000E060A9
:1020100011B0BDE8F08F00000010014044380240CC
:10202000004400400014014013B50446012201A9F8
:102030002046FFF7CBFC1CBD7FB504460D46164677
:10204000164884420BD100200C23CDE900300290C9
:1020500003463246294603902046FFF737FF1048D3
:1020600084420BD100200C23CDE9003002900346BE
:102070003246294603902046FFF728FF094884424C
:102080000BD100200C23CDE90030029003463246EC
:10209000294603902046FFF719FF7FBD001001403D
:1020A0000044004000140140704710B50EE000BF2E
:1020B000036803F08003002BFAD011F8013B436062
:1020C00000BF036803F08003002BFAD0131EA2F1B7
:1020D0000104A2B2EBD110BD2DE9F0410446002568
:1020E0002068056925F44055E068054320680561CE
:1020F0002068C56849F20C6085432169A0680843DF
:1021000061690843E169084305432068C5602068A8
:10211000456925F44075A069054320684561E0697B
:10212000B0F5004F7ED1C4492068884203D0C3492E
:10213000206888425DD1FEF729FC00EBC00101EB6D
:10214000001061684900B0FBF1F06421B0FBF1F0D0
:102150000601FEF71BFC00EBC00101EB00106168FB
:102160004900B0FBF1F7FEF711FC00EBC00101EBF9
:10217000001061684900B0FBF1F06421B0FBF1F0A0
:1021800000EBC00101EB0010A7EB8000322101EB56
:10219000C0006421B0FBF1F000F0F80006EB40064F
:1021A000FEF7F4FB00EBC00101EB00106168490091
:1021B000B0FBF1F7FEF7EAFB00EBC00101EB00100A
:1021C00061684900B0FBF1F06421B0FBF1F000EB75
:1021D000C00101EB0010A7EB8000322101EBC00031
:1021E0006421B0FBF1F000F0070030442168886002
:1021F00020E1FEF7B5FB00EBC00101EB00106168C8
:102200004900B0FBF1F06421B0FBF1F00601FEF7EC
:10221000A7FB00EBC00101EB001061684900B0FBB7
:10222000F1F700E045E0FEF79BFB00EBC00101EB9E
:10223000001061684900B0FBF1F06421B0FBF1F0DF
:1022400000EBC00101EB0010A7EB8000322101EB95
:10225000C0006421B0FBF1F000F0F80006EB40068E
:10226000FEF77EFB00EBC00101EB00106168490046
:10227000B0FBF1F7FEF774FB00EBC00101EB0010BF
:1022800061684900B0FBF1F06421B0FBF1F000EBB4
:10229000C00101EB0010A7EB8000322101EBC00070
:1022A0006421B0FBF1F000F0070030442168886041
:1022B000C0E061492068884203D0604920688842B4
:1022C0005CD1FEF763FB00EBC00101EB001061681D
:1022D0008900B0FBF1F6FEF759FB00EBC00101EB02
:1022E000001061688900B0FBF1F06421B0FBF1F0EF
:1022F00000EBC00101EB0010A6EB8000322101EBE6
:1023000000106421B0FBF1F000F0F006FEF73EFB98
:1023100000EBC00101EB001061688900B0FBF1F037
:102320006421B0FBF1F006EB0016FEF72FFB00EB8B
:10233000C00101EB001061688900B0FBF1F7FEF706
:1023400025FB00EBC00101EB001061688900B0FBC8
:10235000F1F06421B0FBF1F000EBC00101EB0010E3
:10236000A7EB8000322101EB00106421B0FBF1F0FB
:1023700000F00F003044216888605BE0FEF7F0FA5F
:1023800000EBC00101EB001061688900B0FBF1F6C1
:10239000FEF7E6FA00EBC00101EB0010616889006E
:1023A000B0FBF1F06421B0FBF1F000EBC00101EBF8
:1023B0000010A6EB8000322101EB00106421B0FB7D
:1023C000F1F000F0F006FEF7CBFA00EBC00101EBF4
:1023D000001061688900B0FBF1F06421B0FBF1F0FE
:1023E00006EB0016FEF7BCFA00EBC00101EB001093
:1023F00061688900B0FBF1F7FEF7B2FA00EBC001AB
:1024000001EB001061688900B0FBF1F06421B0FBC2
:10241000F1F000EBC00101EB0010A7EB80003221CE
:1024200001EB00106421B0FBF1F000F00F0030442C
:1024300021688860BDE8F08100100140001401406F
:1024400038B500BF19480068C0F3001018B3184829
:10245000007800B300BF15480068009000BF134823
:102460004068009000BF00BF05211248FEF794FEAF
:10247000C0F5806084B210480088201A002808DD6A
:102480000D4A1288A11A0D4A0B4B1B88D01801F077
:1024900085F80948048000BF04480068009000BF28
:1024A00002484068009000BF00BF38BD00100140E6
:1024B0007301002000640240700100209D74002020
:1024C00010B50848006800F0200030B10548001D34
:1024D0000068C1B20448FFF7A7FD26210148FFF7B5
:1024E00095FC10BD004400402000002010B50848B5
:1024F000006800F0200030B10548001D0068C1B23E
:102500000448FFF791FD47210148FFF77FFC10BD0C
:10251000001401403800002000BFFEE70FB4054B57
:1025200010B503A9044A029800F02CF810BC5DF81D
:1025300014FB000085650008780100200FB4084BEB
:1025400010B504A902AA039800F01CF8044602A9D9
:10255000002000F048FA204610BC5DF814FB000093
:10256000E729000802E008C8121F08C1002AFAD1B2
:1025700070477047002001E001C1121F002AFBD103
:10258000704700002DE9FF4F8DB00F46054600262D
:1025900006E025280BD0DDE90F1290476D1C761C54
:1025A00028780028F5D111B03046BDE8F08F00241E
:1025B000A246A1460122EC4900E0044315F8013F80
:1025C000203B02FA03F00842F7D128782A2810D0DD
:1025D0006FF02F022878A0F13001092914D80AEBF6
:1025E0008A0102EB410144F0020400EB010A6D1C78
:1025F000F0E701CF5FEA000A03D544F40054CAF1C2
:10260000000A44F002046D1C28782E2817D115F812
:10261000010F44F004042A280ED06FF02F0228780E
:10262000A0F1300109290AD809EB890102EB410127
:1026300000EB01096D1CF2E757F8049B6D1C28782C
:102640006C280FD006DC4C2817D068280DD06A28DB
:1026500014D104E0742810D07A280FD10DE044F48E
:1026600000140AE044F4801401E044F44014697852
:10267000814202D104F580146D1C6D1C2A786E2AEB
:102680001FD00CDC632A31D004DC002A8BD0582AFE
:1026900011D1A3E0642A68D0692A0CD165E0732ABD
:1026A0002ED004DC6F2A73D0702A04D19BE0752AE7
:1026B0006FD0782A6ED01046DDE90F129047761C55
:1026C00050E1C4F30250022806D0032809D00428A0
:1026D00001CF09D0066045E101CFF117C0E90061E3
:1026E00040E101CF06803DE106703BE117F8040BA5
:1026F0008DF8000000208DF80100EB46012003E07A
:1027000057F804BB4FF0FF3061074FF0000102D4CF
:102710000DE008F10101884649450FDA8045F8DBF4
:102720001BF808100029F4D108E008F101018846DF
:102730008142FADB1BF808100029F6D1DDE90F23EE
:10274000AAEB08008146214600F036F9304400EB40
:10275000080604E0DDE90F121BF8010B9047B8F101
:102760000108F7D221464846F7E00A21C4F3025394
:102770004FF0000B0891022B04D001CFC117032B9F
:1027800009D00AE0FF1D27F00707F7E8020108E07B
:1027900032E01FE020E000B2C117042B01D140B2AB
:1027A000C117031E71F1000307DA4FF0000CD0EBE4
:1027B0000C006CEB01012D2302E0230504D52B2333
:1027C0008DF82430012303E0E30701D02023F7E74D
:1027D000984658E00A2110E010210EE010204FF03A
:1027E000000B08900CE010214FF0000B44F00404A3
:1027F0004FF00809089103E008214FF0000B089101
:10280000C4F30253022B04D001CF0021032B06D0C6
:1028100006E0FF1D27F00707F7E8020103E080B29A
:10282000042B00D1C0B24FF0000823072BD5702A2B
:1028300007D0DDF820C08CF0100C5CEA0B0C05D042
:102840000EE040238DF82430012308E050EA010314
:1028500006D030238DF824308DF8252002239846A9
:10286000DDF820C08CF0080C5CEA0B0C0BD150EAB0
:10287000010301D1630706D530238DF824304FF0D2
:102880000108A9F10109582A04D038A20B9208AA1C
:102890000A920BE03AA2F9E75B46089AFDF75EFD63
:1028A0000B9B9B5C0A9A521E0A92137050EA01021B
:1028B000F2D10A98ADEB000000F1200B600702D5C1
:1028C00024F4803401E04FF00109D94502DDA9EB81
:1028D0000B0000E0002000EB0B0141440890AAEB44
:1028E000010AE00306D4DDE90F232146504600F03B
:1028F00063F806444FF0000908E009A911F809003F
:10290000DDE90F12904709F10109761CC145F4DB9E
:10291000E0030CD5DDE90F232146504600F04CF8CA
:10292000064404E0DDE90F1230209047761C089938
:10293000481E08900029F5DC08E00A980A990078FA
:10294000491C0A91DDE90F129047761CBBF100018A
:10295000ABF1010BF1DC21465046DDE90F2300F01D
:1029600019F806446D1C1BE609280100303132338A
:1029700034353637383961626364656600000000BB
:1029800030313233343536373839414243444546A5
:10299000000000002DE9F041044600251E461746C0
:1029A000880404D405E039462020B0476D1C641E1D
:1029B000F9D52846BDE8F0812DE9F041044600250F
:1029C0001E469046C80301D5302700E02027880422
:1029D00004D505E041463846B0476D1C641EF9D564
:1029E0002846BDE8F0810A68531C0B6010707047E0
:1029F00070B504460D46224602A12846FFF79EFD0B
:102A000070BD000025303258000000002DE9F84369
:102A1000804639A0FFF782FD3FA0FFF77FFD02E06F
:102A2000012004F041FA44480068C0F3403080F0CF
:102A300001000028F4D002E0012004F035FA3E48FD
:102A40000068C0F3403080F001000028F4D100F0AD
:102A5000EBFE0546002D4CD04AE0502237A1284617
:102A600000F07CFE0446002C3BD137A0FFF756FD5A
:102A700038224049284600F033FF0446002C27D175
:102A80003DA0FFF74BFD04F020FA064600BF694663
:102A9000284600F0FFFE0446072C03D143A0FFF7B1
:102AA0003DFD0CE00021009800F0E8FF07463946A4
:102AB0004BA0FFF733FD009800F089FFE7E700BF68
:102AC00004F003FA871B39464AA0FFF727FD02E00E
:102AD0004FA0FFF723FD072C06D0284600F028FE64
:102AE00002E053A0FFF71AFD4FF47A7004F0DCF90E
:102AF000B3E7BDE8F883000041504920636C696585
:102B00006E743A20746872656164207374617274C3
:102B100065640D0A0000000057616974696E6720E2
:102B2000666972737420627574746F6E207072655A
:102B30007373210D0A000000100802406578616D72
:102B4000706C652E6F72670041504920636C696537
:102B50006E743A20636F6E6E6563746564212057EE
:102B6000726974696E6720646174612E2E2E0D0A7D
:102B700000000000388C000841504920636C6965F2
:102B80006E743A2064617461207765726520777293
:102B9000697474656E2C2077616974696E67207240
:102BA0006573706F6E73650D0A0000004150492017
:102BB000636C69656E743A20636F6E6E65637469E9
:102BC0006F6E20636C6F7365642062792072656D2F
:102BD0006F746520736572766572210D0A000000BE
:102BE000526563656976656420504255463A2025F2
:102BF000640D0A00546F74616C20726563656976B8
:102C0000652074696D653A202564206D730D0A0096
:102C100041504920636C69656E743A206461746147
:102C2000207772697465206572726F72210D0A00D7
:102C300041504920636C69656E743A2063616E6E21
:102C40006F7420636F6E6E656374210D0A0000005F
:102C500010B59EB0044600BF002001909048006867
:102C600040F010008E4908600846006800F010002F
:102C7000019000BF00BF00BF0020019088481438B9
:102C8000006840F001008649143908600846006871
:102C900000F00100019000BF00BF00BF00200190C4
:102CA0000846006840F0010008600846006800F02F
:102CB0000100019000BF00BF00BF00200190084646
:102CC000006840F0010008600846006800F001005C
:102CD000019000BF00BF00BF0020019008460068BF
:102CE00040F4800008600846006800F4800001900D
:102CF00000BF00BF6B48007808BB00201490012083
:102D0000159003201390012012901190119011A999
:102D10006548FEF7CBFA02201290072016904FF478
:102D20000070119011A96048FEF7C0FA07201690B4
:102D30004FF48060119011A95B48FEF7B7FA59482B
:102D40000078B0B95948FEF76DFB17940020189031
:102D50001C904FF400401D9000201A9019900C20F8
:102D60001B9017A95148FEF797FB5048FEF78EFBC2
:102D700011E000BF4D48C06820F400504B49C860C6
:102D800000BF23464FF4004249494848FEF776FC0D
:102D90004648FEF77BFB00BF4448406940F04000D6
:102DA0004249486100BF00BF0846C06840F01000BB
:102DB000C86000BF3B480078002855D13D490870E5
:102DC00005213D48FEF7F8F84FF000600B903748BA
:102DD000001D029039480390002004904FF4807049
:102DE0000590002006904FF4806007900020089026
:102DF00009904FF480600A9000200C900D900E9086
:102E00000F90109002AA05212B48FEF7CFF92A480F
:102E100005212B4A525C825842F00802284B5B5C29
:102E2000C25000BF00BF264A525C825842F01002D6
:102E3000234B5B5CC25000BF00BF214A525C8258EA
:102E400042F001021E4B5B5CC25000BF0022012118
:102E50004420FDF744FC4420FDF734FC00201949D0
:102E60000880012013490870012211462520FDF732
:102E700036FC2520FDF726FC0A48007868B90120B9
:102E80000104094A916100BF04F00EF801200649CF
:102E9000886100BFC82004F007F81EB010BD000014
:102EA000443802407201002000000240001001403E
:102EB00000E1F50573010020006402409D740020CC
:102EC000D49C0008700100200146002070470000DB
:102ED0002DE9F05F07460E4690461D46DDE90BAB37
:102EE000DDF8289000BF27B900BF00BF0320BDE870
:102EF000F09F00BF00BF4EB126B13046FDF70AFA81
:102F0000402803D900BF00BF0320F0E700BF00BF87
:102F10004DB1022D07D0032D05D0042D03D000BFE5
:102F200000BF0320E3E700BF00BFB8F1800F03DD5F
:102F300000BF00BF0320DAE700BF00BFB9F1000FF8
:102F400002D0B9F10A0F03DD00BF00BF0320CEE7B6
:102F500000BF00BF342000F065FB04461CB900BF71
:102F600000BF0220C3E734212046FDF7ACF900BFC3
:102F70001E2020706761A66184F81D80257784F883
:102F80001E9084F81FA084F820B0034920460D9AB3
:102F900003F08EF9ABE70000ED4100082DE9F041A8
:102FA00006460F461546984600BF26B900BF00BF2B
:102FB0000320BDE8F08100BF00BF1FB900BF00BF04
:102FC0000320F6E700BF0DB10020286000BF3420C9
:102FD00000F028FB04461CB900BF00BF0220E8E750
:102FE00034212046FDF76FF900BF23202070666171
:102FF000A761256242460249204603F059F9D8E705
:10300000ED41000830B5014609B9002030BD4A68DD
:103010008B689A4201D10C6806E0934201D99C1A50
:1030200002E0D51A0868441B601EEFE730B5014680
:1030300009B9002030BD4A688B689A4201D100244A
:1030400006E09A4201D9D41A02E09D1A0868441B8E
:103050002046EFE70146D1E90220104470470146BF
:10306000D1E901239A4203D9D1E90123D01A08E01A
:10307000D1E901329A4203D98B680A68D01A00E07C
:103080000020704770B504460D460CB9002070BD95
:1030900014212046FDF717F92560284600F0C2FAF2
:1030A000E060E06808B90020F1E70120EFE770B5C3
:1030B00004460D462046FFF7B9FF0646B54200D943
:1030C0003546A0682844A0602168A068884203D3E0
:1030D0002168A068401AA060284670BD2DE9F0471D
:1030E0000446894615464FF00008CA4604B115B992
:1030F0000020BDE8F087D4E90010884201D3002009
:1031000060602046FFF77EFF0746AF4203D20FB94B
:103110000020EEE73D46D4E90001461AAE4200D950
:103120002E466268E168881832465146FDF7B2F8CB
:10313000B044606830446060AD1B35B10AEB0801F3
:103140002A46E068FDF7A6F86560D4E900108842D9
:1031500001D30020606008EB0500CAE710B5044603
:10316000207810B101280AD103E007A0FFF7D6F9B3
:1031700006E000214FF4E13000F050FD00E000BF18
:1031800000BF002010BD00004465766963652072B1
:1031900065736574210D0A002DE9F041064600278C
:1031A0003078022838D0052802D0072878D168E086
:1031B0007568284600F0BBF828B12C690CB1A560F1
:1031C00020E001271EE0284600F0CBF8A0B13B48E4
:1031D000006888B1002000F027FB044600BF0CB94E
:1031E00000BF00BF00BF2CB1A5602146284600F0FB
:1031F0002DF907E0012705E000BF0CB900BF00BFB3
:1032000000BF01273FB10021284600F05BF814B150
:10321000204600F0CDFA45E0D6F8088075682C69A4
:10322000606898B9254800680C3000F087FE50B1FE
:103230002146224800680C3000F09BFE30B900BFE8
:1032400000BF012702E000BF00BF01276068401CEB
:1032500060609FB954B104F1100000F06FFE28B116
:10326000414604F1100000F084FE20B900BF00BF09
:103270000120BDE8F081404600F07EFC00BF00BFA9
:1032800010E075682C694CB104F1100000F056FE96
:1032900020B10B4904F1100000F06BFE02E0FFE7E3
:1032A0000220E6E700BF3FB10021284600F00AF8FF
:1032B00014B1204600F07CFA0020DAE76801002013
:1032C0006401002070B505460E4600BF1DB900BF61
:1032D00000BF032070BD00BF00BF342000F0A2F982
:1032E00004461CB900BF00BF0220F3E7342120468A
:1032F000FCF7E9FF00BF2C202070656132460249CF
:10330000204602F0D5FFE5E7ED41000870B5044620
:10331000002554B1204601F029FD30B100F05EFED9
:10332000207D00F0010500F0CBFE284670BD70B591
:10333000044600259CB1204601F018FD78B100F04C
:103340004DFE207D00F0010028B1207DC0F340003B
:1033500008B1012000E00020054600F0B1FE28463B
:1033600070BD70B5044600259CB1204601F0FEFCFE
:1033700078B100F033FE207D00F0010028B1207DFF
:10338000C0F3400008B9012000E00020054600F02D
:1033900097FE284670BD2DE9FE4307460C461546AC
:1033A0001E46DDF8288023460022114638468DE867
:1033B000600100F003F8BDE8FE8300002DE9F05F36
:1033C0000546884691461E46DDE90B7BDDF828A0C0
:1033D00000BF25B900BF00BF0320BDE8F09F00BFBC
:1033E00000BF1EB900BF00BF0320F6E700BF00BF4B
:1033F000BAF1000F03D100BF00BF0320EDE700BF0B
:103400000FB10020386000BF342000F00BF90446F3
:103410001CB900BF00BF0220DFE734212046FCF7C3
:1034200052FF00BF2B20207065612662C4F818A0EF
:10343000E761C4F82C80A4F830905A46024920462F
:1034400002F036FFC9E70000ED41000870B5044600
:103450000D4600F0C3FD256100F032FE002070BD76
:103460002DE9F05F05460E4617469846DDE90BABA1
:10347000DDF8289000BF342000F0D4F8044624B9C9
:1034800000BF00BF0220BDE8F09F34212046FCF7BA
:103490001AFF00BF29202070282060706561A67780
:1034A000A761A4F81C80C4F824A0C4F820905A4650
:1034B0000249204602F0FCFEE5E70000ED4100086D
:1034C0001CB504462C4890F8040120F001002A495C
:1034D00081F804010CB1204600E028482649C1F8D3
:1034E000D8000846D0F8D800C1F8DC0000F0BEFCD7
:1034F0004FF4E1312048283000F076F801211E48D1
:1035000000F074FD0A211C48001D00F0B7FC0020EB
:103510004FF48061184B1A4ACDE9001019A103F14C
:103520000C0000F0ACFD0A211348083000F0A6FCA6
:1035300000204FF48061104B154ACDE9001015A111
:1035400003F1100000F09BFD4FF480510A48143045
:10355000FFF798FD084890F8040120F00100401C96
:10356000054981F80401012000F03CFB012002F034
:1035700081FE00201CBD000014730020C92E00082D
:103580000141000870726F6475636572000000008D
:10359000D140000870726F636573730070B50546A3
:1035A0000C460E48006A08B9022070BD2246294622
:1035B0000A481430FFF792FD00210848083000F057
:1035C000D8FC0748006820440549086005480068A1
:1035D000401C044908600020E7E700001473002045
:1035E00034010020380100207CB505460C460A490C
:1035F00003C9CDE900010948007828B908482860C6
:103600000121684600F01FF82046FFF721FB01204A
:103610000249087000207CBDDC9C0008720100207B
:10362000ED78000870B5054600F0D8FC284603F098
:10363000D7FA044600BF0CB900BF00BF00BF00F0BE
:103640003FFD204670BD70B504460D462946204614
:1036500003F032FB0646304670BD70B505460E4697
:1036600000F0BCFC3146284603F0A2FB044600BF34
:103670000CB900BF00BF00BF00F022FD204670BDA6
:1036800010B5044600F0AAFC204603F0A3FB00F0AE
:1036900017FD10BDF8B504460D4600BF1CB900BFAC
:1036A00000BF0320F8BD00BF00BF1DB900BF00BFB1
:1036B0000320F7E700BF00BF207818B100BF00BFAC
:1036C0000320EFE700BF0B480068844201D00220CE
:1036D000E8E7002028600022694604F10C0000F0B1
:1036E000F3FB0646701C08B90220DBE7009828604F
:1036F0000020D7E76801002070B504460D4600BFE2
:103700001CB900BF00BF032070BD00BF01212846C7
:1037100000F0B6FA061E06D100F060FC034800F087
:103720009BFA00F0CDFC3046EEE70000993100082E
:1037300010B5044600BF1CB900BF00BF032010BD78
:1037400000BF0021A068FFF781FE0121A068FFF7FC
:10375000B9FD204602F0E4FE0020F0E7FEB5044685
:103760000D46164600BF1CB900BF00BF0320FEBDBA
:1037700000BF00BF1DB900BF00BF0320F7E700BFB7
:1037800000BF1EB900BF00BF0320F0E700BF01204B
:103790000649CDE900410290217833462A460020AF
:1037A000FFF75EFE07463846E1E700009931000862
:1037B00010B5044600BF1CB900BF00BF032010BDF8
:1037C00000BF04F10C0000F0B9FB18B104F10C00CB
:1037D00000F06AFB04F1100000F0B0FB18B104F136
:1037E000100000F061FB2046FFF74AFF0020E6E7EB
:1037F00010B5044600BF1CB900BF00BF032010BDB8
:1038000000BF00BF207818B100BF00BF0320F6E75B
:1038100000BF00F0E3FB0348046000F051FC00200F
:10382000EDE700006801002070B505461421012075
:10383000FFF713FF044694B12570052104F10C0035
:1038400000F01CFB10B900BF00BF0AE00A2104F120
:10385000100000F013FB10B900BF00BF01E02046CC
:1038600070BD04F10C0000F069FB18B104F10C000C
:1038700000F01AFB04F1100000F060FB18B104F135
:10388000100000F011FB14B12046FFF7F9FE0020F4
:10389000E6E7000070B505460C4600BF1DB900BF45
:1038A00000BF032070BD00BF00BF1CB900BF00BF38
:1038B0000320F7E700BF0022214605F1100000F0C9
:1038C00003FB0646701C18B104492068884203D1E6
:1038D000002020600720E5E70020E3E764010020E6
:1038E000F8B504460D46164600BF1CB900BF00BF20
:1038F0000320F8BD00BF00BF207830B12078022837
:1039000003D000BF00BF0320F3E700BF01200090F9
:10391000002332462946A068FFF73DFDE9E702464D
:1039200000BF1AB900BF00BF0320704700BF00BF2F
:1039300019B900BF00BF0320F7E700BF04E05068DB
:103940004B6818445060126810680028F7D150681E
:103950004B681844506011600020E6E72DE9FF47EE
:1039600004460F461546B9462CB127B11DB1606813
:103970000399884203D2002004B0BDE8F087039881
:1039800028B103AA2046039903F016FC04464FF021
:10399000000817E0A0680399401AA84203D2A06863
:1039A0000399401A00E0284606462069039A8118C8
:1039B00032464846FCF76EFCB144AD1BB0440020D3
:1039C000039024680CB1002DE4D14046D4E72DE9E2
:1039D000F041054600BF25B900BF00BF0320BDE888
:1039E000F08100BF00262C4613E0A089401E1FFA7C
:1039F00080F8A4F80C80B8F1000F09D100BF00BF17
:103A000027682046FFF73CFE3C46701C86B200E06B
:103A100001E0002CE9D100BF3046E0E7F8B50546EB
:103A20000F46164665B16A463946284603F0C4FB80
:103A300004462CB120690099405C30700120F8BD2B
:103A40000020FCE7F7B50446154626461CB1606821
:103A50000199884201D20020FEBD019828B101AA37
:103A60002046019903F0A8FB06461DB1B0680199F4
:103A7000401A2860306901990844EDE7024622B1F6
:103A800009B1506870479068FCE70020FAE72DE91B
:103A9000F84F0746894690461C46CA4657B1B9F1C9
:103AA000000F07D0B8F1000F04D004EB08017868CC
:103AB000884203D24FF0FF30BDE8F88F3D4602E068
:103AC000A868241A2D6815B1A868A042F8D9002664
:103AD0000EE0A1196A462846FFF7A0FF28B11AF8A0
:103AE00006009DF80010884201D0601CE4E7761CB7
:103AF0004645EED30020DFE72DE9F0410546884634
:103B000016461F46BDB1B8F1000F14D0F119686810
:103B1000884210D33C460AE02346324641462846B6
:103B2000FFF7B5FF10B92046BDE8F081641C686856
:103B3000801BA042F0D24FF0FF30F5E770B505468C
:103B400005F11C010120FFF788FD044600BF0CB9F8
:103B500000BF00BF00BF00BF0CB100BF00BF00BF6F
:103B600044B1002020606560A56004F11C00206164
:103B70000120A081204670BD014600BF19B900BFD9
:103B800000BF0320704700BF8889401C8881002047
:103B9000F8E718B111B10B684361028370472DE952
:103BA000F04106460C4615462046FCF7B3FB074697
:103BB0002B463A4621463046FFF769FFBDE8F081C3
:103BC0002DE9F04106460C4615462046FCF7A2FBBF
:103BD00007462B463A4621463046FFF78DFFBDE8A3
:103BE000F081000070B5054600BF3420FFF71AFDD4
:103BF00004461CB900BF00BF022070BD342120461E
:103C0000FCF761FB00BF022020702A4602492046D3
:103C100002F04EFBF1E70000ED41000870B50546EB
:103C20000E4600BF3420FFF7FDFC04461CB900BF60
:103C300000BF022070BD34212046FCF744FB00BFCA
:103C400008202070656132460249204602F030FBB0
:103C5000F0E70000ED41000810B5044600F0BEF9A1
:103C60000CB1204602E00548D0F8D8000349C1F85D
:103C7000DC0000F025FA002010BD000014730020C5
:103C800070B505460E4600BF3420FFF7CBFC044656
:103C90001CB900BF00BF022070BD34212046FCF7D4
:103CA00012FB00BF2F202070A58232460249204619
:103CB00002F0FEFAF0E70000ED4100082DE9F047C0
:103CC00005460E4617469846DDE9089A00BF34209F
:103CD000FFF7A8FC044624B900BF00BF0220BDE8DE
:103CE000F08734212046FCF7EEFA00BF3320207025
:103CF00025756675A761C4F81C80C4F820905246EB
:103D00000249204602F0D4FAE9E70000ED4100083C
:103D100070B505460E4600BF3420FFF783FC04460D
:103D20001CB900BF00BF022070BD34212046FCF743
:103D3000CAFA00BF3420207065613246024920462D
:103D400002F0B6FAF0E70000ED4100082DE9F0417D
:103D500004460D46164602270CB905B9B6B100F067
:103D60001BF898B900F03AF91CB10A48D0F8E00005
:103D700020601DB10748D0F8E40028601EB1054856
:103D8000D0F8E8003060002700F09AF93846BDE826
:103D9000F08100001473002010B500F01FF90648F0
:103DA00090F80401C0F3400400F08AF90CB100203F
:103DB00010BD0220FCE70000147300202DE9F0473D
:103DC00005460E4617469846DDF8209000BF25B9F7
:103DD00000BF00BF0320BDE8F08700BF00BF342054
:103DE000FFF720FC04461CB900BF00BF0220F2E729
:103DF00034212046FCF767FA00BF1620207084F8B3
:103E000020806561A661E7614A460249204602F0CA
:103E10004FFAE0E7ED4100082DE9F04706460F466E
:103E200090461D46DDF820900DB10020286000BFAF
:103E30003420FFF7F7FB044624B900BF00BF02207F
:103E4000BDE8F08734212046FCF73DFA00BF18207A
:103E500020706661A761C4F81C8065624A46024909
:103E6000204602F025FAEBE7ED41000810B50248C4
:103E700000F08CF8012010BD6C0100207CB50446D8
:103E80000D46084903C9CDE90001009500216846A7
:103E900003F025F82060206808B101207CBD0020D7
:103EA000FCE70000CC9C000810B50446206803F035
:103EB000A9F808B1002010BD206803F019F808B96E
:103EC0000120F8E70020F6E7F0B587B005460E467A
:103ED000144602F0FAFF074614B94FF0FF3000E035
:103EE0002046024601A8296803F00EF801A807C879
:103EF00004AB07C30498102806D10598306002F07F
:103F0000E4FF001B07B0F0BD4FF0FF30FAE730B51B
:103F100087B004460D46002201A8216802F0F4FF94
:103F200001A807C804AB07C30498102804D105985A
:103F30002860012007B030BD0020FBE7014608687B
:103F400008B1012070470020FCE770B504460D461B
:103F500002F0BBFF06464FF0FF322946206803F00F
:103F600021F818B902F0B1FF801B70BD4FF0FF308F
:103F7000FBE770B504460D4600222946206803F091
:103F800011F808B9012070BD0020FCE738B50446DF
:103F900000200090684603F042F82060206808B1D5
:103FA000012038BD0020FCE710B504464FF0FF317A
:103FB000206803F045F808B9012010BD0020FCE797
:103FC00010B50446206803F030F808B9012010BD90
:103FD0000020FCE710B5FCF7BBFA10BD10B5024895
:103FE000FFF7E2FF012010BD6C01002038B5044648
:103FF0000D46002000900121684603F03AF8206049
:10400000206820B11DB90021206803F07FF82068E6
:1040100008B1012038BD0020FCE710B50446206837
:1040200003F040F808B9012010BD0020FCE701466C
:10403000086808B1012070470020FCE710B504466D
:10404000206803F03BF808B9012010BD0020FCE710
:1040500070B504460D4602F038FF064615B94FF01C
:10406000FF3200E02A461146206803F04FF818B9E5
:1040700002F02BFF801B70BD4FF0FF30FBE72DE9F6
:10408000F04385B004460D4616461F46DDE90C890F
:1040900014216846FCF717F900950196ADF80890D1
:1040A000CDF810803946684603F06EF8206020682D
:1040B00018B1012005B0BDE8F0830020FAE7000048
:1040C00010B50248FFF77CFF012010BD6C010020F5
:1040D00008B5FFF783FF10E0FFF7F2FF0A226946F9
:1040E000064800F05FF80446FFF778FF601C08B14F
:1040F000009800B900BF01F0F3FFEDE71C7300204A
:1041000008B504462646FFF769FF47E0FFF7D8FFEA
:10411000002269462248FFF7D7FE0546FFF75EFFFB
:10412000681C08B1009800B938E01D49091F0098C3
:10413000C8620098006900B3FFF7C2FF0021304653
:10414000FFF786FFFFF74AFF009801698847074697
:104150007FB9FFF7B5FF00213046FFF779FF05462D
:10416000FFF73CFF3046FFF769FF681C30B90427B2
:1041700004E03046FFF762FF00E002270098806805
:1041800020B10098001DFFF759FF02E00098FFF7EB
:1041900077FA00200249091FC86200BFB6E7000095
:1041A000187300202DE9F04105460E46174600BF62
:1041B0000D48006830B93A4631462846FFF784FE7C
:1041C000BDE8F08102F020FA044634B122463146BF
:1041D0002846FFF779FE401C08B903F001F800BF3C
:1041E00000BF4046ECE700003C01002001B588B06C
:1041F00008984078801E352876D2DFE810F0350028
:104200003D0045007500750075004D007500750096
:1042100075007500750075007500750075007500F6
:1042200075007500ED007600C500CD004F0101025C
:10423000110193017500B2025001020212019401B2
:104240003103750075007500750052046C03F904A4
:104250004F0426047500D1043903750075007500FC
:104260001B05880575006304FE48806A08210790D5
:10427000FDA0079A904773E2FA48806A06210790EA
:10428000FCA0079A9047F6E7F648806A0621079057
:10429000FAA0079A9047EEE70898406906A90590AA
:1042A00002F0F6FDEF48806A0C210590F5A0059A12
:1042B000904706A8FCF72EF880B20590E948806A7E
:1042C000049006A8DDE904219047E648806A0821A9
:1042D0000590F0A0059A9047E248806A0221059077
:1042E000E5A0059A9047C6E7FEE3DE48806A09210B
:1042F0000790EBA0079A9047089890F8200038B1F3
:10430000D848806A05210790E8A0079A904706E000
:10431000D448806A05210790E6A0079A904708983C
:10432000406900220121079003F07AFBCD48806AA2
:1043300003210790E1A0079A90470898806900221E
:104340000121079003F06CFBC648806A01210790A9
:10435000D7A0079A90470898C06968B1C148806A99
:1043600001210790D6A0079A90470898C0690122BA
:104370000021079003F0C6FABA48806A022107902C
:10438000BDA0079A904776E7B648806A0A21079051
:10439000CCA0079A90476EE7B248806A0821079040
:1043A000CBA0079A90470898406968B1AD48806AE9
:1043B00001210790C9A0079A9047089840690122F7
:1043C0001146079003F02CFBA648806A0221079053
:1043D000A9A0079A90474EE708980078022802D1D2
:1043E0000320079002E00898007D0790079830307E
:1043F000C0B206909B48806A0A210590B8A0059A31
:1044000090479848806A0121059006A8059A904730
:104410009448806A0221059097A0059A90472AE760
:1044200000BF9048806A06210790B0A0079A904785
:10443000089840781B2806D18A48806A0321079093
:10444000ACA0079A904708984078212806D1854863
:10445000806A02210790A8A0079A904708980178DF
:10446000407881420BD1089890F8200038B17D48FF
:10447000806A04210790A1A0079A904706E0794836
:10448000806A042107909FA0079A90477548806A28
:10449000032107909DA0079A9047ECE600BF714862
:1044A000806A0621079091A0079A90470898407863
:1044B000192806D16B48806A032107908DA0079ABE
:1044C0009047089840781F2806D16648806A0221E4
:1044D000079089A0079A90476248806A0321079055
:1044E0008BA0079A904708980178407881420AD1BA
:1044F0000898007E38B15B48806A042107907FA04D
:10450000079A904706E05748806A042107907DA0EB
:10451000079A90475348806A032107907BA0079A27
:104520009047FEE300BF4F48806A062107906FA0C6
:10453000079A9047089840781C2806D14948806A15
:10454000032107906BA0079A90470898407822288B
:1045500006D14448806A0221079067A0079A9047D5
:1045600008980178407881420BD1089890F8200093
:1045700038B13C48806A0421079060A0079A9047B0
:1045800006E03848806A042107905EA0079A9047A9
:104590003448806A0121079050A0079A90470898F4
:1045A000406901221146079003F0ACF90898806930
:1045B000F0B12C48806A0121079041A0079A9047EA
:1045C0000898806901221146079003F09BF908982A
:1045D000C06968B12348806A0121079038A0079A12
:1045E00090470898C06901221146079003F08AF9A4
:1045F0001C48806A022107901FA0079A904790E309
:1046000000BF1848806A0621079038A0079A904793
:10461000089840781A2806D11248806A032107902A
:1046200034A0079A904708984078202806D10D4872
:10463000806A0221079030A0079A90470948806A53
:104640000321079032A0079A904708980178407894
:10465000814266D10898007E10B10248806A59E014
:104660005FE000001473002041542B5253540D0A94
:1046700000000000415445300D0A0000415445310E
:104680000D0A000041542B554152545F4355523D91
:10469000000000002C382C312C302C3000000000A1
:1046A00041542B43574A41505F0000004445463D6A
:1046B000220000004355523D22000000222C22001F
:1046C0002C00000041542B43575141500D0A00006B
:1046D00041542B43574C4150000000003D00000066
:1046E00041542B43574D4F44453D000041542B430B
:1046F0004950000053544100415000005F4445467A
:10470000000000005F435552000000003F0D0A000A
:104710004D41430004210790AFF22000079A9047D3
:1047200007E0FC48806A04210790AFF22800079A4E
:104730009047F848806A01210790AFF26000079A1D
:1047400090470898406901220021079003F0DAF8A9
:10475000F048806A02210790AFF2E400079A904780
:10476000DFE2EC48806A08210790EBA0079A9047A7
:10477000089890F8200040B1E648806A042107902C
:10478000AFF28800079A904707E0E248806A042168
:104790000790AFF29000079A9047DE48806A0121A7
:1047A0000790AFF2C800079A904708984069012225
:1047B0001146079003F034F9D648806A012107902A
:1047C000AFF20410079A90470898806901221146B9
:1047D000079003F025F9CF48806A01210790AFF2D6
:1047E0002010079A90470898407F0021079003F017
:1047F000D3F8C848806A01210790AFF23C10079AAD
:1048000090470898007F0021079003F0C5F8C14841
:10481000806A01210790AFF25810079A90470898D4
:10482000807F0021079003F0B7F8BA48806A012121
:104830000790AFF27410079A90470898C07F08B1AC
:10484000012000E000200021079003F0A5F8B14806
:10485000806A02210790AFF2E010079A904760E269
:10486000AC48806A0A210790AEA0079A904758E2A8
:10487000A848806A0D210590ADA0059A9047089838
:10488000808AC8B10898808A06A9059002F000FBCA
:10489000A048806A02210590A9A0059A904706A821
:1048A000FBF738FD80B205909A48806A049006A80C
:1048B000DDE90421904706E09648806A01210590D1
:1048C000A0A0059A90479348806A0221059097A07E
:1048D000059A904725E2002007900690002108984D
:1048E00080F828100420079028E0079800EB40018A
:1048F0008848343000EBC100007D00F0010038B181
:10490000844890F83000012207998A40104088B905
:10491000079800EB40017F48343000EBC10006905F
:104920000798C1B2069841700798C1B2089880F8FC
:10493000281006E00798401E40B20790079800280C
:10494000D3DA00BF069810B9052009B000BD089859
:10495000406918B108990698496908606D48806AED
:104960000C21039078A0039A904706984078303045
:10497000C0B28DF810006748806A0121039004A836
:10498000039A90476348806A0221039072A0039AB9
:1049900090470898807F022807D15E48806A0321EB
:1049A00003906EA0039A904715E00898807F38B96D
:1049B0005848806A0321039069A0039A90470AE04F
:1049C0000898807F012806D15248806A032103900D
:1049D00064A0039A90474F48806A03210390AFF286
:1049E0002430039A9047089880690290FBF792FC64
:1049F00080B203900898806902904648806A0190CE
:104A0000DDE90120039990474248806A0221039022
:104A100055A0039A90470898808B04A9039002F050
:104A200037FA04A8FBF776FC80B203903948806A15
:104A3000029004A8DDE9022190473648806A0221ED
:104A400003903AA0039A90476BE10898406906905A
:104A5000FEF75CFC08B9022077E72E48806A0C213B
:104A6000069042A0069A90470898406920B108989D
:104A700040694078303000E03520C0B207902548CA
:104A8000806A0121069007A8069A90472148806A0B
:104A90000221069025A0069A904742E101F098FC79
:104AA00053E71C4890F830001A4981F83100002083
:104AB00081F830000846806A0E2107902FA0079ADF
:104AC00090472EE11348806A0C2107902FA0079A87
:104AD000904708980078022802D00898007D48B1D5
:104AE0000C48806A012100E019E107902BA0079A89
:104AF000904706E00748806A0121079011A0079AB5
:104B000090470448806A0221079008A0079A9047BE
:104B100007E100001473002041542B4357534150C8
:104B20000000000041542B43574C49460D0A000039
:104B300041542B4349505345525645523D000000C5
:104B4000312C00003000000041542B434950535495
:104B50004152543D000000002C22000053534C00F1
:104B60005443500055504400222C000041542B4324
:104B70004950434C4F53453D0000000041542B43E6
:104B800049505354415455530D0A000041542B438E
:104B9000495044494E464F3D00000000310000009E
:104BA0006148806A0A21079060A0079A9047089898
:104BB0000078022802D00898007D40B15A48806AE7
:104BC00001210790AFF22C00079A904707E0564862
:104BD000806A01210790AFF29400079A90475248EB
:104BE000806A02210790AFF2BC00079A904798E0D4
:104BF0004D48806A0E2104904FA0049A904708986F
:104C0000406905A9049002F043F905A8FBF782FB6F
:104C100080B204904448806A039005A8DDE903212E
:104C200090474148806A02210490AFF20010049A34
:104C3000904776E03C48806A0E21079042A0079A90
:104C400090470898007D0021079002F0A5FE3648A5
:104C5000806A01210790AFF29850079A9047089810
:104C600090F915000021079002F0B8FE08988069BD
:104C7000A0B1089880690790FBF74CFB70B12A48F7
:104C8000806A01210790AFF2C850079A90470898B0
:104C9000806901220021079002F0C2FE0898C069D5
:104CA000A0B10898C0690790FBF734FB70B11E48AB
:104CB000806A01210790AFF2F850079A9047089850
:104CC000C06901220021079002F0AAFE0898006A3C
:104CD000A0B10898006A0790FBF71CFB70B112485E
:104CE000806A01210790AFF22860079A90470898E0
:104CF000006A01220021079002F092FE0A48806AB1
:104D000002210790AFF2DC10079A904709E00648AD
:104D1000806A1121079010A0079A904701E00220B5
:104D200013E600BF002010E61473002041542B430B
:104D300049504D55583D000041542B434950535361
:104D40004C53495A453D000041542B434950534E62
:104D500054504346473D000041542B434950534E65
:104D6000545054494D453F0D0A00000002460021B1
:104D700000BF0AE001EB4103064800EBC30090428C
:104D800001D101207047481CC1B20529F2D300208F
:104D9000F8E700004873002013B50C4614B12078E2
:104DA000342801D000201CBD009800782B2802D1A7
:104DB00000980D300090032273A10098FBF7BFFA12
:104DC00018B90120616908713AE003226FA10098C7
:104DD000FBF7B5FA18B902206169087130E00322C7
:104DE0006BA10098FBF7ABFA18B903206169087151
:104DF00026E0032267A10098FBF7A1FA18B9042066
:104E0000616908711CE0032263A10098FBF797FA1F
:104E100018B905206169087112E003225FA10098AA
:104E2000FBF78DFA18B906206169087108E00322C2
:104E30005BA10098FBF783FA10B90720616908713C
:104E40000098001D0090032256A10098FBF777FA06
:104E500018B90120616948706CE0032252A10098E2
:104E6000FBF76DFA18B902206169487062E003220D
:104E70004EA10098FBF763FA18B9032061694870E6
:104E800058E003224AA10098FBF759FA18B9042008
:104E9000616948704EE0032246A10098FBF74FFA83
:104EA00018B905206169487044E0032242A10098C6
:104EB000FBF745FA18B90620616948703AE0032209
:104EC0003EA10098FBF73BFA18B9072061694870CA
:104ED00030E003223AA10098FBF731FA18B9082014
:104EE0006169487026E0032236A10098FBF727FA93
:104EF00018B90920616948701CE0032232A10098AA
:104F0000FBF71DFA18B90A206169487012E0032204
:104F10002EA10098FBF713FA18B90B2061694870AD
:104F200008E003222AA10098FBF709FA10B90C2027
:104F3000616948700098001D0090684600F053FABF
:104F4000616908700098401C0090684600F04BFAB8
:104F5000616948710098401C0090684600F043FA6F
:104F6000616988710098401C0090684600F03BFA27
:104F70006169C8710098401C0090684600F033FADF
:104F80006169488001200EE74D6F6E005475650021
:104F90005765640054687500467269005361740077
:104FA00053756E004A616E00466562004D61720085
:104FB000417072004D6179004A756E004A756C004F
:104FC00041756700536570004F6374004E6F760043
:104FD0004465630031B50024684600F004FAC4B2A9
:104FE000294890F830000121A1400843264981F862
:104FF0003000012300221146684600F011FE002512
:1050000010E0684600F0EFF9C1B204EB44021E481C
:10501000343000EBC200801C41550098401C0090C9
:10502000681CC5B2042DECDB684600F0DCF981B2E7
:1050300004EB44021448343000EBC200C1806846DF
:1050400000F0D1F981B204EB44020F48343000EB98
:10505000C2000181684600F0C6F908B9012000E0ED
:10506000002004EB44020849343101EBC201097D00
:1050700060F3410104EB44020348343000EBC2000A
:105080000175002038BD00001473002013B50C46D4
:1050900064B16078182809D1A06938B1D4E9070152
:1050A000814203D220786178884201D000201CBD63
:1050B000009800782B2802D10098C01D009000981D
:1050C00010F8011B0090282901D00020EFE7684666
:1050D00000F089F9C1B2206A00EB0010A26902F861
:1050E0001010206A00EB0010A26902EB4000411C86
:1050F00001231522684600F093FD684600F073F91D
:1051000001B2206A00EB0010A26902EB4000C182EC
:10511000206A00EB0010A26902EB400000F11801C8
:10512000684600F01BF9684600F05DF9C1B2206ADC
:1051300000EB0010A26902EB40008177684600F0A6
:1051400052F941B2206A00EB0010A26902EB400064
:10515000C177684600F047F9C1B2206A00EB001041
:10516000A26902EB400080F82010009810F8011BA3
:105170000090292901D0002099E7206A401C206274
:10518000606A10B1D4E90810016001208FE713B5FF
:105190000C4664B16078232809D1606938B1D4E93C
:1051A0000601814203D220786178884201D0002034
:1051B0001CBDE06900EB8000626902EB40016846BB
:1051C00000F05BF8E06900EB8000626902EB4000F0
:1051D000011D684600F0C2F8E069401CE061206AE9
:1051E00010B1D4E9071001600120E1E70246002078
:1051F00011680B78222B00D1491C0B782C2B00D185
:10520000491C0B78222B00D1491C1EE00B78302B57
:1052100005DB0B78392B02DC0B78303B12E00B7886
:10522000612B05DB0B78662B02DC0B78573B09E022
:105230000B78412B05DB0B78462B02DC0B78373BD8
:1052400000E0002303EB0010491C0B78302B02DB3D
:105250000B78392BDADD0B78612B02DB0B78662BB0
:10526000D4DD0B78412B02DB0B78462BCEDD0B789F
:105270002C2B00D1491C1160704738B505460C46EF
:105280002868009000980078222802D10098401CDD
:105290000090684600F0A7F820700098401C00902D
:1052A000684600F0A0F860700098401C00906846C6
:1052B00000F099F8A0700098401C0090684600F03B
:1052C00092F8E07000980078222802D10098401CE3
:1052D000009000982860012038BD000031B5684674
:1052E00000F081F8C4B2684600F07DF805461A491E
:1052F0006846FFF7C2FF684600F075F881B21648AD
:10530000BC38A0F8C01004EB4401343000EBC101FC
:105310003438D0F8BC00C1F8020004EB44010E4858
:10532000883800EBC1013438B0F8C000C8800120D3
:105330000949BC3981F8AC000846C0F8B050C0F843
:10534000B45004EB4401343000EBC1013438C0F8F0
:10535000B810002038BD0000D073002038B50546D5
:105360000C462868009000980078222802D1009806
:10537000401C00906846FFF739FF20700098401CE1
:1053800000906846FFF732FF60700098401C009064
:105390006846FFF72BFFA0700098401C00906846FD
:1053A000FFF724FFE0700098401C00906846FFF76C
:1053B0001DFF20710098401C00906846FFF716FF03
:1053C000607100980078222802D10098401C00905B
:1053D000009800782C2802D10098401C009000987A
:1053E0002860012038BD30B5024600230024116832
:1053F0000878222800D1491C08782C2800D1491CA3
:105400000878222800D1491C08782D2801D10124D0
:10541000491C06E00878303803EB830500EB4503B0
:10542000491C0878302802DB08783928F2DD087832
:105430002C2800D1491C11600CB1584230BD1846CF
:10544000FCE700002DE9FE4F044600260027B04689
:1054500094F88000022807D120780D2804D16078C4
:105460000A2801D1BDE8FE8FFDA12046FAF759FFB9
:1054700008B9012000E000200646BEB9FAA1204686
:10548000FAF74FFF20B1FAA12046FAF74AFF08B910
:10549000012000E00020074647B9F7A12046FAF7AF
:1054A00040FF08B9012000E000208046B8F1000F5D
:1054B0000AD0F348C06A20B1F148C06A4078022897
:1054C00002D0002000F0D6FE20782B2869D10422DB
:1054D0002146ECA0FAF733FF18B9601DFFF7FEFE76
:1054E0006EE1E748C06A0028FAD0E548C06A50B1CA
:1054F000E348C06A4078192805D10A22E3A1204672
:10550000FAF71DFF70B1DE48C06A002854D0DC48AD
:10551000C06A40781F284FD10922DFA12046FAF740
:105520000EFFE8BB607A5F2803D104F10E00029001
:1055300013E0A07A5F2803D104F10F0002900CE081
:10554000607A3A2803D104F10A00029005E0A07ABB
:105550003A2802D104F10B000290694602A8FFF735
:10556000FDFE204601F008FB70B1C548C06A4078D6
:10557000192802D1C248EC3001E0C148FE30009940
:105580000160BDF804108180BD48C06A406990B1D7
:10559000BB48C06A4078BA49C96A0978884201E0C4
:1055A0000AE0C9E007D1B648C06A406900990160C5
:1055B000BDF80410818003E1B148C06A50B1B04821
:1055C000C06A40781B2805D10722B6A12046FAF709
:1055D000B6FE78B1AA48C06A00287DD0A848C06A43
:1055E0004078212878D10622B0A12046FAF7A7FEFC
:1055F00000287FD10020029001908346A048C06A15
:1056000040781B2802D19E48E03001E09C48F230EF
:105610008246A0795F2801D1E57A0DE0E0795F2824
:1056200001D1257B08E0A0793A2801D1E57903E092
:10563000E0793A2800D1257A672D0ED0692D02D065
:105640006E2D20D114E004F10A000290CDF804A0E0
:105650008B48C06AD0F814B01AE004F10F00029031
:105660000AF1040001908648C06AD0F818B00FE033
:1056700004F10F0002900AF1080001908048C06A0E
:10568000D0F81CB004E0002002900190834600BFD7
:1056900000BF029868B3A0795F2802D0E0795F2844
:1056A00002D10298001D0290029800783A2802D197
:1056B0000298401C0290694602A8FFF7DEFD2046D2
:1056C00001F05AFA10B1DDE900100160BBF1000FE2
:1056D0000FD06B48C06A00E00CE050B16848C06A67
:1056E00040786749C96A0978884202D10098CBF8A6
:1056F000000065E06248C06A407818280BD1062295
:105700006CA12046FAF71BFE28B95D48C16A204605
:10571000FFF7BCFC54E05A48C06A407834284FD1A7
:105720000C2266A12046FAF70AFEB0BB5448C16AB3
:105730002046FFF731FB43E0042264A12046FAF73C
:10574000FEFD50BB092263A1601DFAF7F8FD60B9A8
:105750004B4890F8040120F00400001D484981F8EE
:105760000401092000F086FD2AE00A225CA1601DE8
:10577000FAF7E5FD90B9424890F8040120F00400E2
:105780003F4981F80401084690F8040120F0020026
:1057900081F804010B2000F06DFD11E0062253A1F9
:1057A000601DFAF7CCFD58B9354890F8040120F097
:1057B0000200801C324981F804010A2000F05AFDE1
:1057C0002F48C06A002806D02D48C06A40780228B9
:1057D00002D10EB10026F1E02948C06A407828289D
:1057E0002DD10A2243A12046FAF7A9FD20B904F1E0
:1057F0000B00FFF7EFFBE1E0002E1FD000201BE0C5
:105800001F4991F8301001228240114009B1012254
:1058100000E0002200EB40031949343101EBC301E1
:10582000097D62F3000100EB4003154A343202EBBC
:10583000C3021175411CC8B20528E1DBBEE0104867
:10584000C06A40782B2879D106B100260C48C06A7E
:1058500090F8290010B10722214651E08FE00000A6
:105860004F4B0D0A000000004552524F520D0A00E6
:105870004641494C0D0A000072656164790D0A00C9
:10588000147300202B495044000000002B43495062
:105890005354414D414300002B43495041504D4129
:1058A000430000002B434950535441002B434950BF
:1058B000415000002B43574C415000002B434950AE
:1058C000534E545054494D45000000005749464935
:1058D00000000000434F4E4E454354454400000035
:1058E000444953434F4E4E4543540000474F5420C4
:1058F000495000002B434950535441545553000024
:10590000B7A0FAF71CFDD0B90021B748C06A80F8EB
:105910002910012000F00EFD064686B30320B2498F
:1059200081F8CC000846C06A4169AF48C0F8D01081
:105930000146C96A486900F0A9FC3FE020E02FB9A0
:1059400009222146A9A0FAF7FAFCC0B90021A6480D
:10595000C06A80F82910002000F0ECFC074677B1FF
:105960000420A14981F8CC000846C06A41699E48DC
:10597000C0F8D0100146D1F8B80000F087FC1DE057
:105980009948C06A4078082808D1BEB19648C06AD4
:10599000416995482830FDF727FE0FE09248C06A1C
:1059A000407823280AD12078302807DB207839284E
:1059B00004DC8D48C16A2046FFF7E9FB94F88000BB
:1059C0000A285FDD8CA12046FAF788FCB0F10009B7
:1059D00058D0A9F10100029002A8FFF704FD00F0E1
:1059E000FF0ABAF1050F4CDA0AEB4A017E4834305F
:1059F00000EBC10518212846FAF765FC85F801A0DF
:105A0000287D20F00100401C28757748C06AE0B16D
:105A10007548C06A4078292817D17348C06A90F841
:105A20002800504511D1287D20F00200801C2875E7
:105A30006D48C06A406AE8606B48C06A006A2861C5
:105A40006948C06A807F28700AE0287D20F0020043
:105A500028756548D0F8DC00E860002028612870CF
:105A60000520614981F8CC000846C0F8D050287D57
:105A7000C0F340015C4880F8D410284600F006FCD2
:105A800000BF7BE094F88000092806DD5DA1204678
:105A9000FAF724FCB0F100090AD194F880000F282D
:105AA00041DD5BA12046FAF719FCB0F100093AD0BC
:105AB000A9F10100029002A8FFF795FC00F0FF0A8F
:105AC000BAF1050F2EDA0AEB4A014748343000EBF1
:105AD000C10585F801A0287D00F0010008B3287DEC
