:020000040800F2
:10000000A87A0120690200081D160008090F0008DF
:10001000191600085D0400084123000800000000D4
:10002000000000000000000000000000AD0100081A
:10003000F504000800000000010200087517000820
:10004000830200088302000883020008830200087C
:10005000830200088302000883020008830200086C
:10006000830200088302000883020008830200085C
:10007000830200088302000883020008830200084C
:1000800083020008830200088302000800000000C9
:1000900000000000000000000000000083020008D3
:1000A000830200088302000883020008830200081C
:1000B000830200088302000883020008830200080C
:1000C00083020008830200088302000883020008FC
:1000D000830200087D220008E922000800000000D9
:1000E0008302000883020008830200080000000069
:1000F0000000000000000000000000008302000873
:100100000000000083020008830200088302000848
:1001100000000000000000000000000000000000DF
:10012000830200088302000883020008830200089B
:100130008302000800000000000000000000000032
:100140000000000000000000000000008302000822
:1001500061040008830200088302000815230008D8
:100160008302000883020008000000000000000075
:10017000000000000000000000000000000000007F
:1001800000000000830200080000000000000000E2
:100190008302000883020008DFF80CD000F002F9A7
:1001A00000480047C1630008A87A01202B4B19685A
:1001B0000868B0E8F04F80F30988BFF36F8F4FF005
:1001C000000080F3118870470000000006480068B6
:1001D000006880F3088862B661B6BFF34F8FBFF343
:1001E0006F8F00DF00BF00BF08ED00E0DFF80C00FC
:1001F000016841F470010160704700BF88ED00E0C4
:10020000EFF30980BFF36F8F144B1A681EF0100FC5
:1002100008BF20ED108A20E9F04F106008B44FF0BD
:10022000E00080F31188BFF34F8FBFF36F8F07F0AB
:100230009DFA4FF0000080F3118808BC1968086827
:10024000B0E8F04F1EF0100F08BFB0EC108A80F33A
:100250000988BFF36F8F704700BF00BF24010020E3
:10026000EFF30580704700000648804706480047C6
:10027000FEE7FEE7FEE7FEE7FEE7FEE7FEE7FEE756
:10028000FEE7FEE77D1700089901000840EA010338
:100290009B0703D009E008C9121F08C0042AFAD23C
:1002A00003E011F8013B00F8013B521EF9D2704700
:1002B000D2B201E000F8012B491EFBD270470022A8
:1002C000F6E710B513460A4604461946FFF7F0FF55
:1002D000204610BD30B505462A460B4612F8010BE4
:1002E00013F8014B08B1A042F8D01CB1002802D08D
:1002F0006D1CF1E7284630BD421C10F8011B002997
:10030000FBD1801A704710B5002200E0521C835CBC
:100310008C5CA34201D1002BF8D1D8B2E1B2401AD3
:1003200010BD30B505460020034600E05B1C93423B
:1003300005D2EC5CC85C201A01D1002CF6D130BD8E
:100340002DE9F05F0546002092469B46884606460A
:10035000814640241BE0284641464746224600F09D
:1003600042F853465A46C01A914110D311461846D6
:10037000224600F029F82D1A67EB01084F46224665
:100380000120002100F020F817EB00094E41201E4B
:10039000A4F10104DFDC484631462A464346BDE865
:1003A000F09F0000064C074D06E0E06840F00103B6
:1003B00094E8070098471034AC42F6D3FFF7F0FEFC
:1003C000F896000818970008202A04DB203A00FA63
:1003D00002F1002070479140C2F1200320FA03F39C
:1003E000194390407047202A04DB203A21FA02F09A
:1003F0000021704721FA02F3D040C2F1200291405F
:1004000008431946704770B58C1810F8015B15F059
:10041000070301D110F8013B2A1106D110F8012B76
:1004200003E010F8016B01F8016B5B1EF9D12B079B
:1004300005D40023521E0DD401F8013BFAE710F851
:10044000013BCB1A921C03E013F8015B01F8015B3E
:10045000521EF9D5A142D8D3002070BD00BFFEE7DF
:1004600010B52048007828B91F4800F074FD1E48D8
:1004700000F06CFD1C4800F0D9FE08B1002404E037
:100480000521194800F05CFE84B2C4F5806084B296
:10049000154800F0CBFE78B1134800F05CFD134A1C
:1004A0001288A11A124A114B1B88D01803F020F8A9
:1004B00000200E49088013E000BF0B484068C0F3DD
:1004C000802068B1084800F041FD084A1288A11A4E
:1004D000074A064B1B88D01803F00AF8034804802B
:1004E00010BD0000C701002000640240C4010020CC
:1004F000A5720020704700000148006870470000A6
:100500000400002010B52E480068401C2C490860EB
:100510002C48006820B12B480068401E294908601B
:10052000002444E0284850F8240000283DD0264804
:1005300050F824000078C0F34000B0B3224850F8CF
:100540002400806840B1204850F824008068401E94
:100550001D4951F8241088601B4850F82400806819
:1005600018BB194B53F824301969174B53F8240062
:1005700053F82430DA689047134850F82400416853
:10058000114850F8240081600F4850F8240000788A
:1005900000F0010048B90C4850F82400006820F031
:1005A0000201094850F824000160601CC4B20648EA
:1005B000001F0078A042B5DC01F069F910BD000011
:1005C0000400002000000020D401002010B50D48D8
:1005D000006840F400700B4908600846006840F469
:1005E000806008600846006840F48070086003205E
:1005F00000F088F80F2000F007F800F019F800204C
:1006000010BD0000003C024070B504460748006879
:100610004FF47A71B0FBF1F5284600F021FC00227E
:100620002146501E00F02FF8002070BDC8010020A8
:100630007047000000BF00F01F0201219140034AF3
:10064000430942F8231000BF7047000080E200E039
:1006500000BF00F01F0201219140034A430942F804
:10066000231000BF7047000080E100E000BF00F0F1
:100670001F02012191404209920002F1E022C2F8DA
:10068000001100BF70472DE9F05F80460D46164609
:10069000002700F0C5FF074639462A46334601F0D9
:1006A0000700C0F1070ABAF1040F02D94FF0040A9B
:1006B00001E0C0F1070AD14600F1040ABAF1070FC0
:1006C00002D24FF0000A01E0A0F1030AD4464FF035
:1006D000010A0AFA09FAAAF1010A0AEA020A0AFA5E
:1006E0000CFA4FF0010B0BFA0CFBABF1010B0BEA10
:1006F000030B4AEA0B042146404600F099FFBDE88F
:10070000F09F000000BF00F00702064B19684FF68B
:10071000FF031940044B0B4343EA0221014B1960CC
:1007200000BF70470CED00E00000FA0570B504460C
:100730000D4600266D48006800F00F00A84209D25F
:100740006A490D700846006800F00F00A84201D009
:10075000012070BD207800F00200022807D1644813
:10076000006820F0F000A168084361490860207823
:1007700000F00100002877D06068012807D15C48AC
:1007800008380068C0F34040B8B90120E1E760686C
:10079000022802D06068032807D15548083800684D
:1007A000C0F3406048B90120D3E7514808380068D9
:1007B000C0F3400008B90120CBE74D48006820F0A5
:1007C0000300616808434A490860FFF795FE064642
:1007D0006068012810D108E0FFF78EFE801B41F20F
:1007E0008831884201D90320B3E74148006800F00E
:1007F0000C000428F0D137E06068022810D108E02E
:10080000FFF77AFE801B41F28831884201D903202C
:100810009FE73748006800F00C000828F0D123E07B
:100820006068032810D108E0FFF766FE801B41F2E4
:100830008831884201D903208BE72D48006800F0F9
:100840000C000C28F0D10FE008E0FFF755FE801BEC
:1008500041F28831884201D903207AE724480068B0
:1008600000F00C000028F0D12048006800F00F00D4
:10087000A84209D91D490D700846006800F00F0014
:10088000A84201D0012064E7207800F00400042889
:1008900007D11748006820F4E050E1680843144984
:1008A0000860207800F00800082808D11048006887
:1008B00020F46040216940EAC1000D49086000F061
:1008C0004FF80B49096801F0F001F02292FAA2F208
:1008D000B2FA82F2D140074A515CC840064908602A
:1008E0000F20FFF791FE002033E70000003C02409C
:1008F0000838024080950008C801002001480068BF
:1009000070470000C801002000B5FFF7F7FF074956
:10091000096801F4E0514FF4E05292FAA2F2B2FAFF
:1009200082F2D140024A515CC84000BD0838024002
:100930009095000800B5FFF7E1FF0749096801F449
:1009400060414FF4604292FAA2F2B2FA82F2D140D0
:10095000024A515CC84000BD08380240909500082A
:1009600070B50021002200230020274C246804F0E9
:100970000C0424B1042C04D0082C41D103E02348FA
:1009800040E023483EE0204C241F246804F03F014F
:100990001D4C241F246804F4800484B11C4CB4FB57
:1009A000F1F5194C241F246847F6C076344096FAB6
:1009B000A6F6B6FA86F6F44005FB04F20FE0134CF7
:1009C000B4FBF1F5104C241F246847F6C076344080
:1009D00096FAA6F6B6FA86F6F44005FB04F20A4C3F
:1009E000241F246804F440344FF4403595FAA5F5EB
:1009F000B5FA85F5EC40641C6300B2FBF3F001E04E
:100A0000024800BF00BF70BD083802400024F40057
:100A100000127A0038B504460025207800F0010065
:100A2000002874D0F748006800F00C0004280DD0AE
:100A3000F448006800F00C00082813D1F148001FAA
:100A4000006800F48000B0F5800F0BD1ED48083845
:100A50000068C0F34040002859D06068002856D193
:100A6000012038BD00BF6068B0F5803F08D1E5487F
:100A70000838006840F48030E249083908601EE018
:100A80006068B0F5A02F0DD1DE480838006840F44A
:100A90008020DC49083908600846006840F480304E
:100AA00008600CE0D7480838006820F48030D54949
:100AB000083908600846006820F48020086000BFFC
:100AC000606890B1FFF718FD054606E0FFF714FDDA
:100AD000401B642801D90320C3E7CA4808380068CE
:100AE000C0F340400028F1D011E0FFF705FD0546B6
:100AF00006E0FFF701FD401B642801D90320B0E7A1
:100B0000C04808380068C0F340400028F1D1207880
:100B100000F00200022869D1BA48006800F00C0019
:100B200058B1B848006800F00C00082821D1B54839
:100B3000001F006800F48000D8B9B2480838006887
:100B4000C0F3400020B1E068012801D0012088E70F
:100B5000AC480838006820F0F800F82292FAA2F2B7
:100B6000B2FA82F2216991400843A6490839086027
:100B70003CE0E06828B30120A3490860FFF7BCFC13
:100B8000054606E0FFF7B8FC401B022801D9032008
:100B900067E79C4808380068C0F340000028F1D09F
:100BA00098480838006820F0F800F82292FAA2F27B
:100BB000B2FA82F2216991400843924908390860EB
:100BC00014E0002090490860FFF796FC054606E017
:100BD000FFF792FC401B022801D9032041E7894816
:100BE00008380068C0F340000028F1D1207800F0F8
:100BF000080008282CD16069A8B101208349086049
:100C0000FFF77AFC054606E0FFF776FC401B02285A
:100C100001D9032025E77B486C300068C0F3400011
:100C20000028F1D014E0002078490860FFF764FC48
:100C3000054606E0FFF760FC401B022801D90320AF
:100C40000FE770486C300068C0F340000028F1D115
:100C5000207800F0040004287FD100BF002000901D
:100C600068483830006840F0805066493831086084
:100C70000846006800F08050009000BF00BF644844
:100C8000006840F4807062490860FFF735FC054653
:100C900006E0FFF731FC401B022801D90320E0E603
:100CA0005B48006800F480700028F2D000BFA068A4
:100CB000012808D153486830006840F001005149CC
:100CC000683108601DE0A06805280DD14D486830E6
:100CD000006840F004004B4968310860084600682D
:100CE00040F0010008600CE046486830006820F0E1
:100CF00001004449683108600846006820F004009B
:100D0000086000BFA068A0B1FFF7F6FB054608E049
:100D1000FFF7F2FB401B41F28831884201D90320E2
:100D20009FE6384868300068C0F340000028EFD0E4
:100D300013E0FFF7E1FB054608E0FFF7DDFB401B92
:100D400041F28831884201D903208AE62D48683073
:100D50000068C0F340000028EFD1A069F0B3294833
:100D6000006800F00C00082871D0A069022858D152
:100D7000002025490866FFF7BFFB054606E0FFF7A0
:100D8000BBFB401B022801D903206AE61D48083836
:100D90000068C0F340600028F1D1D4E9070108439E
:100DA00047F6C07292FAA2F2B2FA82F2616A9140F8
:100DB00008430122A16AC2EB51014FF4403292FA7A
:100DC000A2F2B2FA82F2914008434FF0706292FAB6
:100DD000A2F2B2FA82F2E16A914000E039E00843FF
:100DE0000849091F0860012007490866FFF784FBCE
:100DF00005460FE0FFF780FB401B02280AD90320BD
:100E00002FE600000838024000004742800E4742AB
:100E10000070004010480068C0F340600028E9D02E
:100E200017E000200D490866FFF766FB054606E05F
:100E3000FFF762FB401B022801D9032011E6064898
:100E40000068C0F340600028F2D102E0FFE7012013
:100E500007E6002005E60000003802400000474297
:100E600070B504462546681EB0F1807F01D301208D
:100E70000FE0681E4FF0E02148610F214FF0FF3076
:100E800000F0D6FB00204FF0E021886107200861C8
:100E9000002070BD10B504460CB9012010BDA0693A
:100EA00000B100E000BF94F8390028B9002084F8B0
:100EB0003800204600F027F8242084F83900206804
:100EC000C06820F400502168C860204601F022F874
:100ED0002068006920F4904021680861206840691A
:100EE00020F02A00216848612068C06840F4005062
:100EF0002168C8600020E063202084F8390084F86D
:100F00003A000020CAE7704700BFFEE702490968BF
:100F10000143014A116070471038024002490968D4
:100F20008143014A11607047103802400249096844
:100F30000143014A116070472438024002490968A0
:100F40008143014A1160704724380240C16841F46E
:100F50008061C1607047C16841F40061C160704741
:100F60002DE9F04104460D46724E012715F5803FEC
:100F700018D170481038844206D17805FFF7C6FFB3
:100F80007805FFF7CBFFD2E06B48844208D14FF4DD
:100F90008000FFF7BBFF4FF48000FFF7BFFFC6E004
:100FA0000027C4E000BF6548405D205820F00100E4
:100FB0006249495D605000BF5E481038844202D1EA
:100FC0000DB95C4877E05C48844203D115B95A48B2
:100FD000103070E057481038844204D1012D02D1FE
:100FE0005448183067E05448844204D1012D02D19E
:100FF000514828305FE04F481038844204D1022D18
:1010000002D14C48303056E04B48844204D1022D86
:1010100002D1494840304EE046481038844204D15D
:10102000032D02D14348483045E04348844204D16F
:10103000032D02D1404858303DE03E4810388442EC
:1010400004D1042D02D13B48603034E03A48844258
:1010500004D1042D02D1384870302CE035481038C6
:10106000844204D1052D02D13248783023E0324841
:10107000844204D1052D02D12F4888301BE02D4831
:101080001038844204D1062D02D12A48903012E053
:101090002948844204D1062D02D12748A0300AE015
:1010A00024481038844204D1072D02D12148A830A9
:1010B00001E02148B8300646002030607060B06022
:1010C000F06030612120706100222946204600F046
:1010D000B3F815B93F20A06029E0012D03D14FF4EA
:1010E0007460A06023E0022D03D14FF47C10A06057
:1010F0001DE0032D03D14FF07460A06017E0042DB4
:1011000002D13F20E06012E0052D03D14FF474605E
:10111000E0600CE0062D03D14FF47C10E06006E0A7
:10112000072D03D14FF07460E06000E000273846DF
:10113000BDE8F08110600240006402409C8100081C
:1011400002460348405C1044406880B2704700008B
:101150007095000870B504460D461646F06A00B159
:1011600000BFD6E90212114332691143726911437B
:10117000B2691143F2691143B26A41EA0200294996
:10118000495D6158284A11400143264A525DA150E9
:1011900000BFF06A30B3D6E90B01224A525D224407
:1011A000526922F0070240EA01031A431D4B5B5DBE
:1011B00023445A6100BF706B1A49495D615821F0A0
:1011C000C0710143174A525DA15000BFB06B154971
:1011D000495D615821F4C0010143124A525DA1509A
:1011E00000BF00BF70680F49495D2144C86000BF5F
:1011F00030680C49495D2144886000BF306A094964
:10120000495D214449686FF30F010143054A525D6E
:101210002244516000BF29462046726A00F00CF853
:10122000012070BD9C8100081F80FCFF01464868BA
:10123000C0F3C0207047000010B5054B5B5CC3587D
:1012400023F060631343024C645C035110BD000043
:101250009C810008F0B503460A460024002110686E
:1012600090FAA0F0B0FA80F47FE00125A540106864
:1012700000EA0501002977D050681D6891FAA1F6AF
:10128000B6FA86F677000326BE40B54391FAA1F67A
:10129000B6FA86F6760000FA06F635431D6000BF02
:1012A0005068012802D05068022814D190689D68C7
:1012B00091FAA1F6B6FA86F677000326BE40B5434A
:1012C00091FAA1F6B6FA86F6760000FA06F63543EC
:1012D0009D6000BF00BF1069DD6891FAA1F6B6FA03
:1012E00086F677000326BE40B54391FAA1F6B6FA1A
:1012F00086F6760000FA06F63543DD6000BF5068DA
:10130000022831D191FAA1F0B0FA80F0082814D265
:1013100050691D6A91FAA1F6B6FA86F6B7000F2653
:10132000BE40B54391FAA1F6B6FA86F6B60000FAC9
:1013300006F635431D6200BF16E050695D6A0E0A6D
:1013400096FAA6F6B6FA86F6B7000F26BE40B54363
:101350000E0A96FAA6F6B6FA86F6B60000FA06F671
:1013600035435D6200BF00BF641C1068E040002888
:101370007FF47BAF5068012802D05068022809D161
:10138000D56810685E68864300FB05F73E435E60E3
:1013900000BF00BF0120F0BD10B5044600F090F979
:1013A0002060206800F058F96060606800F064F91F
:1013B000A060606800F072F9E06010BD024800684B
:1013C000C0F38810704700000438024070B504462E
:1013D00001251448844206D11020FFF7A7FD1020F4
:1013E000FFF7ACFD1CE0104884420ED14FF40030F2
:1013F0000E49096801430D4A116000BF00BF114644
:1014000009688143116000BF0AE00948844206D19F
:101410002020FFF78BFD2020FFF790FD00E0002546
:10142000284670BD001001400044004020380240B2
:10143000001401402DE9FF4104460D460027002617
:10144000204600F043F8002835D1E9686868084371
:1014500029690843A9690843E16849F20C6291438C
:101460000843E060A868216921F4405101432161EB
:1014700000BF6869616921F440710143616100BF87
:101480006846FFF789FF0E48844201D1039E08E0B9
:101490000C48844201D1029E03E00B48844200D1F3
:1014A000039E46B1286830B10127314620462B689B
:1014B000AA6900F010F8384604B0BDE8F0810000D9
:1014C0000010014000440040001401400146C8687B
:1014D000C0F340307047F0B5B2F5004F4ED101EB8C
:1014E000C10404EB01145D00B4FBF5F46425B4FB06
:1014F000F5F4250101EBC10404EB01145E00B4FB1B
:10150000F6F401EBC10606EB01165F00B6FBF7F639
:101510006427B6FBF7F606EBC60707EB0616A4EB47
:101520008604322606EBC4046426B4FBF6F404F009
:10153000F80405EB440501EBC10404EB01145E0063
:10154000B4FBF6F401EBC10606EB01165F00B6FB37
:10155000F7F66427B6FBF7F606EBC60707EB0616A9
:10156000A4EB8604322606EBC4046426B4FBF6F42E
:1015700004F007042C44A4B284604CE001EBC104E5
:1015800004EB01149D00B4FBF5F401EBC10505EB80
:1015900001159E00B5FBF6F56426B5FBF6F505EBE7
:1015A000C50606EB0515A4EB8504322505EB0414EE
:1015B0006425B4FBF5F404F0F00401EBC10505EB80
:1015C00001159E00B5FBF6F56426B5FBF6F504EBB8
:1015D000051501EBC10404EB01149E00B4FBF6F405
:1015E00001EBC10606EB01169F00B6FBF7F6642778
:1015F000B6FBF7F606EBC60707EB0616A4EB860468
:10160000322606EB04146426B4FBF6F404F00F044F
:101610002C44A4B28460F0BD00BFFEE77047000018
:1016200002480068C0F30220704700000CED00E0A3
:1016300010B5002807DA0A07140E054A00F00F0358
:101640001B1FD45403E00A07130E024A135410BDA3
:1016500018ED00E000E400E0014600BF0448006827
:1016600000F0F0000009034A125C21FA02F0704712
:101670000838024080950008014600BF0548006810
:1016800000F4E050044A02EB9020027821FA02F0C4
:10169000704700000838024090950008014600BFDE
:1016A0000548006800F46040044A02EB50300278BC
:1016B00021FA02F0704700000838024090950008B7
:1016C00010B5002400BF0C48006800F00C0020B1E9
:1016D000042804D0082809D103E0084C08E0084C8D
:1016E00006E0082000F00EF8044601E0034C00BFBD
:1016F00000BF204610BD0000083802400024F4005E
:1017000000127A002DE9F04104460025002600274A
:1017100000BF1548006800F4800006461EB1B6F50B
:10172000800F04D101E0114D03E0114D01E00F4D98
:1017300000BF00BF082C14D100BF0B48006800F0A8
:101740003F00B5FBF0F8FFF739FE08FB00F806484C
:10175000006800F44030012101EB10404000B8FB6C
:10176000F0F73846BDE8F081043802400024F40068
:1017700000127A0010B5FEF7C5FE10BD14480068CF
:1017800040F47000124908601248006840F00100FF
:101790001049086000200F49083108600D480068B2
:1017A0000D4908400B4908600C48091D0860081FD6
:1017B000006820F48020091F0860002005490C31D2
:1017C00008604FF0006002498039086070470000EF
:1017D00088ED00E000380240FFFFF6FE10300024E4
:1017E00030B5014609B9002030BD4A688B689A427D
:1017F00000D10C68934200D99C1A9A4202D9D51A9A
:101800000868441B601EEFE72DE9F047044689464F
:1018100015464FF0000804B115B90020BDE8F08767
:10182000D4E90010884201D3002060602046FFF711
:10183000D7FF0746AF4203D20FB90020EEE73D467F
:10184000D4E90001461AAE4200D92E466268E1682A
:10185000881832464946FEF719FDB04460683044A6
:101860006060AD1B55B1002060606368E268D0180D
:1018700009EB08012A46FEF709FD6560D4E900106E
:10188000884201D30020606008EB0500C6E710B570
:1018900005F086F810BD00000F48006820F0807049
:1018A0000D4A10601046006840F0807010600B48D0
:1018B000006820F00100094A10601046006840F0FE
:1018C00001001060002050601046416800BF00BF5A
:1018D00002484068401A7047FCED00E0001000E04C
:1018E0001CB50020012103460246CDE90010490342
:1018F000014800F085F81CBD000802401CB503201B
:1019000000210B460122CDE900102021034800F000
:1019100077F84FF40010014988611CBD00000240B7
:1019200001464FF40030081AC0F38F2070470000C2
:1019300000B502461046FFF7F3FF012101FA00F05F
:101940000249096808430149086000BD3038024077
:101950002DE9F04304460E461546DDE90789204689
:10196000FFF7DEFFC7B2002243E001209040304085
:1019700000B93CE0214830F81700012191400843AC
:101980001E4921F81700E0684FEA420C032101FAD2
:101990000CF18843510008FA01F10843E060206827
:1019A0004FEA420C032101FA0CF18843510005FA79
:1019B00001F108432060012D01D0022D16D161688C
:1019C0000120904080B221EA000003FA02F189B2BE
:1019D00008436060A0684FEA420C032101FA0CF151
:1019E0008843510009FA01F10843A06000BF501C70
:1019F000C2B2102AB9DBBDE8F0830000E801002084
:101A00002DE9FC4305460C4616461F46DDE90989CB
:101A10000CB9BDE8FC832846FFF78AFF3B463246F7
:101A200021462846CDE90089FFF792FF00BFF0E785
:101A30002DE9FC4705460E4617469846DDE90A9A09
:101A40000EB9BDE8FC872846FFF772FF00241AE0B4
:101A50000120A040304000B914E0E10805F1200069
:101A600050F821006107CA0E0F2191408843610799
:101A7000C90E0AFA01F10843E20805F1200141F814
:101A8000220000BF641C102CE2D33B4602223146E8
:101A90002846CDE90089FFF75BFF00BFD1E70000D2
:101AA00000B593B000BF002001902848006840F0C6
:101AB0008050264908600846006800F08050019078
:101AC00000BF00BF00BF002001902148006840F423
:101AD00040401F4908600846006800F440400190FB
:101AE00000BF00BF01200290000403900020059079
:101AF0004FF4800109910220089008210A914FF4C7
:101B0000C8710B9104210C9107210D9102A8FEF7D9
:101B100081FF10B1012013B000BD02200F90002002
:101B2000109007200E900E9840F008000E904FF491
:101B3000805011900020129006210EA8FEF7F6FDAD
:101B400008B10120E7E70020E5E700004038024047
:101B5000007000401CB504464CB907200321012346
:101B60000022CDE9001049021548FFF761FF012C62
:101B700009D10720032101230022CDE90010C02153
:101B80001048FFF755FF022C13D107200321012332
:101B90000022CDE9001059020948FFF749FF07204C
:101BA000032101230022CDE9001080210548FFF721
:101BB0003FFF032C03D10721034800F093F91CBD1C
:101BC0000000024000040240001001401CB5044621
:101BD0004CB90720032101230022CDE900100C217C
:101BE0000A48FFF725FF012C09D107200321012313
:101BF0000022CDE9001060210548FFF719FF032CF2
:101C000003D10721034800F06DF91CBD000002401C
:101C1000000C0240004400401CB504464CB90820AA
:101C2000032101230022CDE90010C0210448FFF761
:101C3000FFFE032C03D10821024800F053F91CBD1C
:101C4000000802400014014038B505460C46234800
:101C5000056000BF002000902048006800680090E8
:101C60001E4800684068009000BF00BF00BF002011
:101C700000901A48006800680090184800684068A2
:101C8000009000BF00BF00BF002000901348006814
:101C900000680090114800684068009000BF00BFD5
:101CA00000BF002000900D480068006800900B48BD
:101CB00000684068009000BF00BF00BF0020009097
:101CC000064800680068009004480068406800907A
:101CD00000BF00BF2046FEF7ADFC38BD6402002007
:101CE0000146064A914200D10020054A914200D1A6
:101CF0000120044A914200D10620704700100140A3
:101D000000440040001401402DE9F04F91B004461A
:101D10000D4616461F46DDE91BABDDF868904D48C1
:101D2000844221D100BF002000904B48006840F061
:101D30001000494908600846006800F01000009053
:101D400000BF00BF44482038006840F010004249FE
:101D5000203908600846006820F010000860284616
:101D6000FFF7F8FE4FF025083C48844223D100BF1E
:101D7000002000903848001F006840F400303649C9
:101D8000091F08600846006800F40030009000BF9A
:101D900000BF31482438006840F400302E4924390F
:101DA00008600846006820F4003008602846FFF705
:101DB0000DFF4FF026082A48844221D100BF0020A1
:101DC00000902548006840F020002349086008463C
:101DD000006800F02000009000BF00BF1E482038BF
:101DE000006840F020001C4920390860084600685F
:101DF00020F0200008602846FFF70EFF4FF047084C
:101E0000019402960797CDF81890CDF814A0CDF85C
:101E100010B01D980390002108914046FEF718FC71
:101E20002046FFF75DFF0246062100904046FEF780
:101E30002AFC4046FEF71AFC4046FEF7FBFB01A8D1
:101E4000FFF728F8E06840F02000E06011B0BDE83E
:101E5000F08F000000100140443802400044004070
:101E60000014014013B50446012201A92046FFF7E2
:101E7000CBFC1CBD7FB504460D4616461648844271
:101E80000BD100200C23CDE90030029003463246EE
:101E9000294603902046FFF737FF104884420BD1B4
:101EA00000200C23CDE9003002900346324629463B
:101EB00003902046FFF728FF094884420BD10020F9
:101EC0000C23CDE9003002900346324629460390A8
:101ED0002046FFF719FF7FBD00100140004400407D
:101EE00000140140704710B50EE000BF036803F016
:101EF0008003002BFAD011F8013B436000BF036858
:101F000003F08003002BFAD0131EA2F10104A2B249
:101F1000EBD110BD2DE9F04104460025206805698C
:101F200025F44055E0680543206805612068C568D0
:101F300049F20C6085432169A06808436169084340
:101F4000E169084305432068C5602068456925F4B8
:101F50004075A069054320684561E069B0F5004F10
:101F60007ED1C4492068884203D0C3492068884292
:101F70005DD1FEF7DFFC00EBC00101EB00106168F2
:101F80004900B0FBF1F06421B0FBF1F00601FEF76F
:101F9000D1FC00EBC00101EB001061684900B0FB0F
:101FA000F1F7FEF7C7FC00EBC00101EB0010616820
:101FB0004900B0FBF1F06421B0FBF1F000EBC0018F
:101FC00001EB0010A7EB8000322101EBC00064217F
:101FD000B0FBF1F000F0F80006EB4006FEF7AAFCBB
:101FE00000EBC00101EB001061684900B0FBF1F7A4
:101FF000FEF7A0FC00EBC00101EB00106168490096
:10200000B0FBF1F06421B0FBF1F000EBC00101EB9B
:102010000010A7EB8000322101EBC0006421B0FB6F
:10202000F1F000F0070030442168886020E1FEF7FD
:102030006BFC00EBC00101EB001061684900B0FBD4
:10204000F1F06421B0FBF1F00601FEF75DFC00EB5E
:10205000C00101EB001061684900B0FBF1F700E03E
:1020600045E0FEF751FC00EBC00101EB0010616898
:102070004900B0FBF1F06421B0FBF1F000EBC001CE
:1020800001EB0010A7EB8000322101EBC0006421BE
:10209000B0FBF1F000F0F80006EB4006FEF734FC70
:1020A00000EBC00101EB001061684900B0FBF1F7E3
:1020B000FEF72AFC00EBC00101EB0010616849004B
:1020C000B0FBF1F06421B0FBF1F000EBC00101EBDB
:1020D0000010A7EB8000322101EBC0006421B0FBAF
:1020E000F1F000F00700304421688860C0E06149E9
:1020F0002068884203D06049206888425CD1FEF79E
:1021000019FC00EBC00101EB001061688900B0FB15
:10211000F1F6FEF70FFC00EBC00101EB0010616867
:102120008900B0FBF1F06421B0FBF1F000EBC001DD
:1021300001EB0010A6EB8000322101EB00106421BE
:10214000B0FBF1F000F0F006FEF7F4FB00EBC0018D
:1021500001EB001061688900B0FBF1F06421B0FB75
:10216000F1F006EB0016FEF7E5FB00EBC00101EB1A
:10217000001061688900B0FBF1F7FEF7DBFB00EBB4
:10218000C00101EB001061688900B0FBF1F064212F
:10219000B0FBF1F000EBC00101EB0010A7EB8000F9
:1021A000322101EB00106421B0FBF1F000F00F00D0
:1021B0003044216888605BE0FEF7A6FB00EBC001BD
:1021C00001EB001061688900B0FBF1F6FEF79CFBA3
:1021D00000EBC00101EB001061688900B0FBF1F079
:1021E0006421B0FBF1F000EBC00101EB0010A6EBA5
:1021F0008000322101EB00106421B0FBF1F000F00F
:10220000F006FEF781FB00EBC00101EB00106168F6
:102210008900B0FBF1F06421B0FBF1F006EB001691
:10222000FEF772FB00EBC00101EB00106168890052
:10223000B0FBF1F7FEF768FB00EBC00101EB00100B
:1022400061688900B0FBF1F06421B0FBF1F000EBB4
:10225000C00101EB0010A7EB8000322101EB001060
:102260006421B0FBF1F000F00F0030442168886079
:10227000BDE8F081001001400014014038B500BFF6
:1022800014480068C0F3001018B31348007800B376
:1022900000BF10480068009000BF0E4840680090E2
:1022A00000BF00BF05210D48FEF74AFFC0F5806062
:1022B00084B20B480088201A002808DD084A1288DA
:1022C000A11A084A064B1B88D01801F011F90448DE
:1022D000048038BD00100140C701002000640240A6
:1022E000C4010020A572002010B50848006800F065
:1022F000200030B10548001D0068C1B20448FFF756
:10230000B1FD26210148FFF79FFC10BD00440040AD
:102310002000002010B50848006800F0200030B10F
:102320000548001D0068C1B20448FFF79BFD472126
:102330000148FFF789FC10BD00140140380000205F
:1023400000BFFEE70FB4054B10B503A9044A02987D
:1023500000F02CF810BC5DF814FB0000456000088C
:10236000CC0100200FB4084B10B504A902AA0398B1
:1023700000F01CF8044602A9002000F048FA2046AC
:1023800010BC5DF814FB00000F28000802E008C82C
:10239000121F08C1002AFAD170477047002001E0DF
:1023A00001C1121F002AFBD1704700002DE9FF4F29
:1023B0008DB00F460546002606E025280BD0DDE946
:1023C0000F1290476D1C761C28780028F5D111B0AB
:1023D0003046BDE8F08F0024A246A1460122EC4918
:1023E00000E0044315F8013F203B02FA03F00842E5
:1023F000F7D128782A2810D06FF02F022878A0F182
:102400003001092914D80AEB8A0102EB410144F09A
:10241000020400EB010A6D1CF0E701CF5FEA000A3D
:1024200003D544F40054CAF1000A44F002046D1CC0
:1024300028782E2817D115F8010F44F004042A2813
:102440000ED06FF02F022878A0F1300109290AD8A8
:1024500009EB890102EB410100EB01096D1CF2E778
:1024600057F8049B6D1C28786C280FD006DC4C288C
:1024700017D068280DD06A2814D104E0742810D031
:102480007A280FD10DE044F400140AE044F48014DB
:1024900001E044F440146978814202D104F58014CB
:1024A0006D1C6D1C2A786E2A1FD00CDC632A31D07B
:1024B00004DC002A8BD0582A11D1A3E0642A68D00A
:1024C000692A0CD165E0732A2ED004DC6F2A73D000
:1024D000702A04D19BE0752A6FD0782A6ED01046FE
:1024E000DDE90F129047761C50E1C4F30250022838
:1024F00006D0032809D0042801CF09D0066045E1A1
:1025000001CFF117C0E9006140E101CF06803DE154
:1025100006703BE117F8040B8DF8000000208DF8E1
:102520000100EB46012003E057F804BB4FF0FF30F9
:1025300061074FF0000102D40DE008F10101884667
:1025400049450FDA8045F8DB1BF808100029F4D163
:1025500008E008F1010188468142FADB1BF8081007
:102560000029F6D1DDE90F23AAEB080081462146B8
:1025700000F036F9304400EB080604E0DDE90F1204
:102580001BF8010B9047B8F10108F7D221464846E5
:10259000F7E00A21C4F302534FF0000B0891022B1D
:1025A00004D001CFC117032B09D00AE0FF1D27F08B
:1025B0000707F7E8020108E032E01FE020E000B280
:1025C000C117042B01D140B2C117031E71F10003E2
:1025D00007DA4FF0000CD0EB0C006CEB01012D235F
:1025E00002E0230504D52B238DF82430012303E0DA
:1025F000E30701D02023F7E7984658E00A2110E0CE
:1026000010210EE010204FF0000B08900CE010217C
:102610004FF0000B44F004044FF00809089103E068
:1026200008214FF0000B0891C4F30253022B04D091
:1026300001CF0021032B06D006E0FF1D27F007077E
:10264000F7E8020103E080B2042B00D1C0B24FF0E2
:10265000000823072BD5702A07D0DDF820C08CF0A6
:10266000100C5CEA0B0C05D00EE040238DF82430F2
:10267000012308E050EA010306D030238DF824300E
:102680008DF8252002239846DDF820C08CF0080C38
:102690005CEA0B0C0BD150EA010301D1630706D5AC
:1026A00030238DF824304FF00108A9F10109582A90
:1026B00004D038A20B9208AA0A920BE03AA2F9E7DA
:1026C0005B46089AFDF73CFE0B9B9B5C0A9A521EE8
:1026D0000A92137050EA0102F2D10A98ADEB0000A1
:1026E00000F1200B600702D524F4803401E04FF0A4
:1026F0000109D94502DDA9EB0B0000E0002000EB49
:102700000B0141440890AAEB010AE00306D4DDE97D
:102710000F232146504600F063F806444FF00009AD
:1027200008E009A911F80900DDE90F12904709F145
:102730000109761CC145F4DBE0030CD5DDE90F236C
:102740002146504600F04CF8064404E0DDE90F1243
:1027500030209047761C0899481E08900029F5DC27
:1027600008E00A980A990078491C0A91DDE90F12DD
:102770009047761CBBF10001ABF1010BF1DC214667
:102780005046DDE90F2300F019F806446D1C1BE6E6
:102790000928010030313233343536373839616237
:1027A00063646566000000003031323334353637FB
:1027B0003839414243444546000000002DE9F041CC
:1027C000044600251E461746880404D405E0394611
:1027D0002020B0476D1C641EF9D52846BDE8F08165
:1027E0002DE9F041044600251E469046C80301D558
:1027F000302700E02027880404D505E0414638460C
:10280000B0476D1C641EF9D52846BDE8F0810A6802
:10281000531C0B601070704770B504460D4622467D
:1028200002A12846FFF79EFD70BD000025303258FA
:10283000000000002DE9F843804634A0FFF782FD38
:102840003AA0FFF77FFD02E0012003F041FF3F487F
:102850000068C0F3403080F001000028F4D002E0AE
:10286000012003F035FF39480068C0F3403080F0A4
:1028700001000028F4D101F099F80546002D43D05D
:1028800041E0502232A1284600F08EFF0446002C81
:1028900032D133A0FFF756FD3A223C49284601F0D9
:1028A0003FF90446002C1ED139A0FFF74BFD03F081
:1028B00020FF064600BF6946284601F0DBF80446C3
:1028C000082C03D13FA0FFF73DFD03E0009801F085
:1028D000ADF9F0E700BF03F00CFF871B394646A0B7
:1028E000FFF730FD02E04BA0FFF72CFD082C06D0CF
:1028F000284600F019FF02E04EA0FFF723FD4FF439
:102900007A7003F0E5FEBCE7BDE8F883415049204A
:10291000636C69656E743A207468726561642073D3
:102920007461727465640D0A000000005761697477
:10293000696E6720666972737420627574746F6E55
:10294000207072657373210D0A00000010080240A8
:102950003139322E3136382E302E323031000000EF
:1029600041504920636C69656E743A20636F6E6EE6
:102970006563746564212057726974696E672064A9
:102980006174612E2E2E0D0A00000000E081000807
:1029900041504920636C69656E743A2064617461CA
:1029A0002077657265207772697474656E2C207764
:1029B000616974696E6720726573706F6E73650DFF
:1029C0000A00000041504920636C69656E743A202A
:1029D000636F6E6E656374696F6E20636C6F736591
:1029E000642062792072656D6F74652073657276FC
:1029F0006572210D0A000000546F74616C207265CD
:102A000063656976652074696D653A202564206D7B
:102A1000730D0A0041504920636C69656E743A2059
:102A200064617461207772697465206572726F7277
:102A3000210D0A0041504920636C69656E743A208B
:102A400063616E6E6F7420636F6E6E656374210DCB
:102A50000A00000010B59EB0044600BF002001909F
:102A60008448006840F01000824908600846006809
:102A700000F01000019000BF00BF00BF00200190D7
:102A80007C481438006840F001007A491439086025
:102A90000846006800F00100019000BF00BF00BFC1
:102AA000002001900846006840F0010008600846D8
:102AB000006800F00100019000BF00BF00BF0020CF
:102AC00001900846006840F0010008600846006870
:102AD00000F00100019000BF00BF00BF0020019086
:102AE0000846006840F4800008600846006800F46A
:102AF0008000019000BF00BF0020149001201590BD
:102B000003201390012012901190119011A95A489E
:102B1000FEF7A0FB02201290072016904FF40070E1
:102B2000119011A95448FEF795FB072016904FF419
:102B30008060119011A95048FEF78CFB4F48FEF7BA
:102B400045FC1794002018901C904FF400401D90F5
:102B500000201A9019900C201B9017A94748FEF7E7
:102B600069FC00BF4548C06840F400504349C86054
:102B700000BF00BF0846406940F04000486100BF08
:102B800000BF0846C06840F01000C86000BF0020C9
:102B90003B49087005213B48FEF7E2F94FF0006021
:102BA0000B903648001D0290374803900020049097
:102BB0004FF480700590002006904FF480600790DD
:102BC0000020089009904FF480600A9000200C903B
:102BD0000D900E900F90109002AA05212948FEF743
:102BE000B9FA28480521294A525C825842F0080265
:102BF000264B5B5CC25000BF00BF244A525C825827
:102C000042F01002214B5B5CC25000BF00BF1F4A64
:102C1000525C825842F001021C4B5B5CC25000BF08
:102C2000002201214420FDF72EFD4420FDF71EFD6A
:102C3000002017490880012011490870012211461F
:102C40002520FDF720FD2520FDF710FD1148007817
:102C500068B901200104084A916100BF03F038FD02
:102C600001200549886100BFC82003F031FD1EB076
:102C700010BD000044380240000002400010014036
:102C8000C701002000640240A57200207095000872
:102C9000C4010020C601002001460020704700004A
:102CA0002DE9F04706460F4690461D46DDF8209078
:102CB0000DB10020286000BF342000F05DFC044608
:102CC00034B934210BA0FFF73DFB0320BDE8F087AA
:102CD00034212046FDF7F3FA00BF1720207066610B
:102CE000A761C4F81C8065624A460A49204604F080
:102CF00021FAEBE74572726F7220616C6C6F636151
:102D000074696E673A2025642062797465730D0AD0
:102D100000000000B543000830B5014609B90020A5
:102D200030BD4A688B689A4201D10C6806E0934234
:102D300001D99C1A02E0D51A0868441B601EEFE70F
:102D400030B5014609B9002030BD4A688B689A4207
:102D500001D1002406E09A4201D9D41A02E09D1A5A
:102D60000868441B2046EFE770B504460D460CB9D1
:102D7000002070BD14212046FDF7A1FA25602846E9
:102D800000F0FAFBE060E06808B90020F1E70120FC
:102D9000EFE72DE9F047044689461546CA464FF04D
:102DA000000804B115B90020BDE8F0872168A068CB
:102DB000884201D30020A0602046FFF7C1FF0746EC
:102DC000AF4203D20FB90020EEE73D46A16820686C
:102DD000461AAE4200D92E46D4E902208118324666
:102DE0005046FDF753FAB044A0683044A060AD1BD4
:102DF00035B10AEB08002A46E168FDF747FAA560FD
:102E00002168A068884201D30020A06008EB05007B
:102E1000CAE770B504460D462046FFF791FF064607
:102E2000B54200D93546A0682844A0602168A06852
:102E3000884203D32168A068401AA060284670BD6C
:102E40002DE9F0470446894615464FF00008CA466A
:102E500004B115B90020BDE8F087D4E9001088421C
:102E600001D3002060602046FFF756FF0746AF42BF
:102E700003D20FB90020EEE73D46D4E90001461A1F
:102E8000AE4200D92E466268E16888183246514643
:102E9000FDF7FCF9B044606830446060AD1B35B1AB
:102EA0000AEB08012A46E068FDF7F0F96560D4E90D
:102EB0000010884201D30020606008EB0500CAE7DB
:102EC00010B50446207828B900214FF4E13000F015
:102ED00001FF00E000BF00BF002010BD2DE9F04160
:102EE000064600273078012845D0042802D006285D
:102EF00071D161E07568284600F038F928B12C6975
:102F00000CB165602DE001272BE0284600F048F960
:102F1000002825D032480068002821D0002000F089
:102F200045FD0446D4B165602146284600F0F0F91D
:102F30002B480068083001F00DF968B12146284897
:102F40000068083001F021F958B900BF25A0FFF74B
:102F5000F9F900BF012704E0012702E0012700E0A2
:102F600001273FB10021284600F086F814B1204621
:102F700000F088FC31E0D6F8088075682C6954B1FF
:102F800004F10C0001F0E6F828B1414604F10C0010
:102F900001F0FBF838B900BF20A0FFF7D3F900BF5C
:102FA0000220BDE8F08100BFB068016826A0FFF7ED
:102FB000C9F900BF0120F4E775682C694CB104F130
:102FC0000C0001F0C7F820B12A4904F10C0001F00F
:102FD000DCF802E0FFE70320E3E700BF0020E0E7C2
:102FE000BC0100204E4554434F4E4E3A2043616E83
:102FF0006E6F7420707574207365727665722063CD
:103000006F6E6E656374696F6E20746F20616363A9
:10301000657074206D626F780D0A00004E45544350
:103020004F4E4E3A2049676E6F72696E67206D6F22
:103030007265206461746120666F722072656365D9
:103040006976650D0A0000004E4554434F4E4E3AD6
:10305000205772697474656E2025642062797465E6
:103060007320746F2072656365697665206D626F89
:10307000780D0A00B801002070B505460E4600BF65
:103080004DB900BF40F24F2210A115A0FFF75AF929
:1030900000BF042070BD00BF00BF342000F06CFAF8
:1030A00004462CB9342119A0FFF74CF90320F1E7AD
:1030B00034212046FDF703F900BF27202070656109
:1030C00032461A49204604F035F8E3E72E2E5C73A9
:1030D00072635C6573705C6573702E630000000042
:1030E00057726F6E6720706172616D65746572737F
:1030F000206F6E2066696C6520257320616E6420E8
:103100006C696E652025640D0A0000004572726FBF
:103110007220616C6C6F636174696E673A2025641C
:103120002062797465730D0A00000000B543000841
:1031300070B504464FF0FF352CB1204601F0A0FDDC
:1031400008B1607845B2284670BD70B504460025C8
:1031500054B1204601F094FD30B101F047F8207DD4
:1031600000F0010501F0B4F8284670BD70B50446C2
:1031700000259CB1204601F083FD78B101F036F8BE
:10318000207D00F0010028B1207DC0F3400008B18F
:10319000012000E00020054601F09AF8284670BDA5
:1031A00070B5044600259CB1204601F069FD78B158
:1031B00001F01CF8207D00F0010028B1207DC0F353
:1031C000400008B9012000E00020054601F080F829
:1031D000284670BD2DE9FE4307460C4615461E469F
:1031E000DDF8288023460022114638468DE860012C
:1031F00000F002F8BDE8FE832DE9F05F0546884641
:1032000091461E46DDE90B7BDDF828A000BF55B9CD
:1032100000BF4FF41A7225A129A0FFF793F800BF51
:103220000420BDE8F09F00BF00BF4EB900BF40F2D0
:1032300069221EA122A0FFF785F800BF0420F0E755
:1032400000BF00BFBAF1000F09D100BF40F26A22EF
:1032500016A11BA0FFF776F800BF0420E1E700BF2E
:103260000FB10020386000BF342000F085F904461B
:103270002CB934211DA0FFF765F80320D1E73421D4
:103280002046FDF71CF800BF2620207065612662ED
:10329000C4F818A0E761C4F82C80A4F830905A460E
:1032A0001A49204603F046FFBBE700002E2E5C7350
:1032B00072635C6573705C6573702E630000000060
:1032C00057726F6E6720706172616D65746572739D
:1032D000206F6E2066696C6520257320616E642006
:1032E0006C696E652025640D0A0000004572726FDE
:1032F0007220616C6C6F636174696E673A2025643B
:103300002062797465730D0A00000000B54300085F
:1033100070B504460D4600F069FF256100F0D8FF46
:10332000002070BD2DE9F05F05460E461746984611
:10333000DDE90BABDDF8289000BF342000F01CF96C
:10334000044634B934210FA0FEF7FCFF0320BDE88A
:10335000F09F34212046FCF7B2FF00BF24202070EC
:10336000232060706561A677A761A4F81C80C4F86B
:1033700024A0C4F820905A460A49204603F0DAFEF9
:10338000E5E700004572726F7220616C6C6F6361DB
:1033900074696E673A2025642062797465730D0A3A
:1033A00000000000B543000870B5054600BF34209A
:1033B00000F0E2F804462CB9342109A0FEF7C2FF60
:1033C000032070BD34212046FCF779FF00BF232085
:1033D00020702A460A49204603F0ACFEF1E70000BF
:1033E0004572726F7220616C6C6F636174696E6795
:1033F0003A2025642062797465730D0A000000008C
:10340000B54300081CB5044600F03CFE4FF4E13122
:103410002E4800F093F80CB1204600E02C482B49D0
:103420001439C1F8D8000846D0F8D800C1F8DC003B
:1034300001212648143800F0E1FE0A212348103803
:1034400000F028FE0A2121480C3800F023FE00205D
:103450004FF480611D4B143B1E4ACDE900101EA1A4
:1034600003F10C0000F013FF00204FF48061174BB4
:10347000143B1C4ACDE900101BA103F1100000F021
:1034800006FF4FF480611148001DFFF76DFC00201E
:1034900000F0F2FB0021012000F0C0FC002101201F
:1034A00000F05CFC0021012002F074FC0020FFF71A
:1034B0007BFF00200549143981F8CC000846D0F87C
:1034C000D810CC30884700201CBD0000307100208F
:1034D000992C00081143000870726F64756365725F
:1034E00000000000E142000870726F6365737300B2
:1034F00070B505460C460E48406A08B9032070BDF9
:10350000224629460A481830FFF79AFC002108484D
:10351000083000F03AFE074800682044054908607A
:1035200005480068401C044908600020E7E70000E7
:103530001C71002090010020940100207CB50546FC
:103540000C460A4903C9CDE900010948007828B9A9
:10355000084828600121684600F01FF82046FFF760
:1035600079FA01200249087000207CBD7895000896
:10357000C60100208970000870B5054600F036FECF
:10358000284602F041FF044600BF0CB900BF00BF4F
:1035900000BF00F09DFE204670BD70B504460D468C
:1035A0002946204602F09CFF0646304670BD70B5A5
:1035B00005460E4600F01AFE3146284603F00CF888
:1035C000044600BF0CB900BF00BF00BF00F080FE82
:1035D000204670BD10B5044600F008FE204603F0FA
:1035E0000DF800F075FE10BDF8B504460D4600BF9D
:1035F0004CB900BF4FF4927215A11CA0FEF7A2FEB9
:1036000000BF0420F8BD00BF00BF4DB900BF40F2AD
:1036100025120FA115A0FEF795FE00BF0420F1E7CB
:1036200000BF1D480068844201D00320EAE7002063
:1036300028600022694604F1080000F051FD0646AA
:10364000701C08B90320DDE7009828600020D9E746
:103650002E2E5C7372635C6573705C6573705F6E55
:103660006574636F6E6E2E630000000057726F6E9C
:103670006720706172616D6574657273206F6E2072
:1036800066696C6520257320616E64206C696E65C7
:103690002025640D0A000000BC01002070B504461E
:1036A0000D4600BF4CB900BF40F203120BA112A09F
:1036B000FEF748FE00BF042070BD00BF0121284670
:1036C00000F07CFB061E06D100F090FD154800F0CE
:1036D00031FB00F0FDFD3046EEE700002E2E5C735E
:1036E00072635C6573705C6573705F6E6574636F45
:1036F0006E6E2E630000000057726F6E672070615F
:1037000072616D6574657273206F6E2066696C6599
:1037100020257320616E64206C696E652025640D20
:103720000A000000DD2E000810B5044600BF4CB9A9
:1037300000BF40F27F120AA110A0FEF703FE00BFF7
:10374000042010BD00BF00216068FFF7E1FD0121EA
:103750006068FFF791FC204602F042FC0020F0E791
:103760002E2E5C7372635C6573705C6573705F6E44
:103770006574636F6E6E2E630000000057726F6E8B
:103780006720706172616D6574657273206F6E2061
:1037900066696C6520257320616E64206C696E65B6
:1037A0002025640D0A0000002DE9FE4304460E4664
:1037B000174600BF4CB900BFE5221FA125A0FEF7A8
:1037C000C1FD00BF0420BDE8FE8300BF00BF46B9B5
:1037D00000BFE62218A11FA0FEF7B4FD00BF042021
:1037E000F1E700BF00BF47B900BFE72212A119A04F
:1037F000FEF7A8FD00BF0420E5E700BF207820B158
:10380000012806D0022806D101E0002505E00125A7
:1038100003E0022501E00320D5E700BF012018499D
:103820003B463246CDE90041029029460020FFF791
:1038300079FD80464046C6E72E2E5C7372635C6558
:1038400073705C6573705F6E6574636F6E6E2E630C
:103850000000000057726F6E6720706172616D65C5
:1038600074657273206F6E2066696C652025732005
:10387000616E64206C696E652025640D0A0000008D
:10388000DD2E000810B5044600BF44B900BFCD22AC
:103890000FA116A0FEF756FD00BF042010BD00BF0B
:1038A00004F1080000F056FC18B104F1080000F023
:1038B00007FC04F10C0000F04DFC18B104F10C0001
:1038C00000F0FEFB2046FFF785FE0020E6E7000043
:1038D0002E2E5C7372635C6573705C6573705F6ED3
:1038E0006574636F6E6E2E630000000057726F6E1A
:1038F0006720706172616D6574657273206F6E20F0
:1039000066696C6520257320616E64206C696E6544
:103910002025640D0A00000010B504462CB1606833
:1039200018B16068FFF704FC10BD4FF0FF30FBE7F3
:1039300010B5044600BF4CB900BF4FF48A7208A10D
:103940000EA0FEF7FFFC00BF042010BD00BF00F07A
:103950004DFC1548046000F0BBFC0020F5E70000BA
:103960002E2E5C7372635C6573705C6573705F6E42
:103970006574636F6E6E2E630000000057726F6E89
:103980006720706172616D6574657273206F6E205F
:1039900066696C6520257320616E64206C696E65B4
:1039A0002025640D0A000000BC01002070B505460A
:1039B00010210120FFF7FBFD0446002C18D02570D4
:1039C000052104F1080000F065FB28B900BF15A02F
:1039D000FEF7B8FC00BF0DE00A2104F10C0000F076
:1039E00059FB28B900BF19A0FEF7ACFC00BF01E0ED
:1039F000204670BD04F1080000F0ACFB18B104F1E2
:103A0000080000F05DFB04F10C0000F0A3FB18B10E
:103A100004F10C0000F054FB14B12046FFF7DAFD6E
:103A20000020E6E74E4554434F4E4E3A2043616E28
:103A30006E6F742063726561746520616363657085
:103A400074204D424F580D0A000000004E4554436B
:103A50004F4E4E3A2043616E6E6F74206372656103
:103A600074652072656365697665204D424F580D17
:103A70000A00000070B505460C4600BF4DB900BFF6
:103A800040F26D1213A11AA0FEF75CFC00BF0420E7
:103A900070BD00BF00BF4CB900BF4FF4B7720DA19D
:103AA00013A0FEF74FFC00BF0420F1E700BF002287
:103AB000214605F10C0000F013FB0646701C18B1FE
:103AC00016492068884203D1002020600820DFE7E3
:103AD0000020DDE72E2E5C7372635C6573705C659D
:103AE00073705F6E6574636F6E6E2E63000000000E
:103AF00057726F6E6720706172616D657465727365
:103B0000206F6E2066696C6520257320616E6420CD
:103B10006C696E652025640D0A000000B801002064
:103B2000F8B504460D46164600BF4CB900BF40F23A
:103B30003F1208A10EA0FEF705FC00BF0420F8BD4F
:103B400000BF012000900023324629466068FFF73D
:103B500041FBF4E72E2E5C7372635C6573705C65E9
:103B600073705F6E6574636F6E6E2E63000000008D
:103B700057726F6E6720706172616D6574657273E4
:103B8000206F6E2066696C6520257320616E64204D
:103B90006C696E652025640D0A00000070B505464D
:103BA00005F110010120FFF702FD044600BF2CB90A
:103BB00000BF29460AA0FEF7C5FB00BF00BF00BF3B
:103BC0002CB100BF29460FA0FEF7BCFB00BF00BF11
:103BD0001CB1256004F110006060204670BD00003B
:103BE000504255463A204661696C656420746F20E6
:103BF000616C6C6F63617465202564206279746503
:103C0000730D0A00504255463A20416C6C6F636157
:103C10007465642025642062797465730D0A000060
:103C2000014609B1486870470020FCE710B504461A
:103C300054B100BF05A02168FEF784FB00BF2046F9
:103C4000FFF7C8FC002010BD0320FCE7504255469A
:103C50003A20467265652070627566206C656E203C
:103C600025642062797465730D0A000018B111B1E2
:103C70000B6883608281704770B5054600BF3420B1
:103C8000FFF77AFC04462CB9342109A0FEF75AFB51
:103C9000032070BD34212046FCF711FB00BF022039
:103CA00020702A460A49204603F044FAF1E7000052
:103CB0004572726F7220616C6C6F636174696E67BC
:103CC0003A2025642062797465730D0A00000000B3
:103CD000B543000870B505460E4600BF3420FFF717
:103CE0004BFC04462CB9342109A0FEF72BFB032022
:103CF00070BD34212046FCF7E2FA00BF0720207097
:103D0000656132460A49204603F014FAF0E70000E4
:103D10004572726F7220616C6C6F636174696E675B
:103D20003A2025642062797465730D0A0000000052
:103D3000B543000810B5044600F058FA0CB120460F
:103D400002E00548D0F8D8000349C1F8DC0000F0D3
:103D5000BFFA002010BD00001C71002070B50546A0
:103D60000E4600BF3420FFF707FC04462CB934216F
:103D700009A0FEF7E7FA032070BD34212046FCF7C6
:103D80009EFA00BF29202070257532460A49204638
:103D900003F0D0F9F0E700004572726F7220616C99
:103DA0006C6F636174696E673A2025642062797470
:103DB00065730D0A00000000B543000870B50546A4
:103DC0000E4600BF3420FFF7D7FB04462CB9342140
:103DD00009A0FEF7B7FA032070BD34212046FCF796
:103DE0006EFA00BF2A202070A58232460A4920467A
:103DF00003F0A0F9F0E700004572726F7220616C69
:103E00006C6F636174696E673A202564206279740F
:103E100065730D0A00000000B543000870B5054643
:103E20000E4600BF3420FFF7A7FB04462CB934210F
:103E300009A0FEF787FA032070BD34212046FCF765
:103E40003EFA00BF14202070257532460A492046EC
:103E500003F070F9F0E700004572726F7220616C38
:103E60006C6F636174696E673A20256420627974AF
:103E700065730D0A00000000B54300082DE9F0410C
:103E800004460D46164603270CB905B9B6B100F035
:103E90001BF898B900F0AAF91CB10A48D0F8E00064
:103EA00020601DB10748D0F8E40028601EB1054825
:103EB000D0F8E8003060002700F00AFA3846BDE884
:103EC000F08100001C71002010B500F08FF9064849
:103ED00090F8040100F0010400F0FAF90CB10020A0
:103EE00010BD0320FCE700001C7100202DE9F04705
:103EF00005460E4617469846DDF8209000BF4DB99E
:103F000000BFDD2213A118A0FEF71CFA00BF042099
:103F1000BDE8F08700BF00BF3420FFF72DFB04464B
:103F20002CB934211BA0FEF70DFA0320F0E7342151
:103F30002046FCF7C4F900BF1520207084F82080CB
:103F40006561A661E7614A461A49204603F0F2F826
:103F5000DEE700002E2E5C7372635C6573705C6537
:103F600073702E630000000057726F6E67207061DF
:103F700072616D6574657273206F6E2066696C6521
:103F800020257320616E64206C696E652025640DA8
:103F90000A0000004572726F7220616C6C6F636181
:103FA00074696E673A2025642062797465730D0A1E
:103FB00000000000B54300082DE9F04705460E4615
:103FC00017469846DDF8209000BF55B900BF40F273
:103FD0000D1213A117A0FEF7B5F900BF0420BDE82C
:103FE000F08700BF00BF3420FFF7C6FA04462CB9A3
:103FF00034211BA0FEF7A6F90320F0E73421204668
:10400000FCF75DF900BF1D2020706561A661E761C6
:1040100084F820804A461A49204603F08BF8DEE7F0
:104020002E2E5C7372635C6573705C6573702E63B7
:104030000000000057726F6E6720706172616D65DD
:1040400074657273206F6E2066696C65202573201D
:10405000616E64206C696E652025640D0A000000A5
:104060004572726F7220616C6C6F636174696E6708
:104070003A2025642062797465730D0A00000000FF
:10408000B543000810B5024800F08CF8012010BDBF
:10409000C00100207CB504460D46084903C9CDE99E
:1040A000000100950021684602F02DFB2060206889
:1040B00008B101207CBD0020FCE7000068950008E5
:1040C00010B50446206802F0B1FB08B1002010BD15
:1040D000206802F021FB08B90120F8E70020F6E78C
:1040E000F0B587B005460E46144602F002FB0746BF
:1040F00014B94FF0FF3000E02046024601A82968BD
:1041000002F016FB01A807C804AB07C304981028E7
:1041100006D10598306002F0ECFA001B07B0F0BD44
:104120004FF0FF30FAE730B587B004460D46002265
:1041300001A8216802F0FCFA01A807C804AB07C374
:104140000498102804D105982860012007B030BDDC
:104150000020FBE70146086808B1012070470020F5
:10416000FCE770B504460D4602F0C3FA06464FF070
:10417000FF322946206802F029FB18B902F0B9FA8B
:10418000801B70BD4FF0FF30FBE770B504460D4655
:1041900000222946206802F019FB08B9012070BDF1
:1041A0000020FCE738B5044600200090684602F085
:1041B0004AFB2060206808B1012038BD0020FCE7E0
:1041C00010B504464FF0FF31206802F04DFB08B9EE
:1041D000012010BD0020FCE710B50446206802F065
:1041E00038FB08B9012010BD0020FCE710B50248DB
:1041F000FFF7E6FF012010BDC001002038B50446DE
:104200000D46002000900121684602F046FB206028
:10421000206820B11DB90021206802F08BFB2068C6
:1042200008B1012038BD0020FCE710B50446206825
:1042300002F04CFB08B9012010BD0020FCE701464C
:10424000086808B1012070470020FCE710B504465B
:10425000206802F047FB08B9012010BD0020FCE7F0
:1042600070B504460D4602F044FA064615B94FF003
:10427000FF3200E02A461146206802F05BFB18B9C5
:1042800002F037FA801B70BD4FF0FF30FBE72DE9DD
:10429000F04385B004460D4616461F46DDE90C89FD
:1042A00014216846FCF70BF800950196ADF80890CC
:1042B000CDF810803946684602F07AFB206020680D
:1042C00018B1012005B0BDE8F0830020FAE7000036
:1042D00010B50248FFF780FF012010BDC00100208B
:1042E00008B5FFF783FF10E0FFF7F2FF0A226946E7
:1042F0000648FFF7F5FE0446FFF778FF601C08B19B
:10430000009800B900BF01F0A5FAEDE72471002084
:1043100008B504462646FFF769FF47E0FFF7D8FFD8
:10432000002269462248FFF7DBFE0546FFF75EFFE5
:10433000681C08B1009800B938E01D49091F0098B1
:10434000C8620098006900B3FFF7C2FF0021304641
:10435000FFF786FFFFF74AFF009801698847074685
:104360007FB9FFF7B5FF00213046FFF779FF05461B
:10437000FFF73CFF3046FFF769FF681C30B905279F
:1043800004E03046FFF762FF00E0032700988068F2
:1043900020B10098001DFFF759FF02E00098FFF7D9
:1043A00019F900200249091FC86200BFB6E70000E2
:1043B0002071002001B588B0089840781D2872D07F
:1043C00017DC172870D00CDC14286ED004DC02280F
:1043D00026D007286AD12BE0152851D01628F9D10C
:1043E000A1E01838052861D2DFE800F0F7F6F5F40F
:1043F000E0001E381228F6D2DFE810F0D90059018B
:1044000058005800580081039902D4037E035403D6
:104410005800B30365025800580058005800920332
:10442000FE48406908210790FDA0079A9047DCE309
:104430000898406906A9059002F03EF9F7484069DE
:104440000C210590F9A0059A904706A8FBF754FFA8
:1044500080B20590F1484069049006A8DDE9042186
:104460009047EE48406908210590F4A0059A9047CE
:10447000EA48406902210590F3A0059A9047B4E309
:10448000E648406909210790F0A0079A90470898EC
:1044900090F8200058B1E148406905210790EEA04E
:1044A000079A90470AE001E145E064E09BE3DB48BE
:1044B000406905210790EAA0079A9047089840694B
:1044C00000220121079002F099FED448406903219F
:1044D0000790E5A0079A904708988069002201217B
:1044E000079002F08BFECD48406901210790DBA0C8
:1044F000079A90470898C06968B1C8484069012187
:104500000790DAA0079A90470898C0690122002115
:10451000079002F0C5FDC148406902210790CAA07A
:10452000079A904761E3BD4840690A210790D0A0EF
:10453000079A904759E3B948406908210790CFA0EE
:10454000079A90470898406968B1B44840690121CA
:104550000790CDA0079A904708984069012211461C
:10456000079002F04BFEAD48406902210790B6A0CB
:10457000079A904739E30898007D3030C0B2079021
:10458000A64840690A210690C0A0069A9047A34811
:1045900040690121069007A8069A90479F48406904
:1045A00002210690A8A0069A90471EE300BF9B48F0
:1045B000406906210790B8A0079A9047089840786C
:1045C0001C280BD19548406903210790B4A0079A95
:1045D00090470AE0D6E029E0D3E026E08F48406922
:1045E00002210790AFA0079A904708980178407879
:1045F00081420BD1089890F8200038B18748406973
:1046000004210790A8A0079A904706E083484069D4
:1046100004210790A6A0079A90478048406903218B
:104620000790A5A0079A9047DFE200BF7B4840694A
:104630000621079098A0079A904708984078182874
:1046400007D1764840690321079095A0079A9047C3
:1046500006E0724840690221079092A0079A9047AD
:104660006E4840690321079094A0079A90470898E4
:104670000178407881420AD10898007E38B16748B5
:1046800040690421079088A0079A904706E0634894
:1046900040690421079086A0079A90475F484069C7
:1046A0000321079084A0079A90479EE200BF5B48D1
:1046B00040690621079078A0079A904708984078AB
:1046C0001D2807D1554840690321079074A0079A17
:1046D000904706E0514840690221079071A0079A6F
:1046E000904708980178407881420BD1089890F85B
:1046F000200038B149484069042107906AA0079A10
:10470000904706E0454840690421079068A0079A51
:10471000904742484069012107905BA0079A904763
:104720000898406901221146079002F0B9FC0898E8
:104730008069F0B139484069012107904BA0079A80
:1047400090470898806901221146079002F0A8FC62
:104750000898C06968B1314840690121079043A0B9
:10476000079A90470898C06901221146079002F005
:1047700097FC2A4840690221079033A0079A904786
:1047800033E200BF254840690621079042A0079AFE
:10479000904708984078192807D12048406903219C
:1047A00007903FA0079A904706E01C484069022105
:1047B00007903CA0079A904718484069032107904A
:1047C0003EA0079A904708980178407881420AD124
:1047D0000898007E38B1114840690421079032A042
:1047E000079A904706E00D4840690421079030A0E1
:1047F000079A9047094840690121079022A0079A2B
:1048000090470898406901220021079002F048FC77
:1048100002484069022107900BA051E01C71002062
:1048200041542B5253540D0A0000000041542B55A3
:104830004152545F4355523D000000002C382C314A
:104840002C302C30000000000D0A000041542B4396
:10485000574A41505F0000004445463D2200000099
:104860004355523D22000000222C22002C00000063
:1048700041542B43575141500D0A000041542B43E2
:10488000574C4150000000003D00000041542B43B4
:10489000574D4F44453D000041542B4349500000C3
:1048A00053544100415000005F4445460000000061
:1048B0005F435552000000003F0D0A004D41430088
:1048C000079A904791E1CA4840690D210590C9A017
:1048D000059A90470898808AC8B10898808A06A9E6
:1048E000059001F0E9FEC248406902210590C5A08B
:1048F000059A904706A8FBF7FFFC80B20590BC48DC
:104900004069049006A8DDE90421904706E0B84814
:10491000406901210590BCA0059A9047B4484069C0
:1049200002210590AFF2E000059A90475DE100207A
:10493000079006900021089880F82810042007901E
:1049400028E0079800EB4001A948343000EBC10093
:10495000007D00F0010038B1A54890F83000012238
:1049600007998A40104088B9079800EB4001A04899
:10497000343000EBC10006900798C1B20698417030
:104980000798C1B2089880F8281006E00798401EE2
:1049900040B2079007980028D3DA00BF069810B9F4
:1049A000062009B000BD0898406918B1089906981A
:1049B000496908608E4840690C21039093A0039ACE
:1049C0009047069840783030C0B28DF81000884883
:1049D00040690121039004A8039A904784484069E4
:1049E000022103908DA0039A90470898807F0228A7
:1049F00007D17F4840690321039089A0039A90471B
:104A000015E00898807F38B9794840690321039000
:104A100084A0039A90470AE00898807F012806D175
:104A200073484069032103907FA0039A9047704820
:104A3000406903210390AFF2D010039A9047089881
:104A400080690290FBF758FC80B203900898806957
:104A50000290674840690190DDE901200399904781
:104A6000634840690221039070A0039A9047089818
:104A7000808B04A9039001F01FFE04A8FBF73CFC07
:104A800080B203905A484069029004A8DDE90221EF
:104A900090475748406902210390AFF25420039A8F
:104AA0009047A2E0089840690690FEF74EFB08B9CF
:104AB000032076E74E4840690C2106905CA0069AD8
:104AC00090470898406920B1089840694078303094
:104AD00000E03520C0B207904548406901210690AA
:104AE00007A8069A90474248406902210690AFF213
:104AF000A820069A904778E001F0CAF951E73C48AF
:104B000090F830003A4981F83100002081F83000F7
:104B1000084640690E21079049A0079A904764E033
:104B2000334840690C21079049A0079A904708989C
:104B3000007D38B12E4840690121079048A0079AAE
:104B4000904706E02A484069012107902EA0079A65
:104B5000904727484069022107903CA0079A904758
:104B600043E0234840690A2107903EA0079A9047F6
:104B70000898007D38B11E4840690121079038A08F
:104B8000079A904706E01A484069012107901EA045
:104B9000079A904716484069022107902BA0079A70
:104BA000904722E0124840690E21049030A0049AF8
:104BB00090470898406905A9049001F07DFD05A87B
:104BC000FBF79AFB80B2049009484069039005A85E
:104BD000DDE90321904706484069022104901BA0AB
:104BE000049A904701E00320DBE600BF0020D8E6EE
:104BF0001C71002041542B43495053455256455295
:104C00003D000000312C00003000000041542B43D7
:104C1000495053544152543D000000002C220000E2
:104C200053534C005443500055504400222C000074
:104C300041542B434950434C4F53453D0000000025
:104C400041542B4349505354415455530D0A0000CD
:104C500041542B43495044494E464F3D000000000B
:104C60003100000041542B4349504D55583D000040
:104C700041542B43495053534C53495A453D00002E
:104C80000246002100BF0AE001EB4103064800EBA9
:104C9000C300904201D101207047481CC1B20529D0
:104CA000F2D30020F8E700005071002031B5002455
:104CB000684600F0D4F9C4B2294890F830000121C8
:104CC000A1400843264981F8300001230022114603
:104CD000684600F08BFD002510E0684600F0BFF943
:104CE000C1B204EB44021E48343000EBC200801C09
:104CF00041550098401C0090681CC5B2042DECDBA7
:104D0000684600F0ACF981B204EB44021448343038
:104D100000EBC200C180684600F0A1F981B204EB4B
:104D200044020F48343000EBC2000181684600F0B5
:104D300096F908B9012000E0002004EB440208497C
:104D4000343101EBC201097D60F3410104EB4402FF
:104D50000348343000EBC2000175002038BD00006C
:104D60001C71002013B50C4664B16078172809D176
:104D7000A06938B1D4E90701814203D22078617873
:104D8000884201D000201CBD009800782B2802D159
:104D90000098C01D0090009810F8011B0090282971
:104DA00001D00020EFE7684600F059F9C1B2206A4F
:104DB00000EB0010A26902F81010206A00EB00104E
:104DC000A26902EB4000411C01231522684600F055
:104DD0000DFD684600F043F901B2206A00EB0010B7
:104DE000A26902EB4000C182206A00EB0010A269B8
:104DF00002EB400000F11801684600F0EBF868464D
:104E000000F02DF9C1B2206A00EB0010A26902EB9C
:104E100040008177684600F022F941B2206A00EB39
:104E20000010A26902EB4000C177684600F017F954
:104E3000C1B2206A00EB0010A26902EB400080F8CA
:104E40002010009810F8011B0090292901D00020A3
:104E500099E7206A401C2062606A10B1D4E908100A
:104E6000016001208FE70246002011680B78222B99
:104E700000D1491C0B782C2B00D1491C0B78222B1C
:104E800000D1491C1EE00B78302B05DB0B78392B49
:104E900002DC0B78303B12E00B78612B05DB0B78E2
:104EA000662B02DC0B78573B09E00B78412B05DBC6
:104EB0000B78462B02DC0B78373B00E0002303EB3A
:104EC0000010491C0B78302B02DB0B78392BDADD14
:104ED0000B78612B02DB0B78662BD4DD0B78412B32
:104EE00002DB0B78462BCEDD0B782C2B00D1491C36
:104EF0001160704738B505460C4628680090009848
:104F00000078222802D10098401C0090684600F0EA
:104F1000A6F820700098401C0090684600F09FF8AA
:104F200060700098401C0090684600F098F8A070EF
:104F30000098401C0090684600F091F8E0700098DE
:104F40000078222802D10098401C00900098286028
:104F5000012038BD31B5684600F081F8C4B268461A
:104F600000F07DF805461A496846FFF7C3FF68461A
:104F700000F075F881B21648BC38A0F8C01004EBF8
:104F80004401343000EBC1013438D0F8BC00C1F822
:104F9000020004EB44010E48883800EBC1013438AC
:104FA000B0F8C000C88001200949BC3981F8AC00C4
:104FB0000846C0F8B050C0F8B45004EB4401343097
:104FC00000EBC1013438C0F8B810002038BD000033
:104FD000D871002038B505460C4628680090009826
:104FE0000078222802D10098401C00906846FFF704
:104FF0003AFF20700098401C00906846FFF733FF8E
:1050000060700098401C00906846FFF72CFFA0706D
:105010000098401C00906846FFF725FFE07000985C
:10502000401C00906846FFF71EFF20710098401C4E
:1050300000906846FFF717FF6071009800782228FB
:1050400002D10098401C0090009800782C2802D1D2
:105050000098401C009000982860012038BD30B5B1
:1050600002460023002411680878222800D1491C38
:1050700008782C2800D1491C0878222800D1491C26
:1050800008782D2801D10124491C06E00878303821
:1050900003EB830500EB4503491C0878302802DB4D
:1050A00008783928F2DD08782C2800D1491C1160D5
:1050B0000CB1584230BD1846FCE700002DE9FE4F08
:1050C000044600260027B14694F88000022807D144
:1050D00020780D2804D160780A2801D1BDE8FE8F20
:1050E000FDA12046FBF70FF908B9012000E00020E0
:1050F0000646BEB9FAA12046FBF705F920B1FAA190
:105100002046FBF700F908B9012000E0002007461F
:1051100047B9F7A12046FBF7F6F808B9012000E0EF
:105120000020814620782B2869D104222146F2A054
:10513000FBF7F7F818B9601DFFF70CFF4EE1F048D8
:10514000C06A0028FAD0EE48C06A50B1EC48C06A84
:105150004078182805D10A22EAA12046FBF7E1F899
:1051600070B1E748C06A002854D0E548C06A40786A
:105170001A284FD10922E6A12046FBF7D2F8E8BB56
:10518000607A5F2803D104F10E00029013E0A07A48
:105190005F2803D104F10F0002900CE0607A3A28F6
:1051A00003D104F10A00029005E0A07A3A2802D166
:1051B00004F10B000290694602A8FFF70BFF20469E
:1051C00001F0EEF870B1CE48C06A4078182802D1DC
:1051D000CB48EC3001E0CA48FE3000990160BDF8D0
:1051E00004108180C648C06A406990B1C448C06A52
:1051F0004078C349C96A0978884201E00AE0B8E00A
:1052000007D1BF48C06A406900990160BDF8041029
:105210008180E3E0BA48C06A50B1B948C06A4078BA
:105220001C2805D10722BDA12046FBF77AF878B1EA
:10523000B348C06A00287DD0B148C06A40781E28B3
:1052400078D10622B7A12046FBF76BF800287FD162
:105250000020029001908346A948C06A40781C282B
:1052600002D1A748E03001E0A548F2308246A0799B
:105270005F2801D1E57A0DE0E0795F2801D1257B37
:1052800008E0A0793A2801D1E57903E0E0793A28ED
:1052900000D1257A672D0ED0692D02D06E2D20D138
:1052A00014E004F10A000290CDF804A09448C06A0A
:1052B000D0F814B01AE004F10F0002900AF10400D3
:1052C00001908F48C06AD0F818B00FE004F10F00C9
:1052D00002900AF1080001908948C06AD0F81CB019
:1052E00004E0002002900190834600BF00BF0298B6
:1052F00068B3A0795F2802D0E0795F2802D10298D4
:10530000001D0290029800783A2802D10298401CB1
:105310000290694602A8FFF7EDFD204601F040F833
:1053200010B1DDE900100160BBF1000F0FD074482F
:10533000C06A00E00CE050B17148C06A4078704922
:10534000C96A0978884202D10098CBF8000045E08C
:105350006B48C06A4078172840D1062273A12046C6
:10536000FAF7DFFF50BB6648C16A2046FFF7FAFC38
:1053700034E00E226FA12046FAF7D3FF48B9604807
:1053800090F8040120F00200801C5D4981F80401BE
:1053900024E00F226BA12046FAF7C3FF78B95848E2
:1053A00090F8040120F00200554981F804010846F4
:1053B00090F8040120F0010081F804010EE00B22B6
:1053C00064A12046FAF7ADFF40B94D4890F80401BA
:1053D00020F00100401C4A4981F804014848C06A95
:1053E000002806D04648C06A4078022802D10EB193
:1053F0000026E3E04248C06A407823282DD10A22E3
:1054000057A12046FAF78DFF20B904F10B00FFF7F2
:105410004DFCD3E0002E1FD000201BE0384991F84E
:10542000301001228240114009B1012100E0002129
:1054300000EB4003324A343202EBC302127D61F3C7
:10544000000200EB40032E49343101EBC3010A7521
:10545000411CC8B20528E1DBB0E02948C06A4078A9
:10546000262838D106B100262548C06A90F82900C0
:1054700080B3072221463DA0FAF753FFC8B90021A7
:105480001F48C06A80F82910012000F0B3FC0646CE
:1054900006B302201A4981F8CC000846C06A416967
:1054A0001748C0F8D0100146C96A486900F060FC8E
:1054B00084E02FB9092221462EA0FAF732FF48B91D
:1054C00000210F48C06A80F82910002000F092FCEB
:1054D000074655E072E064E04F4B0D0A0000000003
:1054E0004552524F520D0A004641494C0D0A0000E8
:1054F00072656164790D0A002B4950440000000078
:105500001C7100202B4349505354414D414300002E
:105510002B43495041504D41430000002B4349501B
:10552000535441002B434950415000002B43574CEA
:10553000415000005749464920434F4E4E45435481
:10554000454400005749464920444953434F4E4E75
:10555000454354005749464920474F54204950007D
:105560002B434950535441545553000053454E4426
:10557000204F4B0053454E44204641494C0000000B
:10558000E7B103208E4981F8CC000846C06A416922
:105590008B48C0F8D0100146D1F8B80000F0E8FB05
:1055A0000CE08748C06A4078072807D136B18448A4
:1055B000C06A416982481430FDF7C0FF81A12046CE
:1055C000FAF788FEB0F1000854D0A8F1010002906B
:1055D00002A8FFF744FD00F0FF0ABAF1050F48DA10
:1055E0000AEB4A017648343000EBC10585F801A08A
:1055F000287D20F00100401C28757148C06AE0B188
:105600006F48C06A4078242817D16D48C06A90F866
:105610002800504511D1287D20F00200801C2875FB
:105620006748C06A406AE8606548C06A006A2861E5
:105630006348C06A807F28700AE0287D20F002005D
:1056400028755F48D0F8DC00E860002028612870E9
:1056500004205B4981F8CC000846C0F8D050287D72
:10566000C0F34001564880F8D410284600F080FB73
:1056700000BF73E056A12046FAF72CFEB0F10008F7
:1056800006D156A12046FAF725FEB0F100083AD01F
:10569000A8F10100029002A8FFF7E1FC00F0FF0A68
:1056A000BAF1050F2EDA0AEB4A014548343000EB17
:1056B000C10585F801A0287D00F0010008B3287D10
:1056C00020F00100287506203D4981F8CC000846ED
:1056D000C0F8D050287DC0F34001394880F8D4107C
:1056E000284600F045FB3648C06A50B13448C06ACD
:1056F0004078262805D13248C06A4069A84200D1C6
:10570000012700BF2AE04FB32D48C06A30B32C48B0
:10571000C06A4078242821D12948C06A90F828001E
:1057200000EB40012648343000EBC1050520244938
:1057300081F8CC000846C06A81692148C0F8D010C1
:10574000C06A818B1E48A0F8D410C06A817F1C48B3
:1057500080F8D610284600F00BFB00BF1EB917B921
:10576000B9F1000F2AD000251548C06A00B31449CA
:105770004B463A46C86A314600F09CFA0546072D6A
:105780000FD016B9B9F1000F05D000200C49C96A35
:10579000087305460CE003200949C96A08730546E9
:1057A00006E00748C06A8078401C0549C96A8870CD
:1057B000072D02D00248FEF749FD00BF00BF8DE46F
:1057C0001C7100202C434F4E4E4543540D0A0000DF
:1057D0002C434C4F5345440D0A0000002C434F4EC0
:1057E0004E454354204641494C0D0A0070B50546CC
:1057F0000C461E46296808782C2800D1491C0878D8
:10580000222800D1491C002302B1521E18E008785A
:1058100022280AD148782C2805D048780D2802D0B3
:1058200048780A2801D1491C0DE044B1934204D2C2
:10583000087804F8010B5B1C01E006B903E0491C81
:1058400008780028E3D100BF0CB100202070296047
:10585000012070BDF8B51BE2FE4890F8AC000028AE
:105860007ED0FC48D0F8C80048B19DF80010F94837
:10587000D0F8C8004268F748D0F8C4001154F54881
:10588000D0F8C400401CF349C1F8C4000846D0F861
:10589000B400401EC1F8B4000846D0F8C80040B1BA
:1058A0000846D0F8C8000168EA48D0F8C400081AD1
:1058B00002E0E848D0F8B400E649D1F8B4108842D4
:1058C00003D9E448D0F8B4000FE0E248D0F8C800AB
:1058D00040B1E048D0F8C8000168DE48D0F8C40004
:1058E000081A02E0DB48D0F8B400044600BF00BF4D
:1058F000DCB1D848D0F8C80078B1D648D0F8C80094
:105900004268D448D0F8C40011182246D148183053
:10591000FDF73FFA044600BF07E02146CD481830A6
:10592000FDF777FA044600BF00BF64B1C948D0F85C
:10593000C4000119C748C0F8C410D0F8B400011B56
:10594000C448C0F8B410C348D0F8B40070B1C1481E
:10595000D0F8C800002873D0BE48D0F8C41000E0CA
:105960006FE0D0F8C8000068814269D10025B948CD
:10597000D0F8C800002856D00120B64981F8CC00E4
:105980000846D0F8C810C0F8D410D0F8B810C0F845
:10599000D0100146D1F8B80000F0EAF90546012D13
:1059A0000ED000BF00BFAB49D1F8C800FEF73EF9EA
:1059B000022D05D100BF00BF0021A648C0F8C810C5
:1059C000A448D0F8C80070B3A248D0F8B40050B3CF
:1059D000A048D0F8B40040F2B451884203D29D48A8
:1059E000D0F8B40001E040F2B450064600BF00BF5A
:1059F0003046FEF7D3F89749C1F8C80000BF084603
:105A0000D0F8C80008B900BF00BF00BF9148D0F867
:105A1000C80038B18F49B1F8C020D1F8C800BC31F6
:105A2000FEF724F900BF8B48D0F8B40018B9002065
:105A3000884981F8AC0000218648C0F8C41000BF36
:105A40001EE103249DF80000202803DB9DF80000E0
:105A50007E2807DD9DF800000D2803D09DF800008A
:105A60000A2806D1002401207B49087100204871D2
:105A700009E09DF80000802805DB9DF800107648BD
:105A800000F070FA0446032C02D1002072494871DC
:105A9000002C7DD17048007901287AD19DF8000052
:105AA0000A281DD100BF9DF800106C4890F8802096
:105AB00090F88000401C694B83F8800018468154A0
:105AC0000020194691F880101A46505400BF104625
:105AD000FFF7F4FA0020614A82F88000105415E0C4
