:020000040800F2
:10000000987F012069020008C7170008650F0008E3
:10001000C31700087D0400081D250008000000002B
:10002000000000000000000000000000AD0100081A
:100030001505000800000000010200083D19000835
:10004000830200088302000883020008830200087C
:10005000830200088302000883020008830200086C
:10006000830200088302000883020008830200085C
:10007000830200088302000883020008830200084C
:1000800083020008830200088302000800000000C9
:1000900000000000000000000000000083020008D3
:1000A000830200088302000883020008830200081C
:1000B000830200088302000883020008830200080C
:1000C00083020008830200088302000883020008FC
:1000D0008302000845240008C52400080000000031
:1000E0008302000883020008830200080000000069
:1000F0000000000000000000000000008302000873
:100100000000000083020008830200088302000848
:1001100000000000000000000000000000000000DF
:10012000830200088302000883020008830200089B
:100130008302000800000000000000000000000032
:100140000000000000000000000000008302000822
:10015000810400088302000883020008F1240008DB
:100160008302000883020008000000000000000075
:10017000000000000000000000000000000000007F
:1001800000000000830200080000000000000000E2
:100190008302000883020008DFF80CD000F012F997
:1001A000004800476D760008987F01202B4B1968A6
:1001B0000868B0E8F04F80F30988BFF36F8F4FF005
:1001C000000080F3118870470000000006480068B6
:1001D000006880F3088862B661B6BFF34F8FBFF343
:1001E0006F8F00DF00BF00BF08ED00E0DFF80C00FC
:1001F000016841F470010160704700BF88ED00E0C4
:10020000EFF30980BFF36F8F144B1A681EF0100FC5
:1002100008BF20ED108A20E9F04F106008B44FF0BD
:10022000E00080F31188BFF34F8FBFF36F8F08F0AA
:10023000A3FD4FF0000080F3118808BC196808681E
:10024000B0E8F04F1EF0100F08BFB0EC108A80F33A
:100250000988BFF36F8F704700BF00BFAC0000205C
:10026000EFF30580704700000648804706480047C6
:10027000FEE7FEE7FEE7FEE7FEE7FEE7FEE7FEE756
:10028000FEE7FEE74519000899010008A0F14101C9
:10029000192900D82030704740EA01039B0703D09A
:1002A00009E008C9121F08C0042AFAD203E011F8B5
:1002B000013B00F8013B521EF9D27047D2B201E077
:1002C00000F8012B491EFBD270470022F6E710B55B
:1002D00013460A4604461946FFF7F0FF204610BDB4
:1002E00030B505462A460B4612F8010B13F8014BB0
:1002F00008B1A042F8D01CB1002802D06D1CF1E773
:10030000284630BDCAB2401E10F8011F8A4202D0F2
:100310000029F9D100207047421C10F8011B002968
:10032000FBD1801A704710B5002200E0521C835C9C
:100330008C5CA34201D1002BF8D1D8B2E1B2401AB3
:1003400010BD30B505460020034600E05B1C93421B
:1003500005D2EC5CC85C201A01D1002CF6D130BD6E
:100360002DE9F05F0546002092469B4688460646EA
:10037000814640241BE0284641464746224600F07D
:1003800042F853465A46C01A914110D311461846B6
:10039000224600F029F82D1A67EB01084F46224645
:1003A0000120002100F020F817EB00094E41201E2B
:1003B000A4F10104DFDC484631462A464346BDE845
:1003C000F09F0000064C074D06E0E06840F0010396
:1003D00094E8070098471034AC42F6D3FFF7E0FEEC
:1003E000ECAF00080CB00008202A04DB203A00FA29
:1003F00002F1002070479140C2F1200320FA03F37C
:10040000194390407047202A04DB203A21FA02F079
:100410000021704721FA02F3D040C2F1200291403E
:1004200008431946704770B58C1810F8015B15F039
:10043000070301D110F8013B2A1106D110F8012B56
:1004400003E010F8016B01F8016B5B1EF9D12B077B
:1004500005D40023521E0DD401F8013BFAE710F831
:10046000013BCB1A921C03E013F8015B01F8015B1E
:10047000521EF9D5A142D8D3002070BD00BFFEE7BF
:1004800010B52048007828B91F4800F092FD1E489A
:1004900000F08AFD1C4800F0F7FE08B1002404E0DB
:1004A0000521194800F07AFE84B2C4F5806084B258
:1004B000154800F0E9FE78B1134800F07AFD134AC0
:1004C0001288A11A124A114B1B88D01803F04AF95E
:1004D00000200E49088013E000BF0B484068C0F3BD
:1004E000802068B1084800F05FFD084A1288A11A10
:1004F000074A064B1B88D01803F034F903480480E0
:1005000010BD00006F010020006402406C0100205B
:10051000117600207047000010B508F0F1FF09497E
:10052000096888420CD109F007F807490968401AA0
:1005300006490860064800680968084404490860DC
:1005400010BD00000C010020140100201801002043
:100550001C010020014800687047000004000020D2
:1005600010B52E480068401C2C4908602C480068D3
:1005700020B12B480068401E29490860002444E04F
:10058000284850F8240000283DD0264850F8240080
:100590000078C0F34000B0B3224850F824008068CF
:1005A00040B1204850F824008068401E1D4951F891
:1005B000241088601B4850F82400806818BB194B31
:1005C00053F824301969174B53F8240053F824309A
:1005D000DA689047134850F824004168114850F8F1
:1005E000240081600F4850F82400007800F00100DA
:1005F00048B90C4850F82400006820F0020109486E
:1006000050F824000160601CC4B20648001F007846
:10061000A042B5DC01F01FFA10BD0000040000206C
:1006200000000020B001002010B50D48006840F423
:1006300000700B4908600846006840F4806008605C
:100640000846006840F480700860032000F088F8D5
:100650000F2000F007F800F019F8002010BD00008E
:10066000003C024070B50446074800684FF47A71B8
:10067000B0FBF1F5284600F021FC00222146501E77
:1006800000F02FF8002070BDA4010020704700008A
:1006900000BF00F01F0201219140034A430942F8C4
:1006A000231000BF7047000080E200E000BF00F0B0
:1006B0001F0201219140034A430942F8231000BF61
:1006C0007047000080E100E000BF00F01F02012140
:1006D00091404209920002F1E022C2F8001100BFED
:1006E00070472DE9F05F80460D461646002701F061
:1006F0006BF8074639462A46334601F00700C0F139
:10070000070ABAF1040F02D94FF0040A01E0C0F160
:10071000070AD14600F1040ABAF1070F02D24FF0DE
:10072000000A01E0A0F1030AD4464FF0010A0AFAD8
:1007300009FAAAF1010A0AEA020A0AFA0CFA4FF0C7
:10074000010B0BFA0CFBABF1010B0BEA030B4AEAB2
:100750000B042146404601F03FF8BDE8F09F000041
:1007600000BF00F00702064B19684FF6FF0319405F
:10077000044B0B4343EA0221014B196000BF704751
:100780000CED00E00000FA0570B504460D460026A9
:100790006D48006800F00F00A84209D26A490D7048
:1007A0000846006800F00F00A84201D0012070BD8B
:1007B000207800F00200022807D16448006820F089
:1007C000F000A168084361490860207800F001004A
:1007D000002877D06068012807D15C480838006895
:1007E000C0F34040B8B90120E1E76068022802D0B8
:1007F0006068032807D1554808380068C0F3406096
:1008000048B90120D3E7514808380068C0F34000D8
:1008100008B90120CBE74D48006820F0030061686B
:1008200008434A490860FFF795FE064660680128BC
:1008300010D108E0FFF78EFE801B41F2883188421C
:1008400001D90320B3E74148006800F00C000428F8
:10085000F0D137E06068022810D108E0FFF77AFE97
:10086000801B41F28831884201D903209FE7374835
:10087000006800F00C000828F0D123E0606803282D
:1008800010D108E0FFF766FE801B41F288318842F4
:1008900001D903208BE72D48006800F00C000C28DC
:1008A000F0D10FE008E0FFF755FE801B41F28831E0
:1008B000884201D903207AE72448006800F00C0040
:1008C0000028F0D12048006800F00F00A84209D9A4
:1008D0001D490D700846006800F00F00A84201D0C5
:1008E000012064E7207800F00400042807D11748AD
:1008F000006820F4E050E16808431449086020785B
:1009000000F00800082808D11048006820F4604072
:10091000216940EAC1000D49086000F04FF80B4919
:10092000096801F0F001F02292FAA2F2B2FA82F222
:10093000D140074A515CC840064908600F20FFF7C4
:1009400091FE002033E70000003C024008380240DE
:10095000B8AD0008A40100200148006870470000FD
:10096000A401002000B5FFF7F7FF0749096801F46B
:10097000E0514FF4E05292FAA2F2B2FA82F2D14080
:10098000024A515CC84000BD08380240C8AD0008AA
:1009900000B5FFF7E1FF0749096801F460414FF432
:1009A000604292FAA2F2B2FA82F2D140024A515C5B
:1009B000C84000BD08380240C8AD000870B500212D
:1009C000002200230020274C246804F00C0424B1EA
:1009D000042C04D0082C41D103E0234840E02348F4
:1009E0003EE0204C241F246804F03F011D4C241FCE
:1009F000246804F4800484B11C4CB4FBF1F5194C58
:100A0000241F246847F6C076344096FAA6F6B6FA54
:100A100086F6F44005FB04F20FE0134CB4FBF1F54D
:100A2000104C241F246847F6C076344096FAA6F688
:100A3000B6FA86F6F44005FB04F20A4C241F24683B
:100A400004F440344FF4403595FAA5F5B5FA85F530
:100A5000EC40641C6300B2FBF3F001E0024800BF0D
:100A600000BF70BD083802400024F40000127A0074
:100A700038B504460025207800F00100002874D025
:100A8000F748006800F00C0004280DD0F448006816
:100A900000F00C00082813D1F148001F006800F492
:100AA0008000B0F5800F0BD1ED4808380068C0F326
:100AB0004040002859D06068002856D1012038BD38
:100AC00000BF6068B0F5803F08D1E548083800688D
:100AD00040F48030E249083908601EE06068B0F5F3
:100AE000A02F0DD1DE480838006840F48020DC4992
:100AF000083908600846006840F4803008600CE05F
:100B0000D7480838006820F48030D5490839086093
:100B10000846006820F48020086000BF606890B13B
:100B2000FFF718FD054606E0FFF714FD401B64289B
:100B300001D90320C3E7CA4808380068C0F3404021
:100B40000028F1D011E0FFF705FD054606E0FFF7AC
:100B500001FD401B642801D90320B0E7C0480838D4
:100B60000068C0F340400028F1D1207800F0020076
:100B7000022869D1BA48006800F00C0058B1B848A2
:100B8000006800F00C00082821D1B548001F00685B
:100B900000F48000D8B9B24808380068C0F34000BB
:100BA00020B1E068012801D0012088E7AC4808386E
:100BB000006820F0F800F82292FAA2F2B2FA82F26B
:100BC000216991400843A649083908603CE0E06883
:100BD00028B30120A3490860FFF7BCFC054606E0E6
:100BE000FFF7B8FC401B022801D9032067E79C48A7
:100BF00008380068C0F340000028F1D09848083851
:100C0000006820F0F800F82292FAA2F2B2FA82F21A
:100C100021699140084392490839086014E0002096
:100C200090490860FFF796FC054606E0FFF792FC46
:100C3000401B022801D9032041E789480838006891
:100C4000C0F340000028F1D1207800F00800082807
:100C50002CD16069A8B1012083490860FFF77AFCB4
:100C6000054606E0FFF776FC401B022801D9032069
:100C700025E77B486C300068C0F340000028F1D0C5
:100C800014E0002078490860FFF764FC054606E0A0
:100C9000FFF760FC401B022801D903200FE77048D2
:100CA0006C300068C0F340000028F1D1207800F0DB
:100CB000040004287FD100BF00200090684838302D
:100CC000006840F080506649383108600846006886
:100CD00000F08050009000BF00BF6448006840F4FE
:100CE000807062490860FFF735FC054606E0FFF7B3
:100CF00031FC401B022801D90320E0E65B48006874
:100D000000F480700028F2D000BFA068012808D14C
:100D100053486830006840F001005149683108606C
:100D20001DE0A06805280DD14D486830006840F0EE
:100D300004004B49683108600846006840F0010033
:100D400008600CE046486830006820F00100444923
:100D5000683108600846006820F00400086000BFA1
:100D6000A068A0B1FFF7F6FB054608E0FFF7F2FB2D
:100D7000401B41F28831884201D903209FE6384860
:100D800068300068C0F340000028EFD013E0FFF7A0
:100D9000E1FB054608E0FFF7DDFB401B41F288312F
:100DA000884201D903208AE62D4868300068C0F3E4
:100DB00040000028EFD1A069F0B32948006800F096
:100DC0000C00082871D0A069022858D100202549BC
:100DD0000866FFF7BFFB054606E0FFF7BBFB401BBD
:100DE000022801D903206AE61D4808380068C0F3CC
:100DF00040600028F1D1D4E90701084347F6C072EA
:100E000092FAA2F2B2FA82F2616A91400843012298
:100E1000A16AC2EB51014FF4403292FAA2F2B2FA47
:100E200082F2914008434FF0706292FAA2F2B2FA55
:100E300082F2E16A914000E039E008430849091F65
:100E40000860012007490866FFF784FB05460FE0AC
:100E5000FFF780FB401B02280AD903202FE6000081
:100E60000838024000004742800E474200700040B0
:100E700010480068C0F340600028E9D017E0002067
:100E80000D490866FFF766FB054606E0FFF762FBC3
:100E9000401B022801D9032011E606480068C0F370
:100EA00040600028F2D102E0FFE7012007E60020C1
:100EB00005E60000003802400000474270B50446D5
:100EC0002546681EB0F1807F01D301200FE0681E27
:100ED0004FF0E02148610F214FF0FF3000F07CFC23
:100EE00000204FF0E021886107200861002070BDDC
:100EF00010B504460CB9012010BDA06900B100E096
:100F000000BF94F8390028B9002084F83800204642
:100F100000F027F8242084F839002068C06820F405
:100F200000502168C860204601F0D8F820680069A8
:100F300020F49040216808612068406920F02A0070
:100F4000216848612068C06840F400502168C8608A
:100F50000020E063202084F8390084F83A00002063
:100F6000CAE7704700BFFEE7024909680143014A2A
:100F70001160704710380240024909688143014AF4
:100F80001160704710380240024909680143014A64
:100F90001160704724380240024909688143014AC0
:100FA0001160704724380240C16841F48061C1601B
:100FB0007047C16841F40061C16070472DE9F0419C
:100FC00004460D46724E012715F5803F18D1704832
:100FD0001038844206D17805FFF7C6FF7805FFF781
:100FE000CBFFD2E06B48844208D14FF48000FFF77A
:100FF000BBFF4FF48000FFF7BFFFC6E00027C4E04F
:1010000000BF6548405D205820F001006249495DFD
:10101000605000BF5E481038844202D10DB95C4870
:1010200077E05C48844203D115B95A48103070E02B
:1010300057481038844204D1012D02D15448183049
:1010400067E05448844204D1012D02D15148283030
:101050005FE04F481038844204D1022D02D14C4841
:10106000303056E04B48844204D1022D02D1494829
:1010700040304EE046481038844204D1032D02D15E
:101080004348483045E04348844204D1032D02D10F
:10109000404858303DE03E481038844204D1042D89
:1010A00002D13B48603034E03A48844204D1042DF8
:1010B00002D1384870302CE035481038844204D1D1
:1010C000052D02D13248783023E03248844204D1E1
:1010D000052D02D12F4888301BE02D48103884425E
:1010E00004D1062D02D12A48903012E029488442CA
:1010F00004D1062D02D12748A0300AE02448103838
:10110000844204D1072D02D12148A83001E02148B2
:10111000B8300646002030607060B060F06030612A
:101120002120706100222946204600F0B3F815B94D
:101130003F20A06029E0012D03D14FF47460A0602E
:1011400023E0022D03D14FF47C10A0601DE0032D9D
:1011500003D14FF07460A06017E0042D02D13F204E
:10116000E06012E0052D03D14FF47460E0600CE004
:10117000062D03D14FF47C10E06006E0072D03D16B
:101180004FF07460E06000E000273846BDE8F08171
:101190001060024000640240609800080246034864
:1011A000405C1044406880B270470000A8AD000861
:1011B00070B504460D461646F06A00B100BFD6E988
:1011C000021211433269114372691143B26911432A
:1011D000F2691143B26A41EA02002949495D615846
:1011E000284A11400143264A525DA15000BFF06ACF
:1011F00030B3D6E90B01224A525D2244526922F0F3
:10120000070240EA01031A431D4B5B5D23445A6108
:1012100000BF706B1A49495D615821F0C0710143EC
:10122000174A525DA15000BFB06B1549495D615826
:1012300021F4C0010143124A525DA15000BF00BF1A
:1012400070680F49495D2144C86000BF30680C498F
:10125000495D2144886000BF306A0949495D2144E5
:1012600049686FF30F010143054A525D2244516002
:1012700000BF29462046726A00F00CF8012070BDBC
:10128000609800081F80FCFF01464868C0F3C0203A
:101290007047000010B5054B5B5CC35823F06063DA
:1012A0001343024C645C035110BD000060980008B9
:1012B000F0B503460A4600240021106890FAA0F019
:1012C000B0FA80F47FE00125A540106800EA05012E
:1012D000002977D050681D6891FAA1F6B6FA86F613
:1012E00077000326BE40B54391FAA1F6B6FA86F61A
:1012F000760000FA06F635431D6000BF50680128ED
:1013000002D05068022814D190689D6891FAA1F625
:10131000B6FA86F677000326BE40B54391FAA1F6E9
:10132000B6FA86F6760000FA06F635439D6000BFF1
:1013300000BF1069DD6891FAA1F6B6FA86F677006B
:101340000326BE40B54391FAA1F6B6FA86F67600BA
:1013500000FA06F63543DD6000BF5068022831D13F
:1013600091FAA1F0B0FA80F0082814D250691D6AF1
:1013700091FAA1F6B6FA86F6B7000F26BE40B5433D
:1013800091FAA1F6B6FA86F6B60000FA06F63543EB
:101390001D6200BF16E050695D6A0E0A96FAA6F655
:1013A000B6FA86F6B7000F26BE40B5430E0A96FA87
:1013B000A6F6B6FA86F6B60000FA06F635435D6282
:1013C00000BF00BF641C1068E04000287FF47BAFC2
:1013D0005068012802D05068022809D1D5681068E9
:1013E0005E68864300FB05F73E435E6000BF00BFBA
:1013F0000120F0BD10B5044600F036FA20602068E8
:1014000000F0FEF96060606800F00AFAA0606068B1
:1014100000F018FAE06010BD02480068C0F38810C0
:10142000704700000438024070B504460125144896
:10143000844206D11020FFF7A7FD1020FFF7ACFD76
:101440001CE0104884420ED14FF400300E49096868
:1014500001430D4A116000BF00BF11460968814376
:10146000116000BF0AE00948844206D12020FFF73E
:101470008BFD2020FFF790FD00E00025284670BD81
:101480000010014000440040203802400014014098
:10149000C16841F40051C160704700002DE9FF416F
:1014A00004460D4600270026204600F043F8002899
:1014B00035D1E9686868084329690843A969084380
:1014C000E16849F20C6291430843E060A868216931
:1014D00021F440510143216100BF6869616921F431
:1014E00040710143616100BF6846FFF783FF0E480A
:1014F000844201D1039E08E00C48844201D1029E3F
:1015000003E00B48844200D1039E46B1286830B105
:101510000127314620462B68AA6900F010F83846AA
:1015200004B0BDE8F081000000100140004400401C
:10153000001401400146C868C0F340307047F0B560
:10154000B2F5004F4ED101EBC10404EB01145D0074
:10155000B4FBF5F46425B4FBF5F4250101EBC104FB
:1015600004EB01145E00B4FBF6F401EBC10606EBDC
:1015700001165F00B6FBF7F66427B6FBF7F606EB3D
:10158000C60707EB0616A4EB8604322606EBC40456
:101590006426B4FBF6F404F0F80405EB440501EB13
:1015A000C10404EB01145E00B4FBF6F401EBC106C8
:1015B00006EB01165F00B6FBF7F66427B6FBF7F6FD
:1015C00006EBC60707EB0616A4EB8604322606EBED
:1015D000C4046426B4FBF6F404F007042C44A4B25B
:1015E00084604CE001EBC10404EB01149D00B4FBEA
:1015F000F5F401EBC10505EB01159E00B5FBF6F511
:101600006426B5FBF6F505EBC50606EB0515A4EB60
:101610008504322505EB04146425B4FBF5F404F0CD
:10162000F00401EBC10505EB01159E00B5FBF6F5D5
:101630006426B5FBF6F504EB051501EBC10404EBDC
:1016400001149E00B4FBF6F401EBC10606EB011693
:101650009F00B6FBF7F66427B6FBF7F606EBC60766
:1016600007EB0616A4EB8604322606EB0414642668
:10167000B4FBF6F404F00F042C44A4B28460F0BD73
:10168000F0B5B2F5004F4ED101EBC10404EB0114EB
:101690005D00B4FBF5F46425B4FBF5F4250101EB22
:1016A000C10404EB01145E00B4FBF6F401EBC106C7
:1016B00006EB01165F00B6FBF7F66427B6FBF7F6FC
:1016C00006EBC60707EB0616A4EB8604322606EBEC
:1016D000C4046426B4FBF6F404F0F80405EB4405F6
:1016E00001EBC10404EB01145E00B4FBF6F401EB62
:1016F000C10606EB01165F00B6FBF7F66427B6FBE2
:10170000F7F606EBC60707EB0616A4EB86043226AF
:1017100006EBC4046426B4FBF6F404F007042C447E
:10172000A4B284604CE001EBC10404EB01149D0001
:10173000B4FBF5F401EBC10505EB01159E00B5FB0B
:10174000F6F56426B5FBF6F505EBC50606EB0515C3
:10175000A4EB8504322505EB04146425B4FBF5F4F1
:1017600004F0F00401EBC10505EB01159E00B5FB8B
:10177000F6F56426B5FBF6F504EB051501EBC1049F
:1017800004EB01149E00B4FBF6F401EBC10606EB7A
:1017900001169F00B6FBF7F66427B6FBF7F606EBDB
:1017A000C60707EB0616A4EB8604322606EB0414E4
:1017B0006426B4FBF6F404F00F042C44A4B2846055
:1017C000F0BD00BFFEE7704702480068C0F302208A
:1017D000704700000CED00E010B5002807DA0A079A
:1017E000140E054A00F00F031B1FD45403E00A0730
:1017F000130E024A135410BD18ED00E000E400E09F
:10180000014600BF0448006800F0F0000009034AE8
:10181000125C21FA02F0704708380240B8AD0008A7
:10182000014600BF0548006800F4E050044A02EB9E
:101830009020027821FA02F0704700000838024038
:10184000C8AD0008014600BF0548006800F46040CC
:10185000044A02EB5030027821FA02F0704700008F
:1018600008380240C8AD000810B5002400BF0C487D
:10187000006800F00C0020B1042804D0082809D129
:1018800003E0084C08E0084C06E0082000F00EF8E1
:10189000044601E0034C00BF00BF204610BD00001D
:1018A000083802400024F40000127A002DE9F041CB
:1018B000044600250026002700BF1548006800F4F4
:1018C000800006461EB1B6F5800F04D101E0114D2F
:1018D00003E0114D01E00F4D00BF00BF082C14D1F3
:1018E00000BF0B48006800F03F00B5FBF0F8FFF7C1
:1018F00093FD08FB00F80648006800F44030012121
:1019000001EB10404000B8FBF0F73846BDE8F0812D
:10191000043802400024F40000127A0010B507F0E9
:10192000EFFD04490968884203D107F005FE02492A
:10193000086010BD0C0100201401002010B5FEF756
:101940000FFE10BD1448006840F470001249086092
:101950001248006840F001001049086000200F495B
:10196000083108600D4800680D4908400B490860BF
:101970000C48091D0860081F006820F48020091F1A
:101980000860002005490C3108604FF000600249F2
:10199000803908607047000088ED00E000380240A0
:1019A000FFFFF6FE1030002430B5014609B90020D3
:1019B00030BD4A688B689A4200D10C68934200D9C6
:1019C0009C1A9A4202D9D51A0868441B601EEFE798
:1019D0002DE9F0470446894615464FF0000804B14A
:1019E00015B90020BDE8F087D4E90010884201D382
:1019F000002060602046FFF7D7FF0746AF4203D2C2
:101A00000FB90020EEE73D46D4E90001461AAE4288
:101A100000D92E466268E168881832464946FEF7CA
:101A20003BFCB044606830446060AD1B55B10020A1
:101A300060606368E268D01809EB08012A46FEF787
:101A40002BFC6560D4E90010884201D3002060605F
:101A500008EB0500C6E710B506F0F8F810BD000069
:101A60000F48006820F080700D4A10601046006832
:101A700040F0807010600B48006820F00100094AB7
:101A800010601046006840F00100106000205060B7
:101A90001046416800BF00BF02484068401A7047C6
:101AA000FCED00E0001000E01CB500200121034621
:101AB0000246CDE900104903014800F085F81CBD3D
:101AC000000802401CB5032000210B460122CDE98D
:101AD00000102021034800F077F84FF4001001496E
:101AE00088611CBD0000024001464FF40030081A16
:101AF000C0F38F207047000000B502461046FFF784
:101B0000F3FF012101FA00F0024909680843014985
:101B1000086000BD303802402DE9F04304460E460F
:101B20001546DDE907892046FFF7DEFFC7B2002230
:101B300043E001209040304000B93CE0214830F8BB
:101B400017000121914008431E4921F81700E06861
:101B50004FEA420C032101FA0CF18843510008FAC4
:101B600001F10843E06020684FEA420C032101FACA
:101B70000CF18843510005FA01F108432060012D62
:101B800001D0022D16D161680120904080B221EA77
:101B9000000003FA02F189B208436060A0684FEACE
:101BA000420C032101FA0CF18843510009FA01F1BA
:101BB0000843A06000BF501CC2B2102AB9DBBDE8C8
:101BC000F0830000C40100202DE9FC4305460C46CB
:101BD00016461F46DDE909890CB9BDE8FC83284695
:101BE000FFF78AFF3B46324621462846CDE9008969
:101BF000FFF792FF00BFF0E72DE9FC4705460E46D0
:101C000017469846DDE90A9A0EB9BDE8FC872846D2
:101C1000FFF772FF00241AE00120A040304000B915
:101C200014E0E10805F1200050F821006107CA0E18
:101C30000F21914088436107C90E0AFA01F1084358
:101C4000E20805F1200141F8220000BF641C102CBD
:101C5000E2D33B46022231462846CDE90089FFF710
:101C60005BFF00BFD1E7000000B593B000BF0020CC
:101C700001902848006840F08050264908600846D6
:101C8000006800F08050019000BF00BF00BF00203E
:101C900001902148006840F440401F490860084610
:101CA000006800F44040019000BF00BF0120029096
:101CB00000040390002005904FF480010991022058
:101CC000089008210A914FF4C8710B9104210C91DE
:101CD00007210D9102A8FEF7CBFE10B1012013B031
:101CE00000BD02200F900020109007200E900E984B
:101CF00040F008000E904FF4805011900020129098
:101D000006210EA8FEF740FD08B10120E7E70020FC
:101D1000E5E7000040380240007000401CB5044672
:101D20004CB90720032101230022CDE9001049020C
:101D30001548FFF761FF012C09D10720032101237A
:101D40000022CDE90010C0211048FFF755FF022CFA
:101D500013D10720032101230022CDE900105902ED
:101D60000948FFF749FF0720032101230022CDE99D
:101D7000001080210548FFF73FFF032C03D1072106
:101D8000034800F093F91CBD00000240000402402B
:101D9000001001401CB504464CB907200321012363
:101DA0000022CDE900100C210A48FFF725FF012C85
:101DB00009D10720032101230022CDE90010602171
:101DC0000548FFF719FF032C03D10721034800F052
:101DD0006DF91CBD00000240000C024000440040B0
:101DE0001CB504464CB90820032101230022CDE98B
:101DF0000010C0210448FFF7FFFE032C03D1082187
:101E0000024800F053F91CBD0008024000140140D4
:101E100038B505460C462348056000BF00200090F9
:101E200020480068006800901E48006840680090E4
:101E300000BF00BF00BF002000901A480068006883
:101E40000090184800684068009000BF00BF00BFC5
:101E50000020009013480068006800901148006856
:101E60004068009000BF00BF00BF002000900D48F8
:101E70000068006800900B4800684068009000BF50
:101E800000BF00BF00200090064800680068009076
:101E9000044800684068009000BF00BF2046FEF77D
:101EA000F7FB38BD400200200146064A914200D1AE
:101EB0000020054A914200D10120044A914200D1FC
:101EC000062070470010014000440040001401400B
:101ED0002DE9F04F91B004460D4616461F46DDE948
:101EE0001BABDDF868904D48844221D100BF002033
:101EF00000904B48006840F01000494908600846CF
:101F0000006800F01000009000BF00BF4448203877
:101F1000006840F010004249203908600846006817
:101F200020F0100008602846FFF7F8FE4FF0250863
:101F30003C48844223D100BF002000903848001F55
:101F4000006840F400303649091F08600846006800
:101F500000F40030009000BF00BF31482438006812
:101F600040F400302E49243908600846006820F407
:101F7000003008602846FFF70DFF4FF026082A487A
:101F8000844221D100BF002000902548006840F025
:101F90002000234908600846006800F020000090F7
:101FA00000BF00BF1E482038006840F020001C49D8
:101FB000203908600846006820F0200008602846A4
:101FC000FFF70EFF4FF04708019402960797CDF8F0
:101FD0001890CDF814A0CDF810B01D9803900021F2
:101FE00008914046FEF762FB2046FFF75DFF024680
:101FF000062100904046FEF774FB4046FEF764FB66
:102000004046FEF745FB01A8FEF772FFE06840F08E
:102010002000E06011B0BDE8F08F0000001001402A
:1020200044380240004400400014014013B5044607
:10203000012201A92046FFF7CBFC1CBD7FB5044659
:102040000D461646164884420BD100200C23CDE9DC
:102050000030029003463246294603902046FFF79F
:1020600037FF104884420BD100200C23CDE900300B
:10207000029003463246294603902046FFF728FF88
:10208000094884420BD100200C23CDE90030029096
:1020900003463246294603902046FFF719FF7FBDCD
:1020A000001001400044004000140140704710B58A
:1020B0000EE000BF036803F08003002BFAD011F894
:1020C000013B436000BF036803F08003002BFAD09C
:1020D000131EA2F10104A2B2EBD110BD2DE9F04113
:1020E000044600252068056925F44055E06805434D
:1020F000206805612068C56849F20C608543216944
:10210000A068084361690843E16908430543206802
:10211000C5602068456925F44075A06905432068BD
:102120004561E069B0F5004F7ED1C449206888421E
:1021300003D0C349206888425DD1FEF729FC00EB3B
:10214000C00101EB001061684900B0FBF1F06421AF
:10215000B0FBF1F00601FEF71BFC00EBC00101EB48
:10216000001061684900B0FBF1F7FEF711FC00EBCD
:10217000C00101EB001061684900B0FBF1F064217F
:10218000B0FBF1F000EBC00101EB0010A7EB800009
:10219000322101EBC0006421B0FBF1F000F0F80047
:1021A00006EB4006FEF7F4FB00EBC00101EB00106C
:1021B00061684900B0FBF1F7FEF7EAFB00EBC001F4
:1021C00001EB001061684900B0FBF1F06421B0FB45
:1021D000F1F000EBC00101EB0010A7EB8000322111
:1021E00001EBC0006421B0FBF1F000F007003044C7
:1021F0002168886020E1FEF7B5FB00EBC00101EB30
:10220000001061684900B0FBF1F06421B0FBF1F00F
:102210000601FEF7A7FB00EBC00101EB00106168AF
:102220004900B0FBF1F700E045E0FEF79BFB00EB57
:10223000C00101EB001061684900B0FBF1F06421BE
:10224000B0FBF1F000EBC00101EB0010A7EB800048
:10225000322101EBC0006421B0FBF1F000F0F80086
:1022600006EB4006FEF77EFB00EBC00101EB001021
:1022700061684900B0FBF1F7FEF774FB00EBC001A9
:1022800001EB001061684900B0FBF1F06421B0FB84
:10229000F1F000EBC00101EB0010A7EB8000322150
:1022A00001EBC0006421B0FBF1F000F00700304406
:1022B00021688860C0E061492068884203D0604995
:1022C000206888425CD1FEF763FB00EBC00101EBA4
:1022D000001061688900B0FBF1F6FEF759FB00EBD6
:1022E000C00101EB001061688900B0FBF1F06421CE
:1022F000B0FBF1F000EBC00101EB0010A6EB800099
:10230000322101EB00106421B0FBF1F000F0F00687
:10231000FEF73EFB00EBC00101EB00106168890095
:10232000B0FBF1F06421B0FBF1F006EB0016FEF714
:102330002FFB00EBC00101EB001061688900B0FBCE
:10234000F1F7FEF725FB00EBC00101EB001061681F
:102350008900B0FBF1F06421B0FBF1F000EBC001AB
:1023600001EB0010A7EB8000322101EB001064218B
:10237000B0FBF1F000F00F003044216888605BE0B2
:10238000FEF7F0FA00EBC00101EB00106168890074
:10239000B0FBF1F6FEF7E6FA00EBC00101EB00102E
:1023A00061688900B0FBF1F06421B0FBF1F000EB53
:1023B000C00101EB0010A6EB8000322101EB001000
:1023C0006421B0FBF1F000F0F006FEF7CBFA00EB71
:1023D000C00101EB001061688900B0FBF1F06421DD
:1023E000B0FBF1F006EB0016FEF7BCFA00EBC00103
:1023F00001EB001061688900B0FBF1F7FEF7B2FA5B
:1024000000EBC00101EB001061688900B0FBF1F046
:102410006421B0FBF1F000EBC00101EB0010A7EB71
:102420008000322101EB00106421B0FBF1F000F0DC
:102430000F00304421688860BDE8F0810010014041
:102440000014014038B500BF19480068C0F30010FF
:1024500018B31848007800B300BF15480068009012
:1024600000BF13484068009000BF00BF052112481C
:10247000FEF794FEC0F5806084B210480088201AF0
:10248000002808DD0D4A1288A11A0D4A0B4B1B8843
:10249000D01801F067F90948048000BF04480068BB
:1024A000009000BF02484068009000BF00BF38BDE8
:1024B000001001406F010020006402406C01002008
:1024C0001176002010B50848006800F0200030B1F7
:1024D0000548001D0068C1B20448FFF7A7FD26218A
:1024E0000148FFF795FC10BD00440040200000208B
:1024F00010B50848006800F0200030B10548001D04
:102500000068C1B20448FFF791FD47210148FFF779
:102510007FFC10BD001401403800002000BFFEE722
:102520000FB4054B10B503A9044A029800F02CF82B
:1025300010BC5DF814FB00002D690008A801002004
:102540000FB4084B10B504A902AA039800F01CF8B8
:10255000044602A9002000F048FA204610BC5DF8AD
:1025600014FB0000EB29000802E008C8121F08C194
:10257000002AFAD170477047002001E001C1121F04
:10258000002AFBD1704700002DE9FF4F8DB00F46A8
:102590000546002606E025280BD0DDE90F129047FE
:1025A0006D1C761C28780028F5D111B03046BDE8A6
:1025B000F08F0024A246A1460122EC4900E004432A
:1025C00015F8013F203B02FA03F00842F7D12878C2
:1025D0002A2810D06FF02F022878A0F130010929A5
:1025E00014D80AEB8A0102EB410144F0020400EB2B
:1025F000010A6D1CF0E701CF5FEA000A03D544F43D
:102600000054CAF1000A44F002046D1C28782E28F8
:1026100017D115F8010F44F004042A280ED06FF0EA
:102620002F022878A0F1300109290AD809EB890185
:1026300002EB410100EB01096D1CF2E757F8049B26
:102640006D1C28786C280FD006DC4C2817D0682821
:102650000DD06A2814D104E0742810D07A280FD144
:102660000DE044F400140AE044F4801401E044F462
:1026700040146978814202D104F580146D1C6D1CF0
:102680002A786E2A1FD00CDC632A31D004DC002AA1
:102690008BD0582A11D1A3E0642A68D0692A0CD1C2
:1026A00065E0732A2ED004DC6F2A73D0702A04D11F
:1026B0009BE0752A6FD0782A6ED01046DDE90F12A4
:1026C0009047761C50E1C4F30250022806D003283C
:1026D00009D0042801CF09D0066045E101CFF117E8
:1026E000C0E9006140E101CF06803DE106703BE1B9
:1026F00017F8040B8DF8000000208DF80100EB4660
:10270000012003E057F804BB4FF0FF3061074FF0A2
:10271000000102D40DE008F10101884649450FDAB5
:102720008045F8DB1BF808100029F4D108E008F117
:10273000010188468142FADB1BF808100029F6D116
:10274000DDE90F23AAEB08008146214600F036F9A7
:10275000304400EB080604E0DDE90F121BF8010B22
:102760009047B8F10108F7D221464846F7E00A2120
:10277000C4F302534FF0000B0891022B04D001CF99
:10278000C117032B09D00AE0FF1D27F00707F7E860
:10279000020108E032E01FE020E000B2C117042B84
:1027A00001D140B2C117031E71F1000307DA4FF0E7
:1027B000000CD0EB0C006CEB01012D2302E0230593
:1027C00004D52B238DF82430012303E0E30701D047
:1027D0002023F7E7984658E00A2110E010210EE088
:1027E00010204FF0000B08900CE010214FF0000B70
:1027F00044F004044FF00809089103E008214FF069
:10280000000B0891C4F30253022B04D001CF002126
:10281000032B06D006E0FF1D27F00707F7E80201AB
:1028200003E080B2042B00D1C0B24FF000082307B0
:102830002BD5702A07D0DDF820C08CF0100C5CEA94
:102840000B0C05D00EE040238DF82430012308E066
:1028500050EA010306D030238DF824308DF825206E
:1028600002239846DDF820C08CF0080C5CEA0B0CC3
:102870000BD150EA010301D1630706D530238DF84F
:1028800024304FF00108A9F10109582A04D038A2D8
:102890000B9208AA0A920BE03AA2F9E75B46089A63
:1028A000FDF75EFD0B9B9B5C0A9A521E0A92137009
:1028B00050EA0102F2D10A98ADEB000000F1200BC2
:1028C000600702D524F4803401E04FF00109D945B6
:1028D00002DDA9EB0B0000E0002000EB0B014144FE
:1028E0000890AAEB010AE00306D4DDE90F23214694
:1028F000504600F063F806444FF0000908E009A9CB
:1029000011F80900DDE90F12904709F10109761C61
:10291000C145F4DBE0030CD5DDE90F232146504629
:1029200000F04CF8064404E0DDE90F123020904737
:10293000761C0899481E08900029F5DC08E00A98E2
:102940000A990078491C0A91DDE90F129047761C1C
:10295000BBF10001ABF1010BF1DC21465046DDE992
:102960000F2300F019F806446D1C1BE6092801002E
:1029700030313233343536373839616263646566F5
:1029800000000000303132333435363738394142B7
:1029900043444546000000002DE9F041044600256F
:1029A0001E461746880404D405E039462020B04767
:1029B0006D1C641EF9D52846BDE8F0812DE9F04173
:1029C000044600251E469046C80301D5302700E086
:1029D0002027880404D505E041463846B0476D1CE1
:1029E000641EF9D52846BDE8F0810A68531C0B60C7
:1029F0001070704770B504460D46224602A1284665
:102A0000FFF79EFD70BD0000253032580000000029
:102A10002DE9F843804639A0FFF782FD3FA0FFF77C
:102A20007FFD02E0012004F0A9FF44480068C0F3E4
:102A3000403080F001000028F4D002E0012004F0D2
:102A40009DFF3E480068C0F3403080F00100002840
:102A5000F4D100F074FF0546002D4CD04AE050221E
:102A600037A1284600F008FF0446002C3BD137A0D0
:102A7000FFF756FD38224049284600F0B3FF0446D0
:102A8000002C27D13DA0FFF74BFD04F088FF064640
:102A900000BF6946284600F083FF0446072C03D197
:102AA00043A0FFF73DFD0CE00021009801F0CDF8B8
:102AB000074639464BA0FFF733FD009801F08EF82A
:102AC000E7E700BF04F06BFF871B39464AA0FFF71A
:102AD00027FD02E04FA0FFF723FD072C06D0284674
:102AE00000F0B2FE02E053A0FFF71AFD4FF47A7037
:102AF00004F044FFB3E7BDE8F883000041504920EB
:102B0000636C69656E743A207468726561642073E1
:102B10007461727465640D0A000000005761697485
:102B2000696E6720666972737420627574746F6E63
:102B3000207072657373210D0A00000010080240B6
:102B40006578616D706C652E6F7267004150492029
:102B5000636C69656E743A20636F6E6E656374654D
:102B600064212057726974696E6720646174612EF4
:102B70002E2E0D0A00000000B89800084150492090
:102B8000636C69656E743A20646174612077657264
:102B900065207772697474656E2C20776169746939
:102BA0006E6720726573706F6E73650D0A000000AA
:102BB00041504920636C69656E743A20636F6E6E94
:102BC000656374696F6E20636C6F736564206279EE
:102BD0002072656D6F746520736572766572210D64
:102BE0000A000000526563656976656420504255AD
:102BF000463A2025640D0A00546F74616C2072659A
:102C000063656976652074696D653A202564206D79
:102C1000730D0A0041504920636C69656E743A2057
:102C200064617461207772697465206572726F7275
:102C3000210D0A0041504920636C69656E743A2089
:102C400063616E6E6F7420636F6E6E656374210DC9
:102C50000A00000010B59EB0044600BF002001909D
:102C60009048006840F010008E49086008460068EF
:102C700000F01000019000BF00BF00BF00200190D5
:102C800088481438006840F001008649143908600B
:102C90000846006800F00100019000BF00BF00BFBF
:102CA000002001900846006840F0010008600846D6
:102CB000006800F00100019000BF00BF00BF0020CD
:102CC00001900846006840F001000860084600686E
:102CD00000F00100019000BF00BF00BF0020019084
:102CE0000846006840F4800008600846006800F468
:102CF0008000019000BF00BF6B48007808BB002037
:102D0000149001201590032013900120129011902F
:102D1000119011A96548FEF7CBFA02201290072006
:102D200016904FF40070119011A96048FEF7C0FA98
:102D3000072016904FF48060119011A95B48FEF7B0
:102D4000B7FA59480078B0B95948FEF76DFB1794A7
:102D5000002018901C904FF400401D9000201A9005
:102D600019900C201B9017A95148FEF797FB50486B
:102D7000FEF78EFB11E000BF4D48C06820F4005004
:102D80004B49C86000BF23464FF4004249494848B8
:102D9000FEF776FC4648FEF77BFB00BF44484069DF
:102DA00040F040004249486100BF00BF0846C0688B
:102DB00040F01000C86000BF3B480078002855D1A3
:102DC0003D49087005213D48FEF7F8F84FF00060D6
:102DD0000B903748001D0290394803900020049062
:102DE0004FF480700590002006904FF480600790AB
:102DF0000020089009904FF480600A9000200C9009
:102E00000D900E900F90109002AA05212B48FEF70E
:102E1000CFF92A4805212B4A525C825842F0080219
:102E2000284B5B5CC25000BF00BF264A525C8258F0
:102E300042F01002234B5B5CC25000BF00BF214A2E
:102E4000525C825842F001021E4B5B5CC25000BFD4
:102E5000002201214420FDF744FC4420FDF734FC0E
:102E600000201949088001201349087001221146E9
:102E70002520FDF736FC2520FDF726FC0A480078C2
:102E800068B901200104094A916100BF04F076FD90
:102E900001200649886100BFC82004F06FFD1EB004
:102EA00010BD0000443802406E01002000000240C6
:102EB0000010014000E1F5056F01002000640240B0
:102EC00011760020A8AD00086C01002070B5044602
:102ED00001F00CF9257D01F07BF9284670BD00005A
:102EE0002DE9F05F0546884691461E46DDE90B7BDD
:102EF000DDF828A000BF15B90320BDE8F09F00BF92
:102F000000BF0EB90320F8E700BF00BFBAF1000F01
:102F100001D10320F1E700BF0FB10020386000BFEE
:102F2000402000F063FC04460CB90220E5E7402194
:102F30002046FDF7CAF900BF2A202070656126628D
:102F4000C4F818A0A763C4F83080A4F8349084F8BB
:102F500036B02846FFF7BAFF84F83C000249204605
:102F60000D9A03F047FBC8E7E943000870B5054632
:102F70000820164981F8780300241DE004EB840141
:102F80001248383000EBC10090F8240000F0010036
:102F900080B104EB84010D48383000EBC1013838B2
:102FA000C0F87C1304EB840200F1380101EBC2008D
:102FB00003F00EFB601C84B2142CDFDB00220449FA
:102FC0004FF4FA7001F076F970BD0000DC7100205A
:102FD0006D2F000801460020704700002DE9F05FCA
:102FE00007460E4690461D46DDE90BABDDF82890FE
:102FF00000BF17B90320BDE8F09F00BF00BF3EB17E
:1030000026B13046FDF788F9402801D90320F2E7C0
:1030100000BF00BF3DB1022D05D0032D03D0042D0C
:1030200001D00320E7E700BF00BFB8F1800F01DD4A
:103030000320E0E700BF00BFB9F1000F02D0B9F1F3
:103040000A0F01DD0320D6E700BF00BF402000F0DB
:10305000CDFB04460CB90220CDE740212046FDF708
:1030600034F900BF1D2020706761A66184F81D80BF
:10307000257784F81E9084F81FA084F820B00349B7
:1030800020460D9A03F0B6FAB5E70000E9430008C0
:1030900030B5014609B9002030BD4A688B689A42B4
:1030A00001D10C6806E0934201D99C1A02E0D51ABE
:1030B0000868441B601EEFE730B5014609B90020DF
:1030C00030BD4A688B689A4201D1002406E09A42DA
:1030D00001D9D41A02E09D1A0868441B2046EFE784
:1030E0000146D1E90220104470470146D1E901238D
:1030F0009A4203D9D1E90123D01A08E0D1E901327B
:103100009A4203D98B680A68D01A00E00020704701
:1031100070B504460D460CB9002070BD1421204640
:10312000FDF7D3F82560284600F060FBE060E0681A
:1031300008B90020F1E70120EFE770B504460D461D
:103140002046FFF7B9FF0646B54200D93546A068CC
:103150002844A0602168A068884203D32168A06841
:10316000401AA060284670BD2DE9F0470446894604
:1031700015464FF00008CA4604B115B90020BDE855
:10318000F087D4E90010884201D300206060204617
:10319000FFF77EFF0746AF4203D20FB90020EEE7EC
:1031A0003D46D4E90001461AAE4200D92E46626877
:1031B000E168881832465146FDF76EF8B044606801
:1031C00030446060AD1B35B10AEB08012A46E06867
:1031D000FDF762F86560D4E90010884201D3002051
:1031E000606008EB0500CAE710B50446207810B10E
:1031F00001280AD103E007A0FFF792F906E00021B9
:103200004FF4E13000F0ECFD00E000BF00BF002013
:1032100010BD00004465766963652072657365744E
:10322000210D0A002DE9F04106460027304600F046
:10323000AEF80546307802282DD0052802D00728A0
:1032400062D154E0284600F0D3F828B12C690CB1C3
:10325000A56016E0012714E0284600F0E5F878B1F3
:103260003048006860B1002000F069FB04462CB1D2
:10327000A5602146284600F00CF902E0012700E095
:1032800001273FB10021284600F050F814B1204634
:1032900000F016FB3AE0D6F808802C69606878B92F
:1032A000204800680C3000F0D1FE40B121461D4896
:1032B00000680C3000F0E5FE10B9012700E001279E
:1032C0006068401C60608FB954B104F1100000F0D8
:1032D000BDFE28B1414604F1100000F0D2FE10B945
:1032E0000120BDE8F081404600F023FD0EE02C698E
:1032F0004CB104F1100000F0A9FE20B10A4904F11C
:10330000100000F0BEFE01E00220EAE700BF3FB17E
:103310000021284600F00AF814B1204600F0D0FA47
:103320000020DEE7640100206001002070B5054642
:103330000E4600BF0DB9032070BD00BF00BF402086
:1033400000F054FA04460CB90220F5E7402120466B
:10335000FCF7BBFF00BF2B20207065612846FFF7FC
:10336000B5FD2076284603F096FA324602492046FB
:1033700003F040F9E0E70000E943000870B50446B7
:1033800000F0B4FE256900F023FF284670BD014619
:103390000878052802D00878072801D148687047C6
:1033A0000878022801D14868F9E70878042801D193
:1033B0004868F4E70878032801D14868EFE70878FF
:1033C000082801D14868EAE70020E8E770B504461C
:1033D00000255CB1204601F0F5FD38B100F086FE15
:1033E00094F8240000F0010500F0F2FE284670BDBC
:1033F00070B504460025ACB1204601F0E3FD88B16C
:1034000000F074FE94F8240000F0010030B194F84C
:103410002400C0F3400008B1012000E00020054670
:1034200000F0D6FE284670BD70B504460025ACB14C
:10343000204601F0C7FD88B100F058FE94F8240042
:1034400000F0010030B194F82400C0F3400008B946
:10345000012000E00020054600F0BAFE284670BDBD
:103460002DE9FF4107460C4615461E46DDF828802B
:10347000384603F010FA0020234602460146CDE903
:103480000208CDE900563846FFF72AFD04B0BDE832
:10349000F08170B504460D4600F028FE256100F06D
:1034A00097FE002070BD00002DE9F05F05460E4636
:1034B00017469846DDE90BABDDF8289000BF4020A9
:1034C00000F094F9044614B90220BDE8F09F4021B1
:1034D0002046FCF7FAFE00BF2820207027206070ED
:1034E0006561A677A761A4F81C80C4F824A0C4F87D
:1034F00020905A460249204603F07CF8E5E7000098
:10350000E94300082DE9FF5F04468B4615461F4638
:10351000DDF83880D94600BF1CB9032004B0BDE8EF
:10352000F09F00BFA06960B3D4E90701401AA84228
:1035300003D2D4E90701401A00E028460646226A71
:10354000A169881832464946FCF7A6FEB144AD1B76
:10355000206A30442062D4E90710884200D087B145
:1035600000210122206A8DE8070003910A462046C7
:10357000A369FFF7B5FC10B1A06900F05BF900206A
:10358000A06126E04FF4006000F030F98246BAF105
:10359000000F17D04FF4006249465046FCF77CFEFE
:1035A00000200121CB02CDE9003053460246CDE98F
:1035B000021001462046FFF793FC28B1504600F068
:1035C00039F901E00220A9E7A5F5006509F50069D0
:1035D00000BFB5F5006FD5D2A06948B94FF40060BF
:1035E00000F004F9A0614FF40060E0610020206267
:1035F00055B1A06930B12A464946A069FCF74CFE96
:10360000256201E0022089E727B1A06910B12046B8
:1036100003F041F9B8F1000F0AD0A06928B1D4E94C
:103620000701401AC8F8000002E00020C8F80000B6
:10363000002073E7F8B504460D460120064B5022E2
:103640000A210090284600F0E7FB061E01D103483E
:1036500004603046F8BD0000E969000870010020F0
:10366000F8B504460E46154604F108000090002304
:103670002A4631462068FFF745FFE0682844E060AD
:103680002846F8BD1CB504462D4890F8B00320F03C
:1036900001002B4981F8B0030CB1204600E0294815
:1036A0002749C1F884030846D0F88403C1F8880389
:1036B00000F064FC4FF4E1312148283000F078F844
:1036C00001211F4800F01AFD0A211D48001D00F0CD
:1036D0005DFC00204FF48061194B1B4ACDE90010BE
:1036E0001AA103F10C0000F052FD0A211448083021
:1036F00000F04CFC00204FF48061114B164ACDE9DC
:10370000001016A103F1100000F041FD4FF48051AC
:103710000B481430FFF7FCFC094890F8B00320F088
:103720000100401C064981F8B003012000F03EFB77
:1037300000F02CFE012002F03DFF00201CBD000027
:10374000DC710020D52F00081142000870726F64F0
:103750007563657200000000E141000870726F63DC
:103760006573730070B505460C460E48006A08B9CB
:10377000022070BD224629460A481430FFF7F4FCA7
:1037800000210848083000F07CFC0748006820440D
:103790000549086005480068401C0449086000208D
:1037A000E7E70000DC710020300100203401002038
:1037B0007CB505460C460A4903C9CDE90001094814
:1037C000007828B9084828600121684600F01AF8F6
:1037D0002046FFF73FFA01200249087000207CBD17
:1037E000B0AD00086E0100208984000870B5044661
:1037F00000F07CFC204603F05DFF054600F0E8FC8D
:10380000284670BD70B504460D462946204603F093
:10381000BDFF0646304670BD70B504460D4600F04B
:1038200065FC2946204604F02DF8064600F0D0FC41
:10383000304670BD10B5044600F058FC204604F038
:1038400033F800F0C5FC10BD10B5044600BF0CB93C
:10385000032010BD00BF204600F050F80021A068F2
:10386000FFF717FE0121A068FFF760FD204603F077
:103870002BF80020EDE70000FEB504460D46164685
:1038800000BF0CB90320FEBD00BF00BF0DB903206F
:10389000F9E700BF00BF0EB90320F4E700BF012025
:1038A0000649CDE900410290217833462A4600209E
:1038B000FFF7FAFD07463846E5E700002532000825
:1038C00010B5044600BF0CB9032010BD00BF04F1C1
:1038D0000C0000F0BBFB18B104F10C0000F06CFB15
:1038E00004F1100000F0B2FB18B104F1100000F078
:1038F00063FB2046FFF79EFF0020E6E738B504464D
:1039000000BF0CB9032038BD00BF00BF207820B134
:103910002078022801D00320F5E700BF606960B17C
:10392000012000900023E2696169A068FFF798FD1B
:103930006069FFF77FFF002060610020E3E770B55A
:10394000054620210120FFF767FF044674B125706A
:10395000052104F10C0000F019FB00B908E00A2170
:1039600004F1100000F012FB00B901E0204670BD28
:1039700004F10C0000F06AFB18B104F10C0000F037
:103980001BFB04F1100000F061FB18B104F1100002
:1039900000F012FB14B12046FFF74CFF0020E6E7D1
:1039A00070B505460C4600BF0DB9032070BD00BFC1
:1039B00000BF0CB90320F9E700BF0022214605F142
:1039C000100000F009FB0646701C18B1044920687D
:1039D000884203D1002020600720E7E70020E5E7C8
:1039E000600100202DE9FC47044689461546C8467B
:1039F00000BF14B90320BDE8FC8700BF00BF2078DA
:103A000020B12078022801D00320F4E700BF6069CC
:103A100070B3D4E90601401AA84203D2D4E90601E2
:103A2000401A00E02846064636B1E2696169881806
:103A300032464946FCF730FCB044E0693044E0616E
:103A4000AD1BD4E90610884210D10120009001ABD3
:103A5000D4E90512A068FFF703FD07466069FFF788
:103A6000E9FE002060611FB13846C4E70020C2E7CC
:103A7000B5F5006F13D3C5F30A0A0120A5EB0A02BE
:103A8000009001AB4146A068FFF7EAFC07460FB182
:103A90003846B0E70198804401982D1A00BF0DB94F
:103AA0000020A8E7606948B94FF40060FFF79EFE68
:103AB00060614FF40060A0610020E061606950B176
:103AC000E269616988182A464146FCF7E5FBE0692E
:103AD0002844E06108E00120009000232A4649467E
:103AE000A068FFF7BDFC86E7002084E710B502461A
:103AF000002302B109B9002010BD002904DD90683F
:103B0000884208D3012306E01069441802F11C0022
:103B1000844200D9012343B1106908441061506800
:103B2000401A50609068401A90601846E4E70246D8
:103B300000BF0AB90320704700BF00BF09B90320C6
:103B4000F9E700BF04E050684B6818445060126801
:103B500010680028F7D150684B6818445060116015
:103B60000020E8E72DE9FF4704460F461546B94611
:103B70002CB127B11DB160680399884203D200209F
:103B800004B0BDE8F087039840B103AA204603992A
:103B900004F07CF804460CB90020F1E74FF000086F
:103BA00017E0A0680399401AA84203D2A0680399BD
:103BB000401A00E0284606462069039A81183246DA
:103BC0004846FCF769FBB144AD1BB04400200390AC
:103BD00024680CB1002DE4D14046D1E72DE9F04135
:103BE000054600BF15B90320BDE8F08100BF0026DF
:103BF0002C4611E0A089401E1FFA80F8A4F80C8022
:103C0000B8F1000F07D127682046FFF713FE3C46A6
:103C1000701C86B200E001E0002CEBD100BF304602
:103C2000E2E7F8B505460F46164665B16A463946DD
:103C3000284604F02BF804462CB120690099405C1A
:103C400030700120F8BD0020FCE7024622B109B126
:103C5000506870479068FCE70020FAE72DE9F84FBC
:103C60000746894690461C46CA4657B1B9F1000F2F
:103C700007D0B8F1000F04D004EB0801786888423F
:103C800003D24FF0FF30BDE8F88F3D4602E0A86850
:103C9000241A2D6815B1A868A042F8D900260EE0B4
:103CA000A1196A462846FFF7BCFF28B11AF806009A
:103CB0009DF80010884201D0601CE4E7761C464560
:103CC000EED30020DFE72DE9F04105468846164691
:103CD0001F46BDB1B8F1000F14D0F11968688842D1
:103CE00010D33C460AE02346324641462846FFF7B9
:103CF000B5FF10B92046BDE8F081641C6868801BE0
:103D0000A042F0D24FF0FF30F5E770B5054605F15F
:103D10001C010120FFF780FD044644B10020206013
:103D20006560A56004F11C0020610120A08120468F
:103D300070BD014600BF09B90320704700BF8889E4
:103D4000401C88810020F8E718B111B10B6843616D
:103D50000283704770B504460D4616463246294622
:103D6000204603F093FF70BD2DE9F04106460C4656
:103D700015462046FCF7D0FA07462B463A46214620
:103D80003046FFF76BFFBDE8F0812DE9F0410646B4
:103D90000C4615462046FCF7BFFA07462B463A4626
:103DA00021463046FFF78FFFBDE8F08170B505462C
:103DB00000BF4020FFF71AFD04460CB9022070BD79
:103DC00040212046FCF781FA00BF012020702A46DE
:103DD0000249204602F00EFCF1E70000E94300082A
:103DE00070B505460E4600BF4020FFF7FFFC0446B5
:103DF0000CB9022070BD40212046FCF766FA00BFD6
:103E000007202070656132460249204602F0F2FB2D
:103E1000F0E70000E94300082DE9F04705460E46AB
:103E200017469846DDF8209000BF4020FFF7DEFCE3
:103E3000044614B90220BDE8F08740212046FCF773
:103E400044FA00BF2E2020702F206070A582E682E9
:103E50002783C4F81C804A460249204602F0CAFB68
:103E6000E9E70000E94300082DE9F04104460D466A
:103E7000164602270CB905B9B6B100F01BF898B97F
:103E800000F034F91CB10A48D0F88C0320601DB151
:103E90000748D0F8900328601EB10548D0F8940375
:103EA0003060002700F094F93846BDE8F08100004A
:103EB000DC71002010B500F019F9064890F8B00345
:103EC000C0F3400400F084F90CB1002010BD0220C2
:103ED000FCE70000DC7100202DE9F04705460E46A6
:103EE00017469846DDF8209000BF15B90320BDE8BD
:103EF000F08700BF00BF4020FFF778FC04460CB9F4
:103F00000220F4E740212046FCF7DFF900BF15202E
:103F1000207084F820806561A661E7614A46024905
:103F2000204602F067FBE2E7E94300082DE9F0478D
:103F300006460F4690461D46DDF820900DB1002044
:103F4000286000BF4020FFF751FC044614B902204E
:103F5000BDE8F08740212046FCF7B7F900BF1720E5
:103F600020706661A761C4F81C8065624A460249F8
:103F7000204602F03FFBEBE7E943000810B502489A
:103F800000F08CF8012010BD680100207CB50446CB
:103F90000D46084903C9CDE9000100950021684696
:103FA00003F007FD2060206808B101207CBD0020DF
:103FB000FCE70000A0AD000810B50446206803F03F
:103FC0008BFD08B1002010BD206803F0FBFC08B990
:103FD0000120F8E70020F6E7F0B587B005460E4669
:103FE000144603F0DCFC074614B94FF0FF3000E044
:103FF0002046024601A8296803F0F0FC01A807C882
:1040000004AB07C30498102806D10598306003F06C
:10401000C6FC001B07B0F0BD4FF0FF30FAE730B52B
:1040200087B004460D46002201A8216803F0D6FCA3
:1040300001A807C804AB07C30498102804D1059849
:104040002860012007B030BD0020FBE7014608686A
:1040500008B1012070470020FCE770B504460D460A
:1040600003F09DFC06464FF0FF322946206803F01E
:1040700003FD18B903F093FC801B70BD4FF0FF30B7
:10408000FBE770B504460D4600222946206803F080
:10409000F3FC08B9012070BD0020FCE738B50446E8
:1040A00000200090684603F024FD2060206808B1DD
:1040B000012038BD0020FCE710B504464FF0FF3169
:1040C000206803F027FD08B9012010BD0020FCE79F
:1040D00010B50446206803F012FD08B9012010BD98
:1040E0000020FCE710B5FCF735FA10BD10B502480A
:1040F000FFF7E2FF012010BD6801002038B504463B
:104100000D46002000900121684603F01CFD206050
:10411000206820B11DB90021206803F061FD2068EE
:1041200008B1012038BD0020FCE710B50446206826
:1041300003F022FD08B9012010BD0020FCE7014674
:10414000086808B1012070470020FCE710B504465C
:10415000206803F01DFD08B9012010BD0020FCE718
:1041600070B504460D4603F01AFC064615B94FF02B
:10417000FF3200E02A461146206803F031FD18B9ED
:1041800003F00DFC801B70BD4FF0FF30FBE72DE905
:10419000F04385B004460D4616461F46DDE90C89FE
:1041A00014216846FCF791F800950196ADF8089047
:1041B000CDF810803946684603F050FD2060206835
:1041C00018B1012005B0BDE8F0830020FAE7000037
:1041D00010B50248FFF77CFF012010BD68010020E8
:1041E00008B5FFF783FF10E0FFF7F2FF0A226946E8
:1041F000064800F0D5F80446FFF778FF601C08B1C8
:10420000009800B900BF02F0EFF8EDE7E47100207C
:1042100008B504462646FFF769FF47E0FFF7D8FFD9
:10422000002269462248FFF7D7FE0546FFF75EFFEA
:10423000681C08B1009800B938E01D49091F0098B2
:10424000C8620098006900B3FFF7C2FF0021304642
:10425000FFF786FFFFF74AFF009801698847074686
:104260007FB9FFF7B5FF00213046FFF779FF05461C
:10427000FFF73CFF3046FFF769FF681C30B90427A1
:1042800004E03046FFF762FF00E0022700988068F4
:1042900020B10098001DFFF759FF02E00098FFF7DA
:1042A000C9FA00200249091FC86200BFB6E7000032
:1042B000E07100202DE9F04705460F4690464FF08B
:1042C000000910210120FFF7A7FA044614B90220C3
:1042D000BDE8F087FFF706FF06462A48006818B1D8
:1042E00029480068A6EB000905EB09006060C4F8E6
:1042F0000880E7602348006830B922480460FFF76F
:10430000F1FE214908603AE01E490968496862687F
:1043100091420CD91B4909684968491B194A12681E
:10432000516018490968216016490C6026E015495A
:10433000086820E061684268891A6160016821B1FB
:10434000016849686268914214D9016831B1016815
:1043500049686268891A0268516007E06168A94289
:1043600004D90849096849682944616001682160E5
:10437000046002E000680028DCD100BF00BF00201C
:10438000A6E70000380100203C01002010B5002203
:1043900002494FF4FA70FFF78DFF10BD6D2F000832
:1043A0002DE9F04105460E46174600BF0D4800684E
:1043B00030B13A4631462846FFF70EFEBDE8F0819F
:1043C00002F0F6FA044634B1224631462846FFF799
:1043D00003FE401C08B903F06FFC00BF00BF40465D
:1043E000ECE700003801002001B588B0089840785B
:1043F000372878D2DFE810F0770037003F00470019
:104400007700770077004F0077007700770077001C
:1044100077007700770077007700770077007700E4
:10442000EF007800C700CF0051010302130195018E
:104430007700B4025201040214019601330377009D
:10444000770077007700CA04A2032405810453048F
:104450007700FE043B03620377008503770039058C
:10446000A5057700D804FE48806A08210790FDA0C2
:10447000079A904773E2FA48806A06210790FCA0E9
:10448000079A9047F6E7F648806A06210790FAA057
:10449000079A9047EEE70898406906A9059003F04F
:1044A00061FAEF48806A0C210590F5A0059A9047C3
:1044B00006A8FBF731FF80B20590E948806A0490B6
:1044C00006A8DDE904219047E548806A08210590A7
:1044D000EFA0059A9047E248806A02210590E5A086
:1044E000059A9047C6E7FAE3DD48806A09210790FC
:1044F000EAA0079A9047089890F8200038B1D84869
:10450000806A05210790E8A0079A904706E0D44802
:10451000806A05210790E6A0079A904708984069AD
:1045200000220121079004F0C1F9CD48806A0321DF
:104530000790E1A0079A904708988069002201211E
:10454000079004F0B3F9C648806A01210790D7A00C
:10455000079A90470898C06968B1C148806A0121EC
:104560000790D6A0079A90470898C06901220021B9
:10457000079003F095FFBA48806A02210790BDA01A
:10458000079A904776E7B648806A0A210790CCA040
:10459000079A90476EE7B248806A08210790CBA03F
:1045A000079A90470898406968B1AD48806A012130
:1045B0000790C9A0079A90470898406901221146C0
:1045C000079004F073F9A648806A02210790A9A019
:1045D000079A90474EE708980078012802D10320F7
:1045E000079002E00898007D079007983030C0B22D
:1045F00006909B48806A0A210590B8A0059A9047CA
:104600009748806A0121059006A8059A904794482A
:10461000806A0221059097A0059A90472AE700BF7B
:104620008F48806A06210790AFA0079A90470898A4
:1046300040781A2806D18A48806A03210790ACA0E6
:10464000079A904708984078202806D18448806AC5
:1046500002210790A7A0079A904708980178407810
:1046600081420BD1089890F8200038B17C48806ACC
:1046700004210790A0A0079A904706E07848806A36
:10468000042107909EA0079A90477548806A0321ED
:1046900007909DA0079A9047ECE600BF7048806A9B
:1046A0000621079090A0079A90470898407818280C
:1046B00006D16B48806A032107908DA0079A904726
:1046C000089840781E2806D16548806A0221079024
:1046D00088A0079A90476248806A032107908BA0C0
:1046E000079A904708980178407881420AD1089843
:1046F000007E38B15A48806A042107907EA0079A4C
:10470000904706E05648806A042107907CA0079AEB
:1047100090475348806A032107907BA0079A9047EF
:10472000A8E600BF4E48806A062107906EA0079A4F
:104730009047089840781B2806D14948806A032191
:1047400007906BA0079A904708984078212806D1D7
:104750004348806A0221079066A0079A904708980C
:104760000178407881420BD1089890F8200038B148
:104770003B48806A042107905FA0079A904706E0B3
:104780003748806A042107905DA0079A9047344813
:10479000806A0121079050A0079A904708984069C5
:1047A00001221146079003F07BFE08988069F0B162
:1047B0002B48806A0121079040A0079A90470898EB
:1047C000806901221146079003F06AFE0898C069CB
:1047D00068B12348806A0121079038A0079A904762
:1047E0000898C06901221146079003F059FE1C4841
:1047F000806A022107901FA0079A9047ABE300BF91
:104800001748806A0621079037A0079A90470898B2
:104810004078192806D11248806A0321079034A0F5
:10482000079A9047089840781F2806D10C48806A5C
:10483000022107902FA0079A90470948806A032118
:10484000079032A0079A90470898017840788142F3
:1048500066D10898007E08B1014859E060E0000088
:10486000DC71002041542B5253540D0A000000000B
:10487000415445300D0A0000415445310D0A0000F5
:1048800041542B554152545F4355523D00000000A6
:104890002C382C312C302C300000000041542B439C
:1048A000574A41505F0000004445463D2200000049
:1048B0004355523D22000000222C22002C00000013
:1048C00041542B43575141500D0A000041542B4392
:1048D000574C4150000000003D00000041542B4364
:1048E000574D4F44453D000041542B434950000073
:1048F00053544100415000005F4445460000000011
:104900005F435552000000003F0D0A004D41430037
:10491000806A04210790AFF22000079A904707E0D1
:10492000F748806A04210790AFF22C00079A90475D
:10493000F348806A01210790AFF26400079A90471C
:104940000898406901220021079003F0A9FDEC4876
:10495000806A02210790AFF2E400079A9047FAE2DA
:10496000E748806A08210790E6A0079A90470898D0
:1049700090F8200040B1E248806A04210790AFF22D
:104980008800079A904707E0DD48806A0421079075
:10499000AFF29400079A9047D948806A01210790A6
:1049A000AFF2CC00079A904708984069012211465F
:1049B000079003F07BFFD248806A01210790AFF295
:1049C0000410079A904708988069012211460790C1
:1049D00003F06CFFCA48806A01210790AFF22410EF
:1049E000079A90470898407F0021079003F0A2FDA6
:1049F000C348806A01210790AFF24010079A9047A0
:104A00000898007F0021079003F094FDBC48806A5D
:104A100001210790AFF25C10079A90470898807FB9
:104A20000021079003F086FDB548806A01210790B8
:104A3000AFF27810079A90470898C07F08B101201C
:104A400000E000200021079003F074FDAC48806A6C
:104A500002210790AFF2E410079A90477BE2A84842
:104A6000806A0A210790AAA0079A904773E2A44897
:104A7000806A0D210790A9A0079A90470898808A1C
:104A800068B19F48806A02210790A8A0079A9047C2
:104A90000898808A0021079003F04CFD06E09848B2
:104AA000806A01210790A2A0079A90479448806AE3
:104AB0000221079098A0079A90474CE20898007846
:104AC0002E2809D10898C08A142802DA0898C08ACA
:104AD00000E01420079001E0142007908848806AC5
:104AE0001421069093A0069A90470021079803F09E
:104AF00021FD8348806A0221069087A0069A90478C
:104B000029E2089800782E2803D10898008B079096
:104B100001E0642007907A48806A0A2106908BA001
:104B2000069A90470021079803F004FD7448806AB4
:104B30000221069078A0069A90470CE20020079088
:104B400006900021089880F828101320079028E08C
:104B5000079800EB80016A48383000EBC10090F8FC
:104B6000240000F0010030B16548006B0122079974
:104B70008A40104088B9079800EB800160483830BF
:104B800000EBC10006900798C1B2069841700798E3
:104B9000C1B2089880F8281006E00798401E40B27D
:104BA000079007980028D3DA00BF069810B90520AF
:104BB00009B000BD0898406918B10899069849697C
:104BC00008604F48806A0C21039063A0039A9047C5
:104BD0000021079803F0AEFC4948806A0221039047
:104BE00061A0039A90470898807F022807D1444823
:104BF000806A032103905DA0039A904715E008980E
:104C0000807F38B93E48806A0321039058A0039AF8
:104C100090470AE00898807F012806D13848806ACA
:104C20000321039053A0039A90473548806A0321DB
:104C30000390AFF27C30039A904708988069029005
:104C4000FBF76AFB80B203900898806902902C48B9
:104C5000806A0190DDE90120039990472848806A25
:104C60000221039044A0039A90470898808B04A9DE
:104C7000039002F077FE04A8FBF74EFB80B203908E
:104C80001F48806A029004A8DDE9022190471C4871
:104C9000806A0221039020A0039A90475BE1089864
:104CA000406970B1089840690790FEF78FFB30B1FA
:104CB00008984069017D0898007E814201D0022059
:104CC00076E70F48806A0C2107902CA0079A90473E
:104CD0000898406920B108984069407801E038E1BF
:104CE00014200021079003F025FC0548806A02216A
:104CF000079009A0079A90472DE101F017FD57E7AB
:104D0000DC71002041542B435753415000000000F8
:104D100041542B43574C49460D0A000041542B4344
:104D200049505345525645523D000000312C000079
:104D30003000000041542B434950534552564552D0
:104D40004D4158434F4E4E3D0000000041542B430F
:104D5000495053544F3D000041542B434950535444
:104D60004152543D000000002C22000053534C00DF
:104D70005443500055504400222C000041542B4312
:104D80004950434C4F53453D000000007348006BB1
:104D900072494863002008630846806A0E21079024
:104DA0006FA0079A9047D6E06C48806A0C21079064
:104DB0006FA0079A904708980078012802D00898B9
:104DC000007D38B16548806A012107906CA0079A80
:104DD000904707E06148806A01210790AFF2B00078
:104DE000079A90475D48806A022107905FA0079A62
:104DF0009047B0E05948806A0A21079061A0079A5D
:104E0000904708980078012802D00898007D38B1B2
:104E10005248806A0121079059A0079A904707E0FD
:104E20004E48806A01210790AFF2FC00079A904734
:104E30004A48806A022107904CA0079A90478AE06E
:104E40004648806A0E21079051A0079A904708981B
:104E500040690021079003F06DFB4048806A022101
:104E6000079042A0079A904775E03C48806A0E215F
:104E700007904BA0079A90470898007D0021079063
:104E800003F058FB3548806A01210790AFF2D450F7
:104E9000079A9047089890F915000021079003F0B1
:104EA000E3FC08988069A0B1089880690790FBF737
:104EB00033FA70B12948806A01210790AFF204608B
:104EC000079A90470898806901220021079003F013
:104ED000EDFC0898C069A0B10898C0690790FBF77D
:104EE0001BFA70B11D48806A01210790AFF234604F
:104EF000079A90470898C06901220021079003F0A3
:104F0000D5FC0898006AA0B10898006A0790FBF7E2
:104F100003FA70B11148806A01210790AFF2646012
:104F2000079A90470898006A01220021079003F031
:104F3000BDFC0A48806A022107900CA0079A90479E
:104F400009E00648806A1121079019A0079A904746
:104F500001E002202CE600BF002029E6DC710020E1
:104F600041542B4349505354415455530D0A0000AA
:104F700041542B43495044494E464F3D00000000E8
:104F80003100000041542B4349504D55583D00001D
:104F900041542B43495053534C53495A453D00000B
:104FA00041542B434950534E54504346473D000013
:104FB00041542B434950534E545054494D453F0D95
:104FC0000A0000000246002100BF0AE001EB810355
:104FD000064800EBC300904201D101207047481CF5
:104FE000C1B21429F2D30020F8E7000014720020A7
:104FF00013B50C4614B12078342801D000201CBD14
:10500000009800782B2802D100980D3000900322E0
:1050100073A10098FBF795F918B90120616908712F
:105020003AE003226FA10098FBF78BF918B9022030
:105030006169087130E003226BA10098FBF781F9E8
:1050400018B903206169087126E0032267A100985E
:10505000FBF777F918B90420616908711CE0032295
:1050600063A10098FBF76DF918B905206169087113
:1050700012E003225FA10098FBF763F918B906203C
:105080006169087108E003225BA10098FBF759F9F8
:1050900010B90720616908710098001D0090032273
:1050A00056A10098FBF74DF918B9012061694870C5
:1050B0006CE0032252A10098FBF743F918B90220D3
:1050C0006169487062E003224EA10098FBF739F94C
:1050D00018B903206169487058E003224AA100987A
:1050E000FBF72FF918B90420616948704EE00322DC
:1050F00046A10098FBF725F918B9052061694870A9
:1051000044E0032242A10098FBF71BF918B90620DE
:10511000616948703AE003223EA10098FBF711F95B
:1051200018B907206169487030E003223AA100985D
:10513000FBF707F918B908206169487026E00322D7
:1051400036A10098FBF7FDF818B90920616948708D
:105150001CE0032232A10098FBF7F3F818B90A20EB
:105160006169487012E003222EA10098FBF7E9F86C
:1051700018B90B206169487008E003222AA1009841
:10518000FBF7DFF810B90C20616948700098001D2A
:105190000090684600F04DFA616908700098401C64
:1051A0000090684600F045FA616948710098401C1B
:1051B0000090684600F03DFA616988710098401CD3
:1051C0000090684600F035FA6169C8710098401C8B
:1051D0000090684600F02DFA6169488001200EE7D2
:1051E0004D6F6E0054756500576564005468750016
:1051F000467269005361740053756E004A616E0017
:10520000466562004D617200417072004D61790027
:105210004A756E004A756C004175670053657000F1
:105220004F6374004E6F76004465630031B500240F
:10523000684600F0FEF9C4B22948006B0121A14084
:10524000084327490863012300221146684600F0FD
:1052500085FE002510E0684600F0EBF9C1B204EBD2
:1052600084021F48383000EBC200801C4155009872
:10527000401C0090681CC5B2042DECDB684600F0B1
:10528000D8F981B204EB84021548383000EBC20033
:10529000C180684600F0CDF981B204EB8402104869
:1052A000383000EBC2000181684600F0C2F908B94D
:1052B000012000E0002004EB84020949383101EBB1
:1052C000C20191F8241060F3410104EB8402044808
:1052D000383000EBC20080F82410002038BD0000F8
:1052E000DC71002013B50C4664B16078172809D131
:1052F000A06938B1D4E90701814203D220786178EE
:10530000884201D000201CBD009800782B2802D1D3
:105310000098C01D0090009810F8011B00902829EB
:1053200001D00020EFE7684600F083F9C1B2206A9F
:1053300000EB0010A26902F81010206A00EB0010C8
:10534000A26902EB4000411C01231522684600F0CF
:1053500005FE684600F06DF901B2206A00EB00100E
:10536000A26902EB4000C182206A00EB0010A26932
:1053700002EB400000F11801684600F015F968469C
:1053800000F057F9C1B2206A00EB0010A26902EBED
:1053900040008177684600F04CF941B2206A00EB8A
:1053A0000010A26902EB4000C177684600F041F9A5
:1053B000C1B2206A00EB0010A26902EB400080F845
:1053C00020100098401C0090206A401C2062606AF7
:1053D00010B1D4E908100160012094E713B50C4620
:1053E00064B16078222809D1606938B1D4E9060136
:1053F000814203D220786178884201D000201CBD10
:10540000E06900EB8000626902EB4001684600F051
:105410005BF8E06900EB8000626902EB4000011D6F
:10542000684600F0C1F8E069401CE061206A10B1F4
:10543000D4E9071001600120E1E70246002011686D
:105440000B78222B00D1491C0B782C2B00D1491C46
:105450000B78222B00D1491C1EE00B78302B05DB8A
:105460000B78392B02DC0B78303B12E00B78612B88
:1054700005DB0B78662B02DC0B78573B09E00B78D9
:10548000412B05DB0B78462B02DC0B78373B00E029
:10549000002303EB0010491C0B78302B02DB0B7848
:1054A000392BDADD0B78612B02DB0B78662BD4DD30
:1054B0000B78412B02DB0B78462BCEDD0B782C2BA7
:1054C00000D1491C1160704738B505460C46286864
:1054D000009000980078222802D10098401C00908B
:1054E000684600F0A6F820700098401C00906846BE
:1054F00000F09FF860700098401C0090684600F033
:1055000098F8A0700098401C0090684600F091F850
:10551000E07000980078222802D10098401C00908A
:1055200000982860012038BD31B5684600F081F848
:10553000C4B2684600F07DF8054619496846FFF791
:10554000C3FF684600F075F881B21648A0F86C13E6
:1055500004EB8401383000EBC1013838D0F868031F
:10556000C1F8020004EB84010E48383000EBC101A1
:105570003838B0F86C03C88001200A4981F8580314
:105580000846C0F85C53C0F8605304EB840138301F
:1055900000EBC1013838C0F86413002038BD0000AA
:1055A00044750020DC71002038B505460C4628689B
:1055B000009000980078222802D10098401C0090AA
:1055C0006846FFF73AFF20700098401C009068463C
:1055D000FFF733FF60700098401C00906846FFF7AB
:1055E0002CFFA0700098401C00906846FFF725FF34
:1055F000E0700098401C00906846FFF71EFF207185
:105600000098401C00906846FFF717FF60710098F3
:105610000078222802D10098401C00900098007861
:105620002C2802D10098401C00900098286001208E
:1056300038BD30B5024600230024116808782228BE
:1056400000D1491C08782C2800D1491C0878222850
:1056500000D1491C08782D2801D10124491C06E0FD
:105660000878303803EB830500EB4503491C0878C4
:10567000302802DB08783928F2DD08782C2800D1A0
:10568000491C11600CB1584230BD1846FCE70000BF
:105690002DE9FE4F044600260027B04694F880000E
:1056A000022807D120780D2804D160780A2801D17A
:1056B000BDE8FE8FF6A12046FAF735FE08B90120B5
:1056C00000E000200646BEB9F3A12046FAF72BFE03
:1056D00020B1F3A12046FAF726FE08B9012000E028
:1056E0000020074647B9F0A12046FAF71CFE08B98A
:1056F000012000E000208046B8F1000F0CD0EC48FB
:10570000C06A20B1EA48C06A4078012802D000206F
:1057100000F050FF02F0A2FE20782B2869D104226D
:105720002146E4A0FAF70DFE18B9601DFFF7FCFE54
:105730006DE1DF48C06A0028FAD0DD48C06A50B188
:10574000DB48C06A4078182805D10A22DBA1204630
:10575000FAF7F7FD70B1D648C06A002853D0D44894
:10576000C06A40781E284ED10922D7A12046FAF7F8
:10577000E8FDE8BB607A5F2803D104F10E000290D7
:1057800013E0A07A5F2803D104F10F0002900CE02F
:10579000607A3A2803D104F10A00029005E0A07A69
:1057A0003A2802D104F10B000290694602A8FFF7E3
:1057B000FBFE204601F0D2FE68B1BD48C06A4078C9
:1057C000182801D1C34801E0C24812300099016095
:1057D000BDF804108180B648C06A406990B1B448F1
:1057E000C06A4078B249C96A097888420AD101E0A2
:1057F00009E0C8E0AE48C06A406900990160BDF8A0
:105800000410818003E1AA48C06A50B1A848C06A68
:1058100040781A2805D10722AFA12046FAF791FD5A
:1058200078B1A348C06A00287ED0A148C06A4078F9
:10583000202879D10622AAA12046FAF782FD002865
:105840007FD100200290019083469948C06A407839
:105850001A2802D19F480C3801E09E48801D8246DC
:10586000A0795F2801D1E57A0DE0E0795F2801D1C8
:10587000257B08E0A0793A2801D1E57903E0E079B9
:105880003A2800D1257A672D0ED0692D02D06E2DD1
:1058900020D114E004F10A000290CDF804A084485D
:1058A000C06AD0F814B01AE004F10F0002900AF1B7
:1058B000040001907E48C06AD0F818B00FE004F1EF
:1058C0000F0002900AF1080001907948C06AD0F8F0
:1058D0001CB004E0002002900190834600BF00BF8E
:1058E000029868B3A0795F2802D0E0795F2802D1DE
:1058F0000298001D0290029800783A2802D102987E
:10590000401C0290694602A8FFF7DEFD204601F028
:1059100025FE10B1DDE900100160BBF1000F0FD0D2
:105920006348C06A60B100E00BE06148C06A40783B
:105930005F49C96A0978884202D10098CBF8000013
:1059400065E05B48C06A407817280BD1062266A143
:105950002046FAF7F6FC28B95548C16A2046FFF7F9
:10596000C1FC54E05248C06A407834284FD10C2220
:105970005FA12046FAF7E5FCB0BB4D48C16A20465E
:10598000FFF736FB43E004225DA12046FAF7D9FC7D
:1059900050BB09225CA1601DFAF7D3FC60B94448F2
:1059A00090F8B00320F00400001D414981F8B003D5
:1059B000092000F0FFFD2AE00A2256A1601DFAF737
:1059C000C0FC90B93A4890F8B00320F00400384980
:1059D00081F8B003084690F8B00320F0020081F887
:1059E000B0030B2000F0E6FD11E006224CA1601D83
:1059F000FAF7A7FC58B92E4890F8B00320F002003F
:105A0000801C2B4981F8B0030A2000F0D3FD284800
:105A1000C06A002806D02648C06A4078012802D112
:105A20000EB100261BE12248C06A407827282ED1FB
:105A30000A223DA12046FAF784FC20B904F10B00AC
:105A4000FFF7F4FB0BE1002EECD000201CE018491E
:105A5000096B01228240114009B1012100E00021BF
:105A600000EB8003124A383202EBC30292F8242082
:105A700061F3000200EB80030D49383101EBC301F3
:105A800081F82420411CC8B21428E0DBE7E051E093
:105A90004F4B0D0A000000004552524F520D0A00B4
:105AA0004641494C0D0A000072656164790D0A0097
:105AB000DC7100202B495044000000002B4349506A
:105AC0005354414D414300002B43495041504D41F7
:105AD00043000000747500202B434950535441008B
